{
  "address": "0xd8fae753F0122Ab92D75F7dF0D9Ec98Bda4C6903",
  "abi": [
    {
      "inputs": [
        {
          "internalType": "address",
          "name": "_safe",
          "type": "address"
        },
        {
          "internalType": "address",
          "name": "_bullaBanker",
          "type": "address"
        },
        {
          "internalType": "address",
          "name": "_bullaClaim",
          "type": "address"
        },
        {
          "internalType": "address",
          "name": "_batchCreate",
          "type": "address"
        }
      ],
      "stateMutability": "nonpayable",
      "type": "constructor"
    },
    {
      "inputs": [
        {
          "internalType": "address",
          "name": "guard_",
          "type": "address"
        }
      ],
      "name": "NotIERC165Compliant",
      "type": "error"
    },
    {
      "anonymous": false,
      "inputs": [
        {
          "indexed": true,
          "internalType": "address",
          "name": "previousAvatar",
          "type": "address"
        },
        {
          "indexed": true,
          "internalType": "address",
          "name": "newAvatar",
          "type": "address"
        }
      ],
      "name": "AvatarSet",
      "type": "event"
    },
    {
      "anonymous": false,
      "inputs": [
        {
          "indexed": false,
          "internalType": "string",
          "name": "version",
          "type": "string"
        },
        {
          "indexed": true,
          "internalType": "address",
          "name": "safe",
          "type": "address"
        },
        {
          "indexed": true,
          "internalType": "address",
          "name": "moduleAddress",
          "type": "address"
        },
        {
          "indexed": true,
          "internalType": "address",
          "name": "initiator",
          "type": "address"
        }
      ],
      "name": "BullaBankerModuleDeploy",
      "type": "event"
    },
    {
      "anonymous": false,
      "inputs": [
        {
          "indexed": false,
          "internalType": "address",
          "name": "guard",
          "type": "address"
        }
      ],
      "name": "ChangedGuard",
      "type": "event"
    },
    {
      "anonymous": false,
      "inputs": [
        {
          "indexed": false,
          "internalType": "uint8",
          "name": "version",
          "type": "uint8"
        }
      ],
      "name": "Initialized",
      "type": "event"
    },
    {
      "anonymous": false,
      "inputs": [
        {
          "indexed": true,
          "internalType": "address",
          "name": "previousOwner",
          "type": "address"
        },
        {
          "indexed": true,
          "internalType": "address",
          "name": "newOwner",
          "type": "address"
        }
      ],
      "name": "OwnershipTransferred",
      "type": "event"
    },
    {
      "anonymous": false,
      "inputs": [
        {
          "indexed": true,
          "internalType": "address",
          "name": "previousTarget",
          "type": "address"
        },
        {
          "indexed": true,
          "internalType": "address",
          "name": "newTarget",
          "type": "address"
        }
      ],
      "name": "TargetSet",
      "type": "event"
    },
    {
      "inputs": [],
      "name": "VERSION",
      "outputs": [
        {
          "internalType": "string",
          "name": "",
          "type": "string"
        }
      ],
      "stateMutability": "view",
      "type": "function"
    },
    {
      "inputs": [],
      "name": "avatar",
      "outputs": [
        {
          "internalType": "address",
          "name": "",
          "type": "address"
        }
      ],
      "stateMutability": "view",
      "type": "function"
    },
    {
      "inputs": [
        {
          "components": [
            {
              "internalType": "string",
              "name": "description",
              "type": "string"
            },
            {
              "internalType": "string",
              "name": "tokenURI",
              "type": "string"
            },
            {
              "internalType": "address",
              "name": "creditor",
              "type": "address"
            },
            {
              "internalType": "address",
              "name": "debtor",
              "type": "address"
            },
            {
              "internalType": "uint256",
              "name": "claimAmount",
              "type": "uint256"
            },
            {
              "internalType": "uint256",
              "name": "dueBy",
              "type": "uint256"
            },
            {
              "internalType": "address",
              "name": "claimToken",
              "type": "address"
            },
            {
              "internalType": "bytes32",
              "name": "tag",
              "type": "bytes32"
            },
            {
              "components": [
                {
                  "internalType": "bytes32",
                  "name": "hash",
                  "type": "bytes32"
                },
                {
                  "internalType": "uint8",
                  "name": "hashFunction",
                  "type": "uint8"
                },
                {
                  "internalType": "uint8",
                  "name": "size",
                  "type": "uint8"
                }
              ],
              "internalType": "struct Multihash",
              "name": "attachment",
              "type": "tuple"
            }
          ],
          "internalType": "struct BatchCreate.CreateClaimParams[]",
          "name": "claims",
          "type": "tuple[]"
        }
      ],
      "name": "batchCreate",
      "outputs": [],
      "stateMutability": "nonpayable",
      "type": "function"
    },
    {
      "inputs": [],
      "name": "batchCreateAddress",
      "outputs": [
        {
          "internalType": "address",
          "name": "",
          "type": "address"
        }
      ],
      "stateMutability": "view",
      "type": "function"
    },
    {
      "inputs": [],
      "name": "bullaBankerAddress",
      "outputs": [
        {
          "internalType": "address",
          "name": "",
          "type": "address"
        }
      ],
      "stateMutability": "view",
      "type": "function"
    },
    {
      "inputs": [],
      "name": "bullaClaimAddress",
      "outputs": [
        {
          "internalType": "address",
          "name": "",
          "type": "address"
        }
      ],
      "stateMutability": "view",
      "type": "function"
    },
    {
      "inputs": [
        {
          "components": [
            {
              "internalType": "uint256",
              "name": "claimAmount",
              "type": "uint256"
            },
            {
              "internalType": "address",
              "name": "creditor",
              "type": "address"
            },
            {
              "internalType": "address",
              "name": "debtor",
              "type": "address"
            },
            {
              "internalType": "string",
              "name": "description",
              "type": "string"
            },
            {
              "internalType": "uint256",
              "name": "dueBy",
              "type": "uint256"
            },
            {
              "internalType": "address",
              "name": "claimToken",
              "type": "address"
            },
            {
              "components": [
                {
                  "internalType": "bytes32",
                  "name": "hash",
                  "type": "bytes32"
                },
                {
                  "internalType": "uint8",
                  "name": "hashFunction",
                  "type": "uint8"
                },
                {
                  "internalType": "uint8",
                  "name": "size",
                  "type": "uint8"
                }
              ],
              "internalType": "struct Multihash",
              "name": "attachment",
              "type": "tuple"
            }
          ],
          "internalType": "struct BullaBanker.ClaimParams",
          "name": "_claim",
          "type": "tuple"
        },
        {
          "internalType": "bytes32",
          "name": "_bullaTag",
          "type": "bytes32"
        },
        {
          "internalType": "string",
          "name": "_tokenUri",
          "type": "string"
        }
      ],
      "name": "createBullaClaim",
      "outputs": [],
      "stateMutability": "nonpayable",
      "type": "function"
    },
    {
      "inputs": [],
      "name": "getGuard",
      "outputs": [
        {
          "internalType": "address",
          "name": "_guard",
          "type": "address"
        }
      ],
      "stateMutability": "view",
      "type": "function"
    },
    {
      "inputs": [],
      "name": "guard",
      "outputs": [
        {
          "internalType": "address",
          "name": "",
          "type": "address"
        }
      ],
      "stateMutability": "view",
      "type": "function"
    },
    {
      "inputs": [],
      "name": "owner",
      "outputs": [
        {
          "internalType": "address",
          "name": "",
          "type": "address"
        }
      ],
      "stateMutability": "view",
      "type": "function"
    },
    {
      "inputs": [
        {
          "internalType": "uint256",
          "name": "_tokenId",
          "type": "uint256"
        }
      ],
      "name": "rejectClaim",
      "outputs": [],
      "stateMutability": "nonpayable",
      "type": "function"
    },
    {
      "inputs": [],
      "name": "renounceOwnership",
      "outputs": [],
      "stateMutability": "nonpayable",
      "type": "function"
    },
    {
      "inputs": [
        {
          "internalType": "uint256",
          "name": "_tokenId",
          "type": "uint256"
        }
      ],
      "name": "rescindClaim",
      "outputs": [],
      "stateMutability": "nonpayable",
      "type": "function"
    },
    {
      "inputs": [
        {
          "internalType": "address",
          "name": "_avatar",
          "type": "address"
        }
      ],
      "name": "setAvatar",
      "outputs": [],
      "stateMutability": "nonpayable",
      "type": "function"
    },
    {
      "inputs": [
        {
          "internalType": "address",
          "name": "_guard",
          "type": "address"
        }
      ],
      "name": "setGuard",
      "outputs": [],
      "stateMutability": "nonpayable",
      "type": "function"
    },
    {
      "inputs": [
        {
          "internalType": "address",
          "name": "_target",
          "type": "address"
        }
      ],
      "name": "setTarget",
      "outputs": [],
      "stateMutability": "nonpayable",
      "type": "function"
    },
    {
      "inputs": [
        {
          "internalType": "bytes",
          "name": "initParams",
          "type": "bytes"
        }
      ],
      "name": "setUp",
      "outputs": [],
      "stateMutability": "nonpayable",
      "type": "function"
    },
    {
      "inputs": [],
      "name": "target",
      "outputs": [
        {
          "internalType": "address",
          "name": "",
          "type": "address"
        }
      ],
      "stateMutability": "view",
      "type": "function"
    },
    {
      "inputs": [
        {
          "internalType": "address",
          "name": "newOwner",
          "type": "address"
        }
      ],
      "name": "transferOwnership",
      "outputs": [],
      "stateMutability": "nonpayable",
      "type": "function"
    },
    {
      "inputs": [
        {
          "internalType": "uint256",
          "name": "_tokenId",
          "type": "uint256"
        },
        {
          "internalType": "bytes32",
          "name": "_bullaTag",
          "type": "bytes32"
        }
      ],
      "name": "updateBullaTag",
      "outputs": [],
      "stateMutability": "nonpayable",
      "type": "function"
    }
  ],
  "transactionHash": "0xbb5a2fb7bc87ab320c23bac4190c5513563e3bf50b996690a0d6c2c9772ca34e",
  "args": [
    "0x0000000000000000000000000000000000000001",
    "0xeB0f09EEF3DCc3f35f605dAefa474e6caab96CD6",
    "0x1c534661326b41c8b8aab5631ECED6D9755ff192",
    "0x0af8C15D19058892cDEA66C8C74B7D7bB696FaD5"
  ],
  "numDeployments": 1,
  "solcInputHash": "b8545aea175c6ca7dd158e613a2ab35e",
  "bytecode": "0x60806040523480156200001157600080fd5b5060405162003d9538038062003d95833981810160405281019062000037919062000988565b60008484848460405160200162000052949392919062000b20565b604051602081830303815290604052905062000074816200007f60201b60201c565b505050505062000e9c565b60008060019054906101000a900460ff16159050808015620000b15750600160008054906101000a900460ff1660ff16105b80620000ed5750620000ce306200042160201b620015701760201c565b158015620000ec5750600160008054906101000a900460ff1660ff16145b5b6200012f576040517f08c379a0000000000000000000000000000000000000000000000000000000008152600401620001269062000bd0565b60405180910390fd5b60016000806101000a81548160ff021916908360ff16021790555080156200016d576001600060016101000a81548160ff0219169083151502179055505b6000806000808580602001905181019062000189919062000916565b9350935093509350600073ffffffffffffffffffffffffffffffffffffffff168473ffffffffffffffffffffffffffffffffffffffff16141562000204576040517f08c379a0000000000000000000000000000000000000000000000000000000008152600401620001fb9062000c14565b60405180910390fd5b620002146200044460201b60201c565b6200022584620004a860201b60201c565b62000236846200057e60201b60201c565b62000247846200065460201b60201c565b82606860006101000a81548173ffffffffffffffffffffffffffffffffffffffff021916908373ffffffffffffffffffffffffffffffffffffffff16021790555081606960006101000a81548173ffffffffffffffffffffffffffffffffffffffff021916908373ffffffffffffffffffffffffffffffffffffffff16021790555080606a60006101000a81548173ffffffffffffffffffffffffffffffffffffffff021916908373ffffffffffffffffffffffffffffffffffffffff1602179055503373ffffffffffffffffffffffffffffffffffffffff163073ffffffffffffffffffffffffffffffffffffffff168573ffffffffffffffffffffffffffffffffffffffff167f62d5c1fb6a0209b00663f11b863a90761aa2282a864d2fcff0c1ca81d86d65406040518060400160405280600581526020017f302e302e39000000000000000000000000000000000000000000000000000000815250604051620003b5919062000b8a565b60405180910390a45050505080156200041d5760008060016101000a81548160ff0219169083151502179055507f7f26b83ff96e1f2b6a682f133852f6798a09c465da95921460cefb3847402498600160405162000414919062000b6d565b60405180910390a15b5050565b6000808273ffffffffffffffffffffffffffffffffffffffff163b119050919050565b600060019054906101000a900460ff1662000496576040517f08c379a00000000000000000000000000000000000000000000000000000000081526004016200048d9062000c36565b60405180910390fd5b620004a6620006eb60201b60201c565b565b620004b86200075f60201b60201c565b6000606660009054906101000a900473ffffffffffffffffffffffffffffffffffffffff16905081606660006101000a81548173ffffffffffffffffffffffffffffffffffffffff021916908373ffffffffffffffffffffffffffffffffffffffff1602179055508173ffffffffffffffffffffffffffffffffffffffff168173ffffffffffffffffffffffffffffffffffffffff167f52ae88b092de36f87fb43fe794eb1381023b9c1bce563a871154022c63dce34260405160405180910390a35050565b6200058e6200075f60201b60201c565b6000606760009054906101000a900473ffffffffffffffffffffffffffffffffffffffff16905081606760006101000a81548173ffffffffffffffffffffffffffffffffffffffff021916908373ffffffffffffffffffffffffffffffffffffffff1602179055508173ffffffffffffffffffffffffffffffffffffffff168173ffffffffffffffffffffffffffffffffffffffff167f90cc2f570a6eb594b1580ea3e41247d2d73a55281889e86bd4ec2fc29c7e62d660405160405180910390a35050565b620006646200075f60201b60201c565b600073ffffffffffffffffffffffffffffffffffffffff168173ffffffffffffffffffffffffffffffffffffffff161415620006d7576040517f08c379a0000000000000000000000000000000000000000000000000000000008152600401620006ce9062000bae565b60405180910390fd5b620006e881620007f060201b60201c565b50565b600060019054906101000a900460ff166200073d576040517f08c379a0000000000000000000000000000000000000000000000000000000008152600401620007349062000c36565b60405180910390fd5b6200075d62000751620008b660201b60201c565b620007f060201b60201c565b565b6200076f620008b660201b60201c565b73ffffffffffffffffffffffffffffffffffffffff1662000795620008be60201b60201c565b73ffffffffffffffffffffffffffffffffffffffff1614620007ee576040517f08c379a0000000000000000000000000000000000000000000000000000000008152600401620007e59062000bf2565b60405180910390fd5b565b6000603360009054906101000a900473ffffffffffffffffffffffffffffffffffffffff16905081603360006101000a81548173ffffffffffffffffffffffffffffffffffffffff021916908373ffffffffffffffffffffffffffffffffffffffff1602179055508173ffffffffffffffffffffffffffffffffffffffff168173ffffffffffffffffffffffffffffffffffffffff167f8be0079c531659141344cd1fd0a4f28419497f9722a3daafe3b4186f6b6457e060405160405180910390a35050565b600033905090565b6000603360009054906101000a900473ffffffffffffffffffffffffffffffffffffffff16905090565b600081519050620008f98162000e68565b92915050565b600081519050620009108162000e82565b92915050565b6000806000806080858703121562000933576200093262000d13565b5b60006200094387828801620008ff565b94505060206200095687828801620008ff565b93505060406200096987828801620008ff565b92505060606200097c87828801620008ff565b91505092959194509250565b60008060008060808587031215620009a557620009a462000d13565b5b6000620009b587828801620008e8565b9450506020620009c887828801620008e8565b9350506040620009db87828801620008e8565b9250506060620009ee87828801620008e8565b91505092959194509250565b62000a058162000c74565b82525050565b62000a168162000cc9565b82525050565b600062000a298262000c58565b62000a35818562000c63565b935062000a4781856020860162000cdd565b62000a528162000d18565b840191505092915050565b600062000a6c60268362000c63565b915062000a798262000d29565b604082019050919050565b600062000a93602e8362000c63565b915062000aa08262000d78565b604082019050919050565b600062000aba60208362000c63565b915062000ac78262000dc7565b602082019050919050565b600062000ae1601e8362000c63565b915062000aee8262000df0565b602082019050919050565b600062000b08602b8362000c63565b915062000b158262000e19565b604082019050919050565b600060808201905062000b376000830187620009fa565b62000b466020830186620009fa565b62000b556040830185620009fa565b62000b646060830184620009fa565b95945050505050565b600060208201905062000b84600083018462000a0b565b92915050565b6000602082019050818103600083015262000ba6818462000a1c565b905092915050565b6000602082019050818103600083015262000bc98162000a5d565b9050919050565b6000602082019050818103600083015262000beb8162000a84565b9050919050565b6000602082019050818103600083015262000c0d8162000aab565b9050919050565b6000602082019050818103600083015262000c2f8162000ad2565b9050919050565b6000602082019050818103600083015262000c518162000af9565b9050919050565b600081519050919050565b600082825260208201905092915050565b600062000c818262000c9c565b9050919050565b600062000c958262000c9c565b9050919050565b600073ffffffffffffffffffffffffffffffffffffffff82169050919050565b600060ff82169050919050565b600062000cd68262000cbc565b9050919050565b60005b8381101562000cfd57808201518184015260208101905062000ce0565b8381111562000d0d576000848401525b50505050565b600080fd5b6000601f19601f8301169050919050565b7f4f776e61626c653a206e6577206f776e657220697320746865207a65726f206160008201527f6464726573730000000000000000000000000000000000000000000000000000602082015250565b7f496e697469616c697a61626c653a20636f6e747261637420697320616c72656160008201527f647920696e697469616c697a6564000000000000000000000000000000000000602082015250565b7f4f776e61626c653a2063616c6c6572206973206e6f7420746865206f776e6572600082015250565b7f42554c4c414d4f44554c453a205a65726f207361666520616464726573730000600082015250565b7f496e697469616c697a61626c653a20636f6e7472616374206973206e6f74206960008201527f6e697469616c697a696e67000000000000000000000000000000000000000000602082015250565b62000e738162000c74565b811462000e7f57600080fd5b50565b62000e8d8162000c88565b811462000e9957600080fd5b50565b612ee98062000eac6000396000f3fe608060405234801561001057600080fd5b506004361061012c5760003560e01c80639c0a2326116100ad578063d4b8399211610071578063d4b83992146102d1578063e19a9dd9146102ef578063e8042ce51461030b578063f2fde38b14610327578063ffa1ad74146103435761012c565b80639c0a23261461023f578063a1001a601461025d578063a4f9edbf14610279578063c910638914610295578063d150a550146102b35761012c565b8063776d1a01116100f4578063776d1a01146101ad5780637ceab3b1146101c95780637e21c29f146101e75780638cec5491146102055780638da5cb5b146102215761012c565b8063086cfca814610131578063203411011461014d5780634fbb8987146101695780635aef7de614610185578063715018a6146101a3575b600080fd5b61014b60048036038101906101469190611c47565b610361565b005b61016760048036038101906101629190611e2e565b61042f565b005b610183600480360381019061017e9190611e5b565b610606565b005b61018d6107e0565b60405161019a919061247c565b60405180910390f35b6101ab610806565b005b6101c760048036038101906101c29190611c47565b61081a565b005b6101d16108e8565b6040516101de919061247c565b60405180910390f35b6101ef61090e565b6040516101fc919061247c565b60405180910390f35b61021f600480360381019061021a9190611cdb565b610934565b005b610229610b0e565b604051610236919061247c565b60405180910390f35b610247610b38565b604051610254919061247c565b60405180910390f35b61027760048036038101906102729190611d9e565b610b5e565b005b610293600480360381019061028e9190611d55565b610d3e565b005b61029d6110a2565b6040516102aa919061247c565b60405180910390f35b6102bb6110cc565b6040516102c8919061247c565b60405180910390f35b6102d96110f2565b6040516102e6919061247c565b60405180910390f35b61030960048036038101906103049190611c47565b611118565b005b61032560048036038101906103209190611e2e565b6112dc565b005b610341600480360381019061033c9190611c47565b6114b3565b005b61034b611537565b604051610358919061261f565b60405180910390f35b610369611593565b6000606660009054906101000a900473ffffffffffffffffffffffffffffffffffffffff16905081606660006101000a81548173ffffffffffffffffffffffffffffffffffffffff021916908373ffffffffffffffffffffffffffffffffffffffff1602179055508173ffffffffffffffffffffffffffffffffffffffff168173ffffffffffffffffffffffffffffffffffffffff167f52ae88b092de36f87fb43fe794eb1381023b9c1bce563a871154022c63dce34260405160405180910390a35050565b606660009054906101000a900473ffffffffffffffffffffffffffffffffffffffff1673ffffffffffffffffffffffffffffffffffffffff16632f54bf6e336040518263ffffffff1660e01b815260040161048a919061247c565b60206040518083038186803b1580156104a257600080fd5b505afa1580156104b6573d6000803e3d6000fd5b505050506040513d601f19601f820116820180604052508101906104da9190611d28565b610519576040517f08c379a000000000000000000000000000000000000000000000000000000000815260040161051090612661565b60405180910390fd5b6000632034110160e01b8260405160240161053491906127e8565b604051602081830303815290604052907bffffffffffffffffffffffffffffffffffffffffffffffffffffffff19166020820180517bffffffffffffffffffffffffffffffffffffffffffffffffffffffff838183161783525050505090506105c3606960009054906101000a900473ffffffffffffffffffffffffffffffffffffffff166000836000611611565b610602576040517f08c379a00000000000000000000000000000000000000000000000000000000081526004016105f990612781565b60405180910390fd5b5050565b606660009054906101000a900473ffffffffffffffffffffffffffffffffffffffff1673ffffffffffffffffffffffffffffffffffffffff16632f54bf6e336040518263ffffffff1660e01b8152600401610661919061247c565b60206040518083038186803b15801561067957600080fd5b505afa15801561068d573d6000803e3d6000fd5b505050506040513d601f19601f820116820180604052508101906106b19190611d28565b6106f0576040517f08c379a00000000000000000000000000000000000000000000000000000000081526004016106e790612661565b60405180910390fd5b6000634fbb898760e01b838360405160240161070d929190612803565b604051602081830303815290604052907bffffffffffffffffffffffffffffffffffffffffffffffffffffffff19166020820180517bffffffffffffffffffffffffffffffffffffffffffffffffffffffff8381831617835250505050905061079c606860009054906101000a900473ffffffffffffffffffffffffffffffffffffffff166000836000611611565b6107db576040517f08c379a00000000000000000000000000000000000000000000000000000000081526004016107d290612681565b60405180910390fd5b505050565b606660009054906101000a900473ffffffffffffffffffffffffffffffffffffffff1681565b61080e611593565b6108186000611905565b565b610822611593565b6000606760009054906101000a900473ffffffffffffffffffffffffffffffffffffffff16905081606760006101000a81548173ffffffffffffffffffffffffffffffffffffffff021916908373ffffffffffffffffffffffffffffffffffffffff1602179055508173ffffffffffffffffffffffffffffffffffffffff168173ffffffffffffffffffffffffffffffffffffffff167f90cc2f570a6eb594b1580ea3e41247d2d73a55281889e86bd4ec2fc29c7e62d660405160405180910390a35050565b606560009054906101000a900473ffffffffffffffffffffffffffffffffffffffff1681565b606960009054906101000a900473ffffffffffffffffffffffffffffffffffffffff1681565b606660009054906101000a900473ffffffffffffffffffffffffffffffffffffffff1673ffffffffffffffffffffffffffffffffffffffff16632f54bf6e336040518263ffffffff1660e01b815260040161098f919061247c565b60206040518083038186803b1580156109a757600080fd5b505afa1580156109bb573d6000803e3d6000fd5b505050506040513d601f19601f820116820180604052508101906109df9190611d28565b610a1e576040517f08c379a0000000000000000000000000000000000000000000000000000000008152600401610a1590612661565b60405180910390fd5b6000638cec549160e01b8383604051602401610a3b92919061259c565b604051602081830303815290604052907bffffffffffffffffffffffffffffffffffffffffffffffffffffffff19166020820180517bffffffffffffffffffffffffffffffffffffffffffffffffffffffff83818316178352505050509050610aca606a60009054906101000a900473ffffffffffffffffffffffffffffffffffffffff166000836000611611565b610b09576040517f08c379a0000000000000000000000000000000000000000000000000000000008152600401610b0090612741565b60405180910390fd5b505050565b6000603360009054906101000a900473ffffffffffffffffffffffffffffffffffffffff16905090565b606860009054906101000a900473ffffffffffffffffffffffffffffffffffffffff1681565b606660009054906101000a900473ffffffffffffffffffffffffffffffffffffffff1673ffffffffffffffffffffffffffffffffffffffff16632f54bf6e336040518263ffffffff1660e01b8152600401610bb9919061247c565b60206040518083038186803b158015610bd157600080fd5b505afa158015610be5573d6000803e3d6000fd5b505050506040513d601f19601f82011682018060405250810190610c099190611d28565b610c48576040517f08c379a0000000000000000000000000000000000000000000000000000000008152600401610c3f90612661565b60405180910390fd5b600063a1001a6060e01b85858585604051602401610c6994939291906127a1565b604051602081830303815290604052907bffffffffffffffffffffffffffffffffffffffffffffffffffffffff19166020820180517bffffffffffffffffffffffffffffffffffffffffffffffffffffffff83818316178352505050509050610cf8606860009054906101000a900473ffffffffffffffffffffffffffffffffffffffff166000836000611611565b610d37576040517f08c379a0000000000000000000000000000000000000000000000000000000008152600401610d2e90612721565b60405180910390fd5b5050505050565b60008060019054906101000a900460ff16159050808015610d6f5750600160008054906101000a900460ff1660ff16105b80610d9c5750610d7e30611570565b158015610d9b5750600160008054906101000a900460ff1660ff16145b5b610ddb576040517f08c379a0000000000000000000000000000000000000000000000000000000008152600401610dd2906126a1565b60405180910390fd5b60016000806101000a81548160ff021916908360ff1602179055508015610e18576001600060016101000a81548160ff0219169083151502179055505b60008060008085806020019051810190610e329190611c74565b9350935093509350600073ffffffffffffffffffffffffffffffffffffffff168473ffffffffffffffffffffffffffffffffffffffff161415610eaa576040517f08c379a0000000000000000000000000000000000000000000000000000000008152600401610ea190612701565b60405180910390fd5b610eb26119cb565b610ebb84610361565b610ec48461081a565b610ecd846114b3565b82606860006101000a81548173ffffffffffffffffffffffffffffffffffffffff021916908373ffffffffffffffffffffffffffffffffffffffff16021790555081606960006101000a81548173ffffffffffffffffffffffffffffffffffffffff021916908373ffffffffffffffffffffffffffffffffffffffff16021790555080606a60006101000a81548173ffffffffffffffffffffffffffffffffffffffff021916908373ffffffffffffffffffffffffffffffffffffffff1602179055503373ffffffffffffffffffffffffffffffffffffffff163073ffffffffffffffffffffffffffffffffffffffff168573ffffffffffffffffffffffffffffffffffffffff167f62d5c1fb6a0209b00663f11b863a90761aa2282a864d2fcff0c1ca81d86d65406040518060400160405280600581526020017f302e302e39000000000000000000000000000000000000000000000000000000815250604051611039919061261f565b60405180910390a450505050801561109e5760008060016101000a81548160ff0219169083151502179055507f7f26b83ff96e1f2b6a682f133852f6798a09c465da95921460cefb384740249860016040516110959190612604565b60405180910390a15b5050565b6000606560009054906101000a900473ffffffffffffffffffffffffffffffffffffffff16905090565b606a60009054906101000a900473ffffffffffffffffffffffffffffffffffffffff1681565b606760009054906101000a900473ffffffffffffffffffffffffffffffffffffffff1681565b611120611593565b600073ffffffffffffffffffffffffffffffffffffffff168173ffffffffffffffffffffffffffffffffffffffff161461123f578073ffffffffffffffffffffffffffffffffffffffff166301ffc9a77fe6d7a83a000000000000000000000000000000000000000000000000000000006040518263ffffffff1660e01b81526004016111ad91906125e9565b60206040518083038186803b1580156111c557600080fd5b505afa1580156111d9573d6000803e3d6000fd5b505050506040513d601f19601f820116820180604052508101906111fd9190611d28565b61123e57806040517fb16ea67e000000000000000000000000000000000000000000000000000000008152600401611235919061247c565b60405180910390fd5b5b80606560006101000a81548173ffffffffffffffffffffffffffffffffffffffff021916908373ffffffffffffffffffffffffffffffffffffffff1602179055507f1151116914515bc0891ff9047a6cb32cf902546f83066499bcf8ba33d2353fa2606560009054906101000a900473ffffffffffffffffffffffffffffffffffffffff166040516112d1919061247c565b60405180910390a150565b606660009054906101000a900473ffffffffffffffffffffffffffffffffffffffff1673ffffffffffffffffffffffffffffffffffffffff16632f54bf6e336040518263ffffffff1660e01b8152600401611337919061247c565b60206040518083038186803b15801561134f57600080fd5b505afa158015611363573d6000803e3d6000fd5b505050506040513d601f19601f820116820180604052508101906113879190611d28565b6113c6576040517f08c379a00000000000000000000000000000000000000000000000000000000081526004016113bd90612661565b60405180910390fd5b600063e8042ce560e01b826040516024016113e191906127e8565b604051602081830303815290604052907bffffffffffffffffffffffffffffffffffffffffffffffffffffffff19166020820180517bffffffffffffffffffffffffffffffffffffffffffffffffffffffff83818316178352505050509050611470606960009054906101000a900473ffffffffffffffffffffffffffffffffffffffff166000836000611611565b6114af576040517f08c379a00000000000000000000000000000000000000000000000000000000081526004016114a6906126c1565b60405180910390fd5b5050565b6114bb611593565b600073ffffffffffffffffffffffffffffffffffffffff168173ffffffffffffffffffffffffffffffffffffffff16141561152b576040517f08c379a000000000000000000000000000000000000000000000000000000000815260040161152290612641565b60405180910390fd5b61153481611905565b50565b6040518060400160405280600581526020017f302e302e3900000000000000000000000000000000000000000000000000000081525081565b6000808273ffffffffffffffffffffffffffffffffffffffff163b119050919050565b61159b611a24565b73ffffffffffffffffffffffffffffffffffffffff166115b9610b0e565b73ffffffffffffffffffffffffffffffffffffffff161461160f576040517f08c379a0000000000000000000000000000000000000000000000000000000008152600401611606906126e1565b60405180910390fd5b565b60008073ffffffffffffffffffffffffffffffffffffffff16606560009054906101000a900473ffffffffffffffffffffffffffffffffffffffff1673ffffffffffffffffffffffffffffffffffffffff161461174257606560009054906101000a900473ffffffffffffffffffffffffffffffffffffffff1673ffffffffffffffffffffffffffffffffffffffff166375f0bb528686868660008060008060006040518060400160405280600281526020017f3078000000000000000000000000000000000000000000000000000000000000815250336040518c63ffffffff1660e01b815260040161170f9b9a999897969594939291906124e3565b600060405180830381600087803b15801561172957600080fd5b505af115801561173d573d6000803e3d6000fd5b505050505b606760009054906101000a900473ffffffffffffffffffffffffffffffffffffffff1673ffffffffffffffffffffffffffffffffffffffff1663468721a7868686866040518563ffffffff1660e01b81526004016117a39493929190612497565b602060405180830381600087803b1580156117bd57600080fd5b505af11580156117d1573d6000803e3d6000fd5b505050506040513d601f19601f820116820180604052508101906117f59190611d28565b9050600073ffffffffffffffffffffffffffffffffffffffff16606560009054906101000a900473ffffffffffffffffffffffffffffffffffffffff1673ffffffffffffffffffffffffffffffffffffffff16146118fd57606560009054906101000a900473ffffffffffffffffffffffffffffffffffffffff1673ffffffffffffffffffffffffffffffffffffffff1663932713687f3078000000000000000000000000000000000000000000000000000000000000836040518363ffffffff1660e01b81526004016118ca9291906125c0565b600060405180830381600087803b1580156118e457600080fd5b505af11580156118f8573d6000803e3d6000fd5b505050505b949350505050565b6000603360009054906101000a900473ffffffffffffffffffffffffffffffffffffffff16905081603360006101000a81548173ffffffffffffffffffffffffffffffffffffffff021916908373ffffffffffffffffffffffffffffffffffffffff1602179055508173ffffffffffffffffffffffffffffffffffffffff168173ffffffffffffffffffffffffffffffffffffffff167f8be0079c531659141344cd1fd0a4f28419497f9722a3daafe3b4186f6b6457e060405160405180910390a35050565b600060019054906101000a900460ff16611a1a576040517f08c379a0000000000000000000000000000000000000000000000000000000008152600401611a1190612761565b60405180910390fd5b611a22611a2c565b565b600033905090565b600060019054906101000a900460ff16611a7b576040517f08c379a0000000000000000000000000000000000000000000000000000000008152600401611a7290612761565b60405180910390fd5b611a8b611a86611a24565b611905565b565b6000611aa0611a9b84612851565b61282c565b905082815260208101848484011115611abc57611abb612bbb565b5b611ac7848285612acc565b509392505050565b600081359050611ade81612e29565b92915050565b600081519050611af381612e40565b92915050565b60008083601f840112611b0f57611b0e612ba7565b5b8235905067ffffffffffffffff811115611b2c57611b2b612ba2565b5b602083019150836020820283011115611b4857611b47612bb6565b5b9250929050565b600081519050611b5e81612e57565b92915050565b600081359050611b7381612e6e565b92915050565b600082601f830112611b8e57611b8d612ba7565b5b8135611b9e848260208601611a8d565b91505092915050565b60008083601f840112611bbd57611bbc612ba7565b5b8235905067ffffffffffffffff811115611bda57611bd9612ba2565b5b602083019150836001820283011115611bf657611bf5612bb6565b5b9250929050565b60006101208284031215611c1457611c13612bac565b5b81905092915050565b600081359050611c2c81612e85565b92915050565b600081359050611c4181612e9c565b92915050565b600060208284031215611c5d57611c5c612bca565b5b6000611c6b84828501611acf565b91505092915050565b60008060008060808587031215611c8e57611c8d612bca565b5b6000611c9c87828801611ae4565b9450506020611cad87828801611ae4565b9350506040611cbe87828801611ae4565b9250506060611ccf87828801611ae4565b91505092959194509250565b60008060208385031215611cf257611cf1612bca565b5b600083013567ffffffffffffffff811115611d1057611d0f612bc0565b5b611d1c85828601611af9565b92509250509250929050565b600060208284031215611d3e57611d3d612bca565b5b6000611d4c84828501611b4f565b91505092915050565b600060208284031215611d6b57611d6a612bca565b5b600082013567ffffffffffffffff811115611d8957611d88612bc0565b5b611d9584828501611b79565b91505092915050565b60008060008060608587031215611db857611db7612bca565b5b600085013567ffffffffffffffff811115611dd657611dd5612bc0565b5b611de287828801611bfd565b9450506020611df387828801611b64565b935050604085013567ffffffffffffffff811115611e1457611e13612bc0565b5b611e2087828801611ba7565b925092505092959194509250565b600060208284031215611e4457611e43612bca565b5b6000611e5284828501611c1d565b91505092915050565b60008060408385031215611e7257611e71612bca565b5b6000611e8085828601611c1d565b9250506020611e9185828601611b64565b9150509250929050565b6000611ea783836122dd565b905092915050565b611eb8816129f8565b82525050565b611ec7816129e6565b82525050565b611ed6816129e6565b82525050565b6000611ee883856128af565b935083602084028501611efa84612882565b8060005b87811015611f3e578484038952611f158284612984565b611f1f8582611e9b565b9450611f2a836128a2565b925060208a01995050600181019050611efe565b50829750879450505050509392505050565b611f5981612a0a565b82525050565b611f6881612a16565b82525050565b611f7781612a16565b82525050565b611f8681612a20565b82525050565b6000611f978261288c565b611fa181856128c0565b9350611fb1818560208601612adb565b611fba81612bcf565b840191505092915050565b611fce81612a96565b82525050565b611fdd81612aa8565b82525050565b611fec81612aba565b82525050565b6000611ffe83856128d1565b935061200b838584612acc565b61201483612bcf565b840190509392505050565b600061202b83856128e2565b9350612038838584612acc565b61204183612bcf565b840190509392505050565b600061205782612897565b61206181856128e2565b9350612071818560208601612adb565b61207a81612bcf565b840191505092915050565b60006120926026836128e2565b915061209d82612be0565b604082019050919050565b60006120b5601b836128e2565b91506120c082612c2f565b602082019050919050565b60006120d8601e836128e2565b91506120e382612c58565b602082019050919050565b60006120fb602e836128e2565b915061210682612c81565b604082019050919050565b600061211e601b836128e2565b915061212982612cd0565b602082019050919050565b60006121416020836128e2565b915061214c82612cf9565b602082019050919050565b6000612164601e836128e2565b915061216f82612d22565b602082019050919050565b60006121876020836128e2565b915061219282612d4b565b602082019050919050565b60006121aa6020836128e2565b91506121b582612d74565b602082019050919050565b60006121cd602b836128e2565b91506121d882612d9d565b604082019050919050565b60006121f0601a836128e2565b91506121fb82612dec565b602082019050919050565b6000610120830161221a60008401846129b8565b612227600086018261244f565b5061223560208401846128f3565b6122426020860182611ebe565b5061225060408401846128f3565b61225d6040860182611ebe565b5061226b6060840184612921565b858303606087015261227e838284611ff2565b9250505061228f60808401846129b8565b61229c608086018261244f565b506122aa60a08401846128f3565b6122b760a0860182611ebe565b506122c560c08401846129ad565b6122d260c08601826123f5565b508091505092915050565b600061016083016122f16000840184612921565b8583036000870152612304838284611ff2565b925050506123156020840184612921565b8583036020870152612328838284611ff2565b9250505061233960408401846128f3565b6123466040860182611ebe565b5061235460608401846128f3565b6123616060860182611ebe565b5061236f60808401846129b8565b61237c608086018261244f565b5061238a60a08401846129b8565b61239760a086018261244f565b506123a560c08401846128f3565b6123b260c0860182611ebe565b506123c060e084018461290a565b6123cd60e0860182611f5f565b506123dc6101008401846129ad565b6123ea6101008601826123f5565b508091505092915050565b60608201612406600083018361290a565b6124136000850182611f5f565b5061242160208301836129cf565b61242e602085018261246d565b5061243c60408301836129cf565b612449604085018261246d565b50505050565b61245881612a7f565b82525050565b61246781612a7f565b82525050565b61247681612a89565b82525050565b60006020820190506124916000830184611ecd565b92915050565b60006080820190506124ac6000830187611ecd565b6124b9602083018661245e565b81810360408301526124cb8185611f8c565b90506124da6060830184611fc5565b95945050505050565b6000610160820190506124f9600083018e611ecd565b612506602083018d61245e565b8181036040830152612518818c611f8c565b9050612527606083018b611fc5565b612534608083018a611fd4565b61254160a0830189611fd4565b61254e60c0830188611fd4565b61255b60e0830187611ecd565b612569610100830186611eaf565b81810361012083015261257c8185611f8c565b905061258c610140830184611ecd565b9c9b505050505050505050505050565b600060208201905081810360008301526125b7818486611edc565b90509392505050565b60006040820190506125d56000830185611f6e565b6125e26020830184611f50565b9392505050565b60006020820190506125fe6000830184611f7d565b92915050565b60006020820190506126196000830184611fe3565b92915050565b60006020820190508181036000830152612639818461204c565b905092915050565b6000602082019050818103600083015261265a81612085565b9050919050565b6000602082019050818103600083015261267a816120a8565b9050919050565b6000602082019050818103600083015261269a816120cb565b9050919050565b600060208201905081810360008301526126ba816120ee565b9050919050565b600060208201905081810360008301526126da81612111565b9050919050565b600060208201905081810360008301526126fa81612134565b9050919050565b6000602082019050818103600083015261271a81612157565b9050919050565b6000602082019050818103600083015261273a8161217a565b9050919050565b6000602082019050818103600083015261275a8161219d565b9050919050565b6000602082019050818103600083015261277a816121c0565b9050919050565b6000602082019050818103600083015261279a816121e3565b9050919050565b600060608201905081810360008301526127bb8187612206565b90506127ca6020830186611f6e565b81810360408301526127dd81848661201f565b905095945050505050565b60006020820190506127fd600083018461245e565b92915050565b6000604082019050612818600083018561245e565b6128256020830184611f6e565b9392505050565b6000612836612847565b90506128428282612b0e565b919050565b6000604051905090565b600067ffffffffffffffff82111561286c5761286b612b6e565b5b61287582612bcf565b9050602081019050919050565b6000819050919050565b600081519050919050565b600081519050919050565b6000602082019050919050565b600082825260208201905092915050565b600082825260208201905092915050565b600082825260208201905092915050565b600082825260208201905092915050565b60006129026020840184611acf565b905092915050565b60006129196020840184611b64565b905092915050565b6000808335600160200384360303811261293e5761293d612bc5565b5b83810192508235915060208301925067ffffffffffffffff82111561296657612965612b9d565b5b60018202360384131561297c5761297b612bb1565b5b509250929050565b600082356001610160038336030381126129a1576129a0612bc5565b5b82810191505092915050565b600082905092915050565b60006129c76020840184611c1d565b905092915050565b60006129de6020840184611c32565b905092915050565b60006129f182612a5f565b9050919050565b6000612a0382612a5f565b9050919050565b60008115159050919050565b6000819050919050565b60007fffffffff0000000000000000000000000000000000000000000000000000000082169050919050565b6000819050612a5a82612e15565b919050565b600073ffffffffffffffffffffffffffffffffffffffff82169050919050565b6000819050919050565b600060ff82169050919050565b6000612aa182612a4c565b9050919050565b6000612ab382612a7f565b9050919050565b6000612ac582612a89565b9050919050565b82818337600083830152505050565b60005b83811015612af9578082015181840152602081019050612ade565b83811115612b08576000848401525b50505050565b612b1782612bcf565b810181811067ffffffffffffffff82111715612b3657612b35612b6e565b5b80604052505050565b7f4e487b7100000000000000000000000000000000000000000000000000000000600052602160045260246000fd5b7f4e487b7100000000000000000000000000000000000000000000000000000000600052604160045260246000fd5b600080fd5b600080fd5b600080fd5b600080fd5b600080fd5b600080fd5b600080fd5b600080fd5b600080fd5b600080fd5b6000601f19601f8301169050919050565b7f4f776e61626c653a206e6577206f776e657220697320746865207a65726f206160008201527f6464726573730000000000000000000000000000000000000000000000000000602082015250565b7f42554c4c414d4f44554c453a204e6f742073616665206f776e65720000000000600082015250565b7f42554c4c414d4f44554c453a2054616720757064617465206661696c65640000600082015250565b7f496e697469616c697a61626c653a20636f6e747261637420697320616c72656160008201527f647920696e697469616c697a6564000000000000000000000000000000000000602082015250565b7f42554c4c414d4f44554c453a2052657363696e64206661696c65640000000000600082015250565b7f4f776e61626c653a2063616c6c6572206973206e6f7420746865206f776e6572600082015250565b7f42554c4c414d4f44554c453a205a65726f207361666520616464726573730000600082015250565b7f42554c4c414d4f44554c453a2043726561746520636c61696d206661696c6564600082015250565b7f42554c4c414d4f44554c453a20426174636820637265617465206661696c6564600082015250565b7f496e697469616c697a61626c653a20636f6e7472616374206973206e6f74206960008201527f6e697469616c697a696e67000000000000000000000000000000000000000000602082015250565b7f42554c4c414d4f44554c453a2052656a656374206661696c6564000000000000600082015250565b60028110612e2657612e25612b3f565b5b50565b612e32816129e6565b8114612e3d57600080fd5b50565b612e49816129f8565b8114612e5457600080fd5b50565b612e6081612a0a565b8114612e6b57600080fd5b50565b612e7781612a16565b8114612e8257600080fd5b50565b612e8e81612a7f565b8114612e9957600080fd5b50565b612ea581612a89565b8114612eb057600080fd5b5056fea264697066735822122077854cb5a8dffb111a8fcb1c667ece236465ca6da44da6e8d23f63c36700e78564736f6c63430008070033",
  "devdoc": {
    "author": "@colinnielsen",
    "kind": "dev",
    "methods": {
      "constructor": {
        "details": "Initialize function, will be triggered when a new proxy is deployed",
        "params": {
          "_bullaBanker": "Address of the avatar in this case, a gnosis safe",
          "_bullaClaim": "Address of the avatar in this case, a gnosis safe",
          "_safe": "Address of the safe"
        }
      },
      "owner()": {
        "details": "Returns the address of the current owner."
      },
      "renounceOwnership()": {
        "details": "Leaves the contract without owner. It will not be possible to call `onlyOwner` functions anymore. Can only be called by the current owner. NOTE: Renouncing ownership will leave the contract without an owner, thereby removing any functionality that is only available to the owner."
      },
      "setAvatar(address)": {
        "details": "Sets the avatar to a new avatar (`newAvatar`)."
      },
      "setGuard(address)": {
        "details": "Set a guard that checks transactions before execution.",
        "params": {
          "_guard": "The address of the guard to be used or the 0 address to disable the guard."
        }
      },
      "setTarget(address)": {
        "details": "Sets the target to a new target (`newTarget`)."
      },
      "transferOwnership(address)": {
        "details": "Transfers ownership of the contract to a new account (`newOwner`). Can only be called by the current owner."
      }
    },
    "title": "BullaBankerModule",
    "version": 1
  },
  "userdoc": {
    "errors": {
      "NotIERC165Compliant(address)": [
        {
          "notice": "`guard_` does not implement IERC165."
        }
      ]
    },
    "kind": "user",
    "methods": {
      "constructor": {
        "notice": "Designated token address can not be zero"
      },
      "setAvatar(address)": {
        "notice": "Can only be called by the current owner."
      },
      "setTarget(address)": {
        "notice": "Can only be called by the current owner."
      }
    },
    "notice": "A gnosis module for BullaBanker allowing permissionless use of basic BullaClaim and BullaBanker     functions (e.g. createClaim, payClaim, updateTag, rejectClaim, rescindClaim) for the signers of a safe.",
    "version": 1
  },
  "storageLayout": {
    "storage": [
      {
        "astId": 1198,
        "contract": "contracts/BullaBankerModule.sol:BullaBankerModule",
        "label": "_initialized",
        "offset": 0,
        "slot": "0",
        "type": "t_uint8"
      },
      {
        "astId": 1201,
        "contract": "contracts/BullaBankerModule.sol:BullaBankerModule",
        "label": "_initializing",
        "offset": 1,
        "slot": "0",
        "type": "t_bool"
      },
      {
        "astId": 1626,
        "contract": "contracts/BullaBankerModule.sol:BullaBankerModule",
        "label": "__gap",
        "offset": 0,
        "slot": "1",
        "type": "t_array(t_uint256)50_storage"
      },
      {
        "astId": 1070,
        "contract": "contracts/BullaBankerModule.sol:BullaBankerModule",
        "label": "_owner",
        "offset": 0,
        "slot": "51",
        "type": "t_address"
      },
      {
        "astId": 1190,
        "contract": "contracts/BullaBankerModule.sol:BullaBankerModule",
        "label": "__gap",
        "offset": 0,
        "slot": "52",
        "type": "t_array(t_uint256)49_storage"
      },
      {
        "astId": 877,
        "contract": "contracts/BullaBankerModule.sol:BullaBankerModule",
        "label": "guard",
        "offset": 0,
        "slot": "101",
        "type": "t_address"
      },
      {
        "astId": 555,
        "contract": "contracts/BullaBankerModule.sol:BullaBankerModule",
        "label": "avatar",
        "offset": 0,
        "slot": "102",
        "type": "t_address"
      },
      {
        "astId": 558,
        "contract": "contracts/BullaBankerModule.sol:BullaBankerModule",
        "label": "target",
        "offset": 0,
        "slot": "103",
        "type": "t_address"
      },
      {
        "astId": 4943,
        "contract": "contracts/BullaBankerModule.sol:BullaBankerModule",
        "label": "bullaBankerAddress",
        "offset": 0,
        "slot": "104",
        "type": "t_address"
      },
      {
        "astId": 4945,
        "contract": "contracts/BullaBankerModule.sol:BullaBankerModule",
        "label": "bullaClaimAddress",
        "offset": 0,
        "slot": "105",
        "type": "t_address"
      },
      {
        "astId": 4947,
        "contract": "contracts/BullaBankerModule.sol:BullaBankerModule",
        "label": "batchCreateAddress",
        "offset": 0,
        "slot": "106",
        "type": "t_address"
      }
    ],
    "types": {
      "t_address": {
        "encoding": "inplace",
        "label": "address",
        "numberOfBytes": "20"
      },
      "t_array(t_uint256)49_storage": {
        "base": "t_uint256",
        "encoding": "inplace",
        "label": "uint256[49]",
        "numberOfBytes": "1568"
      },
      "t_array(t_uint256)50_storage": {
        "base": "t_uint256",
        "encoding": "inplace",
        "label": "uint256[50]",
        "numberOfBytes": "1600"
      },
      "t_bool": {
        "encoding": "inplace",
        "label": "bool",
        "numberOfBytes": "1"
      },
      "t_uint256": {
        "encoding": "inplace",
        "label": "uint256",
        "numberOfBytes": "32"
      },
      "t_uint8": {
        "encoding": "inplace",
        "label": "uint8",
        "numberOfBytes": "1"
      }
    }
  }
}