{
  "address": "0x6985d6af038f177438a6681d1F64d4409Dc8AaC2",
  "abi": [
    {
      "inputs": [
        {
          "internalType": "contract IBullaClaim",
          "name": "_bullaClaim",
          "type": "address"
        },
        {
          "internalType": "address",
          "name": "_admin",
          "type": "address"
        },
        {
          "internalType": "uint256",
          "name": "_fee",
          "type": "uint256"
        }
      ],
      "stateMutability": "nonpayable",
      "type": "constructor"
    },
    {
      "inputs": [],
      "name": "INCORRECT_FEE",
      "type": "error"
    },
    {
      "inputs": [],
      "name": "INVALID_TERM_LENGTH",
      "type": "error"
    },
    {
      "inputs": [],
      "name": "NOT_ADMIN",
      "type": "error"
    },
    {
      "inputs": [],
      "name": "NOT_CREDITOR",
      "type": "error"
    },
    {
      "inputs": [],
      "name": "NOT_CREDITOR_OR_DEBTOR",
      "type": "error"
    },
    {
      "inputs": [],
      "name": "NOT_DEBTOR",
      "type": "error"
    },
    {
      "inputs": [],
      "name": "TRANSFER_FAILED",
      "type": "error"
    },
    {
      "inputs": [],
      "name": "WITHDRAWAL_FAILED",
      "type": "error"
    },
    {
      "anonymous": false,
      "inputs": [
        {
          "indexed": true,
          "internalType": "address",
          "name": "bullaManager",
          "type": "address"
        },
        {
          "indexed": true,
          "internalType": "uint256",
          "name": "tokenId",
          "type": "uint256"
        },
        {
          "indexed": true,
          "internalType": "address",
          "name": "updatedBy",
          "type": "address"
        },
        {
          "indexed": false,
          "internalType": "bytes32",
          "name": "tag",
          "type": "bytes32"
        },
        {
          "indexed": false,
          "internalType": "uint256",
          "name": "blocktime",
          "type": "uint256"
        }
      ],
      "name": "BullaTagUpdated",
      "type": "event"
    },
    {
      "anonymous": false,
      "inputs": [
        {
          "indexed": true,
          "internalType": "uint256",
          "name": "loanId",
          "type": "uint256"
        },
        {
          "indexed": true,
          "internalType": "uint256",
          "name": "claimId",
          "type": "uint256"
        },
        {
          "indexed": false,
          "internalType": "uint256",
          "name": "blocktime",
          "type": "uint256"
        }
      ],
      "name": "LoanOfferAccepted",
      "type": "event"
    },
    {
      "anonymous": false,
      "inputs": [
        {
          "indexed": true,
          "internalType": "uint256",
          "name": "loanId",
          "type": "uint256"
        },
        {
          "indexed": true,
          "internalType": "address",
          "name": "rejectedBy",
          "type": "address"
        },
        {
          "indexed": false,
          "internalType": "uint256",
          "name": "blocktime",
          "type": "uint256"
        }
      ],
      "name": "LoanOfferRejected",
      "type": "event"
    },
    {
      "anonymous": false,
      "inputs": [
        {
          "indexed": true,
          "internalType": "uint256",
          "name": "loanId",
          "type": "uint256"
        },
        {
          "indexed": true,
          "internalType": "address",
          "name": "offeredBy",
          "type": "address"
        },
        {
          "components": [
            {
              "internalType": "uint24",
              "name": "interestBPS",
              "type": "uint24"
            },
            {
              "internalType": "uint40",
              "name": "termLength",
              "type": "uint40"
            },
            {
              "internalType": "uint128",
              "name": "loanAmount",
              "type": "uint128"
            },
            {
              "internalType": "address",
              "name": "creditor",
              "type": "address"
            },
            {
              "internalType": "address",
              "name": "debtor",
              "type": "address"
            },
            {
              "internalType": "string",
              "name": "description",
              "type": "string"
            },
            {
              "internalType": "address",
              "name": "claimToken",
              "type": "address"
            },
            {
              "components": [
                {
                  "internalType": "bytes32",
                  "name": "hash",
                  "type": "bytes32"
                },
                {
                  "internalType": "uint8",
                  "name": "hashFunction",
                  "type": "uint8"
                },
                {
                  "internalType": "uint8",
                  "name": "size",
                  "type": "uint8"
                }
              ],
              "internalType": "struct Multihash",
              "name": "attachment",
              "type": "tuple"
            }
          ],
          "indexed": false,
          "internalType": "struct FrendLend.LoanOffer",
          "name": "loanOffer",
          "type": "tuple"
        },
        {
          "indexed": false,
          "internalType": "uint256",
          "name": "blocktime",
          "type": "uint256"
        }
      ],
      "name": "LoanOffered",
      "type": "event"
    },
    {
      "inputs": [
        {
          "internalType": "uint256",
          "name": "offerId",
          "type": "uint256"
        },
        {
          "internalType": "string",
          "name": "tokenURI",
          "type": "string"
        },
        {
          "internalType": "bytes32",
          "name": "tag",
          "type": "bytes32"
        }
      ],
      "name": "acceptLoan",
      "outputs": [],
      "stateMutability": "nonpayable",
      "type": "function"
    },
    {
      "inputs": [],
      "name": "admin",
      "outputs": [
        {
          "internalType": "address",
          "name": "",
          "type": "address"
        }
      ],
      "stateMutability": "view",
      "type": "function"
    },
    {
      "inputs": [],
      "name": "bullaClaim",
      "outputs": [
        {
          "internalType": "contract IBullaClaim",
          "name": "",
          "type": "address"
        }
      ],
      "stateMutability": "view",
      "type": "function"
    },
    {
      "inputs": [],
      "name": "fee",
      "outputs": [
        {
          "internalType": "uint256",
          "name": "",
          "type": "uint256"
        }
      ],
      "stateMutability": "view",
      "type": "function"
    },
    {
      "inputs": [],
      "name": "loanOfferCount",
      "outputs": [
        {
          "internalType": "uint256",
          "name": "",
          "type": "uint256"
        }
      ],
      "stateMutability": "view",
      "type": "function"
    },
    {
      "inputs": [
        {
          "internalType": "uint256",
          "name": "",
          "type": "uint256"
        }
      ],
      "name": "loanOffers",
      "outputs": [
        {
          "internalType": "uint24",
          "name": "interestBPS",
          "type": "uint24"
        },
        {
          "internalType": "uint40",
          "name": "termLength",
          "type": "uint40"
        },
        {
          "internalType": "uint128",
          "name": "loanAmount",
          "type": "uint128"
        },
        {
          "internalType": "address",
          "name": "creditor",
          "type": "address"
        },
        {
          "internalType": "address",
          "name": "debtor",
          "type": "address"
        },
        {
          "internalType": "string",
          "name": "description",
          "type": "string"
        },
        {
          "internalType": "address",
          "name": "claimToken",
          "type": "address"
        },
        {
          "components": [
            {
              "internalType": "bytes32",
              "name": "hash",
              "type": "bytes32"
            },
            {
              "internalType": "uint8",
              "name": "hashFunction",
              "type": "uint8"
            },
            {
              "internalType": "uint8",
              "name": "size",
              "type": "uint8"
            }
          ],
          "internalType": "struct Multihash",
          "name": "attachment",
          "type": "tuple"
        }
      ],
      "stateMutability": "view",
      "type": "function"
    },
    {
      "inputs": [
        {
          "components": [
            {
              "internalType": "uint24",
              "name": "interestBPS",
              "type": "uint24"
            },
            {
              "internalType": "uint40",
              "name": "termLength",
              "type": "uint40"
            },
            {
              "internalType": "uint128",
              "name": "loanAmount",
              "type": "uint128"
            },
            {
              "internalType": "address",
              "name": "creditor",
              "type": "address"
            },
            {
              "internalType": "address",
              "name": "debtor",
              "type": "address"
            },
            {
              "internalType": "string",
              "name": "description",
              "type": "string"
            },
            {
              "internalType": "address",
              "name": "claimToken",
              "type": "address"
            },
            {
              "components": [
                {
                  "internalType": "bytes32",
                  "name": "hash",
                  "type": "bytes32"
                },
                {
                  "internalType": "uint8",
                  "name": "hashFunction",
                  "type": "uint8"
                },
                {
                  "internalType": "uint8",
                  "name": "size",
                  "type": "uint8"
                }
              ],
              "internalType": "struct Multihash",
              "name": "attachment",
              "type": "tuple"
            }
          ],
          "internalType": "struct FrendLend.LoanOffer",
          "name": "offer",
          "type": "tuple"
        }
      ],
      "name": "offerLoan",
      "outputs": [
        {
          "internalType": "uint256",
          "name": "",
          "type": "uint256"
        }
      ],
      "stateMutability": "payable",
      "type": "function"
    },
    {
      "inputs": [
        {
          "internalType": "uint256",
          "name": "offerId",
          "type": "uint256"
        }
      ],
      "name": "rejectLoanOffer",
      "outputs": [],
      "stateMutability": "nonpayable",
      "type": "function"
    },
    {
      "inputs": [
        {
          "internalType": "uint256",
          "name": "_amount",
          "type": "uint256"
        }
      ],
      "name": "withdrawFee",
      "outputs": [],
      "stateMutability": "nonpayable",
      "type": "function"
    }
  ],
  "transactionHash": "0x4767dd80e04a34a09be57d907c56d104547c0a9ae47aba216ad67d6e852a906c",
  "args": [
    "0x1c534661326b41c8b8aab5631ECED6D9755ff192",
    "0x81f1e947811496453dBBaeA0AC2c250e056BBd96",
    "0"
  ],
  "numDeployments": 1,
  "solcInputHash": "b8545aea175c6ca7dd158e613a2ab35e",
  "bytecode": "0x60806040523480156200001157600080fd5b50604051620033333803806200333383398181016040528101906200003791906200010d565b826000806101000a81548173ffffffffffffffffffffffffffffffffffffffff021916908373ffffffffffffffffffffffffffffffffffffffff16021790555081600160006101000a81548173ffffffffffffffffffffffffffffffffffffffff021916908373ffffffffffffffffffffffffffffffffffffffff160217905550806002819055505050506200020e565b600081519050620000d981620001c0565b92915050565b600081519050620000f081620001da565b92915050565b6000815190506200010781620001f4565b92915050565b600080600060608486031215620001295762000128620001bb565b5b60006200013986828701620000df565b93505060206200014c86828701620000c8565b92505060406200015f86828701620000f6565b9150509250925092565b6000620001768262000191565b9050919050565b60006200018a8262000169565b9050919050565b600073ffffffffffffffffffffffffffffffffffffffff82169050919050565b6000819050919050565b600080fd5b620001cb8162000169565b8114620001d757600080fd5b50565b620001e5816200017d565b8114620001f157600080fd5b50565b620001ff81620001b1565b81146200020b57600080fd5b50565b613115806200021e6000396000f3fe6080604052600436106100865760003560e01c8063a666cab911610059578063a666cab914610153578063be3576161461017e578063d10bb868146101a7578063ddca3f43146101d0578063f851a440146101fb57610086565b8063150a64221461008b5780632c7bdd4b146100b65780632f81f8bb146100fa5780636208d89c1461012a575b600080fd5b34801561009757600080fd5b506100a0610226565b6040516100ad9190612208565b60405180910390f35b3480156100c257600080fd5b506100dd60048036038101906100d89190611a83565b61022c565b6040516100f1989796959493929190612183565b60405180910390f35b610114600480360381019061010f9190611a3a565b6103e6565b6040516101219190612208565b60405180910390f35b34801561013657600080fd5b50610151600480360381019061014c9190611a83565b610584565b005b34801561015f57600080fd5b50610168610a46565b60405161017591906120b6565b60405180910390f35b34801561018a57600080fd5b506101a560048036038101906101a09190611a83565b610a6a565b005b3480156101b357600080fd5b506101ce60048036038101906101c99190611add565b610bba565b005b3480156101dc57600080fd5b506101e5611466565b6040516101f29190612208565b60405180910390f35b34801561020757600080fd5b5061021061146c565b60405161021d9190611f5a565b60405180910390f35b60035481565b60046020528060005260406000206000915090508060000160009054906101000a900462ffffff16908060000160039054906101000a900464ffffffffff16908060000160089054906101000a90046fffffffffffffffffffffffffffffffff16908060010160009054906101000a900473ffffffffffffffffffffffffffffffffffffffff16908060020160009054906101000a900473ffffffffffffffffffffffffffffffffffffffff16908060030180546102e990612975565b80601f016020809104026020016040519081016040528092919081815260200182805461031590612975565b80156103625780601f1061033757610100808354040283529160200191610362565b820191906000526020600020905b81548152906001019060200180831161034557829003601f168201915b5050505050908060040160009054906101000a900473ffffffffffffffffffffffffffffffffffffffff169080600501604051806060016040529081600082015481526020016001820160009054906101000a900460ff1660ff1660ff1681526020016001820160019054906101000a900460ff1660ff1660ff1681525050905088565b60006002543414610423576040517fbd30efc600000000000000000000000000000000000000000000000000000000815260040160405180910390fd5b81606001602081019061043691906119b3565b73ffffffffffffffffffffffffffffffffffffffff163373ffffffffffffffffffffffffffffffffffffffff161461049a576040517f864a486100000000000000000000000000000000000000000000000000000000815260040160405180910390fd5b60008260200160208101906104af9190611b51565b64ffffffffff1614156104ee576040517fe72e726200000000000000000000000000000000000000000000000000000000815260040160405180910390fd5b60006003600081546104ff906129c3565b9190508190559050826004600083815260200190815260200160002081816105279190612f32565b9050503373ffffffffffffffffffffffffffffffffffffffff16817f2c8135e62e42e4a58f701dba91adc10481d6ba72762bb94e531fcac47ec67cec8542604051610573929190612153565b60405180910390a380915050919050565b600060046000838152602001908152602001600020604051806101000160405290816000820160009054906101000a900462ffffff1662ffffff1662ffffff1681526020016000820160039054906101000a900464ffffffffff1664ffffffffff1664ffffffffff1681526020016000820160089054906101000a90046fffffffffffffffffffffffffffffffff166fffffffffffffffffffffffffffffffff166fffffffffffffffffffffffffffffffff1681526020016001820160009054906101000a900473ffffffffffffffffffffffffffffffffffffffff1673ffffffffffffffffffffffffffffffffffffffff1673ffffffffffffffffffffffffffffffffffffffff1681526020016002820160009054906101000a900473ffffffffffffffffffffffffffffffffffffffff1673ffffffffffffffffffffffffffffffffffffffff1673ffffffffffffffffffffffffffffffffffffffff1681526020016003820180546106f790612975565b80601f016020809104026020016040519081016040528092919081815260200182805461072390612975565b80156107705780601f1061074557610100808354040283529160200191610770565b820191906000526020600020905b81548152906001019060200180831161075357829003601f168201915b505050505081526020016004820160009054906101000a900473ffffffffffffffffffffffffffffffffffffffff1673ffffffffffffffffffffffffffffffffffffffff1673ffffffffffffffffffffffffffffffffffffffff16815260200160058201604051806060016040529081600082015481526020016001820160009054906101000a900460ff1660ff1660ff1681526020016001820160019054906101000a900460ff1660ff1660ff1681525050815250509050806060015173ffffffffffffffffffffffffffffffffffffffff163373ffffffffffffffffffffffffffffffffffffffff16141580156108995750806080015173ffffffffffffffffffffffffffffffffffffffff163373ffffffffffffffffffffffffffffffffffffffff1614155b156108d0576040517f703ba1f300000000000000000000000000000000000000000000000000000000815260040160405180910390fd5b60046000838152602001908152602001600020600080820160006101000a81549062ffffff02191690556000820160036101000a81549064ffffffffff02191690556000820160086101000a8154906fffffffffffffffffffffffffffffffff02191690556001820160006101000a81549073ffffffffffffffffffffffffffffffffffffffff02191690556002820160006101000a81549073ffffffffffffffffffffffffffffffffffffffff0219169055600382016000610993919061180e565b6004820160006101000a81549073ffffffffffffffffffffffffffffffffffffffff0219169055600582016000808201600090556001820160006101000a81549060ff02191690556001820160016101000a81549060ff0219169055505050503373ffffffffffffffffffffffffffffffffffffffff16827fbc46b83d2699aadda501802c5fa9eaa3b74d7c1b2932266e9624dbad0d55487f42604051610a3a9190612208565b60405180910390a35050565b60008054906101000a900473ffffffffffffffffffffffffffffffffffffffff1681565b600160009054906101000a900473ffffffffffffffffffffffffffffffffffffffff1673ffffffffffffffffffffffffffffffffffffffff163373ffffffffffffffffffffffffffffffffffffffff1614610af1576040517f6209c08b00000000000000000000000000000000000000000000000000000000815260040160405180910390fd5b6000600160009054906101000a900473ffffffffffffffffffffffffffffffffffffffff1673ffffffffffffffffffffffffffffffffffffffff1682604051610b3990611f45565b60006040518083038185875af1925050503d8060008114610b76576040519150601f19603f3d011682016040523d82523d6000602084013e610b7b565b606091505b5050905080610bb6576040517ffbefd20100000000000000000000000000000000000000000000000000000000815260040160405180910390fd5b5050565b600060046000868152602001908152602001600020604051806101000160405290816000820160009054906101000a900462ffffff1662ffffff1662ffffff1681526020016000820160039054906101000a900464ffffffffff1664ffffffffff1664ffffffffff1681526020016000820160089054906101000a90046fffffffffffffffffffffffffffffffff166fffffffffffffffffffffffffffffffff166fffffffffffffffffffffffffffffffff1681526020016001820160009054906101000a900473ffffffffffffffffffffffffffffffffffffffff1673ffffffffffffffffffffffffffffffffffffffff1673ffffffffffffffffffffffffffffffffffffffff1681526020016002820160009054906101000a900473ffffffffffffffffffffffffffffffffffffffff1673ffffffffffffffffffffffffffffffffffffffff1673ffffffffffffffffffffffffffffffffffffffff168152602001600382018054610d2d90612975565b80601f0160208091040260200160405190810160405280929190818152602001828054610d5990612975565b8015610da65780601f10610d7b57610100808354040283529160200191610da6565b820191906000526020600020905b815481529060010190602001808311610d8957829003601f168201915b505050505081526020016004820160009054906101000a900473ffffffffffffffffffffffffffffffffffffffff1673ffffffffffffffffffffffffffffffffffffffff1673ffffffffffffffffffffffffffffffffffffffff16815260200160058201604051806060016040529081600082015481526020016001820160009054906101000a900460ff1660ff1660ff1681526020016001820160019054906101000a900460ff1660ff1660ff1681525050815250509050806080015173ffffffffffffffffffffffffffffffffffffffff163373ffffffffffffffffffffffffffffffffffffffff1614610ec8576040517f44f1b40000000000000000000000000000000000000000000000000000000000815260040160405180910390fd5b60046000868152602001908152602001600020600080820160006101000a81549062ffffff02191690556000820160036101000a81549064ffffffffff02191690556000820160086101000a8154906fffffffffffffffffffffffffffffffff02191690556001820160006101000a81549073ffffffffffffffffffffffffffffffffffffffff02191690556002820160006101000a81549073ffffffffffffffffffffffffffffffffffffffff0219169055600382016000610f8b919061180e565b6004820160006101000a81549073ffffffffffffffffffffffffffffffffffffffff0219169055600582016000808201600090556001820160006101000a81549060ff02191690556001820160016101000a81549060ff02191690555050505060006001612710836000015162ffffff16846040015161100b91906124d7565b6fffffffffffffffffffffffffffffffff1661102791906124a6565b83604001516fffffffffffffffffffffffffffffffff166110489190612450565b6110529190612450565b905060008060009054906101000a900473ffffffffffffffffffffffffffffffffffffffff1673ffffffffffffffffffffffffffffffffffffffff1663c92aeec1846060015185608001518660a0015186886020015164ffffffffff16426110ba9190612450565b8960c001518a60e001518e8e6040518a63ffffffff1660e01b81526004016110ea99989796959493929190611f75565b602060405180830381600087803b15801561110457600080fd5b505af1158015611118573d6000803e3d6000fd5b505050506040513d601f19601f8201168201806040525081019061113c9190611ab0565b905061119583606001513060018660400151611158919061240a565b6fffffffffffffffffffffffffffffffff168660c0015173ffffffffffffffffffffffffffffffffffffffff16611492909392919063ffffffff16565b8260c0015173ffffffffffffffffffffffffffffffffffffffff1663095ea7b360008054906101000a900473ffffffffffffffffffffffffffffffffffffffff1660016040518363ffffffff1660e01b81526004016111f592919061203b565b602060405180830381600087803b15801561120f57600080fd5b505af1158015611223573d6000803e3d6000fd5b505050506040513d601f19601f820116820180604052508101906112479190611a0d565b5060008054906101000a900473ffffffffffffffffffffffffffffffffffffffff1673ffffffffffffffffffffffffffffffffffffffff1663c99c44488260016040518363ffffffff1660e01b81526004016112a4929190612223565b600060405180830381600087803b1580156112be57600080fd5b505af11580156112d2573d6000803e3d6000fd5b5050505061131f836080015184604001516fffffffffffffffffffffffffffffffff168560c0015173ffffffffffffffffffffffffffffffffffffffff1661151b9092919063ffffffff16565b3373ffffffffffffffffffffffffffffffffffffffff168160008054906101000a900473ffffffffffffffffffffffffffffffffffffffff1673ffffffffffffffffffffffffffffffffffffffff16635e39986f6040518163ffffffff1660e01b815260040160206040518083038186803b15801561139d57600080fd5b505afa1580156113b1573d6000803e3d6000fd5b505050506040513d601f19601f820116820180604052508101906113d591906119e0565b73ffffffffffffffffffffffffffffffffffffffff167f49f89b2b71540cd91d6f6db8f1a06ddb75ad4bbd125e70cf5eb12712ea886f33874260405161141c92919061208d565b60405180910390a480877fc510677fdfd5e92ec5b4548c3fa33aa91c9a1b785c66320c8bc3a2bcb47ee310426040516114559190612208565b60405180910390a350505050505050565b60025481565b600160009054906101000a900473ffffffffffffffffffffffffffffffffffffffff1681565b611515846323b872dd60e01b8585856040516024016114b393929190612004565b604051602081830303815290604052907bffffffffffffffffffffffffffffffffffffffffffffffffffffffff19166020820180517bffffffffffffffffffffffffffffffffffffffffffffffffffffffff83818316178352505050506115a1565b50505050565b61159c8363a9059cbb60e01b848460405160240161153a929190612064565b604051602081830303815290604052907bffffffffffffffffffffffffffffffffffffffffffffffffffffffff19166020820180517bffffffffffffffffffffffffffffffffffffffffffffffffffffffff83818316178352505050506115a1565b505050565b6000611603826040518060400160405280602081526020017f5361666545524332303a206c6f772d6c6576656c2063616c6c206661696c65648152508573ffffffffffffffffffffffffffffffffffffffff166116689092919063ffffffff16565b905060008151111561166357808060200190518101906116239190611a0d565b611662576040517f08c379a000000000000000000000000000000000000000000000000000000000815260040161165990612133565b60405180910390fd5b5b505050565b60606116778484600085611680565b90509392505050565b6060824710156116c5576040517f08c379a00000000000000000000000000000000000000000000000000000000081526004016116bc906120f3565b60405180910390fd5b6116ce85611794565b61170d576040517f08c379a000000000000000000000000000000000000000000000000000000000815260040161170490612113565b60405180910390fd5b6000808673ffffffffffffffffffffffffffffffffffffffff1685876040516117369190611f2e565b60006040518083038185875af1925050503d8060008114611773576040519150601f19603f3d011682016040523d82523d6000602084013e611778565b606091505b50915091506117888282866117a7565b92505050949350505050565b600080823b905060008111915050919050565b606083156117b757829050611807565b6000835111156117ca5782518084602001fd5b816040517f08c379a00000000000000000000000000000000000000000000000000000000081526004016117fe91906120d1565b60405180910390fd5b9392505050565b50805461181a90612975565b6000825580601f1061182c575061184b565b601f01602090049060005260206000209081019061184a919061184e565b5b50565b5b8082111561186757600081600090555060010161184f565b5090565b60008135905061187a81613022565b92915050565b60008151905061188f81613022565b92915050565b6000815190506118a481613039565b92915050565b6000813590506118b981613050565b92915050565b60008083601f8401126118d5576118d4612bc2565b5b8235905067ffffffffffffffff8111156118f2576118f1612bbd565b5b60208301915083600182028301111561190e5761190d612bdb565b5b9250929050565b6000610140828403121561192c5761192b612bcc565b5b81905092915050565b60008135905061194481613067565b92915050565b6000813590506119598161307e565b92915050565b60008135905061196e81613095565b92915050565b60008151905061198381613095565b92915050565b600081359050611998816130ac565b92915050565b6000813590506119ad816130c3565b92915050565b6000602082840312156119c9576119c8612bef565b5b60006119d78482850161186b565b91505092915050565b6000602082840312156119f6576119f5612bef565b5b6000611a0484828501611880565b91505092915050565b600060208284031215611a2357611a22612bef565b5b6000611a3184828501611895565b91505092915050565b600060208284031215611a5057611a4f612bef565b5b600082013567ffffffffffffffff811115611a6e57611a6d612be5565b5b611a7a84828501611915565b91505092915050565b600060208284031215611a9957611a98612bef565b5b6000611aa78482850161195f565b91505092915050565b600060208284031215611ac657611ac5612bef565b5b6000611ad484828501611974565b91505092915050565b60008060008060608587031215611af757611af6612bef565b5b6000611b058782880161195f565b945050602085013567ffffffffffffffff811115611b2657611b25612be5565b5b611b32878288016118bf565b93509350506040611b45878288016118aa565b91505092959194509250565b600060208284031215611b6757611b66612bef565b5b6000611b7584828501611989565b91505092915050565b611b8781612567565b82525050565b611b9681612567565b82525050565b611ba581612585565b82525050565b611bb481612585565b82525050565b6000611bc5826122c4565b611bcf81856122e5565b9350611bdf8185602086016127ca565b80840191505092915050565b611bf481612649565b82525050565b611c038161265b565b82525050565b6000611c1583856122f0565b9350611c228385846127bb565b611c2b83612bf4565b840190509392505050565b6000611c428385612301565b9350611c4f8385846127bb565b611c5883612bf4565b840190509392505050565b6000611c6e826122da565b611c788185612301565b9350611c888185602086016127ca565b611c9181612bf4565b840191505092915050565b6000611ca9602683612301565b9150611cb482612c78565b604082019050919050565b6000611ccc6000836122e5565b9150611cd782612cc7565b600082019050919050565b6000611cef601d83612301565b9150611cfa82612cca565b602082019050919050565b6000611d12602a83612301565b9150611d1d82612cf3565b604082019050919050565b60006101408301611d3c60008401846123c5565b611d496000860182611ed4565b50611d5760208401846123dc565b611d646020860182611f01565b50611d7260408401846123ae565b611d7f6040860182611eb6565b50611d8d6060840184612312565b611d9a6060860182611b7e565b50611da86080840184612312565b611db56080860182611b7e565b50611dc360a0840184612340565b85830360a0870152611dd6838284611c09565b92505050611de760c0840184612312565b611df460c0860182611b7e565b50611e0260e08401846123a3565b611e0f60e0860182611e1a565b508091505092915050565b60608201611e2b6000830183612329565b611e386000850182611b9c565b50611e4660208301836123f3565b611e536020850182611f1f565b50611e6160408301836123f3565b611e6e6040850182611f1f565b50505050565b606082016000820151611e8a6000850182611b9c565b506020820151611e9d6020850182611f1f565b506040820151611eb06040850182611f1f565b50505050565b611ebf8161258f565b82525050565b611ece8161258f565b82525050565b611edd816125cb565b82525050565b611eec816125cb565b82525050565b611efb816125da565b82525050565b611f0a816125e4565b82525050565b611f19816125e4565b82525050565b611f28816125f5565b82525050565b6000611f3a8284611bba565b915081905092915050565b6000611f5082611cbf565b9150819050919050565b6000602082019050611f6f6000830184611b8d565b92915050565b600061014082019050611f8b600083018c611b8d565b611f98602083018b611b8d565b8181036040830152611faa818a611c63565b9050611fb96060830189611ef2565b611fc66080830188611ef2565b611fd360a0830187611b8d565b611fe060c0830186611e74565b818103610120830152611ff4818486611c36565b90509a9950505050505050505050565b60006060820190506120196000830186611b8d565b6120266020830185611b8d565b6120336040830184611ef2565b949350505050565b60006040820190506120506000830185611b8d565b61205d6020830184611bfa565b9392505050565b60006040820190506120796000830185611b8d565b6120866020830184611ef2565b9392505050565b60006040820190506120a26000830185611bab565b6120af6020830184611ef2565b9392505050565b60006020820190506120cb6000830184611beb565b92915050565b600060208201905081810360008301526120eb8184611c63565b905092915050565b6000602082019050818103600083015261210c81611c9c565b9050919050565b6000602082019050818103600083015261212c81611ce2565b9050919050565b6000602082019050818103600083015261214c81611d05565b9050919050565b6000604082019050818103600083015261216d8185611d28565b905061217c6020830184611ef2565b9392505050565b600061014082019050612199600083018b611ee3565b6121a6602083018a611f10565b6121b36040830189611ec5565b6121c06060830188611b8d565b6121cd6080830187611b8d565b81810360a08301526121df8186611c63565b90506121ee60c0830185611b8d565b6121fb60e0830184611e74565b9998505050505050505050565b600060208201905061221d6000830184611ef2565b92915050565b60006040820190506122386000830185611ef2565b6122456020830184611bfa565b9392505050565b6000808335600160200384360303811261226957612268612bd1565b5b80840192508235915067ffffffffffffffff82111561228b5761228a612bc7565b5b6020830192506001820236038313156122a7576122a6612be0565b5b509250929050565b60008190508160005260206000209050919050565b600081519050919050565b600082905092915050565b600081519050919050565b600081905092915050565b600082825260208201905092915050565b600082825260208201905092915050565b6000612321602084018461186b565b905092915050565b600061233860208401846118aa565b905092915050565b6000808335600160200384360303811261235d5761235c612bea565b5b83810192508235915060208301925067ffffffffffffffff82111561238557612384612bb8565b5b60018202360384131561239b5761239a612bd6565b5b509250929050565b600082905092915050565b60006123bd6020840184611935565b905092915050565b60006123d4602084018461194a565b905092915050565b60006123eb6020840184611989565b905092915050565b6000612402602084018461199e565b905092915050565b60006124158261258f565b91506124208361258f565b9250826fffffffffffffffffffffffffffffffff0382111561244557612444612a2a565b5b828201905092915050565b600061245b826125da565b9150612466836125da565b9250827fffffffffffffffffffffffffffffffffffffffffffffffffffffffffffffffff0382111561249b5761249a612a2a565b5b828201905092915050565b60006124b1826125da565b91506124bc836125da565b9250826124cc576124cb612a59565b5b828204905092915050565b60006124e28261258f565b91506124ed8361258f565b9250816fffffffffffffffffffffffffffffffff048311821515161561251657612515612a2a565b5b828202905092915050565b601f82111561256257612533816122af565b61253c84612965565b8101602085101561254b578190505b61255f61255785612965565b830182612602565b50505b505050565b6000612572826125ab565b9050919050565b60008115159050919050565b6000819050919050565b60006fffffffffffffffffffffffffffffffff82169050919050565b600073ffffffffffffffffffffffffffffffffffffffff82169050919050565b600062ffffff82169050919050565b6000819050919050565b600064ffffffffff82169050919050565b600060ff82169050919050565b5b8181101561262157612616600082612c60565b600181019050612603565b5050565b60006126308261267f565b9050919050565b600061264282612585565b9050919050565b60006126548261267f565b9050919050565b6000612666826125da565b9050919050565b60006126788261258f565b9050919050565b600061268a82612691565b9050919050565b600061269c826125ab565b9050919050565b60006126ae826125cb565b9050919050565b60006126c0826125da565b9050919050565b60006126d2826125e4565b9050919050565b60006126e4826125f5565b9050919050565b6126f583836122cf565b67ffffffffffffffff81111561270e5761270d612ab7565b5b6127188254612975565b612723828285612521565b6000601f8311600181146127525760008415612740578287013590505b61274a85826129a7565b8655506127b2565b601f198416612760866122af565b60005b8281101561278857848901358255600182019150602085019450602081019050612763565b868310156127a557848901356127a1601f891682612a0c565b8355505b6001600288020188555050505b50505050505050565b82818337600083830152505050565b60005b838110156127e85780820151818401526020810190506127cd565b838111156127f7576000848401525b50505050565b60008101600083018061280f81612b76565b905061281b8184612f4e565b50505060008101602083018061283081612b8c565b905061283c8184612fb7565b50505060008101604083018061285181612b60565b905061285d8184612fda565b50505060018101606083018061287281612b34565b905061287e8184612edc565b50505060028101608083018061289381612b34565b905061289f8184612edc565b5050506003810160a083016128b4818561224c565b6128bf818386612f22565b505050506004810160c08301806128d581612b34565b90506128e18184612edc565b5050506005810160e08301806128f78184612f40565b5050505050565b60008101600083018061291081612b4a565b905061291c8184612eff565b50505060018101602083018061293181612ba2565b905061293d8184612f71565b50505060018101604083018061295281612ba2565b905061295e8184612f94565b5050505050565b60006020601f8301049050919050565b6000600282049050600182168061298d57607f821691505b602082108114156129a1576129a0612a88565b5b50919050565b60006129b38383612a0c565b9150826002028217905092915050565b60006129ce826125da565b91507fffffffffffffffffffffffffffffffffffffffffffffffffffffffffffffffff821415612a0157612a00612a2a565b5b600182019050919050565b6000612a1d60001984600802612c53565b1980831691505092915050565b7f4e487b7100000000000000000000000000000000000000000000000000000000600052601160045260246000fd5b7f4e487b7100000000000000000000000000000000000000000000000000000000600052601260045260246000fd5b7f4e487b7100000000000000000000000000000000000000000000000000000000600052602260045260246000fd5b7f4e487b7100000000000000000000000000000000000000000000000000000000600052604160045260246000fd5b6000819050919050565b6000612afb82612c46565b9050919050565b6000819050919050565b6000819050919050565b6000819050919050565b6000819050919050565b6000819050919050565b60008135612b4181613022565b80915050919050565b60008135612b5781613050565b80915050919050565b60008135612b6d81613067565b80915050919050565b60008135612b838161307e565b80915050919050565b60008135612b99816130ac565b80915050919050565b60008135612baf816130c3565b80915050919050565b600080fd5b600080fd5b600080fd5b600080fd5b600080fd5b600080fd5b600080fd5b600080fd5b600080fd5b600080fd5b600080fd5b600080fd5b6000601f19601f8301169050919050565b60008160001b9050919050565b60008160181b9050919050565b60008160401b9050919050565b60008160081b9050919050565b600082821b905092915050565b60008160001c9050919050565b600082821c905092915050565b612c686130da565b612c73818484612ffd565b505050565b7f416464726573733a20696e73756666696369656e742062616c616e636520666f60008201527f722063616c6c0000000000000000000000000000000000000000000000000000602082015250565b50565b7f416464726573733a2063616c6c20746f206e6f6e2d636f6e7472616374000000600082015250565b7f5361666545524332303a204552433230206f7065726174696f6e20646964206e60008201527f6f74207375636365656400000000000000000000000000000000000000000000602082015250565b600077ffffffffffffffffffffffffffffffff0000000000000000612d6684612c1f565b9350801983169250808416831791505092915050565b600060ff612d8984612c05565b9350801983169250808416831791505092915050565b600061ff00612dad84612c2c565b9350801983169250808416831791505092915050565b600073ffffffffffffffffffffffffffffffffffffffff612de384612c05565b9350801983169250808416831791505092915050565b60007fffffffffffffffffffffffffffffffffffffffffffffffffffffffffffffffff612e2584612c05565b9350801983169250808416831791505092915050565b600062ffffff612e4a84612c05565b9350801983169250808416831791505092915050565b600067ffffffffff000000612e7484612c12565b9350801983169250808416831791505092915050565b600060088302612eba7fffffffffffffffffffffffffffffffffffffffffffffffffffffffffffffffff82612c39565b612ec48683612c39565b95508019841693508086168417925050509392505050565b612ee582612625565b612ef8612ef182612ae6565b8354612dc3565b8255505050565b612f0882612637565b612f1b612f1482612af0565b8354612df9565b8255505050565b612f2d8383836126eb565b505050565b612f3c82826127fd565b5050565b612f4a82826128fe565b5050565b612f57826126a3565b612f6a612f6382612b0c565b8354612e3b565b8255505050565b612f7a826126d9565b612f8d612f8682612b2a565b8354612d7c565b8255505050565b612f9d826126d9565b612fb0612fa982612b2a565b8354612d9f565b8255505050565b612fc0826126c7565b612fd3612fcc82612b20565b8354612e60565b8255505050565b612fe38261266d565b612ff6612fef82612b02565b8354612d42565b8255505050565b613006836126b5565b61301a61301282612b16565b848454612e8a565b825550505050565b61302b81612567565b811461303657600080fd5b50565b61304281612579565b811461304d57600080fd5b50565b61305981612585565b811461306457600080fd5b50565b6130708161258f565b811461307b57600080fd5b50565b613087816125cb565b811461309257600080fd5b50565b61309e816125da565b81146130a957600080fd5b50565b6130b5816125e4565b81146130c057600080fd5b50565b6130cc816125f5565b81146130d757600080fd5b50565b60009056fea2646970667358221220a6745d04c7639c120a809fb367eea02ae5a2db897220ac42a58ce38149f2864664736f6c63430008070033",
  "devdoc": {
    "author": "@colinnielsen",
    "kind": "dev",
    "methods": {
      "acceptLoan(uint256,string,bytes32)": {
        "params": {
          "offerId": "the offerId to acceot",
          "tag": "a bytes32 tag for the frontend",
          "tokenURI": "the tokenURI for the underlying claim"
        }
      },
      "offerLoan((uint24,uint40,uint128,address,address,string,address,(bytes32,uint8,uint8)))": {
        "params": {
          "offer": "claim creation params and loan info"
        }
      },
      "rejectLoanOffer(uint256)": {
        "params": {
          "offerId": "the offerId to reject"
        }
      }
    },
    "title": "FrendLend POC",
    "version": 1
  },
  "userdoc": {
    "kind": "user",
    "methods": {
      "acceptLoan(uint256,string,bytes32)": {
        "notice": "WARNING: will not work with fee on transfer tokensSPEC:     Allows a debtor to accept a loan offer, and receive payment     This function will:         RES1. Delete the offer from storage         RES2. Creates a new claim for the loan amount + interest         RES3. Transfers the offered loan amount from the creditor to the debtor         RES4. Puts the claim into a non-rejectable repaying state by paying 1 wei         RES5. Emits a BullaTagUpdated event with the claimId, the debtor address, a tag, and the current timestamp         RES6. Emits a LoanOfferAccepted event with the offerId, the accepted claimId, and the current timestamp     Given the following:         P1. the current msg.sender is the debtor listed on the offer (covers: offer exists)"
      },
      "admin()": {
        "notice": "the admin of the contract"
      },
      "bullaClaim()": {
        "notice": "address of the Bulla Claim contract"
      },
      "fee()": {
        "notice": "the fee represented as the wei amount of the network's native token"
      },
      "loanOfferCount()": {
        "notice": "the number of loan offers"
      },
      "loanOffers(uint256)": {
        "notice": "a mapping of id to the FinanceTerms offered by the creditor"
      },
      "offerLoan((uint24,uint40,uint128,address,address,string,address,(bytes32,uint8,uint8)))": {
        "notice": "SPEC:     Allows a user to create offer a loan to a potential debtor     This function will:         RES1. Increment the loan offer count in storage         RES2. Store the offer parameters         RES3. Emit a LoanOffered event with the offer parameters, the offerId, the creator, and the current timestamp         RETURNS: the offerId     Given the following:         P1. `msg.value == fee`         P2. `msg.sender == offer.creditor`         P3. `terms.interestBPS < type(uint24).max`         P4. `terms.termLength < type(uint40).max`         P5. `terms.termLength > 0`"
      },
      "rejectLoanOffer(uint256)": {
        "notice": "SPEC:     Allows a debtor or a offerrer to reject (or rescind) a loan offer     This function will:         RES1. Delete the offer from storage         RES2. Emit a LoanOfferRejected event with the offerId, the msg.sender, and the current timestamp     Given the following:         P1. the current msg.sender is either the creditor or debtor (covers: offer exists)"
      },
      "withdrawFee(uint256)": {
        "notice": "SPEC:     allows an admin to withdraw `withdrawableFee` amount of tokens from this contract's balance     Given the following: `msg.sender == admin`"
      }
    },
    "notice": "An extension to BullaClaim V1 that allows a creditor to offer capital in exchange for a claimThis is experimental software, use at your own risk",
    "version": 1
  },
  "storageLayout": {
    "storage": [
      {
        "astId": 7032,
        "contract": "contracts/FrendLend.sol:FrendLend",
        "label": "bullaClaim",
        "offset": 0,
        "slot": "0",
        "type": "t_contract(IBullaClaim)7574"
      },
      {
        "astId": 7035,
        "contract": "contracts/FrendLend.sol:FrendLend",
        "label": "admin",
        "offset": 0,
        "slot": "1",
        "type": "t_address"
      },
      {
        "astId": 7038,
        "contract": "contracts/FrendLend.sol:FrendLend",
        "label": "fee",
        "offset": 0,
        "slot": "2",
        "type": "t_uint256"
      },
      {
        "astId": 7041,
        "contract": "contracts/FrendLend.sol:FrendLend",
        "label": "loanOfferCount",
        "offset": 0,
        "slot": "3",
        "type": "t_uint256"
      },
      {
        "astId": 7047,
        "contract": "contracts/FrendLend.sol:FrendLend",
        "label": "loanOffers",
        "offset": 0,
        "slot": "4",
        "type": "t_mapping(t_uint256,t_struct(LoanOffer)7028_storage)"
      }
    ],
    "types": {
      "t_address": {
        "encoding": "inplace",
        "label": "address",
        "numberOfBytes": "20"
      },
      "t_bytes32": {
        "encoding": "inplace",
        "label": "bytes32",
        "numberOfBytes": "32"
      },
      "t_contract(IBullaClaim)7574": {
        "encoding": "inplace",
        "label": "contract IBullaClaim",
        "numberOfBytes": "20"
      },
      "t_mapping(t_uint256,t_struct(LoanOffer)7028_storage)": {
        "encoding": "mapping",
        "key": "t_uint256",
        "label": "mapping(uint256 => struct FrendLend.LoanOffer)",
        "numberOfBytes": "32",
        "value": "t_struct(LoanOffer)7028_storage"
      },
      "t_string_storage": {
        "encoding": "bytes",
        "label": "string",
        "numberOfBytes": "32"
      },
      "t_struct(LoanOffer)7028_storage": {
        "encoding": "inplace",
        "label": "struct FrendLend.LoanOffer",
        "members": [
          {
            "astId": 7012,
            "contract": "contracts/FrendLend.sol:FrendLend",
            "label": "interestBPS",
            "offset": 0,
            "slot": "0",
            "type": "t_uint24"
          },
          {
            "astId": 7014,
            "contract": "contracts/FrendLend.sol:FrendLend",
            "label": "termLength",
            "offset": 3,
            "slot": "0",
            "type": "t_uint40"
          },
          {
            "astId": 7016,
            "contract": "contracts/FrendLend.sol:FrendLend",
            "label": "loanAmount",
            "offset": 8,
            "slot": "0",
            "type": "t_uint128"
          },
          {
            "astId": 7018,
            "contract": "contracts/FrendLend.sol:FrendLend",
            "label": "creditor",
            "offset": 0,
            "slot": "1",
            "type": "t_address"
          },
          {
            "astId": 7020,
            "contract": "contracts/FrendLend.sol:FrendLend",
            "label": "debtor",
            "offset": 0,
            "slot": "2",
            "type": "t_address"
          },
          {
            "astId": 7022,
            "contract": "contracts/FrendLend.sol:FrendLend",
            "label": "description",
            "offset": 0,
            "slot": "3",
            "type": "t_string_storage"
          },
          {
            "astId": 7024,
            "contract": "contracts/FrendLend.sol:FrendLend",
            "label": "claimToken",
            "offset": 0,
            "slot": "4",
            "type": "t_address"
          },
          {
            "astId": 7027,
            "contract": "contracts/FrendLend.sol:FrendLend",
            "label": "attachment",
            "offset": 0,
            "slot": "5",
            "type": "t_struct(Multihash)7403_storage"
          }
        ],
        "numberOfBytes": "224"
      },
      "t_struct(Multihash)7403_storage": {
        "encoding": "inplace",
        "label": "struct Multihash",
        "members": [
          {
            "astId": 7398,
            "contract": "contracts/FrendLend.sol:FrendLend",
            "label": "hash",
            "offset": 0,
            "slot": "0",
            "type": "t_bytes32"
          },
          {
            "astId": 7400,
            "contract": "contracts/FrendLend.sol:FrendLend",
            "label": "hashFunction",
            "offset": 0,
            "slot": "1",
            "type": "t_uint8"
          },
          {
            "astId": 7402,
            "contract": "contracts/FrendLend.sol:FrendLend",
            "label": "size",
            "offset": 1,
            "slot": "1",
            "type": "t_uint8"
          }
        ],
        "numberOfBytes": "64"
      },
      "t_uint128": {
        "encoding": "inplace",
        "label": "uint128",
        "numberOfBytes": "16"
      },
      "t_uint24": {
        "encoding": "inplace",
        "label": "uint24",
        "numberOfBytes": "3"
      },
      "t_uint256": {
        "encoding": "inplace",
        "label": "uint256",
        "numberOfBytes": "32"
      },
      "t_uint40": {
        "encoding": "inplace",
        "label": "uint40",
        "numberOfBytes": "5"
      },
      "t_uint8": {
        "encoding": "inplace",
        "label": "uint8",
        "numberOfBytes": "1"
      }
    }
  }
}