{
  "address": "0xcc32679a9BBFCE9e49d1EbA4fAf42E68A227BD06",
  "abi": [
    {
      "inputs": [],
      "name": "FailedInitialization",
      "type": "error"
    },
    {
      "inputs": [
        {
          "internalType": "address",
          "name": "address_",
          "type": "address"
        }
      ],
      "name": "TakenAddress",
      "type": "error"
    },
    {
      "inputs": [
        {
          "internalType": "address",
          "name": "target",
          "type": "address"
        }
      ],
      "name": "ZeroAddress",
      "type": "error"
    },
    {
      "anonymous": false,
      "inputs": [
        {
          "indexed": true,
          "internalType": "address",
          "name": "proxy",
          "type": "address"
        },
        {
          "indexed": true,
          "internalType": "address",
          "name": "masterCopy",
          "type": "address"
        }
      ],
      "name": "ModuleProxyCreation",
      "type": "event"
    },
    {
      "inputs": [
        {
          "internalType": "address",
          "name": "masterCopy",
          "type": "address"
        },
        {
          "internalType": "bytes",
          "name": "initializer",
          "type": "bytes"
        },
        {
          "internalType": "uint256",
          "name": "saltNonce",
          "type": "uint256"
        }
      ],
      "name": "deployModule",
      "outputs": [
        {
          "internalType": "address",
          "name": "proxy",
          "type": "address"
        }
      ],
      "stateMutability": "nonpayable",
      "type": "function"
    }
  ],
  "transactionHash": "0xbd7e0fd835dd04f23e5d840c9b8f4f263798913c347be86ee164f98308a70a88",
  "args": [],
  "numDeployments": 1,
  "solcInputHash": "b8545aea175c6ca7dd158e613a2ab35e",
  "bytecode": "0x608060405234801561001057600080fd5b506107a1806100206000396000f3fe608060405234801561001057600080fd5b506004361061002b5760003560e01c8063f1ab873c14610030575b600080fd5b61004a60048036038101906100459190610359565b610060565b6040516100579190610507565b60405180910390f35b600061009b84848051906020012084604051602001610080929190610493565b604051602081830303815290604052805190602001206101a3565b905060008173ffffffffffffffffffffffffffffffffffffffff16846040516100c491906104bf565b6000604051808303816000865af19150503d8060008114610101576040519150601f19603f3d011682016040523d82523d6000602084013e610106565b606091505b5050905080610141576040517f7dabd39900000000000000000000000000000000000000000000000000000000815260040160405180910390fd5b8473ffffffffffffffffffffffffffffffffffffffff168273ffffffffffffffffffffffffffffffffffffffff167f2150ada912bf189ed721c44211199e270903fc88008c2a1e1e889ef30fe67c5f60405160405180910390a3509392505050565b60008073ffffffffffffffffffffffffffffffffffffffff168373ffffffffffffffffffffffffffffffffffffffff16141561021657826040517fc80b883400000000000000000000000000000000000000000000000000000000815260040161020d9190610507565b60405180910390fd5b60008360405160200161022991906104d6565b6040516020818303038152906040529050828151602083016000f59150600073ffffffffffffffffffffffffffffffffffffffff168273ffffffffffffffffffffffffffffffffffffffff1614156102b857816040517fdc7a7a240000000000000000000000000000000000000000000000000000000081526004016102af9190610507565b60405180910390fd5b5092915050565b60006102d26102cd84610547565b610522565b9050828152602081018484840111156102ee576102ed6106be565b5b6102f98482856105df565b509392505050565b6000813590506103108161073d565b92915050565b600082601f83011261032b5761032a6106b9565b5b813561033b8482602086016102bf565b91505092915050565b60008135905061035381610754565b92915050565b600080600060608486031215610372576103716106c8565b5b600061038086828701610301565b935050602084013567ffffffffffffffff8111156103a1576103a06106c3565b5b6103ad86828701610316565b92505060406103be86828701610344565b9150509250925092565b6103d181610599565b82525050565b6103e86103e382610599565b610652565b82525050565b6103ff6103fa826105ab565b610664565b82525050565b600061041082610578565b61041a8185610583565b935061042a8185602086016105ee565b80840191505092915050565b6000610443600f8361058e565b915061044e826106eb565b600f82019050919050565b600061046660138361058e565b915061047182610714565b601382019050919050565b61048d610488826105d5565b610680565b82525050565b600061049f82856103ee565b6020820191506104af828461047c565b6020820191508190509392505050565b60006104cb8284610405565b915081905092915050565b60006104e182610459565b91506104ed82846103d7565b6014820191506104fc82610436565b915081905092915050565b600060208201905061051c60008301846103c8565b92915050565b600061052c61053d565b90506105388282610621565b919050565b6000604051905090565b600067ffffffffffffffff8211156105625761056161068a565b5b61056b826106cd565b9050602081019050919050565b600081519050919050565b600081905092915050565b600081905092915050565b60006105a4826105b5565b9050919050565b6000819050919050565b600073ffffffffffffffffffffffffffffffffffffffff82169050919050565b6000819050919050565b82818337600083830152505050565b60005b8381101561060c5780820151818401526020810190506105f1565b8381111561061b576000848401525b50505050565b61062a826106cd565b810181811067ffffffffffffffff821117156106495761064861068a565b5b80604052505050565b600061065d8261066e565b9050919050565b6000819050919050565b6000610679826106de565b9050919050565b6000819050919050565b7f4e487b7100000000000000000000000000000000000000000000000000000000600052604160045260246000fd5b600080fd5b600080fd5b600080fd5b600080fd5b6000601f19601f8301169050919050565b60008160601b9050919050565b7f5af43d82803e903d91602b57fd5bf30000000000000000000000000000000000600082015250565b7f602d8060093d393df3363d3d373d3d3d363d7300000000000000000000000000600082015250565b61074681610599565b811461075157600080fd5b50565b61075d816105d5565b811461076857600080fd5b5056fea2646970667358221220a972ac055b0da0de2f9b5940bf05adc30620399811f46f1ed0c021ff461a907564736f6c63430008070033",
  "devdoc": {
    "kind": "dev",
    "methods": {},
    "version": 1
  },
  "userdoc": {
    "errors": {
      "FailedInitialization()": [
        {
          "notice": "Initialization failed."
        }
      ],
      "TakenAddress(address)": [
        {
          "notice": "`address_` is already taken."
        }
      ],
      "ZeroAddress(address)": [
        {
          "notice": "`target` can not be zero."
        }
      ]
    },
    "kind": "user",
    "methods": {},
    "version": 1
  },
  "storageLayout": {
    "storage": [],
    "types": null
  }
}