{
	"data": {
		"bytecode": {
			"linkReferences": {},
			"object": "60a06040523480156200001157600080fd5b50604051620056a4380380620056a4833981810160405281019062000037919062000233565b33600260006101000a81548173ffffffffffffffffffffffffffffffffffffffff021916908373ffffffffffffffffffffffffffffffffffffffff160217905550816000800160006101000a81548173ffffffffffffffffffffffffffffffffffffffff021916908373ffffffffffffffffffffffffffffffffffffffff1602179055508260808181525050806000800160146101000a81548163ffffffff021916908363ffffffff1602179055503073ffffffffffffffffffffffffffffffffffffffff167f920eb1bd59249cc14185b0425c1a4c2749475b15272cb9b73451656ad168e32360008342604051620001339392919062000358565b60405180910390a23073ffffffffffffffffffffffffffffffffffffffff167f28fa443c78eecff2421a89aee0a09ea0d05ad6bb15491e6d8b46c24084bab01e600084426040516200018893929190620002de565b60405180910390a23073ffffffffffffffffffffffffffffffffffffffff167f39186e51606070376273fb5a61f17af17684b1c771b7c32a6ee725284d1a28e460003342604051620001dd939291906200031b565b60405180910390a2505050620004b3565b600081519050620001ff8162000465565b92915050565b60008151905062000216816200047f565b92915050565b6000815190506200022d8162000499565b92915050565b6000806000606084860312156200024957600080fd5b6000620002598682870162000205565b93505060206200026c86828701620001ee565b92505060406200027f868287016200021c565b9150509250925092565b620002948162000401565b82525050565b620002a58162000395565b82525050565b620002b68162000415565b82525050565b620002c781620003e7565b82525050565b620002d88162000451565b82525050565b6000606082019050620002f560008301866200029a565b62000304602083018562000289565b620003136040830184620002bc565b949350505050565b60006060820190506200033260008301866200029a565b6200034160208301856200029a565b620003506040830184620002bc565b949350505050565b60006060820190506200036f6000830186620002ab565b6200037e6020830185620002cd565b6200038d6040830184620002bc565b949350505050565b6000620003a282620003c7565b9050919050565b6000620003b682620003c7565b9050919050565b6000819050919050565b600073ffffffffffffffffffffffffffffffffffffffff82169050919050565b6000819050919050565b600063ffffffff82169050919050565b60006200040e8262000429565b9050919050565b60006200042282620003e7565b9050919050565b600062000436826200043d565b9050919050565b60006200044a82620003c7565b9050919050565b60006200045e82620003f1565b9050919050565b6200047081620003a9565b81146200047c57600080fd5b50565b6200048a81620003bd565b81146200049657600080fd5b50565b620004a481620003f1565b8114620004b057600080fd5b50565b6080516151d5620004cf600039600061061301526151d56000f3fe60806040523480156200001157600080fd5b5060043610620000c45760003560e01c8063995b5aae116200007b578063995b5aae14620001a3578063a6546d0e14620001c8578063a6904aa514620001e8578063aadefd0e1462000208578063eb69615e1462000228578063f10a3179146200024a57620000c4565b80630309e65b14620000c957806313af403514620000ff5780631ab971ab146200011f5780637284e416146200013f5780638b019f9214620001615780638da5cb5b1462000181575b600080fd5b620000e76004803603810190620000e1919062000d89565b6200026a565b604051620000f69190620011d0565b60405180910390f35b6200011d600480360381019062000117919062000d89565b62000389565b005b6200013d600480360381019062000137919062000e81565b620004d6565b005b6200014962000611565b60405162000158919062001174565b60405180910390f35b6200017f600480360381019062000179919062000db5565b62000635565b005b6200018b62000782565b6040516200019a919062000fa0565b60405180910390f35b620001ad620007a8565b604051620001bf949392919062000ffa565b60405180910390f35b620001e66004803603810190620001e0919062000e81565b62000816565b005b62000206600480360381019062000200919062000db5565b62000937565b005b62000226600480360381019062000220919062000de1565b62000a88565b005b6200023262000b43565b60405162000241919062001191565b60405180910390f35b62000268600480360381019062000262919062000e81565b62000b69565b005b600080600073ffffffffffffffffffffffffffffffffffffffff16600160009054906101000a900473ffffffffffffffffffffffffffffffffffffffff1673ffffffffffffffffffffffffffffffffffffffff16146200037b57600160009054906101000a900473ffffffffffffffffffffffffffffffffffffffff1673ffffffffffffffffffffffffffffffffffffffff166370a08231846040518263ffffffff1660e01b815260040162000321919062000fa0565b60206040518083038186803b1580156200033a57600080fd5b505afa1580156200034f573d6000803e3d6000fd5b505050506040513d601f19601f8201168201806040525081019062000375919062000e55565b6200037e565b60005b905080915050919050565b3373ffffffffffffffffffffffffffffffffffffffff16600260009054906101000a900473ffffffffffffffffffffffffffffffffffffffff1673ffffffffffffffffffffffffffffffffffffffff16146200041c576040517f08c379a00000000000000000000000000000000000000000000000000000000081526004016200041390620011ae565b60405180910390fd5b80600260006101000a81548173ffffffffffffffffffffffffffffffffffffffff021916908373ffffffffffffffffffffffffffffffffffffffff1602179055503073ffffffffffffffffffffffffffffffffffffffff167f39186e51606070376273fb5a61f17af17684b1c771b7c32a6ee725284d1a28e4600260009054906101000a900473ffffffffffffffffffffffffffffffffffffffff168342604051620004cb93929190620010d1565b60405180910390a250565b3373ffffffffffffffffffffffffffffffffffffffff16600260009054906101000a900473ffffffffffffffffffffffffffffffffffffffff1673ffffffffffffffffffffffffffffffffffffffff161462000569576040517f08c379a00000000000000000000000000000000000000000000000000000000081526004016200056090620011ae565b60405180910390fd5b60008060000160149054906101000a900463ffffffff169050816000800160146101000a81548163ffffffff021916908363ffffffff1602179055503073ffffffffffffffffffffffffffffffffffffffff167f920eb1bd59249cc14185b0425c1a4c2749475b15272cb9b73451656ad168e323826000800160149054906101000a900463ffffffff16426040516200060593929190620011ed565b60405180910390a25050565b7f000000000000000000000000000000000000000000000000000000000000000081565b3373ffffffffffffffffffffffffffffffffffffffff16600260009054906101000a900473ffffffffffffffffffffffffffffffffffffffff1673ffffffffffffffffffffffffffffffffffffffff1614620006c8576040517f08c379a0000000000000000000000000000000000000000000000000000000008152600401620006bf90620011ae565b60405180910390fd5b80600160006101000a81548173ffffffffffffffffffffffffffffffffffffffff021916908373ffffffffffffffffffffffffffffffffffffffff1602179055503073ffffffffffffffffffffffffffffffffffffffff167f0372929f77950d9d7af01484f77c437aaafdb1f22504ce8a66fa42d233862cc7600160009054906101000a900473ffffffffffffffffffffffffffffffffffffffff168342604051620007779392919062001047565b60405180910390a250565b600260009054906101000a900473ffffffffffffffffffffffffffffffffffffffff1681565b60008060000160009054906101000a900473ffffffffffffffffffffffffffffffffffffffff16908060000160149054906101000a900463ffffffff16908060000160189054906101000a900463ffffffff169080600001601c9054906101000a900463ffffffff16905084565b3373ffffffffffffffffffffffffffffffffffffffff16600260009054906101000a900473ffffffffffffffffffffffffffffffffffffffff1673ffffffffffffffffffffffffffffffffffffffff1614620008a9576040517f08c379a0000000000000000000000000000000000000000000000000000000008152600401620008a090620011ae565b60405180910390fd5b806000800160186101000a81548163ffffffff021916908363ffffffff1602179055503073ffffffffffffffffffffffffffffffffffffffff167f1288d38590ededfeff607d9a0d70a08db1ef3baa2414283868ae007c582fab1d6000800160189054906101000a900463ffffffff1683426040516200092c93929190620011ed565b60405180910390a250565b3373ffffffffffffffffffffffffffffffffffffffff16600260009054906101000a900473ffffffffffffffffffffffffffffffffffffffff1673ffffffffffffffffffffffffffffffffffffffff1614620009ca576040517f08c379a0000000000000000000000000000000000000000000000000000000008152600401620009c190620011ae565b60405180910390fd5b806000800160006101000a81548173ffffffffffffffffffffffffffffffffffffffff021916908373ffffffffffffffffffffffffffffffffffffffff1602179055503073ffffffffffffffffffffffffffffffffffffffff167f28fa443c78eecff2421a89aee0a09ea0d05ad6bb15491e6d8b46c24084bab01e6000800160009054906101000a900473ffffffffffffffffffffffffffffffffffffffff16834260405162000a7d9392919062000fbd565b60405180910390a250565b60003033848460405162000a9c9062000ca4565b62000aab949392919062001084565b604051809103906000f08015801562000ac8573d6000803e3d6000fd5b5090508073ffffffffffffffffffffffffffffffffffffffff163073ffffffffffffffffffffffffffffffffffffffff167f66b8127c6e00807fb605798b9b3c03b87a4fdb64a2c7501524b755000074f15533888888884260405162000b34969594939291906200110e565b60405180910390a35050505050565b600160009054906101000a900473ffffffffffffffffffffffffffffffffffffffff1681565b3373ffffffffffffffffffffffffffffffffffffffff16600260009054906101000a900473ffffffffffffffffffffffffffffffffffffffff1673ffffffffffffffffffffffffffffffffffffffff161462000bfc576040517f08c379a000000000000000000000000000000000000000000000000000000000815260040162000bf390620011ae565b60405180910390fd5b600080600001601c9054906101000a900463ffffffff1690508160008001601c6101000a81548163ffffffff021916908363ffffffff1602179055503073ffffffffffffffffffffffffffffffffffffffff167f920eb1bd59249cc14185b0425c1a4c2749475b15272cb9b73451656ad168e323826000800160149054906101000a900463ffffffff164260405162000c9893929190620011ed565b60405180910390a25050565b613d8f806200141183390190565b60008135905062000cc38162001374565b92915050565b60008135905062000cda816200138e565b92915050565b60008135905062000cf181620013a8565b92915050565b60008135905062000d0881620013c2565b92915050565b60008083601f84011262000d2157600080fd5b8235905067ffffffffffffffff81111562000d3b57600080fd5b60208301915083600182028301111562000d5457600080fd5b9250929050565b60008151905062000d6c81620013dc565b92915050565b60008135905062000d8381620013f6565b92915050565b60006020828403121562000d9c57600080fd5b600062000dac8482850162000cb2565b91505092915050565b60006020828403121562000dc857600080fd5b600062000dd88482850162000cc9565b91505092915050565b6000806000806060858703121562000df857600080fd5b600085013567ffffffffffffffff81111562000e1357600080fd5b62000e218782880162000d0e565b9450945050602062000e368782880162000cf7565b925050604062000e498782880162000ce0565b91505092959194509250565b60006020828403121562000e6857600080fd5b600062000e788482850162000d5b565b91505092915050565b60006020828403121562000e9457600080fd5b600062000ea48482850162000d72565b91505092915050565b62000eb881620012b3565b82525050565b62000ec9816200124f565b82525050565b62000eda816200123b565b82525050565b62000eeb8162001263565b82525050565b62000efc816200126f565b82525050565b62000f0d81620012c7565b82525050565b600062000f2183856200122a565b935062000f308385846200132b565b62000f3b836200133a565b840190509392505050565b600062000f55601c836200122a565b915062000f62826200134b565b602082019050919050565b62000f788162001299565b82525050565b62000f898162001317565b82525050565b62000f9a81620012a3565b82525050565b600060208201905062000fb7600083018462000ecf565b92915050565b600060608201905062000fd4600083018662000ead565b62000fe3602083018562000ead565b62000ff2604083018462000f6d565b949350505050565b600060808201905062001011600083018762000ebe565b62001020602083018662000f8f565b6200102f604083018562000f8f565b6200103e606083018462000f8f565b95945050505050565b60006060820190506200105e600083018662000ecf565b6200106d602083018562000ead565b6200107c604083018462000f6d565b949350505050565b60006080820190506200109b600083018762000ecf565b620010aa602083018662000ecf565b620010b9604083018562000ef1565b620010c8606083018462000ee0565b95945050505050565b6000606082019050620010e8600083018662000ecf565b620010f7602083018562000ecf565b62001106604083018462000f6d565b949350505050565b600060a08201905062001125600083018962000ecf565b81810360208301526200113a81878962000f13565b90506200114b604083018662000ef1565b6200115a606083018562000ee0565b62001169608083018462000f6d565b979650505050505050565b60006020820190506200118b600083018462000ef1565b92915050565b6000602082019050620011a8600083018462000f02565b92915050565b60006020820190508181036000830152620011c98162000f46565b9050919050565b6000602082019050620011e7600083018462000f6d565b92915050565b600060608201905062001204600083018662000f7e565b62001213602083018562000f7e565b62001222604083018462000f6d565b949350505050565b600082825260208201905092915050565b6000620012488262001279565b9050919050565b60006200125c8262001279565b9050919050565b60008115159050919050565b6000819050919050565b600073ffffffffffffffffffffffffffffffffffffffff82169050919050565b6000819050919050565b600063ffffffff82169050919050565b6000620012c082620012ef565b9050919050565b6000620012d482620012db565b9050919050565b6000620012e88262001279565b9050919050565b6000620012fc8262001303565b9050919050565b6000620013108262001279565b9050919050565b60006200132482620012a3565b9050919050565b82818337600083830152505050565b6000601f19601f8301169050919050565b7f7265737472696374656420746f20636f6e7472616374206f776e657200000000600082015250565b6200137f816200123b565b81146200138b57600080fd5b50565b62001399816200124f565b8114620013a557600080fd5b50565b620013b38162001263565b8114620013bf57600080fd5b50565b620013cd816200126f565b8114620013d957600080fd5b50565b620013e78162001299565b8114620013f357600080fd5b50565b6200140181620012a3565b81146200140d57600080fd5b5056fe61010060405260006001553480156200001757600080fd5b5060405162003d8f38038062003d8f83398181016040528101906200003d919062000169565b8273ffffffffffffffffffffffffffffffffffffffff1660e08173ffffffffffffffffffffffffffffffffffffffff1660601b815250508373ffffffffffffffffffffffffffffffffffffffff1660c08173ffffffffffffffffffffffffffffffffffffffff1660601b815250506001600260008573ffffffffffffffffffffffffffffffffffffffff1673ffffffffffffffffffffffffffffffffffffffff16815260200190815260200160002060006101000a81548160ff021916908315150217905550801515608081151560f81b815250508160a08181525050505050506200026d565b60008151905062000135816200021f565b92915050565b6000815190506200014c8162000239565b92915050565b600081519050620001638162000253565b92915050565b600080600080608085870312156200018057600080fd5b6000620001908782880162000124565b9450506020620001a38782880162000124565b9350506040620001b68782880162000152565b9250506060620001c9878288016200013b565b91505092959194509250565b6000620001e282620001ff565b9050919050565b60008115159050919050565b6000819050919050565b600073ffffffffffffffffffffffffffffffffffffffff82169050919050565b6200022a81620001d5565b81146200023657600080fd5b50565b6200024481620001e9565b81146200025057600080fd5b50565b6200025e81620001f5565b81146200026a57600080fd5b50565b60805160f81c60a05160c05160601c60e05160601c613ac3620002cc600039600081816106be01526108de01526000818161035d015281816103ff01526106130152600061069a0152600081816101ff01526103db0152613ac36000f3fe60806040523480156200001157600080fd5b5060043610620000ac5760003560e01c806384f04611116200006f57806384f04611146200016b5780638da5cb5b146200018d5780639ac79e0a14620001af578063a230c52414620001bb578063cb1fb49014620001f157620000ac565b80634a36b55414620000b15780635b84f78914620000d15780635e39986f14620000f357806364914921146200011557806370d1d3a9146200014b575b600080fd5b620000cf6004803603810190620000c9919062000b5b565b620001fd565b005b620000db620003d9565b604051620000ea919062000f36565b60405180910390f35b620000fd620003fd565b6040516200010c919062000e47565b60405180910390f35b6200013360048036038101906200012d919062000bb9565b62000421565b60405162000142919062000e47565b60405180910390f35b62000169600480360381019062000163919062000be5565b62000454565b005b6200017562000698565b60405162000184919062000f53565b60405180910390f35b62000197620006bc565b604051620001a6919062000e47565b60405180910390f35b620001b9620006e0565b005b620001d96004803603810190620001d3919062000b2f565b62000826565b604051620001e8919062000f36565b60405180910390f35b620001fb62000846565b005b7f000000000000000000000000000000000000000000000000000000000000000015620002bb5760011515600260003373ffffffffffffffffffffffffffffffffffffffff1673ffffffffffffffffffffffffffffffffffffffff16815260200190815260200160002060009054906101000a900460ff16151514620002ba576040517f08c379a0000000000000000000000000000000000000000000000000000000008152600401620002b19062000fb4565b60405180910390fd5b5b600060015490503360008083815260200190815260200160002060006101000a81548173ffffffffffffffffffffffffffffffffffffffff021916908373ffffffffffffffffffffffffffffffffffffffff1602179055506001600081548092919062000328906200125d565b91905055503373ffffffffffffffffffffffffffffffffffffffff163073ffffffffffffffffffffffffffffffffffffffff167f000000000000000000000000000000000000000000000000000000000000000073ffffffffffffffffffffffffffffffffffffffff167f8adc65560293304173b1f3ba3e78beabea960458a86c965b7e60c97555eafe568488888842604051620003cb959493929190620010a9565b60405180910390a450505050565b7f000000000000000000000000000000000000000000000000000000000000000081565b7f000000000000000000000000000000000000000000000000000000000000000081565b60006020528060005260406000206000915054906101000a900473ffffffffffffffffffffffffffffffffffffffff1681565b600073ffffffffffffffffffffffffffffffffffffffff1660008088815260200190815260200160002060009054906101000a900473ffffffffffffffffffffffffffffffffffffffff1673ffffffffffffffffffffffffffffffffffffffff161415620004f9576040517f08c379a0000000000000000000000000000000000000000000000000000000008152600401620004f09062000fd6565b60405180910390fd5b3373ffffffffffffffffffffffffffffffffffffffff1660008088815260200190815260200160002060009054906101000a900473ffffffffffffffffffffffffffffffffffffffff1673ffffffffffffffffffffffffffffffffffffffff16146200059c576040517f08c379a0000000000000000000000000000000000000000000000000000000008152600401620005939062000f70565b60405180910390fd5b6000863386868986604051620005b29062000a1d565b620005c3969594939291906200103c565b604051809103906000f080158015620005e0573d6000803e3d6000fd5b5090508373ffffffffffffffffffffffffffffffffffffffff168573ffffffffffffffffffffffffffffffffffffffff167f000000000000000000000000000000000000000000000000000000000000000073ffffffffffffffffffffffffffffffffffffffff167fc0d761127eb7bac4dcb9cf0ac7eb1e3f7a038dcd2baeaa24ea2c175af880b7d7308b86338a8e8b426040516200068798979695949392919062000ea1565b60405180910390a450505050505050565b7f000000000000000000000000000000000000000000000000000000000000000081565b7f000000000000000000000000000000000000000000000000000000000000000081565b60011515600260003373ffffffffffffffffffffffffffffffffffffffff1673ffffffffffffffffffffffffffffffffffffffff16815260200190815260200160002060009054906101000a900460ff161515141562000777576040517f08c379a00000000000000000000000000000000000000000000000000000000081526004016200076e9062000ff8565b60405180910390fd5b6001600260003373ffffffffffffffffffffffffffffffffffffffff1673ffffffffffffffffffffffffffffffffffffffff16815260200190815260200160002060006101000a81548160ff0219169083151502179055503073ffffffffffffffffffffffffffffffffffffffff167f1df2cf570007953635d84156ff46a381ebc11f1580bead15aa768ed8e1b34ab9336001426040516200081c9392919062000e64565b60405180910390a2565b60026020528060005260406000206000915054906101000a900460ff1681565b60011515600260003373ffffffffffffffffffffffffffffffffffffffff1673ffffffffffffffffffffffffffffffffffffffff16815260200190815260200160002060009054906101000a900460ff16151514620008dc576040517f08c379a0000000000000000000000000000000000000000000000000000000008152600401620008d39062000f92565b60405180910390fd5b7f000000000000000000000000000000000000000000000000000000000000000073ffffffffffffffffffffffffffffffffffffffff163373ffffffffffffffffffffffffffffffffffffffff1614156200096e576040517f08c379a000000000000000000000000000000000000000000000000000000000815260040162000965906200101a565b60405180910390fd5b6000600260003373ffffffffffffffffffffffffffffffffffffffff1673ffffffffffffffffffffffffffffffffffffffff16815260200190815260200160002060006101000a81548160ff0219169083151502179055503073ffffffffffffffffffffffffffffffffffffffff167f1df2cf570007953635d84156ff46a381ebc11f1580bead15aa768ed8e1b34ab93360004260405162000a139392919062000e64565b60405180910390a2565b612609806200148583390190565b600062000a4262000a3c8462001128565b620010ff565b90508281526020810184848401111562000a5b57600080fd5b62000a68848285620011e2565b509392505050565b60008135905062000a818162001436565b92915050565b60008135905062000a988162001450565b92915050565b60008083601f84011262000ab157600080fd5b8235905067ffffffffffffffff81111562000acb57600080fd5b60208301915083600182028301111562000ae457600080fd5b9250929050565b600082601f83011262000afd57600080fd5b813562000b0f84826020860162000a2b565b91505092915050565b60008135905062000b29816200146a565b92915050565b60006020828403121562000b4257600080fd5b600062000b528482850162000a70565b91505092915050565b60008060006040848603121562000b7157600080fd5b600084013567ffffffffffffffff81111562000b8c57600080fd5b62000b9a8682870162000a9e565b9350935050602062000baf8682870162000b18565b9150509250925092565b60006020828403121562000bcc57600080fd5b600062000bdc8482850162000b18565b91505092915050565b60008060008060008060c0878903121562000bff57600080fd5b600062000c0f89828a0162000b18565b965050602062000c2289828a0162000b18565b955050604062000c3589828a0162000a87565b945050606062000c4889828a0162000a87565b935050608087013567ffffffffffffffff81111562000c6657600080fd5b62000c7489828a0162000aeb565b92505060a062000c8789828a0162000b18565b9150509295509295509295565b62000c9f816200118e565b82525050565b62000cb0816200117a565b82525050565b62000cc181620011a2565b82525050565b62000cd281620011ae565b82525050565b600062000ce6838562001169565b935062000cf5838584620011e2565b62000d008362001309565b840190509392505050565b600062000d18826200115e565b62000d24818562001169565b935062000d36818560208601620011f1565b62000d418162001309565b840191505092915050565b600062000d5b602b8362001169565b915062000d68826200131a565b604082019050919050565b600062000d8260208362001169565b915062000d8f8262001369565b602082019050919050565b600062000da9601f8362001169565b915062000db68262001392565b602082019050919050565b600062000dd060148362001169565b915062000ddd82620013bb565b602082019050919050565b600062000df7601b8362001169565b915062000e0482620013e4565b602082019050919050565b600062000e1e601b8362001169565b915062000e2b826200140d565b602082019050919050565b62000e4181620011d8565b82525050565b600060208201905062000e5e600083018462000ca5565b92915050565b600060608201905062000e7b600083018662000ca5565b62000e8a602083018562000cb6565b62000e99604083018462000e36565b949350505050565b60006101008201905062000eb9600083018b62000ca5565b62000ec8602083018a62000e36565b62000ed7604083018962000ca5565b62000ee6606083018862000ca5565b818103608083015262000efa818762000d0b565b905062000f0b60a083018662000e36565b62000f1a60c083018562000e36565b62000f2960e083018462000e36565b9998505050505050505050565b600060208201905062000f4d600083018462000cb6565b92915050565b600060208201905062000f6a600083018462000cc7565b92915050565b6000602082019050818103600083015262000f8b8162000d4c565b9050919050565b6000602082019050818103600083015262000fad8162000d73565b9050919050565b6000602082019050818103600083015262000fcf8162000d9a565b9050919050565b6000602082019050818103600083015262000ff18162000dc1565b9050919050565b60006020820190508181036000830152620010138162000de8565b9050919050565b60006020820190508181036000830152620010358162000e0f565b9050919050565b600060c08201905062001053600083018962000e36565b62001062602083018862000c94565b62001071604083018762000c94565b62001080606083018662000c94565b6200108f608083018562000e36565b6200109e60a083018462000e36565b979650505050505050565b6000608082019050620010c0600083018862000e36565b8181036020830152620010d581868862000cd8565b9050620010e6604083018562000e36565b620010f5606083018462000e36565b9695505050505050565b60006200110b6200111e565b905062001119828262001227565b919050565b6000604051905090565b600067ffffffffffffffff821115620011465762001145620012da565b5b620011518262001309565b9050602081019050919050565b600081519050919050565b600082825260208201905092915050565b60006200118782620011b8565b9050919050565b60006200119b82620011b8565b9050919050565b60008115159050919050565b6000819050919050565b600073ffffffffffffffffffffffffffffffffffffffff82169050919050565b6000819050919050565b82818337600083830152505050565b60005b8381101562001211578082015181840152602081019050620011f4565b8381111562001221576000848401525b50505050565b620012328262001309565b810181811067ffffffffffffffff82111715620012545762001253620012da565b5b80604052505050565b60006200126a82620011d8565b91507fffffffffffffffffffffffffffffffffffffffffffffffffffffffffffffffff821415620012a0576200129f620012ab565b5b600182019050919050565b7f4e487b7100000000000000000000000000000000000000000000000000000000600052601160045260246000fd5b7f4e487b7100000000000000000000000000000000000000000000000000000000600052604160045260246000fd5b6000601f19601f8301169050919050565b7f6f6e6c792062756c6c61206f776e65722773206d61792063726561746520612060008201527f62756c6c6120636c61696d000000000000000000000000000000000000000000602082015250565b7f6e6f6e2d6d656d626572732063616e6e6f74206c6561766520612067726f7570600082015250565b7f6e6f6e2d6d656d626572732063616e6e6f74206d616b65206a6f75726e616c00600082015250565b7f62756c6c6120646f6573206e6f74206578697374000000000000000000000000600082015250565b7f6d656d626572732063616e6e6f74206a6f696e20612067726f75700000000000600082015250565b7f6f776e6572732063616e6e6f74206c6561766520612067726f75700000000000600082015250565b62001441816200117a565b81146200144d57600080fd5b50565b6200145b816200118e565b81146200146757600080fd5b50565b6200147581620011d8565b81146200148157600080fd5b5056fe60806040523480156200001157600080fd5b50604051620026093803806200260983398181016040528101906200003791906200018a565b33600360006101000a81548173ffffffffffffffffffffffffffffffffffffffff021916908373ffffffffffffffffffffffffffffffffffffffff1602179055508560028190555084600460006101000a81548173ffffffffffffffffffffffffffffffffffffffff021916908373ffffffffffffffffffffffffffffffffffffffff16021790555083600560006101000a81548173ffffffffffffffffffffffffffffffffffffffff021916908373ffffffffffffffffffffffffffffffffffffffff16021790555082600660006101000a81548173ffffffffffffffffffffffffffffffffffffffff021916908373ffffffffffffffffffffffffffffffffffffffff160217905550816007819055508060088190555050505050505062000292565b6000815190506200016d816200025e565b92915050565b600081519050620001848162000278565b92915050565b60008060008060008060c08789031215620001a457600080fd5b6000620001b489828a0162000173565b9650506020620001c789828a016200015c565b9550506040620001da89828a016200015c565b9450506060620001ed89828a016200015c565b93505060806200020089828a0162000173565b92505060a06200021389828a0162000173565b9150509295509295509295565b60006200022d8262000234565b9050919050565b600073ffffffffffffffffffffffffffffffffffffffff82169050919050565b6000819050919050565b620002698162000220565b81146200027557600080fd5b50565b620002838162000254565b81146200028f57600080fd5b50565b61236780620002a26000396000f3fe6080604052600436106101085760003560e01c8063830953ab116100955780639cb64a2d116100645780639cb64a2d146102f7578063b075bdfa14610322578063c14e56751461034f578063e36db7851461036b578063f2fde38b1461039657610108565b8063830953ab1461024b5780638da5cb5b146102765780638df50ae4146102a15780639a5870b3146102cc57610108565b8063200d2ed2116100dc578063200d2ed214610197578063264c74a5146101c25780633b23ea9c146101eb5780636271a5811461021657806381cd81941461022057610108565b806202eab71461010d5780630bd7693d14610139578063103888091461014357806312fa769f1461016c575b600080fd5b34801561011957600080fd5b506101226103b2565b604051610130929190611c2b565b60405180910390f35b610141610541565b005b34801561014f57600080fd5b5061016a600480360381019061016591906116ad565b6108c1565b005b34801561017857600080fd5b50610181610a67565b60405161018e9190611c10565b60405180910390f35b3480156101a357600080fd5b506101ac610a6d565b6040516101b99190611a95565b60405180910390f35b3480156101ce57600080fd5b506101e960048036038101906101e49190611635565b610a80565b005b3480156101f757600080fd5b50610200610be0565b60405161020d9190611983565b60405180910390f35b61021e610c06565b005b34801561022c57600080fd5b50610235610db8565b6040516102429190611c10565b60405180910390f35b34801561025757600080fd5b50610260610dbe565b60405161026d9190611c10565b60405180910390f35b34801561028257600080fd5b5061028b610dc4565b60405161029891906119b9565b60405180910390f35b3480156102ad57600080fd5b506102b6610dea565b6040516102c39190611c10565b60405180910390f35b3480156102d857600080fd5b506102e1610df0565b6040516102ee9190611c10565b60405180910390f35b34801561030357600080fd5b5061030c610df6565b60405161031991906119b9565b60405180910390f35b34801561032e57600080fd5b50610337610e1c565b60405161034693929190611a5e565b60405180910390f35b61036960048036038101906103649190611684565b610e4e565b005b34801561037757600080fd5b50610380611001565b60405161038d91906119b9565b60405180910390f35b6103b060048036038101906103ab91906115a9565b611027565b005b60008060006103bf611356565b905060008173ffffffffffffffffffffffffffffffffffffffff16630309e65b600460009054906101000a900473ffffffffffffffffffffffffffffffffffffffff166040518263ffffffff1660e01b815260040161041e919061199e565b60206040518083038186803b15801561043657600080fd5b505afa15801561044a573d6000803e3d6000fd5b505050506040513d601f19601f8201168201806040525081019061046e91906116d6565b90506000806000808573ffffffffffffffffffffffffffffffffffffffff1663995b5aae6040518163ffffffff1660e01b815260040160806040518083038186803b1580156104bc57600080fd5b505afa1580156104d0573d6000803e3d6000fd5b505050506040513d601f19601f820116820180604052508101906104f491906115d2565b93509350935093506000808363ffffffff1611801561051957508263ffffffff168610155b6105235783610525565b815b905080858163ffffffff16915098509850505050505050509091565b3373ffffffffffffffffffffffffffffffffffffffff16600660009054906101000a900473ffffffffffffffffffffffffffffffffffffffff1673ffffffffffffffffffffffffffffffffffffffff16146105d1576040517f08c379a00000000000000000000000000000000000000000000000000000000081526004016105c890611b70565b60405180910390fd5b600754346009546105e29190611cc5565b1115610623576040517f08c379a000000000000000000000000000000000000000000000000000000000815260040161061a90611bf0565b60405180910390fd5b60003411610666576040517f08c379a000000000000000000000000000000000000000000000000000000000815260040161065d90611b90565b60405180910390fd5b6000806106716103b2565b915091506000808311610685576000610690565b61068f8334611402565b5b9050600061069c611356565b9050600560009054906101000a900473ffffffffffffffffffffffffffffffffffffffff1673ffffffffffffffffffffffffffffffffffffffff166108fc83346106e69190611da6565b9081150290604051600060405180830381858888f19350505050158015610711573d6000803e3d6000fd5b5061072160006007546000611425565b34600960008282546107339190611cc5565b925050819055506007546009541461079a576001600a60006101000a81548160ff02191690836004811115610791577f4e487b7100000000000000000000000000000000000000000000000000000000600052602160045260246000fd5b021790556107eb565b6002600a60006101000a81548160ff021916908360048111156107e6577f4e487b7100000000000000000000000000000000000000000000000000000000600052602160045260246000fd5b021790555b50600082111561083d578273ffffffffffffffffffffffffffffffffffffffff166108fc839081150290604051600060405180830381858888f1935050505015801561083b573d6000803e3d6000fd5b505b8273ffffffffffffffffffffffffffffffffffffffff163073ffffffffffffffffffffffffffffffffffffffff168273ffffffffffffffffffffffffffffffffffffffff167f7b025f69f5843a875988abc4e248350e4e5d0ec876e181973034e7a5c5bad88485426040516108b3929190611c54565b60405180910390a450505050565b3373ffffffffffffffffffffffffffffffffffffffff16600460009054906101000a900473ffffffffffffffffffffffffffffffffffffffff1673ffffffffffffffffffffffffffffffffffffffff1614610951576040517f08c379a000000000000000000000000000000000000000000000000000000000815260040161094890611bb0565b60405180910390fd5b600560009054906101000a900473ffffffffffffffffffffffffffffffffffffffff1673ffffffffffffffffffffffffffffffffffffffff16600460009054906101000a900473ffffffffffffffffffffffffffffffffffffffff1673ffffffffffffffffffffffffffffffffffffffff1614610a03576040517f08c379a00000000000000000000000000000000000000000000000000000000081526004016109fa90611bd0565b60405180910390fd5b6000600b54905081600b819055503073ffffffffffffffffffffffffffffffffffffffff167fad58c87bad083af5840976457eaf3e6ebfab644c0fba0250f991295f5e7e9e35828442604051610a5b93929190611c7d565b60405180910390a25050565b60095481565b600a60009054906101000a900460ff1681565b3373ffffffffffffffffffffffffffffffffffffffff16600460009054906101000a900473ffffffffffffffffffffffffffffffffffffffff1673ffffffffffffffffffffffffffffffffffffffff1614610b10576040517f08c379a0000000000000000000000000000000000000000000000000000000008152600401610b0790611bb0565b60405180910390fd5b60405180606001604052808481526020018360ff1681526020018260ff16815250600080820151816000015560208201518160010160006101000a81548160ff021916908360ff16021790555060408201518160010160016101000a81548160ff021916908360ff160217905550905050610b89611356565b73ffffffffffffffffffffffffffffffffffffffff167f5143fcc7fdd681177c0156a4bda42cf72b4b9fd524aea941866e7e0a0d78687f30600042604051610bd393929190611a27565b60405180910390a2505050565b600360009054906101000a900473ffffffffffffffffffffffffffffffffffffffff1681565b3373ffffffffffffffffffffffffffffffffffffffff16600560009054906101000a900473ffffffffffffffffffffffffffffffffffffffff1673ffffffffffffffffffffffffffffffffffffffff1614610c96576040517f08c379a0000000000000000000000000000000000000000000000000000000008152600401610c8d90611b10565b60405180910390fd5b60006004811115610cd0577f4e487b7100000000000000000000000000000000000000000000000000000000600052602160045260246000fd5b600a60009054906101000a900460ff166004811115610d18577f4e487b7100000000000000000000000000000000000000000000000000000000600052602160045260246000fd5b14610d58576040517f08c379a0000000000000000000000000000000000000000000000000000000008152600401610d4f90611b50565b60405180910390fd5b6004600a60006101000a81548160ff02191690836004811115610da4577f4e487b7100000000000000000000000000000000000000000000000000000000600052602160045260246000fd5b0217905550610db66002600080611425565b565b600b5481565b60075481565b600460009054906101000a900473ffffffffffffffffffffffffffffffffffffffff1681565b60025481565b60085481565b600660009054906101000a900473ffffffffffffffffffffffffffffffffffffffff1681565b60008060000154908060010160009054906101000a900460ff16908060010160019054906101000a900460ff16905083565b3373ffffffffffffffffffffffffffffffffffffffff16600660009054906101000a900473ffffffffffffffffffffffffffffffffffffffff1673ffffffffffffffffffffffffffffffffffffffff1614610ede576040517f08c379a0000000000000000000000000000000000000000000000000000000008152600401610ed590611b70565b60405180910390fd5b60006004811115610f18577f4e487b7100000000000000000000000000000000000000000000000000000000600052602160045260246000fd5b600a60009054906101000a900460ff166004811115610f60577f4e487b7100000000000000000000000000000000000000000000000000000000600052602160045260246000fd5b14610fa0576040517f08c379a0000000000000000000000000000000000000000000000000000000008152600401610f9790611b30565b60405180910390fd5b6003600a60006101000a81548160ff02191690836004811115610fec577f4e487b7100000000000000000000000000000000000000000000000000000000600052602160045260246000fd5b0217905550610ffe6001600083611425565b50565b600560009054906101000a900473ffffffffffffffffffffffffffffffffffffffff1681565b600560009054906101000a900473ffffffffffffffffffffffffffffffffffffffff1673ffffffffffffffffffffffffffffffffffffffff16600460009054906101000a900473ffffffffffffffffffffffffffffffffffffffff1673ffffffffffffffffffffffffffffffffffffffff16146110d9576040517f08c379a00000000000000000000000000000000000000000000000000000000081526004016110d090611ab0565b60405180910390fd5b6000600b5411806111375750600460009054906101000a900473ffffffffffffffffffffffffffffffffffffffff1673ffffffffffffffffffffffffffffffffffffffff163373ffffffffffffffffffffffffffffffffffffffff16145b611176576040517f08c379a000000000000000000000000000000000000000000000000000000000815260040161116d90611ad0565b60405180910390fd5b600b5434146111ba576040517f08c379a00000000000000000000000000000000000000000000000000000000081526004016111b190611af0565b60405180910390fd5b600460009054906101000a900473ffffffffffffffffffffffffffffffffffffffff1673ffffffffffffffffffffffffffffffffffffffff166108fc349081150290604051600060405180830381858888f19350505050158015611222573d6000803e3d6000fd5b506000600460009054906101000a900473ffffffffffffffffffffffffffffffffffffffff16905081600460006101000a81548173ffffffffffffffffffffffffffffffffffffffff021916908373ffffffffffffffffffffffffffffffffffffffff16021790555081600560006101000a81548173ffffffffffffffffffffffffffffffffffffffff021916908373ffffffffffffffffffffffffffffffffffffffff1602179055506000600b819055508173ffffffffffffffffffffffffffffffffffffffff168173ffffffffffffffffffffffffffffffffffffffff163073ffffffffffffffffffffffffffffffffffffffff167fc432da71cf07ddca9b6990a60d74e7cc2550a93bc44787d381aa5eca20a93b99344260405161134a929190611c54565b60405180910390a45050565b600080600360009054906101000a900473ffffffffffffffffffffffffffffffffffffffff1690508073ffffffffffffffffffffffffffffffffffffffff16635e39986f6040518163ffffffff1660e01b815260040160206040518083038186803b1580156113c457600080fd5b505afa1580156113d8573d6000803e3d6000fd5b505050506040513d601f19601f820116820180604052508101906113fc9190611580565b91505090565b600061271083836114139190611d4c565b61141d9190611d1b565b905092915050565b600254600360009054906101000a900473ffffffffffffffffffffffffffffffffffffffff1673ffffffffffffffffffffffffffffffffffffffff16611469611356565b73ffffffffffffffffffffffffffffffffffffffff167f0e045288ed2dce5e7856d34adb92389085ac6a9bb154f64f310ee26a8f50703b30878787426040516114b69594939291906119d4565b60405180910390a4505050565b6000815190506114d281612297565b92915050565b6000813590506114e7816122ae565b92915050565b6000815190506114fc816122ae565b92915050565b600081359050611511816122c5565b92915050565b600081359050611526816122dc565b92915050565b60008135905061153b816122ec565b92915050565b600081519050611550816122ec565b92915050565b60008151905061156581612303565b92915050565b60008135905061157a8161231a565b92915050565b60006020828403121561159257600080fd5b60006115a0848285016114c3565b91505092915050565b6000602082840312156115bb57600080fd5b60006115c9848285016114d8565b91505092915050565b600080600080608085870312156115e857600080fd5b60006115f6878288016114ed565b945050602061160787828801611556565b935050604061161887828801611556565b925050606061162987828801611556565b91505092959194509250565b60008060006060848603121561164a57600080fd5b600061165886828701611502565b93505060206116698682870161156b565b925050604061167a8682870161156b565b9150509250925092565b60006020828403121561169657600080fd5b60006116a484828501611517565b91505092915050565b6000602082840312156116bf57600080fd5b60006116cd8482850161152c565b91505092915050565b6000602082840312156116e857600080fd5b60006116f684828501611541565b91505092915050565b61170881611e9f565b82525050565b61171781611e03565b82525050565b61172681611df1565b82525050565b61173581611e15565b82525050565b61174481611e15565b82525050565b61175381611eb1565b82525050565b61176281611ec3565b82525050565b61177181611ed5565b82525050565b6000611784602083611cb4565b915061178f82612000565b602082019050919050565b60006117a7603983611cb4565b91506117b282612029565b604082019050919050565b60006117ca602983611cb4565b91506117d582612078565b604082019050919050565b60006117ed601d83611cb4565b91506117f8826120c7565b602082019050919050565b6000611810602883611cb4565b915061181b826120f0565b604082019050919050565b6000611833602983611cb4565b915061183e8261213f565b604082019050919050565b6000611856601b83611cb4565b91506118618261218e565b602082019050919050565b6000611879601e83611cb4565b9150611884826121b7565b602082019050919050565b600061189c601b83611cb4565b91506118a7826121e0565b602082019050919050565b60006118bf601883611cb4565b91506118ca82612209565b602082019050919050565b60006118e2601183611cb4565b91506118ed82612232565b602082019050919050565b60608201600080830154905061190d81611f0b565b61191a600086018261172c565b506001830154905061192b81611f25565b6119386020860182611965565b5061194281611f3f565b61194f6040860182611965565b5050505050565b61195f81611e78565b82525050565b61196e81611e92565b82525050565b61197d81611e92565b82525050565b6000602082019050611998600083018461171d565b92915050565b60006020820190506119b360008301846116ff565b92915050565b60006020820190506119ce600083018461170e565b92915050565b600060a0820190506119e9600083018861171d565b6119f6602083018761174a565b611a036040830186611956565b611a106060830185611759565b611a1d6080830184611956565b9695505050505050565b600060a082019050611a3c600083018661171d565b611a4960208301856118f8565b611a566080830184611956565b949350505050565b6000606082019050611a73600083018661173b565b611a806020830185611974565b611a8d6040830184611974565b949350505050565b6000602082019050611aaa6000830184611768565b92915050565b60006020820190508181036000830152611ac981611777565b9050919050565b60006020820190508181036000830152611ae98161179a565b9050919050565b60006020820190508181036000830152611b09816117bd565b9050919050565b60006020820190508181036000830152611b29816117e0565b9050919050565b60006020820190508181036000830152611b4981611803565b9050919050565b60006020820190508181036000830152611b6981611826565b9050919050565b60006020820190508181036000830152611b8981611849565b9050919050565b60006020820190508181036000830152611ba98161186c565b9050919050565b60006020820190508181036000830152611bc98161188f565b9050919050565b60006020820190508181036000830152611be9816118b2565b9050919050565b60006020820190508181036000830152611c09816118d5565b9050919050565b6000602082019050611c256000830184611956565b92915050565b6000604082019050611c406000830185611956565b611c4d602083018461170e565b9392505050565b6000604082019050611c696000830185611956565b611c766020830184611956565b9392505050565b6000606082019050611c926000830186611956565b611c9f6020830185611956565b611cac6040830184611956565b949350505050565b600082825260208201905092915050565b6000611cd082611e78565b9150611cdb83611e78565b9250827fffffffffffffffffffffffffffffffffffffffffffffffffffffffffffffffff03821115611d1057611d0f611f59565b5b828201905092915050565b6000611d2682611e78565b9150611d3183611e78565b925082611d4157611d40611f88565b5b828204905092915050565b6000611d5782611e78565b9150611d6283611e78565b9250817fffffffffffffffffffffffffffffffffffffffffffffffffffffffffffffffff0483118215151615611d9b57611d9a611f59565b5b828202905092915050565b6000611db182611e78565b9150611dbc83611e78565b925082821015611dcf57611dce611f59565b5b828203905092915050565b6000819050919050565b600060ff82169050919050565b6000611dfc82611e58565b9050919050565b6000611e0e82611e58565b9050919050565b6000819050919050565b6000819050611e2d8261225b565b919050565b6000819050611e408261226f565b919050565b6000819050611e5382612283565b919050565b600073ffffffffffffffffffffffffffffffffffffffff82169050919050565b6000819050919050565b600063ffffffff82169050919050565b600060ff82169050919050565b6000611eaa82611ee7565b9050919050565b6000611ebc82611e1f565b9050919050565b6000611ece82611e32565b9050919050565b6000611ee082611e45565b9050919050565b6000611ef282611ef9565b9050919050565b6000611f0482611e58565b9050919050565b6000611f1e611f1983611fe6565b611dda565b9050919050565b6000611f38611f3383611fe6565b611de4565b9050919050565b6000611f52611f4d83611ff3565b611de4565b9050919050565b7f4e487b7100000000000000000000000000000000000000000000000000000000600052601160045260246000fd5b7f4e487b7100000000000000000000000000000000000000000000000000000000600052601260045260246000fd5b7f4e487b7100000000000000000000000000000000000000000000000000000000600052602160045260246000fd5b60008160001c9050919050565b60008160081c9050919050565b7f6f6e6c7920696e766f696365732063616e206265207472616e73666572726564600082015250565b7f7468697320636c61696d206973206e6f74207472616e7366657261626c65206260008201527f7920616e796f6e65206f74686572207468616e206f776e657200000000000000602082015250565b7f696e636f7272656374206d73672e76616c756520746f207472616e736665722060008201527f6f776e6572736869700000000000000000000000000000000000000000000000602082015250565b7f7265737472696374656420746f206372656469746f722077616c6c6574000000600082015250565b7f63616e6e6f742072656a656374206f6e6365207061796d656e7420686173206260008201527f65656e206d616465000000000000000000000000000000000000000000000000602082015250565b7f63616e6e6f742072657363696e64206f6e6365207061796d656e74206861732060008201527f6265656e206d6164650000000000000000000000000000000000000000000000602082015250565b7f7265737472696374656420746f20646562746f722077616c6c65740000000000600082015250565b7f7061796d656e74206d7573742062652067726561746572207468616e20300000600082015250565b7f7265737472696374656420746f206f776e696e672077616c6c65740000000000600082015250565b7f6f6e6c79206f776e65722063616e207365742070726963650000000000000000600082015250565b7f7265706179696e6720746f6f206d756368000000000000000000000000000000600082015250565b6003811061226c5761226b611fb7565b5b50565b600581106122805761227f611fb7565b5b50565b6005811061229457612293611fb7565b5b50565b6122a081611df1565b81146122ab57600080fd5b50565b6122b781611e03565b81146122c257600080fd5b50565b6122ce81611e15565b81146122d957600080fd5b50565b600581106122e957600080fd5b50565b6122f581611e78565b811461230057600080fd5b50565b61230c81611e82565b811461231757600080fd5b50565b61232381611e92565b811461232e57600080fd5b5056fea26469706673582212203fe610891004d43f2b440f77e74f24a10a9955ae3b8ef0151e53446c4693ef9464736f6c63430008040033a264697066735822122036b2f086e5be5c57ede82df045c1bb875e570712978f1dc4d76297c998d9ec1c64736f6c63430008040033a2646970667358221220db9f1d833b2086f8de5ba08a9461474c8d4845036db86c922b08f1bcd198798764736f6c63430008040033",
			"opcodes": "PUSH1 0xA0 PUSH1 0x40 MSTORE CALLVALUE DUP1 ISZERO PUSH3 0x11 JUMPI PUSH1 0x0 DUP1 REVERT JUMPDEST POP PUSH1 0x40 MLOAD PUSH3 0x56A4 CODESIZE SUB DUP1 PUSH3 0x56A4 DUP4 CODECOPY DUP2 DUP2 ADD PUSH1 0x40 MSTORE DUP2 ADD SWAP1 PUSH3 0x37 SWAP2 SWAP1 PUSH3 0x233 JUMP JUMPDEST CALLER PUSH1 0x2 PUSH1 0x0 PUSH2 0x100 EXP DUP2 SLOAD DUP2 PUSH20 0xFFFFFFFFFFFFFFFFFFFFFFFFFFFFFFFFFFFFFFFF MUL NOT AND SWAP1 DUP4 PUSH20 0xFFFFFFFFFFFFFFFFFFFFFFFFFFFFFFFFFFFFFFFF AND MUL OR SWAP1 SSTORE POP DUP2 PUSH1 0x0 DUP1 ADD PUSH1 0x0 PUSH2 0x100 EXP DUP2 SLOAD DUP2 PUSH20 0xFFFFFFFFFFFFFFFFFFFFFFFFFFFFFFFFFFFFFFFF MUL NOT AND SWAP1 DUP4 PUSH20 0xFFFFFFFFFFFFFFFFFFFFFFFFFFFFFFFFFFFFFFFF AND MUL OR SWAP1 SSTORE POP DUP3 PUSH1 0x80 DUP2 DUP2 MSTORE POP POP DUP1 PUSH1 0x0 DUP1 ADD PUSH1 0x14 PUSH2 0x100 EXP DUP2 SLOAD DUP2 PUSH4 0xFFFFFFFF MUL NOT AND SWAP1 DUP4 PUSH4 0xFFFFFFFF AND MUL OR SWAP1 SSTORE POP ADDRESS PUSH20 0xFFFFFFFFFFFFFFFFFFFFFFFFFFFFFFFFFFFFFFFF AND PUSH32 0x920EB1BD59249CC14185B0425C1A4C2749475B15272CB9B73451656AD168E323 PUSH1 0x0 DUP4 TIMESTAMP PUSH1 0x40 MLOAD PUSH3 0x133 SWAP4 SWAP3 SWAP2 SWAP1 PUSH3 0x358 JUMP JUMPDEST PUSH1 0x40 MLOAD DUP1 SWAP2 SUB SWAP1 LOG2 ADDRESS PUSH20 0xFFFFFFFFFFFFFFFFFFFFFFFFFFFFFFFFFFFFFFFF AND PUSH32 0x28FA443C78EECFF2421A89AEE0A09EA0D05AD6BB15491E6D8B46C24084BAB01E PUSH1 0x0 DUP5 TIMESTAMP PUSH1 0x40 MLOAD PUSH3 0x188 SWAP4 SWAP3 SWAP2 SWAP1 PUSH3 0x2DE JUMP JUMPDEST PUSH1 0x40 MLOAD DUP1 SWAP2 SUB SWAP1 LOG2 ADDRESS PUSH20 0xFFFFFFFFFFFFFFFFFFFFFFFFFFFFFFFFFFFFFFFF AND PUSH32 0x39186E51606070376273FB5A61F17AF17684B1C771B7C32A6EE725284D1A28E4 PUSH1 0x0 CALLER TIMESTAMP PUSH1 0x40 MLOAD PUSH3 0x1DD SWAP4 SWAP3 SWAP2 SWAP1 PUSH3 0x31B JUMP JUMPDEST PUSH1 0x40 MLOAD DUP1 SWAP2 SUB SWAP1 LOG2 POP POP POP PUSH3 0x4B3 JUMP JUMPDEST PUSH1 0x0 DUP2 MLOAD SWAP1 POP PUSH3 0x1FF DUP2 PUSH3 0x465 JUMP JUMPDEST SWAP3 SWAP2 POP POP JUMP JUMPDEST PUSH1 0x0 DUP2 MLOAD SWAP1 POP PUSH3 0x216 DUP2 PUSH3 0x47F JUMP JUMPDEST SWAP3 SWAP2 POP POP JUMP JUMPDEST PUSH1 0x0 DUP2 MLOAD SWAP1 POP PUSH3 0x22D DUP2 PUSH3 0x499 JUMP JUMPDEST SWAP3 SWAP2 POP POP JUMP JUMPDEST PUSH1 0x0 DUP1 PUSH1 0x0 PUSH1 0x60 DUP5 DUP7 SUB SLT ISZERO PUSH3 0x249 JUMPI PUSH1 0x0 DUP1 REVERT JUMPDEST PUSH1 0x0 PUSH3 0x259 DUP7 DUP3 DUP8 ADD PUSH3 0x205 JUMP JUMPDEST SWAP4 POP POP PUSH1 0x20 PUSH3 0x26C DUP7 DUP3 DUP8 ADD PUSH3 0x1EE JUMP JUMPDEST SWAP3 POP POP PUSH1 0x40 PUSH3 0x27F DUP7 DUP3 DUP8 ADD PUSH3 0x21C JUMP JUMPDEST SWAP2 POP POP SWAP3 POP SWAP3 POP SWAP3 JUMP JUMPDEST PUSH3 0x294 DUP2 PUSH3 0x401 JUMP JUMPDEST DUP3 MSTORE POP POP JUMP JUMPDEST PUSH3 0x2A5 DUP2 PUSH3 0x395 JUMP JUMPDEST DUP3 MSTORE POP POP JUMP JUMPDEST PUSH3 0x2B6 DUP2 PUSH3 0x415 JUMP JUMPDEST DUP3 MSTORE POP POP JUMP JUMPDEST PUSH3 0x2C7 DUP2 PUSH3 0x3E7 JUMP JUMPDEST DUP3 MSTORE POP POP JUMP JUMPDEST PUSH3 0x2D8 DUP2 PUSH3 0x451 JUMP JUMPDEST DUP3 MSTORE POP POP JUMP JUMPDEST PUSH1 0x0 PUSH1 0x60 DUP3 ADD SWAP1 POP PUSH3 0x2F5 PUSH1 0x0 DUP4 ADD DUP7 PUSH3 0x29A JUMP JUMPDEST PUSH3 0x304 PUSH1 0x20 DUP4 ADD DUP6 PUSH3 0x289 JUMP JUMPDEST PUSH3 0x313 PUSH1 0x40 DUP4 ADD DUP5 PUSH3 0x2BC JUMP JUMPDEST SWAP5 SWAP4 POP POP POP POP JUMP JUMPDEST PUSH1 0x0 PUSH1 0x60 DUP3 ADD SWAP1 POP PUSH3 0x332 PUSH1 0x0 DUP4 ADD DUP7 PUSH3 0x29A JUMP JUMPDEST PUSH3 0x341 PUSH1 0x20 DUP4 ADD DUP6 PUSH3 0x29A JUMP JUMPDEST PUSH3 0x350 PUSH1 0x40 DUP4 ADD DUP5 PUSH3 0x2BC JUMP JUMPDEST SWAP5 SWAP4 POP POP POP POP JUMP JUMPDEST PUSH1 0x0 PUSH1 0x60 DUP3 ADD SWAP1 POP PUSH3 0x36F PUSH1 0x0 DUP4 ADD DUP7 PUSH3 0x2AB JUMP JUMPDEST PUSH3 0x37E PUSH1 0x20 DUP4 ADD DUP6 PUSH3 0x2CD JUMP JUMPDEST PUSH3 0x38D PUSH1 0x40 DUP4 ADD DUP5 PUSH3 0x2BC JUMP JUMPDEST SWAP5 SWAP4 POP POP POP POP JUMP JUMPDEST PUSH1 0x0 PUSH3 0x3A2 DUP3 PUSH3 0x3C7 JUMP JUMPDEST SWAP1 POP SWAP2 SWAP1 POP JUMP JUMPDEST PUSH1 0x0 PUSH3 0x3B6 DUP3 PUSH3 0x3C7 JUMP JUMPDEST SWAP1 POP SWAP2 SWAP1 POP JUMP JUMPDEST PUSH1 0x0 DUP2 SWAP1 POP SWAP2 SWAP1 POP JUMP JUMPDEST PUSH1 0x0 PUSH20 0xFFFFFFFFFFFFFFFFFFFFFFFFFFFFFFFFFFFFFFFF DUP3 AND SWAP1 POP SWAP2 SWAP1 POP JUMP JUMPDEST PUSH1 0x0 DUP2 SWAP1 POP SWAP2 SWAP1 POP JUMP JUMPDEST PUSH1 0x0 PUSH4 0xFFFFFFFF DUP3 AND SWAP1 POP SWAP2 SWAP1 POP JUMP JUMPDEST PUSH1 0x0 PUSH3 0x40E DUP3 PUSH3 0x429 JUMP JUMPDEST SWAP1 POP SWAP2 SWAP1 POP JUMP JUMPDEST PUSH1 0x0 PUSH3 0x422 DUP3 PUSH3 0x3E7 JUMP JUMPDEST SWAP1 POP SWAP2 SWAP1 POP JUMP JUMPDEST PUSH1 0x0 PUSH3 0x436 DUP3 PUSH3 0x43D JUMP JUMPDEST SWAP1 POP SWAP2 SWAP1 POP JUMP JUMPDEST PUSH1 0x0 PUSH3 0x44A DUP3 PUSH3 0x3C7 JUMP JUMPDEST SWAP1 POP SWAP2 SWAP1 POP JUMP JUMPDEST PUSH1 0x0 PUSH3 0x45E DUP3 PUSH3 0x3F1 JUMP JUMPDEST SWAP1 POP SWAP2 SWAP1 POP JUMP JUMPDEST PUSH3 0x470 DUP2 PUSH3 0x3A9 JUMP JUMPDEST DUP2 EQ PUSH3 0x47C JUMPI PUSH1 0x0 DUP1 REVERT JUMPDEST POP JUMP JUMPDEST PUSH3 0x48A DUP2 PUSH3 0x3BD JUMP JUMPDEST DUP2 EQ PUSH3 0x496 JUMPI PUSH1 0x0 DUP1 REVERT JUMPDEST POP JUMP JUMPDEST PUSH3 0x4A4 DUP2 PUSH3 0x3F1 JUMP JUMPDEST DUP2 EQ PUSH3 0x4B0 JUMPI PUSH1 0x0 DUP1 REVERT JUMPDEST POP JUMP JUMPDEST PUSH1 0x80 MLOAD PUSH2 0x51D5 PUSH3 0x4CF PUSH1 0x0 CODECOPY PUSH1 0x0 PUSH2 0x613 ADD MSTORE PUSH2 0x51D5 PUSH1 0x0 RETURN INVALID PUSH1 0x80 PUSH1 0x40 MSTORE CALLVALUE DUP1 ISZERO PUSH3 0x11 JUMPI PUSH1 0x0 DUP1 REVERT JUMPDEST POP PUSH1 0x4 CALLDATASIZE LT PUSH3 0xC4 JUMPI PUSH1 0x0 CALLDATALOAD PUSH1 0xE0 SHR DUP1 PUSH4 0x995B5AAE GT PUSH3 0x7B JUMPI DUP1 PUSH4 0x995B5AAE EQ PUSH3 0x1A3 JUMPI DUP1 PUSH4 0xA6546D0E EQ PUSH3 0x1C8 JUMPI DUP1 PUSH4 0xA6904AA5 EQ PUSH3 0x1E8 JUMPI DUP1 PUSH4 0xAADEFD0E EQ PUSH3 0x208 JUMPI DUP1 PUSH4 0xEB69615E EQ PUSH3 0x228 JUMPI DUP1 PUSH4 0xF10A3179 EQ PUSH3 0x24A JUMPI PUSH3 0xC4 JUMP JUMPDEST DUP1 PUSH4 0x309E65B EQ PUSH3 0xC9 JUMPI DUP1 PUSH4 0x13AF4035 EQ PUSH3 0xFF JUMPI DUP1 PUSH4 0x1AB971AB EQ PUSH3 0x11F JUMPI DUP1 PUSH4 0x7284E416 EQ PUSH3 0x13F JUMPI DUP1 PUSH4 0x8B019F92 EQ PUSH3 0x161 JUMPI DUP1 PUSH4 0x8DA5CB5B EQ PUSH3 0x181 JUMPI JUMPDEST PUSH1 0x0 DUP1 REVERT JUMPDEST PUSH3 0xE7 PUSH1 0x4 DUP1 CALLDATASIZE SUB DUP2 ADD SWAP1 PUSH3 0xE1 SWAP2 SWAP1 PUSH3 0xD89 JUMP JUMPDEST PUSH3 0x26A JUMP JUMPDEST PUSH1 0x40 MLOAD PUSH3 0xF6 SWAP2 SWAP1 PUSH3 0x11D0 JUMP JUMPDEST PUSH1 0x40 MLOAD DUP1 SWAP2 SUB SWAP1 RETURN JUMPDEST PUSH3 0x11D PUSH1 0x4 DUP1 CALLDATASIZE SUB DUP2 ADD SWAP1 PUSH3 0x117 SWAP2 SWAP1 PUSH3 0xD89 JUMP JUMPDEST PUSH3 0x389 JUMP JUMPDEST STOP JUMPDEST PUSH3 0x13D PUSH1 0x4 DUP1 CALLDATASIZE SUB DUP2 ADD SWAP1 PUSH3 0x137 SWAP2 SWAP1 PUSH3 0xE81 JUMP JUMPDEST PUSH3 0x4D6 JUMP JUMPDEST STOP JUMPDEST PUSH3 0x149 PUSH3 0x611 JUMP JUMPDEST PUSH1 0x40 MLOAD PUSH3 0x158 SWAP2 SWAP1 PUSH3 0x1174 JUMP JUMPDEST PUSH1 0x40 MLOAD DUP1 SWAP2 SUB SWAP1 RETURN JUMPDEST PUSH3 0x17F PUSH1 0x4 DUP1 CALLDATASIZE SUB DUP2 ADD SWAP1 PUSH3 0x179 SWAP2 SWAP1 PUSH3 0xDB5 JUMP JUMPDEST PUSH3 0x635 JUMP JUMPDEST STOP JUMPDEST PUSH3 0x18B PUSH3 0x782 JUMP JUMPDEST PUSH1 0x40 MLOAD PUSH3 0x19A SWAP2 SWAP1 PUSH3 0xFA0 JUMP JUMPDEST PUSH1 0x40 MLOAD DUP1 SWAP2 SUB SWAP1 RETURN JUMPDEST PUSH3 0x1AD PUSH3 0x7A8 JUMP JUMPDEST PUSH1 0x40 MLOAD PUSH3 0x1BF SWAP5 SWAP4 SWAP3 SWAP2 SWAP1 PUSH3 0xFFA JUMP JUMPDEST PUSH1 0x40 MLOAD DUP1 SWAP2 SUB SWAP1 RETURN JUMPDEST PUSH3 0x1E6 PUSH1 0x4 DUP1 CALLDATASIZE SUB DUP2 ADD SWAP1 PUSH3 0x1E0 SWAP2 SWAP1 PUSH3 0xE81 JUMP JUMPDEST PUSH3 0x816 JUMP JUMPDEST STOP JUMPDEST PUSH3 0x206 PUSH1 0x4 DUP1 CALLDATASIZE SUB DUP2 ADD SWAP1 PUSH3 0x200 SWAP2 SWAP1 PUSH3 0xDB5 JUMP JUMPDEST PUSH3 0x937 JUMP JUMPDEST STOP JUMPDEST PUSH3 0x226 PUSH1 0x4 DUP1 CALLDATASIZE SUB DUP2 ADD SWAP1 PUSH3 0x220 SWAP2 SWAP1 PUSH3 0xDE1 JUMP JUMPDEST PUSH3 0xA88 JUMP JUMPDEST STOP JUMPDEST PUSH3 0x232 PUSH3 0xB43 JUMP JUMPDEST PUSH1 0x40 MLOAD PUSH3 0x241 SWAP2 SWAP1 PUSH3 0x1191 JUMP JUMPDEST PUSH1 0x40 MLOAD DUP1 SWAP2 SUB SWAP1 RETURN JUMPDEST PUSH3 0x268 PUSH1 0x4 DUP1 CALLDATASIZE SUB DUP2 ADD SWAP1 PUSH3 0x262 SWAP2 SWAP1 PUSH3 0xE81 JUMP JUMPDEST PUSH3 0xB69 JUMP JUMPDEST STOP JUMPDEST PUSH1 0x0 DUP1 PUSH1 0x0 PUSH20 0xFFFFFFFFFFFFFFFFFFFFFFFFFFFFFFFFFFFFFFFF AND PUSH1 0x1 PUSH1 0x0 SWAP1 SLOAD SWAP1 PUSH2 0x100 EXP SWAP1 DIV PUSH20 0xFFFFFFFFFFFFFFFFFFFFFFFFFFFFFFFFFFFFFFFF AND PUSH20 0xFFFFFFFFFFFFFFFFFFFFFFFFFFFFFFFFFFFFFFFF AND EQ PUSH3 0x37B JUMPI PUSH1 0x1 PUSH1 0x0 SWAP1 SLOAD SWAP1 PUSH2 0x100 EXP SWAP1 DIV PUSH20 0xFFFFFFFFFFFFFFFFFFFFFFFFFFFFFFFFFFFFFFFF AND PUSH20 0xFFFFFFFFFFFFFFFFFFFFFFFFFFFFFFFFFFFFFFFF AND PUSH4 0x70A08231 DUP5 PUSH1 0x40 MLOAD DUP3 PUSH4 0xFFFFFFFF AND PUSH1 0xE0 SHL DUP2 MSTORE PUSH1 0x4 ADD PUSH3 0x321 SWAP2 SWAP1 PUSH3 0xFA0 JUMP JUMPDEST PUSH1 0x20 PUSH1 0x40 MLOAD DUP1 DUP4 SUB DUP2 DUP7 DUP1 EXTCODESIZE ISZERO DUP1 ISZERO PUSH3 0x33A JUMPI PUSH1 0x0 DUP1 REVERT JUMPDEST POP GAS STATICCALL ISZERO DUP1 ISZERO PUSH3 0x34F JUMPI RETURNDATASIZE PUSH1 0x0 DUP1 RETURNDATACOPY RETURNDATASIZE PUSH1 0x0 REVERT JUMPDEST POP POP POP POP PUSH1 0x40 MLOAD RETURNDATASIZE PUSH1 0x1F NOT PUSH1 0x1F DUP3 ADD AND DUP3 ADD DUP1 PUSH1 0x40 MSTORE POP DUP2 ADD SWAP1 PUSH3 0x375 SWAP2 SWAP1 PUSH3 0xE55 JUMP JUMPDEST PUSH3 0x37E JUMP JUMPDEST PUSH1 0x0 JUMPDEST SWAP1 POP DUP1 SWAP2 POP POP SWAP2 SWAP1 POP JUMP JUMPDEST CALLER PUSH20 0xFFFFFFFFFFFFFFFFFFFFFFFFFFFFFFFFFFFFFFFF AND PUSH1 0x2 PUSH1 0x0 SWAP1 SLOAD SWAP1 PUSH2 0x100 EXP SWAP1 DIV PUSH20 0xFFFFFFFFFFFFFFFFFFFFFFFFFFFFFFFFFFFFFFFF AND PUSH20 0xFFFFFFFFFFFFFFFFFFFFFFFFFFFFFFFFFFFFFFFF AND EQ PUSH3 0x41C JUMPI PUSH1 0x40 MLOAD PUSH32 0x8C379A000000000000000000000000000000000000000000000000000000000 DUP2 MSTORE PUSH1 0x4 ADD PUSH3 0x413 SWAP1 PUSH3 0x11AE JUMP JUMPDEST PUSH1 0x40 MLOAD DUP1 SWAP2 SUB SWAP1 REVERT JUMPDEST DUP1 PUSH1 0x2 PUSH1 0x0 PUSH2 0x100 EXP DUP2 SLOAD DUP2 PUSH20 0xFFFFFFFFFFFFFFFFFFFFFFFFFFFFFFFFFFFFFFFF MUL NOT AND SWAP1 DUP4 PUSH20 0xFFFFFFFFFFFFFFFFFFFFFFFFFFFFFFFFFFFFFFFF AND MUL OR SWAP1 SSTORE POP ADDRESS PUSH20 0xFFFFFFFFFFFFFFFFFFFFFFFFFFFFFFFFFFFFFFFF AND PUSH32 0x39186E51606070376273FB5A61F17AF17684B1C771B7C32A6EE725284D1A28E4 PUSH1 0x2 PUSH1 0x0 SWAP1 SLOAD SWAP1 PUSH2 0x100 EXP SWAP1 DIV PUSH20 0xFFFFFFFFFFFFFFFFFFFFFFFFFFFFFFFFFFFFFFFF AND DUP4 TIMESTAMP PUSH1 0x40 MLOAD PUSH3 0x4CB SWAP4 SWAP3 SWAP2 SWAP1 PUSH3 0x10D1 JUMP JUMPDEST PUSH1 0x40 MLOAD DUP1 SWAP2 SUB SWAP1 LOG2 POP JUMP JUMPDEST CALLER PUSH20 0xFFFFFFFFFFFFFFFFFFFFFFFFFFFFFFFFFFFFFFFF AND PUSH1 0x2 PUSH1 0x0 SWAP1 SLOAD SWAP1 PUSH2 0x100 EXP SWAP1 DIV PUSH20 0xFFFFFFFFFFFFFFFFFFFFFFFFFFFFFFFFFFFFFFFF AND PUSH20 0xFFFFFFFFFFFFFFFFFFFFFFFFFFFFFFFFFFFFFFFF AND EQ PUSH3 0x569 JUMPI PUSH1 0x40 MLOAD PUSH32 0x8C379A000000000000000000000000000000000000000000000000000000000 DUP2 MSTORE PUSH1 0x4 ADD PUSH3 0x560 SWAP1 PUSH3 0x11AE JUMP JUMPDEST PUSH1 0x40 MLOAD DUP1 SWAP2 SUB SWAP1 REVERT JUMPDEST PUSH1 0x0 DUP1 PUSH1 0x0 ADD PUSH1 0x14 SWAP1 SLOAD SWAP1 PUSH2 0x100 EXP SWAP1 DIV PUSH4 0xFFFFFFFF AND SWAP1 POP DUP2 PUSH1 0x0 DUP1 ADD PUSH1 0x14 PUSH2 0x100 EXP DUP2 SLOAD DUP2 PUSH4 0xFFFFFFFF MUL NOT AND SWAP1 DUP4 PUSH4 0xFFFFFFFF AND MUL OR SWAP1 SSTORE POP ADDRESS PUSH20 0xFFFFFFFFFFFFFFFFFFFFFFFFFFFFFFFFFFFFFFFF AND PUSH32 0x920EB1BD59249CC14185B0425C1A4C2749475B15272CB9B73451656AD168E323 DUP3 PUSH1 0x0 DUP1 ADD PUSH1 0x14 SWAP1 SLOAD SWAP1 PUSH2 0x100 EXP SWAP1 DIV PUSH4 0xFFFFFFFF AND TIMESTAMP PUSH1 0x40 MLOAD PUSH3 0x605 SWAP4 SWAP3 SWAP2 SWAP1 PUSH3 0x11ED JUMP JUMPDEST PUSH1 0x40 MLOAD DUP1 SWAP2 SUB SWAP1 LOG2 POP POP JUMP JUMPDEST PUSH32 0x0 DUP2 JUMP JUMPDEST CALLER PUSH20 0xFFFFFFFFFFFFFFFFFFFFFFFFFFFFFFFFFFFFFFFF AND PUSH1 0x2 PUSH1 0x0 SWAP1 SLOAD SWAP1 PUSH2 0x100 EXP SWAP1 DIV PUSH20 0xFFFFFFFFFFFFFFFFFFFFFFFFFFFFFFFFFFFFFFFF AND PUSH20 0xFFFFFFFFFFFFFFFFFFFFFFFFFFFFFFFFFFFFFFFF AND EQ PUSH3 0x6C8 JUMPI PUSH1 0x40 MLOAD PUSH32 0x8C379A000000000000000000000000000000000000000000000000000000000 DUP2 MSTORE PUSH1 0x4 ADD PUSH3 0x6BF SWAP1 PUSH3 0x11AE JUMP JUMPDEST PUSH1 0x40 MLOAD DUP1 SWAP2 SUB SWAP1 REVERT JUMPDEST DUP1 PUSH1 0x1 PUSH1 0x0 PUSH2 0x100 EXP DUP2 SLOAD DUP2 PUSH20 0xFFFFFFFFFFFFFFFFFFFFFFFFFFFFFFFFFFFFFFFF MUL NOT AND SWAP1 DUP4 PUSH20 0xFFFFFFFFFFFFFFFFFFFFFFFFFFFFFFFFFFFFFFFF AND MUL OR SWAP1 SSTORE POP ADDRESS PUSH20 0xFFFFFFFFFFFFFFFFFFFFFFFFFFFFFFFFFFFFFFFF AND PUSH32 0x372929F77950D9D7AF01484F77C437AAAFDB1F22504CE8A66FA42D233862CC7 PUSH1 0x1 PUSH1 0x0 SWAP1 SLOAD SWAP1 PUSH2 0x100 EXP SWAP1 DIV PUSH20 0xFFFFFFFFFFFFFFFFFFFFFFFFFFFFFFFFFFFFFFFF AND DUP4 TIMESTAMP PUSH1 0x40 MLOAD PUSH3 0x777 SWAP4 SWAP3 SWAP2 SWAP1 PUSH3 0x1047 JUMP JUMPDEST PUSH1 0x40 MLOAD DUP1 SWAP2 SUB SWAP1 LOG2 POP JUMP JUMPDEST PUSH1 0x2 PUSH1 0x0 SWAP1 SLOAD SWAP1 PUSH2 0x100 EXP SWAP1 DIV PUSH20 0xFFFFFFFFFFFFFFFFFFFFFFFFFFFFFFFFFFFFFFFF AND DUP2 JUMP JUMPDEST PUSH1 0x0 DUP1 PUSH1 0x0 ADD PUSH1 0x0 SWAP1 SLOAD SWAP1 PUSH2 0x100 EXP SWAP1 DIV PUSH20 0xFFFFFFFFFFFFFFFFFFFFFFFFFFFFFFFFFFFFFFFF AND SWAP1 DUP1 PUSH1 0x0 ADD PUSH1 0x14 SWAP1 SLOAD SWAP1 PUSH2 0x100 EXP SWAP1 DIV PUSH4 0xFFFFFFFF AND SWAP1 DUP1 PUSH1 0x0 ADD PUSH1 0x18 SWAP1 SLOAD SWAP1 PUSH2 0x100 EXP SWAP1 DIV PUSH4 0xFFFFFFFF AND SWAP1 DUP1 PUSH1 0x0 ADD PUSH1 0x1C SWAP1 SLOAD SWAP1 PUSH2 0x100 EXP SWAP1 DIV PUSH4 0xFFFFFFFF AND SWAP1 POP DUP5 JUMP JUMPDEST CALLER PUSH20 0xFFFFFFFFFFFFFFFFFFFFFFFFFFFFFFFFFFFFFFFF AND PUSH1 0x2 PUSH1 0x0 SWAP1 SLOAD SWAP1 PUSH2 0x100 EXP SWAP1 DIV PUSH20 0xFFFFFFFFFFFFFFFFFFFFFFFFFFFFFFFFFFFFFFFF AND PUSH20 0xFFFFFFFFFFFFFFFFFFFFFFFFFFFFFFFFFFFFFFFF AND EQ PUSH3 0x8A9 JUMPI PUSH1 0x40 MLOAD PUSH32 0x8C379A000000000000000000000000000000000000000000000000000000000 DUP2 MSTORE PUSH1 0x4 ADD PUSH3 0x8A0 SWAP1 PUSH3 0x11AE JUMP JUMPDEST PUSH1 0x40 MLOAD DUP1 SWAP2 SUB SWAP1 REVERT JUMPDEST DUP1 PUSH1 0x0 DUP1 ADD PUSH1 0x18 PUSH2 0x100 EXP DUP2 SLOAD DUP2 PUSH4 0xFFFFFFFF MUL NOT AND SWAP1 DUP4 PUSH4 0xFFFFFFFF AND MUL OR SWAP1 SSTORE POP ADDRESS PUSH20 0xFFFFFFFFFFFFFFFFFFFFFFFFFFFFFFFFFFFFFFFF AND PUSH32 0x1288D38590EDEDFEFF607D9A0D70A08DB1EF3BAA2414283868AE007C582FAB1D PUSH1 0x0 DUP1 ADD PUSH1 0x18 SWAP1 SLOAD SWAP1 PUSH2 0x100 EXP SWAP1 DIV PUSH4 0xFFFFFFFF AND DUP4 TIMESTAMP PUSH1 0x40 MLOAD PUSH3 0x92C SWAP4 SWAP3 SWAP2 SWAP1 PUSH3 0x11ED JUMP JUMPDEST PUSH1 0x40 MLOAD DUP1 SWAP2 SUB SWAP1 LOG2 POP JUMP JUMPDEST CALLER PUSH20 0xFFFFFFFFFFFFFFFFFFFFFFFFFFFFFFFFFFFFFFFF AND PUSH1 0x2 PUSH1 0x0 SWAP1 SLOAD SWAP1 PUSH2 0x100 EXP SWAP1 DIV PUSH20 0xFFFFFFFFFFFFFFFFFFFFFFFFFFFFFFFFFFFFFFFF AND PUSH20 0xFFFFFFFFFFFFFFFFFFFFFFFFFFFFFFFFFFFFFFFF AND EQ PUSH3 0x9CA JUMPI PUSH1 0x40 MLOAD PUSH32 0x8C379A000000000000000000000000000000000000000000000000000000000 DUP2 MSTORE PUSH1 0x4 ADD PUSH3 0x9C1 SWAP1 PUSH3 0x11AE JUMP JUMPDEST PUSH1 0x40 MLOAD DUP1 SWAP2 SUB SWAP1 REVERT JUMPDEST DUP1 PUSH1 0x0 DUP1 ADD PUSH1 0x0 PUSH2 0x100 EXP DUP2 SLOAD DUP2 PUSH20 0xFFFFFFFFFFFFFFFFFFFFFFFFFFFFFFFFFFFFFFFF MUL NOT AND SWAP1 DUP4 PUSH20 0xFFFFFFFFFFFFFFFFFFFFFFFFFFFFFFFFFFFFFFFF AND MUL OR SWAP1 SSTORE POP ADDRESS PUSH20 0xFFFFFFFFFFFFFFFFFFFFFFFFFFFFFFFFFFFFFFFF AND PUSH32 0x28FA443C78EECFF2421A89AEE0A09EA0D05AD6BB15491E6D8B46C24084BAB01E PUSH1 0x0 DUP1 ADD PUSH1 0x0 SWAP1 SLOAD SWAP1 PUSH2 0x100 EXP SWAP1 DIV PUSH20 0xFFFFFFFFFFFFFFFFFFFFFFFFFFFFFFFFFFFFFFFF AND DUP4 TIMESTAMP PUSH1 0x40 MLOAD PUSH3 0xA7D SWAP4 SWAP3 SWAP2 SWAP1 PUSH3 0xFBD JUMP JUMPDEST PUSH1 0x40 MLOAD DUP1 SWAP2 SUB SWAP1 LOG2 POP JUMP JUMPDEST PUSH1 0x0 ADDRESS CALLER DUP5 DUP5 PUSH1 0x40 MLOAD PUSH3 0xA9C SWAP1 PUSH3 0xCA4 JUMP JUMPDEST PUSH3 0xAAB SWAP5 SWAP4 SWAP3 SWAP2 SWAP1 PUSH3 0x1084 JUMP JUMPDEST PUSH1 0x40 MLOAD DUP1 SWAP2 SUB SWAP1 PUSH1 0x0 CREATE DUP1 ISZERO DUP1 ISZERO PUSH3 0xAC8 JUMPI RETURNDATASIZE PUSH1 0x0 DUP1 RETURNDATACOPY RETURNDATASIZE PUSH1 0x0 REVERT JUMPDEST POP SWAP1 POP DUP1 PUSH20 0xFFFFFFFFFFFFFFFFFFFFFFFFFFFFFFFFFFFFFFFF AND ADDRESS PUSH20 0xFFFFFFFFFFFFFFFFFFFFFFFFFFFFFFFFFFFFFFFF AND PUSH32 0x66B8127C6E00807FB605798B9B3C03B87A4FDB64A2C7501524B755000074F155 CALLER DUP9 DUP9 DUP9 DUP9 TIMESTAMP PUSH1 0x40 MLOAD PUSH3 0xB34 SWAP7 SWAP6 SWAP5 SWAP4 SWAP3 SWAP2 SWAP1 PUSH3 0x110E JUMP JUMPDEST PUSH1 0x40 MLOAD DUP1 SWAP2 SUB SWAP1 LOG3 POP POP POP POP POP JUMP JUMPDEST PUSH1 0x1 PUSH1 0x0 SWAP1 SLOAD SWAP1 PUSH2 0x100 EXP SWAP1 DIV PUSH20 0xFFFFFFFFFFFFFFFFFFFFFFFFFFFFFFFFFFFFFFFF AND DUP2 JUMP JUMPDEST CALLER PUSH20 0xFFFFFFFFFFFFFFFFFFFFFFFFFFFFFFFFFFFFFFFF AND PUSH1 0x2 PUSH1 0x0 SWAP1 SLOAD SWAP1 PUSH2 0x100 EXP SWAP1 DIV PUSH20 0xFFFFFFFFFFFFFFFFFFFFFFFFFFFFFFFFFFFFFFFF AND PUSH20 0xFFFFFFFFFFFFFFFFFFFFFFFFFFFFFFFFFFFFFFFF AND EQ PUSH3 0xBFC JUMPI PUSH1 0x40 MLOAD PUSH32 0x8C379A000000000000000000000000000000000000000000000000000000000 DUP2 MSTORE PUSH1 0x4 ADD PUSH3 0xBF3 SWAP1 PUSH3 0x11AE JUMP JUMPDEST PUSH1 0x40 MLOAD DUP1 SWAP2 SUB SWAP1 REVERT JUMPDEST PUSH1 0x0 DUP1 PUSH1 0x0 ADD PUSH1 0x1C SWAP1 SLOAD SWAP1 PUSH2 0x100 EXP SWAP1 DIV PUSH4 0xFFFFFFFF AND SWAP1 POP DUP2 PUSH1 0x0 DUP1 ADD PUSH1 0x1C PUSH2 0x100 EXP DUP2 SLOAD DUP2 PUSH4 0xFFFFFFFF MUL NOT AND SWAP1 DUP4 PUSH4 0xFFFFFFFF AND MUL OR SWAP1 SSTORE POP ADDRESS PUSH20 0xFFFFFFFFFFFFFFFFFFFFFFFFFFFFFFFFFFFFFFFF AND PUSH32 0x920EB1BD59249CC14185B0425C1A4C2749475B15272CB9B73451656AD168E323 DUP3 PUSH1 0x0 DUP1 ADD PUSH1 0x14 SWAP1 SLOAD SWAP1 PUSH2 0x100 EXP SWAP1 DIV PUSH4 0xFFFFFFFF AND TIMESTAMP PUSH1 0x40 MLOAD PUSH3 0xC98 SWAP4 SWAP3 SWAP2 SWAP1 PUSH3 0x11ED JUMP JUMPDEST PUSH1 0x40 MLOAD DUP1 SWAP2 SUB SWAP1 LOG2 POP POP JUMP JUMPDEST PUSH2 0x3D8F DUP1 PUSH3 0x1411 DUP4 CODECOPY ADD SWAP1 JUMP JUMPDEST PUSH1 0x0 DUP2 CALLDATALOAD SWAP1 POP PUSH3 0xCC3 DUP2 PUSH3 0x1374 JUMP JUMPDEST SWAP3 SWAP2 POP POP JUMP JUMPDEST PUSH1 0x0 DUP2 CALLDATALOAD SWAP1 POP PUSH3 0xCDA DUP2 PUSH3 0x138E JUMP JUMPDEST SWAP3 SWAP2 POP POP JUMP JUMPDEST PUSH1 0x0 DUP2 CALLDATALOAD SWAP1 POP PUSH3 0xCF1 DUP2 PUSH3 0x13A8 JUMP JUMPDEST SWAP3 SWAP2 POP POP JUMP JUMPDEST PUSH1 0x0 DUP2 CALLDATALOAD SWAP1 POP PUSH3 0xD08 DUP2 PUSH3 0x13C2 JUMP JUMPDEST SWAP3 SWAP2 POP POP JUMP JUMPDEST PUSH1 0x0 DUP1 DUP4 PUSH1 0x1F DUP5 ADD SLT PUSH3 0xD21 JUMPI PUSH1 0x0 DUP1 REVERT JUMPDEST DUP3 CALLDATALOAD SWAP1 POP PUSH8 0xFFFFFFFFFFFFFFFF DUP2 GT ISZERO PUSH3 0xD3B JUMPI PUSH1 0x0 DUP1 REVERT JUMPDEST PUSH1 0x20 DUP4 ADD SWAP2 POP DUP4 PUSH1 0x1 DUP3 MUL DUP4 ADD GT ISZERO PUSH3 0xD54 JUMPI PUSH1 0x0 DUP1 REVERT JUMPDEST SWAP3 POP SWAP3 SWAP1 POP JUMP JUMPDEST PUSH1 0x0 DUP2 MLOAD SWAP1 POP PUSH3 0xD6C DUP2 PUSH3 0x13DC JUMP JUMPDEST SWAP3 SWAP2 POP POP JUMP JUMPDEST PUSH1 0x0 DUP2 CALLDATALOAD SWAP1 POP PUSH3 0xD83 DUP2 PUSH3 0x13F6 JUMP JUMPDEST SWAP3 SWAP2 POP POP JUMP JUMPDEST PUSH1 0x0 PUSH1 0x20 DUP3 DUP5 SUB SLT ISZERO PUSH3 0xD9C JUMPI PUSH1 0x0 DUP1 REVERT JUMPDEST PUSH1 0x0 PUSH3 0xDAC DUP5 DUP3 DUP6 ADD PUSH3 0xCB2 JUMP JUMPDEST SWAP2 POP POP SWAP3 SWAP2 POP POP JUMP JUMPDEST PUSH1 0x0 PUSH1 0x20 DUP3 DUP5 SUB SLT ISZERO PUSH3 0xDC8 JUMPI PUSH1 0x0 DUP1 REVERT JUMPDEST PUSH1 0x0 PUSH3 0xDD8 DUP5 DUP3 DUP6 ADD PUSH3 0xCC9 JUMP JUMPDEST SWAP2 POP POP SWAP3 SWAP2 POP POP JUMP JUMPDEST PUSH1 0x0 DUP1 PUSH1 0x0 DUP1 PUSH1 0x60 DUP6 DUP8 SUB SLT ISZERO PUSH3 0xDF8 JUMPI PUSH1 0x0 DUP1 REVERT JUMPDEST PUSH1 0x0 DUP6 ADD CALLDATALOAD PUSH8 0xFFFFFFFFFFFFFFFF DUP2 GT ISZERO PUSH3 0xE13 JUMPI PUSH1 0x0 DUP1 REVERT JUMPDEST PUSH3 0xE21 DUP8 DUP3 DUP9 ADD PUSH3 0xD0E JUMP JUMPDEST SWAP5 POP SWAP5 POP POP PUSH1 0x20 PUSH3 0xE36 DUP8 DUP3 DUP9 ADD PUSH3 0xCF7 JUMP JUMPDEST SWAP3 POP POP PUSH1 0x40 PUSH3 0xE49 DUP8 DUP3 DUP9 ADD PUSH3 0xCE0 JUMP JUMPDEST SWAP2 POP POP SWAP3 SWAP6 SWAP2 SWAP5 POP SWAP3 POP JUMP JUMPDEST PUSH1 0x0 PUSH1 0x20 DUP3 DUP5 SUB SLT ISZERO PUSH3 0xE68 JUMPI PUSH1 0x0 DUP1 REVERT JUMPDEST PUSH1 0x0 PUSH3 0xE78 DUP5 DUP3 DUP6 ADD PUSH3 0xD5B JUMP JUMPDEST SWAP2 POP POP SWAP3 SWAP2 POP POP JUMP JUMPDEST PUSH1 0x0 PUSH1 0x20 DUP3 DUP5 SUB SLT ISZERO PUSH3 0xE94 JUMPI PUSH1 0x0 DUP1 REVERT JUMPDEST PUSH1 0x0 PUSH3 0xEA4 DUP5 DUP3 DUP6 ADD PUSH3 0xD72 JUMP JUMPDEST SWAP2 POP POP SWAP3 SWAP2 POP POP JUMP JUMPDEST PUSH3 0xEB8 DUP2 PUSH3 0x12B3 JUMP JUMPDEST DUP3 MSTORE POP POP JUMP JUMPDEST PUSH3 0xEC9 DUP2 PUSH3 0x124F JUMP JUMPDEST DUP3 MSTORE POP POP JUMP JUMPDEST PUSH3 0xEDA DUP2 PUSH3 0x123B JUMP JUMPDEST DUP3 MSTORE POP POP JUMP JUMPDEST PUSH3 0xEEB DUP2 PUSH3 0x1263 JUMP JUMPDEST DUP3 MSTORE POP POP JUMP JUMPDEST PUSH3 0xEFC DUP2 PUSH3 0x126F JUMP JUMPDEST DUP3 MSTORE POP POP JUMP JUMPDEST PUSH3 0xF0D DUP2 PUSH3 0x12C7 JUMP JUMPDEST DUP3 MSTORE POP POP JUMP JUMPDEST PUSH1 0x0 PUSH3 0xF21 DUP4 DUP6 PUSH3 0x122A JUMP JUMPDEST SWAP4 POP PUSH3 0xF30 DUP4 DUP6 DUP5 PUSH3 0x132B JUMP JUMPDEST PUSH3 0xF3B DUP4 PUSH3 0x133A JUMP JUMPDEST DUP5 ADD SWAP1 POP SWAP4 SWAP3 POP POP POP JUMP JUMPDEST PUSH1 0x0 PUSH3 0xF55 PUSH1 0x1C DUP4 PUSH3 0x122A JUMP JUMPDEST SWAP2 POP PUSH3 0xF62 DUP3 PUSH3 0x134B JUMP JUMPDEST PUSH1 0x20 DUP3 ADD SWAP1 POP SWAP2 SWAP1 POP JUMP JUMPDEST PUSH3 0xF78 DUP2 PUSH3 0x1299 JUMP JUMPDEST DUP3 MSTORE POP POP JUMP JUMPDEST PUSH3 0xF89 DUP2 PUSH3 0x1317 JUMP JUMPDEST DUP3 MSTORE POP POP JUMP JUMPDEST PUSH3 0xF9A DUP2 PUSH3 0x12A3 JUMP JUMPDEST DUP3 MSTORE POP POP JUMP JUMPDEST PUSH1 0x0 PUSH1 0x20 DUP3 ADD SWAP1 POP PUSH3 0xFB7 PUSH1 0x0 DUP4 ADD DUP5 PUSH3 0xECF JUMP JUMPDEST SWAP3 SWAP2 POP POP JUMP JUMPDEST PUSH1 0x0 PUSH1 0x60 DUP3 ADD SWAP1 POP PUSH3 0xFD4 PUSH1 0x0 DUP4 ADD DUP7 PUSH3 0xEAD JUMP JUMPDEST PUSH3 0xFE3 PUSH1 0x20 DUP4 ADD DUP6 PUSH3 0xEAD JUMP JUMPDEST PUSH3 0xFF2 PUSH1 0x40 DUP4 ADD DUP5 PUSH3 0xF6D JUMP JUMPDEST SWAP5 SWAP4 POP POP POP POP JUMP JUMPDEST PUSH1 0x0 PUSH1 0x80 DUP3 ADD SWAP1 POP PUSH3 0x1011 PUSH1 0x0 DUP4 ADD DUP8 PUSH3 0xEBE JUMP JUMPDEST PUSH3 0x1020 PUSH1 0x20 DUP4 ADD DUP7 PUSH3 0xF8F JUMP JUMPDEST PUSH3 0x102F PUSH1 0x40 DUP4 ADD DUP6 PUSH3 0xF8F JUMP JUMPDEST PUSH3 0x103E PUSH1 0x60 DUP4 ADD DUP5 PUSH3 0xF8F JUMP JUMPDEST SWAP6 SWAP5 POP POP POP POP POP JUMP JUMPDEST PUSH1 0x0 PUSH1 0x60 DUP3 ADD SWAP1 POP PUSH3 0x105E PUSH1 0x0 DUP4 ADD DUP7 PUSH3 0xECF JUMP JUMPDEST PUSH3 0x106D PUSH1 0x20 DUP4 ADD DUP6 PUSH3 0xEAD JUMP JUMPDEST PUSH3 0x107C PUSH1 0x40 DUP4 ADD DUP5 PUSH3 0xF6D JUMP JUMPDEST SWAP5 SWAP4 POP POP POP POP JUMP JUMPDEST PUSH1 0x0 PUSH1 0x80 DUP3 ADD SWAP1 POP PUSH3 0x109B PUSH1 0x0 DUP4 ADD DUP8 PUSH3 0xECF JUMP JUMPDEST PUSH3 0x10AA PUSH1 0x20 DUP4 ADD DUP7 PUSH3 0xECF JUMP JUMPDEST PUSH3 0x10B9 PUSH1 0x40 DUP4 ADD DUP6 PUSH3 0xEF1 JUMP JUMPDEST PUSH3 0x10C8 PUSH1 0x60 DUP4 ADD DUP5 PUSH3 0xEE0 JUMP JUMPDEST SWAP6 SWAP5 POP POP POP POP POP JUMP JUMPDEST PUSH1 0x0 PUSH1 0x60 DUP3 ADD SWAP1 POP PUSH3 0x10E8 PUSH1 0x0 DUP4 ADD DUP7 PUSH3 0xECF JUMP JUMPDEST PUSH3 0x10F7 PUSH1 0x20 DUP4 ADD DUP6 PUSH3 0xECF JUMP JUMPDEST PUSH3 0x1106 PUSH1 0x40 DUP4 ADD DUP5 PUSH3 0xF6D JUMP JUMPDEST SWAP5 SWAP4 POP POP POP POP JUMP JUMPDEST PUSH1 0x0 PUSH1 0xA0 DUP3 ADD SWAP1 POP PUSH3 0x1125 PUSH1 0x0 DUP4 ADD DUP10 PUSH3 0xECF JUMP JUMPDEST DUP2 DUP2 SUB PUSH1 0x20 DUP4 ADD MSTORE PUSH3 0x113A DUP2 DUP8 DUP10 PUSH3 0xF13 JUMP JUMPDEST SWAP1 POP PUSH3 0x114B PUSH1 0x40 DUP4 ADD DUP7 PUSH3 0xEF1 JUMP JUMPDEST PUSH3 0x115A PUSH1 0x60 DUP4 ADD DUP6 PUSH3 0xEE0 JUMP JUMPDEST PUSH3 0x1169 PUSH1 0x80 DUP4 ADD DUP5 PUSH3 0xF6D JUMP JUMPDEST SWAP8 SWAP7 POP POP POP POP POP POP POP JUMP JUMPDEST PUSH1 0x0 PUSH1 0x20 DUP3 ADD SWAP1 POP PUSH3 0x118B PUSH1 0x0 DUP4 ADD DUP5 PUSH3 0xEF1 JUMP JUMPDEST SWAP3 SWAP2 POP POP JUMP JUMPDEST PUSH1 0x0 PUSH1 0x20 DUP3 ADD SWAP1 POP PUSH3 0x11A8 PUSH1 0x0 DUP4 ADD DUP5 PUSH3 0xF02 JUMP JUMPDEST SWAP3 SWAP2 POP POP JUMP JUMPDEST PUSH1 0x0 PUSH1 0x20 DUP3 ADD SWAP1 POP DUP2 DUP2 SUB PUSH1 0x0 DUP4 ADD MSTORE PUSH3 0x11C9 DUP2 PUSH3 0xF46 JUMP JUMPDEST SWAP1 POP SWAP2 SWAP1 POP JUMP JUMPDEST PUSH1 0x0 PUSH1 0x20 DUP3 ADD SWAP1 POP PUSH3 0x11E7 PUSH1 0x0 DUP4 ADD DUP5 PUSH3 0xF6D JUMP JUMPDEST SWAP3 SWAP2 POP POP JUMP JUMPDEST PUSH1 0x0 PUSH1 0x60 DUP3 ADD SWAP1 POP PUSH3 0x1204 PUSH1 0x0 DUP4 ADD DUP7 PUSH3 0xF7E JUMP JUMPDEST PUSH3 0x1213 PUSH1 0x20 DUP4 ADD DUP6 PUSH3 0xF7E JUMP JUMPDEST PUSH3 0x1222 PUSH1 0x40 DUP4 ADD DUP5 PUSH3 0xF6D JUMP JUMPDEST SWAP5 SWAP4 POP POP POP POP JUMP JUMPDEST PUSH1 0x0 DUP3 DUP3 MSTORE PUSH1 0x20 DUP3 ADD SWAP1 POP SWAP3 SWAP2 POP POP JUMP JUMPDEST PUSH1 0x0 PUSH3 0x1248 DUP3 PUSH3 0x1279 JUMP JUMPDEST SWAP1 POP SWAP2 SWAP1 POP JUMP JUMPDEST PUSH1 0x0 PUSH3 0x125C DUP3 PUSH3 0x1279 JUMP JUMPDEST SWAP1 POP SWAP2 SWAP1 POP JUMP JUMPDEST PUSH1 0x0 DUP2 ISZERO ISZERO SWAP1 POP SWAP2 SWAP1 POP JUMP JUMPDEST PUSH1 0x0 DUP2 SWAP1 POP SWAP2 SWAP1 POP JUMP JUMPDEST PUSH1 0x0 PUSH20 0xFFFFFFFFFFFFFFFFFFFFFFFFFFFFFFFFFFFFFFFF DUP3 AND SWAP1 POP SWAP2 SWAP1 POP JUMP JUMPDEST PUSH1 0x0 DUP2 SWAP1 POP SWAP2 SWAP1 POP JUMP JUMPDEST PUSH1 0x0 PUSH4 0xFFFFFFFF DUP3 AND SWAP1 POP SWAP2 SWAP1 POP JUMP JUMPDEST PUSH1 0x0 PUSH3 0x12C0 DUP3 PUSH3 0x12EF JUMP JUMPDEST SWAP1 POP SWAP2 SWAP1 POP JUMP JUMPDEST PUSH1 0x0 PUSH3 0x12D4 DUP3 PUSH3 0x12DB JUMP JUMPDEST SWAP1 POP SWAP2 SWAP1 POP JUMP JUMPDEST PUSH1 0x0 PUSH3 0x12E8 DUP3 PUSH3 0x1279 JUMP JUMPDEST SWAP1 POP SWAP2 SWAP1 POP JUMP JUMPDEST PUSH1 0x0 PUSH3 0x12FC DUP3 PUSH3 0x1303 JUMP JUMPDEST SWAP1 POP SWAP2 SWAP1 POP JUMP JUMPDEST PUSH1 0x0 PUSH3 0x1310 DUP3 PUSH3 0x1279 JUMP JUMPDEST SWAP1 POP SWAP2 SWAP1 POP JUMP JUMPDEST PUSH1 0x0 PUSH3 0x1324 DUP3 PUSH3 0x12A3 JUMP JUMPDEST SWAP1 POP SWAP2 SWAP1 POP JUMP JUMPDEST DUP3 DUP2 DUP4 CALLDATACOPY PUSH1 0x0 DUP4 DUP4 ADD MSTORE POP POP POP JUMP JUMPDEST PUSH1 0x0 PUSH1 0x1F NOT PUSH1 0x1F DUP4 ADD AND SWAP1 POP SWAP2 SWAP1 POP JUMP JUMPDEST PUSH32 0x7265737472696374656420746F20636F6E7472616374206F776E657200000000 PUSH1 0x0 DUP3 ADD MSTORE POP JUMP JUMPDEST PUSH3 0x137F DUP2 PUSH3 0x123B JUMP JUMPDEST DUP2 EQ PUSH3 0x138B JUMPI PUSH1 0x0 DUP1 REVERT JUMPDEST POP JUMP JUMPDEST PUSH3 0x1399 DUP2 PUSH3 0x124F JUMP JUMPDEST DUP2 EQ PUSH3 0x13A5 JUMPI PUSH1 0x0 DUP1 REVERT JUMPDEST POP JUMP JUMPDEST PUSH3 0x13B3 DUP2 PUSH3 0x1263 JUMP JUMPDEST DUP2 EQ PUSH3 0x13BF JUMPI PUSH1 0x0 DUP1 REVERT JUMPDEST POP JUMP JUMPDEST PUSH3 0x13CD DUP2 PUSH3 0x126F JUMP JUMPDEST DUP2 EQ PUSH3 0x13D9 JUMPI PUSH1 0x0 DUP1 REVERT JUMPDEST POP JUMP JUMPDEST PUSH3 0x13E7 DUP2 PUSH3 0x1299 JUMP JUMPDEST DUP2 EQ PUSH3 0x13F3 JUMPI PUSH1 0x0 DUP1 REVERT JUMPDEST POP JUMP JUMPDEST PUSH3 0x1401 DUP2 PUSH3 0x12A3 JUMP JUMPDEST DUP2 EQ PUSH3 0x140D JUMPI PUSH1 0x0 DUP1 REVERT JUMPDEST POP JUMP INVALID PUSH2 0x100 PUSH1 0x40 MSTORE PUSH1 0x0 PUSH1 0x1 SSTORE CALLVALUE DUP1 ISZERO PUSH3 0x17 JUMPI PUSH1 0x0 DUP1 REVERT JUMPDEST POP PUSH1 0x40 MLOAD PUSH3 0x3D8F CODESIZE SUB DUP1 PUSH3 0x3D8F DUP4 CODECOPY DUP2 DUP2 ADD PUSH1 0x40 MSTORE DUP2 ADD SWAP1 PUSH3 0x3D SWAP2 SWAP1 PUSH3 0x169 JUMP JUMPDEST DUP3 PUSH20 0xFFFFFFFFFFFFFFFFFFFFFFFFFFFFFFFFFFFFFFFF AND PUSH1 0xE0 DUP2 PUSH20 0xFFFFFFFFFFFFFFFFFFFFFFFFFFFFFFFFFFFFFFFF AND PUSH1 0x60 SHL DUP2 MSTORE POP POP DUP4 PUSH20 0xFFFFFFFFFFFFFFFFFFFFFFFFFFFFFFFFFFFFFFFF AND PUSH1 0xC0 DUP2 PUSH20 0xFFFFFFFFFFFFFFFFFFFFFFFFFFFFFFFFFFFFFFFF AND PUSH1 0x60 SHL DUP2 MSTORE POP POP PUSH1 0x1 PUSH1 0x2 PUSH1 0x0 DUP6 PUSH20 0xFFFFFFFFFFFFFFFFFFFFFFFFFFFFFFFFFFFFFFFF AND PUSH20 0xFFFFFFFFFFFFFFFFFFFFFFFFFFFFFFFFFFFFFFFF AND DUP2 MSTORE PUSH1 0x20 ADD SWAP1 DUP2 MSTORE PUSH1 0x20 ADD PUSH1 0x0 KECCAK256 PUSH1 0x0 PUSH2 0x100 EXP DUP2 SLOAD DUP2 PUSH1 0xFF MUL NOT AND SWAP1 DUP4 ISZERO ISZERO MUL OR SWAP1 SSTORE POP DUP1 ISZERO ISZERO PUSH1 0x80 DUP2 ISZERO ISZERO PUSH1 0xF8 SHL DUP2 MSTORE POP POP DUP2 PUSH1 0xA0 DUP2 DUP2 MSTORE POP POP POP POP POP POP PUSH3 0x26D JUMP JUMPDEST PUSH1 0x0 DUP2 MLOAD SWAP1 POP PUSH3 0x135 DUP2 PUSH3 0x21F JUMP JUMPDEST SWAP3 SWAP2 POP POP JUMP JUMPDEST PUSH1 0x0 DUP2 MLOAD SWAP1 POP PUSH3 0x14C DUP2 PUSH3 0x239 JUMP JUMPDEST SWAP3 SWAP2 POP POP JUMP JUMPDEST PUSH1 0x0 DUP2 MLOAD SWAP1 POP PUSH3 0x163 DUP2 PUSH3 0x253 JUMP JUMPDEST SWAP3 SWAP2 POP POP JUMP JUMPDEST PUSH1 0x0 DUP1 PUSH1 0x0 DUP1 PUSH1 0x80 DUP6 DUP8 SUB SLT ISZERO PUSH3 0x180 JUMPI PUSH1 0x0 DUP1 REVERT JUMPDEST PUSH1 0x0 PUSH3 0x190 DUP8 DUP3 DUP9 ADD PUSH3 0x124 JUMP JUMPDEST SWAP5 POP POP PUSH1 0x20 PUSH3 0x1A3 DUP8 DUP3 DUP9 ADD PUSH3 0x124 JUMP JUMPDEST SWAP4 POP POP PUSH1 0x40 PUSH3 0x1B6 DUP8 DUP3 DUP9 ADD PUSH3 0x152 JUMP JUMPDEST SWAP3 POP POP PUSH1 0x60 PUSH3 0x1C9 DUP8 DUP3 DUP9 ADD PUSH3 0x13B JUMP JUMPDEST SWAP2 POP POP SWAP3 SWAP6 SWAP2 SWAP5 POP SWAP3 POP JUMP JUMPDEST PUSH1 0x0 PUSH3 0x1E2 DUP3 PUSH3 0x1FF JUMP JUMPDEST SWAP1 POP SWAP2 SWAP1 POP JUMP JUMPDEST PUSH1 0x0 DUP2 ISZERO ISZERO SWAP1 POP SWAP2 SWAP1 POP JUMP JUMPDEST PUSH1 0x0 DUP2 SWAP1 POP SWAP2 SWAP1 POP JUMP JUMPDEST PUSH1 0x0 PUSH20 0xFFFFFFFFFFFFFFFFFFFFFFFFFFFFFFFFFFFFFFFF DUP3 AND SWAP1 POP SWAP2 SWAP1 POP JUMP JUMPDEST PUSH3 0x22A DUP2 PUSH3 0x1D5 JUMP JUMPDEST DUP2 EQ PUSH3 0x236 JUMPI PUSH1 0x0 DUP1 REVERT JUMPDEST POP JUMP JUMPDEST PUSH3 0x244 DUP2 PUSH3 0x1E9 JUMP JUMPDEST DUP2 EQ PUSH3 0x250 JUMPI PUSH1 0x0 DUP1 REVERT JUMPDEST POP JUMP JUMPDEST PUSH3 0x25E DUP2 PUSH3 0x1F5 JUMP JUMPDEST DUP2 EQ PUSH3 0x26A JUMPI PUSH1 0x0 DUP1 REVERT JUMPDEST POP JUMP JUMPDEST PUSH1 0x80 MLOAD PUSH1 0xF8 SHR PUSH1 0xA0 MLOAD PUSH1 0xC0 MLOAD PUSH1 0x60 SHR PUSH1 0xE0 MLOAD PUSH1 0x60 SHR PUSH2 0x3AC3 PUSH3 0x2CC PUSH1 0x0 CODECOPY PUSH1 0x0 DUP2 DUP2 PUSH2 0x6BE ADD MSTORE PUSH2 0x8DE ADD MSTORE PUSH1 0x0 DUP2 DUP2 PUSH2 0x35D ADD MSTORE DUP2 DUP2 PUSH2 0x3FF ADD MSTORE PUSH2 0x613 ADD MSTORE PUSH1 0x0 PUSH2 0x69A ADD MSTORE PUSH1 0x0 DUP2 DUP2 PUSH2 0x1FF ADD MSTORE PUSH2 0x3DB ADD MSTORE PUSH2 0x3AC3 PUSH1 0x0 RETURN INVALID PUSH1 0x80 PUSH1 0x40 MSTORE CALLVALUE DUP1 ISZERO PUSH3 0x11 JUMPI PUSH1 0x0 DUP1 REVERT JUMPDEST POP PUSH1 0x4 CALLDATASIZE LT PUSH3 0xAC JUMPI PUSH1 0x0 CALLDATALOAD PUSH1 0xE0 SHR DUP1 PUSH4 0x84F04611 GT PUSH3 0x6F JUMPI DUP1 PUSH4 0x84F04611 EQ PUSH3 0x16B JUMPI DUP1 PUSH4 0x8DA5CB5B EQ PUSH3 0x18D JUMPI DUP1 PUSH4 0x9AC79E0A EQ PUSH3 0x1AF JUMPI DUP1 PUSH4 0xA230C524 EQ PUSH3 0x1BB JUMPI DUP1 PUSH4 0xCB1FB490 EQ PUSH3 0x1F1 JUMPI PUSH3 0xAC JUMP JUMPDEST DUP1 PUSH4 0x4A36B554 EQ PUSH3 0xB1 JUMPI DUP1 PUSH4 0x5B84F789 EQ PUSH3 0xD1 JUMPI DUP1 PUSH4 0x5E39986F EQ PUSH3 0xF3 JUMPI DUP1 PUSH4 0x64914921 EQ PUSH3 0x115 JUMPI DUP1 PUSH4 0x70D1D3A9 EQ PUSH3 0x14B JUMPI JUMPDEST PUSH1 0x0 DUP1 REVERT JUMPDEST PUSH3 0xCF PUSH1 0x4 DUP1 CALLDATASIZE SUB DUP2 ADD SWAP1 PUSH3 0xC9 SWAP2 SWAP1 PUSH3 0xB5B JUMP JUMPDEST PUSH3 0x1FD JUMP JUMPDEST STOP JUMPDEST PUSH3 0xDB PUSH3 0x3D9 JUMP JUMPDEST PUSH1 0x40 MLOAD PUSH3 0xEA SWAP2 SWAP1 PUSH3 0xF36 JUMP JUMPDEST PUSH1 0x40 MLOAD DUP1 SWAP2 SUB SWAP1 RETURN JUMPDEST PUSH3 0xFD PUSH3 0x3FD JUMP JUMPDEST PUSH1 0x40 MLOAD PUSH3 0x10C SWAP2 SWAP1 PUSH3 0xE47 JUMP JUMPDEST PUSH1 0x40 MLOAD DUP1 SWAP2 SUB SWAP1 RETURN JUMPDEST PUSH3 0x133 PUSH1 0x4 DUP1 CALLDATASIZE SUB DUP2 ADD SWAP1 PUSH3 0x12D SWAP2 SWAP1 PUSH3 0xBB9 JUMP JUMPDEST PUSH3 0x421 JUMP JUMPDEST PUSH1 0x40 MLOAD PUSH3 0x142 SWAP2 SWAP1 PUSH3 0xE47 JUMP JUMPDEST PUSH1 0x40 MLOAD DUP1 SWAP2 SUB SWAP1 RETURN JUMPDEST PUSH3 0x169 PUSH1 0x4 DUP1 CALLDATASIZE SUB DUP2 ADD SWAP1 PUSH3 0x163 SWAP2 SWAP1 PUSH3 0xBE5 JUMP JUMPDEST PUSH3 0x454 JUMP JUMPDEST STOP JUMPDEST PUSH3 0x175 PUSH3 0x698 JUMP JUMPDEST PUSH1 0x40 MLOAD PUSH3 0x184 SWAP2 SWAP1 PUSH3 0xF53 JUMP JUMPDEST PUSH1 0x40 MLOAD DUP1 SWAP2 SUB SWAP1 RETURN JUMPDEST PUSH3 0x197 PUSH3 0x6BC JUMP JUMPDEST PUSH1 0x40 MLOAD PUSH3 0x1A6 SWAP2 SWAP1 PUSH3 0xE47 JUMP JUMPDEST PUSH1 0x40 MLOAD DUP1 SWAP2 SUB SWAP1 RETURN JUMPDEST PUSH3 0x1B9 PUSH3 0x6E0 JUMP JUMPDEST STOP JUMPDEST PUSH3 0x1D9 PUSH1 0x4 DUP1 CALLDATASIZE SUB DUP2 ADD SWAP1 PUSH3 0x1D3 SWAP2 SWAP1 PUSH3 0xB2F JUMP JUMPDEST PUSH3 0x826 JUMP JUMPDEST PUSH1 0x40 MLOAD PUSH3 0x1E8 SWAP2 SWAP1 PUSH3 0xF36 JUMP JUMPDEST PUSH1 0x40 MLOAD DUP1 SWAP2 SUB SWAP1 RETURN JUMPDEST PUSH3 0x1FB PUSH3 0x846 JUMP JUMPDEST STOP JUMPDEST PUSH32 0x0 ISZERO PUSH3 0x2BB JUMPI PUSH1 0x1 ISZERO ISZERO PUSH1 0x2 PUSH1 0x0 CALLER PUSH20 0xFFFFFFFFFFFFFFFFFFFFFFFFFFFFFFFFFFFFFFFF AND PUSH20 0xFFFFFFFFFFFFFFFFFFFFFFFFFFFFFFFFFFFFFFFF AND DUP2 MSTORE PUSH1 0x20 ADD SWAP1 DUP2 MSTORE PUSH1 0x20 ADD PUSH1 0x0 KECCAK256 PUSH1 0x0 SWAP1 SLOAD SWAP1 PUSH2 0x100 EXP SWAP1 DIV PUSH1 0xFF AND ISZERO ISZERO EQ PUSH3 0x2BA JUMPI PUSH1 0x40 MLOAD PUSH32 0x8C379A000000000000000000000000000000000000000000000000000000000 DUP2 MSTORE PUSH1 0x4 ADD PUSH3 0x2B1 SWAP1 PUSH3 0xFB4 JUMP JUMPDEST PUSH1 0x40 MLOAD DUP1 SWAP2 SUB SWAP1 REVERT JUMPDEST JUMPDEST PUSH1 0x0 PUSH1 0x1 SLOAD SWAP1 POP CALLER PUSH1 0x0 DUP1 DUP4 DUP2 MSTORE PUSH1 0x20 ADD SWAP1 DUP2 MSTORE PUSH1 0x20 ADD PUSH1 0x0 KECCAK256 PUSH1 0x0 PUSH2 0x100 EXP DUP2 SLOAD DUP2 PUSH20 0xFFFFFFFFFFFFFFFFFFFFFFFFFFFFFFFFFFFFFFFF MUL NOT AND SWAP1 DUP4 PUSH20 0xFFFFFFFFFFFFFFFFFFFFFFFFFFFFFFFFFFFFFFFF AND MUL OR SWAP1 SSTORE POP PUSH1 0x1 PUSH1 0x0 DUP2 SLOAD DUP1 SWAP3 SWAP2 SWAP1 PUSH3 0x328 SWAP1 PUSH3 0x125D JUMP JUMPDEST SWAP2 SWAP1 POP SSTORE POP CALLER PUSH20 0xFFFFFFFFFFFFFFFFFFFFFFFFFFFFFFFFFFFFFFFF AND ADDRESS PUSH20 0xFFFFFFFFFFFFFFFFFFFFFFFFFFFFFFFFFFFFFFFF AND PUSH32 0x0 PUSH20 0xFFFFFFFFFFFFFFFFFFFFFFFFFFFFFFFFFFFFFFFF AND PUSH32 0x8ADC65560293304173B1F3BA3E78BEABEA960458A86C965B7E60C97555EAFE56 DUP5 DUP9 DUP9 DUP9 TIMESTAMP PUSH1 0x40 MLOAD PUSH3 0x3CB SWAP6 SWAP5 SWAP4 SWAP3 SWAP2 SWAP1 PUSH3 0x10A9 JUMP JUMPDEST PUSH1 0x40 MLOAD DUP1 SWAP2 SUB SWAP1 LOG4 POP POP POP POP JUMP JUMPDEST PUSH32 0x0 DUP2 JUMP JUMPDEST PUSH32 0x0 DUP2 JUMP JUMPDEST PUSH1 0x0 PUSH1 0x20 MSTORE DUP1 PUSH1 0x0 MSTORE PUSH1 0x40 PUSH1 0x0 KECCAK256 PUSH1 0x0 SWAP2 POP SLOAD SWAP1 PUSH2 0x100 EXP SWAP1 DIV PUSH20 0xFFFFFFFFFFFFFFFFFFFFFFFFFFFFFFFFFFFFFFFF AND DUP2 JUMP JUMPDEST PUSH1 0x0 PUSH20 0xFFFFFFFFFFFFFFFFFFFFFFFFFFFFFFFFFFFFFFFF AND PUSH1 0x0 DUP1 DUP9 DUP2 MSTORE PUSH1 0x20 ADD SWAP1 DUP2 MSTORE PUSH1 0x20 ADD PUSH1 0x0 KECCAK256 PUSH1 0x0 SWAP1 SLOAD SWAP1 PUSH2 0x100 EXP SWAP1 DIV PUSH20 0xFFFFFFFFFFFFFFFFFFFFFFFFFFFFFFFFFFFFFFFF AND PUSH20 0xFFFFFFFFFFFFFFFFFFFFFFFFFFFFFFFFFFFFFFFF AND EQ ISZERO PUSH3 0x4F9 JUMPI PUSH1 0x40 MLOAD PUSH32 0x8C379A000000000000000000000000000000000000000000000000000000000 DUP2 MSTORE PUSH1 0x4 ADD PUSH3 0x4F0 SWAP1 PUSH3 0xFD6 JUMP JUMPDEST PUSH1 0x40 MLOAD DUP1 SWAP2 SUB SWAP1 REVERT JUMPDEST CALLER PUSH20 0xFFFFFFFFFFFFFFFFFFFFFFFFFFFFFFFFFFFFFFFF AND PUSH1 0x0 DUP1 DUP9 DUP2 MSTORE PUSH1 0x20 ADD SWAP1 DUP2 MSTORE PUSH1 0x20 ADD PUSH1 0x0 KECCAK256 PUSH1 0x0 SWAP1 SLOAD SWAP1 PUSH2 0x100 EXP SWAP1 DIV PUSH20 0xFFFFFFFFFFFFFFFFFFFFFFFFFFFFFFFFFFFFFFFF AND PUSH20 0xFFFFFFFFFFFFFFFFFFFFFFFFFFFFFFFFFFFFFFFF AND EQ PUSH3 0x59C JUMPI PUSH1 0x40 MLOAD PUSH32 0x8C379A000000000000000000000000000000000000000000000000000000000 DUP2 MSTORE PUSH1 0x4 ADD PUSH3 0x593 SWAP1 PUSH3 0xF70 JUMP JUMPDEST PUSH1 0x40 MLOAD DUP1 SWAP2 SUB SWAP1 REVERT JUMPDEST PUSH1 0x0 DUP7 CALLER DUP7 DUP7 DUP10 DUP7 PUSH1 0x40 MLOAD PUSH3 0x5B2 SWAP1 PUSH3 0xA1D JUMP JUMPDEST PUSH3 0x5C3 SWAP7 SWAP6 SWAP5 SWAP4 SWAP3 SWAP2 SWAP1 PUSH3 0x103C JUMP JUMPDEST PUSH1 0x40 MLOAD DUP1 SWAP2 SUB SWAP1 PUSH1 0x0 CREATE DUP1 ISZERO DUP1 ISZERO PUSH3 0x5E0 JUMPI RETURNDATASIZE PUSH1 0x0 DUP1 RETURNDATACOPY RETURNDATASIZE PUSH1 0x0 REVERT JUMPDEST POP SWAP1 POP DUP4 PUSH20 0xFFFFFFFFFFFFFFFFFFFFFFFFFFFFFFFFFFFFFFFF AND DUP6 PUSH20 0xFFFFFFFFFFFFFFFFFFFFFFFFFFFFFFFFFFFFFFFF AND PUSH32 0x0 PUSH20 0xFFFFFFFFFFFFFFFFFFFFFFFFFFFFFFFFFFFFFFFF AND PUSH32 0xC0D761127EB7BAC4DCB9CF0AC7EB1E3F7A038DCD2BAEAA24EA2C175AF880B7D7 ADDRESS DUP12 DUP7 CALLER DUP11 DUP15 DUP12 TIMESTAMP PUSH1 0x40 MLOAD PUSH3 0x687 SWAP9 SWAP8 SWAP7 SWAP6 SWAP5 SWAP4 SWAP3 SWAP2 SWAP1 PUSH3 0xEA1 JUMP JUMPDEST PUSH1 0x40 MLOAD DUP1 SWAP2 SUB SWAP1 LOG4 POP POP POP POP POP POP POP JUMP JUMPDEST PUSH32 0x0 DUP2 JUMP JUMPDEST PUSH32 0x0 DUP2 JUMP JUMPDEST PUSH1 0x1 ISZERO ISZERO PUSH1 0x2 PUSH1 0x0 CALLER PUSH20 0xFFFFFFFFFFFFFFFFFFFFFFFFFFFFFFFFFFFFFFFF AND PUSH20 0xFFFFFFFFFFFFFFFFFFFFFFFFFFFFFFFFFFFFFFFF AND DUP2 MSTORE PUSH1 0x20 ADD SWAP1 DUP2 MSTORE PUSH1 0x20 ADD PUSH1 0x0 KECCAK256 PUSH1 0x0 SWAP1 SLOAD SWAP1 PUSH2 0x100 EXP SWAP1 DIV PUSH1 0xFF AND ISZERO ISZERO EQ ISZERO PUSH3 0x777 JUMPI PUSH1 0x40 MLOAD PUSH32 0x8C379A000000000000000000000000000000000000000000000000000000000 DUP2 MSTORE PUSH1 0x4 ADD PUSH3 0x76E SWAP1 PUSH3 0xFF8 JUMP JUMPDEST PUSH1 0x40 MLOAD DUP1 SWAP2 SUB SWAP1 REVERT JUMPDEST PUSH1 0x1 PUSH1 0x2 PUSH1 0x0 CALLER PUSH20 0xFFFFFFFFFFFFFFFFFFFFFFFFFFFFFFFFFFFFFFFF AND PUSH20 0xFFFFFFFFFFFFFFFFFFFFFFFFFFFFFFFFFFFFFFFF AND DUP2 MSTORE PUSH1 0x20 ADD SWAP1 DUP2 MSTORE PUSH1 0x20 ADD PUSH1 0x0 KECCAK256 PUSH1 0x0 PUSH2 0x100 EXP DUP2 SLOAD DUP2 PUSH1 0xFF MUL NOT AND SWAP1 DUP4 ISZERO ISZERO MUL OR SWAP1 SSTORE POP ADDRESS PUSH20 0xFFFFFFFFFFFFFFFFFFFFFFFFFFFFFFFFFFFFFFFF AND PUSH32 0x1DF2CF570007953635D84156FF46A381EBC11F1580BEAD15AA768ED8E1B34AB9 CALLER PUSH1 0x1 TIMESTAMP PUSH1 0x40 MLOAD PUSH3 0x81C SWAP4 SWAP3 SWAP2 SWAP1 PUSH3 0xE64 JUMP JUMPDEST PUSH1 0x40 MLOAD DUP1 SWAP2 SUB SWAP1 LOG2 JUMP JUMPDEST PUSH1 0x2 PUSH1 0x20 MSTORE DUP1 PUSH1 0x0 MSTORE PUSH1 0x40 PUSH1 0x0 KECCAK256 PUSH1 0x0 SWAP2 POP SLOAD SWAP1 PUSH2 0x100 EXP SWAP1 DIV PUSH1 0xFF AND DUP2 JUMP JUMPDEST PUSH1 0x1 ISZERO ISZERO PUSH1 0x2 PUSH1 0x0 CALLER PUSH20 0xFFFFFFFFFFFFFFFFFFFFFFFFFFFFFFFFFFFFFFFF AND PUSH20 0xFFFFFFFFFFFFFFFFFFFFFFFFFFFFFFFFFFFFFFFF AND DUP2 MSTORE PUSH1 0x20 ADD SWAP1 DUP2 MSTORE PUSH1 0x20 ADD PUSH1 0x0 KECCAK256 PUSH1 0x0 SWAP1 SLOAD SWAP1 PUSH2 0x100 EXP SWAP1 DIV PUSH1 0xFF AND ISZERO ISZERO EQ PUSH3 0x8DC JUMPI PUSH1 0x40 MLOAD PUSH32 0x8C379A000000000000000000000000000000000000000000000000000000000 DUP2 MSTORE PUSH1 0x4 ADD PUSH3 0x8D3 SWAP1 PUSH3 0xF92 JUMP JUMPDEST PUSH1 0x40 MLOAD DUP1 SWAP2 SUB SWAP1 REVERT JUMPDEST PUSH32 0x0 PUSH20 0xFFFFFFFFFFFFFFFFFFFFFFFFFFFFFFFFFFFFFFFF AND CALLER PUSH20 0xFFFFFFFFFFFFFFFFFFFFFFFFFFFFFFFFFFFFFFFF AND EQ ISZERO PUSH3 0x96E JUMPI PUSH1 0x40 MLOAD PUSH32 0x8C379A000000000000000000000000000000000000000000000000000000000 DUP2 MSTORE PUSH1 0x4 ADD PUSH3 0x965 SWAP1 PUSH3 0x101A JUMP JUMPDEST PUSH1 0x40 MLOAD DUP1 SWAP2 SUB SWAP1 REVERT JUMPDEST PUSH1 0x0 PUSH1 0x2 PUSH1 0x0 CALLER PUSH20 0xFFFFFFFFFFFFFFFFFFFFFFFFFFFFFFFFFFFFFFFF AND PUSH20 0xFFFFFFFFFFFFFFFFFFFFFFFFFFFFFFFFFFFFFFFF AND DUP2 MSTORE PUSH1 0x20 ADD SWAP1 DUP2 MSTORE PUSH1 0x20 ADD PUSH1 0x0 KECCAK256 PUSH1 0x0 PUSH2 0x100 EXP DUP2 SLOAD DUP2 PUSH1 0xFF MUL NOT AND SWAP1 DUP4 ISZERO ISZERO MUL OR SWAP1 SSTORE POP ADDRESS PUSH20 0xFFFFFFFFFFFFFFFFFFFFFFFFFFFFFFFFFFFFFFFF AND PUSH32 0x1DF2CF570007953635D84156FF46A381EBC11F1580BEAD15AA768ED8E1B34AB9 CALLER PUSH1 0x0 TIMESTAMP PUSH1 0x40 MLOAD PUSH3 0xA13 SWAP4 SWAP3 SWAP2 SWAP1 PUSH3 0xE64 JUMP JUMPDEST PUSH1 0x40 MLOAD DUP1 SWAP2 SUB SWAP1 LOG2 JUMP JUMPDEST PUSH2 0x2609 DUP1 PUSH3 0x1485 DUP4 CODECOPY ADD SWAP1 JUMP JUMPDEST PUSH1 0x0 PUSH3 0xA42 PUSH3 0xA3C DUP5 PUSH3 0x1128 JUMP JUMPDEST PUSH3 0x10FF JUMP JUMPDEST SWAP1 POP DUP3 DUP2 MSTORE PUSH1 0x20 DUP2 ADD DUP5 DUP5 DUP5 ADD GT ISZERO PUSH3 0xA5B JUMPI PUSH1 0x0 DUP1 REVERT JUMPDEST PUSH3 0xA68 DUP5 DUP3 DUP6 PUSH3 0x11E2 JUMP JUMPDEST POP SWAP4 SWAP3 POP POP POP JUMP JUMPDEST PUSH1 0x0 DUP2 CALLDATALOAD SWAP1 POP PUSH3 0xA81 DUP2 PUSH3 0x1436 JUMP JUMPDEST SWAP3 SWAP2 POP POP JUMP JUMPDEST PUSH1 0x0 DUP2 CALLDATALOAD SWAP1 POP PUSH3 0xA98 DUP2 PUSH3 0x1450 JUMP JUMPDEST SWAP3 SWAP2 POP POP JUMP JUMPDEST PUSH1 0x0 DUP1 DUP4 PUSH1 0x1F DUP5 ADD SLT PUSH3 0xAB1 JUMPI PUSH1 0x0 DUP1 REVERT JUMPDEST DUP3 CALLDATALOAD SWAP1 POP PUSH8 0xFFFFFFFFFFFFFFFF DUP2 GT ISZERO PUSH3 0xACB JUMPI PUSH1 0x0 DUP1 REVERT JUMPDEST PUSH1 0x20 DUP4 ADD SWAP2 POP DUP4 PUSH1 0x1 DUP3 MUL DUP4 ADD GT ISZERO PUSH3 0xAE4 JUMPI PUSH1 0x0 DUP1 REVERT JUMPDEST SWAP3 POP SWAP3 SWAP1 POP JUMP JUMPDEST PUSH1 0x0 DUP3 PUSH1 0x1F DUP4 ADD SLT PUSH3 0xAFD JUMPI PUSH1 0x0 DUP1 REVERT JUMPDEST DUP2 CALLDATALOAD PUSH3 0xB0F DUP5 DUP3 PUSH1 0x20 DUP7 ADD PUSH3 0xA2B JUMP JUMPDEST SWAP2 POP POP SWAP3 SWAP2 POP POP JUMP JUMPDEST PUSH1 0x0 DUP2 CALLDATALOAD SWAP1 POP PUSH3 0xB29 DUP2 PUSH3 0x146A JUMP JUMPDEST SWAP3 SWAP2 POP POP JUMP JUMPDEST PUSH1 0x0 PUSH1 0x20 DUP3 DUP5 SUB SLT ISZERO PUSH3 0xB42 JUMPI PUSH1 0x0 DUP1 REVERT JUMPDEST PUSH1 0x0 PUSH3 0xB52 DUP5 DUP3 DUP6 ADD PUSH3 0xA70 JUMP JUMPDEST SWAP2 POP POP SWAP3 SWAP2 POP POP JUMP JUMPDEST PUSH1 0x0 DUP1 PUSH1 0x0 PUSH1 0x40 DUP5 DUP7 SUB SLT ISZERO PUSH3 0xB71 JUMPI PUSH1 0x0 DUP1 REVERT JUMPDEST PUSH1 0x0 DUP5 ADD CALLDATALOAD PUSH8 0xFFFFFFFFFFFFFFFF DUP2 GT ISZERO PUSH3 0xB8C JUMPI PUSH1 0x0 DUP1 REVERT JUMPDEST PUSH3 0xB9A DUP7 DUP3 DUP8 ADD PUSH3 0xA9E JUMP JUMPDEST SWAP4 POP SWAP4 POP POP PUSH1 0x20 PUSH3 0xBAF DUP7 DUP3 DUP8 ADD PUSH3 0xB18 JUMP JUMPDEST SWAP2 POP POP SWAP3 POP SWAP3 POP SWAP3 JUMP JUMPDEST PUSH1 0x0 PUSH1 0x20 DUP3 DUP5 SUB SLT ISZERO PUSH3 0xBCC JUMPI PUSH1 0x0 DUP1 REVERT JUMPDEST PUSH1 0x0 PUSH3 0xBDC DUP5 DUP3 DUP6 ADD PUSH3 0xB18 JUMP JUMPDEST SWAP2 POP POP SWAP3 SWAP2 POP POP JUMP JUMPDEST PUSH1 0x0 DUP1 PUSH1 0x0 DUP1 PUSH1 0x0 DUP1 PUSH1 0xC0 DUP8 DUP10 SUB SLT ISZERO PUSH3 0xBFF JUMPI PUSH1 0x0 DUP1 REVERT JUMPDEST PUSH1 0x0 PUSH3 0xC0F DUP10 DUP3 DUP11 ADD PUSH3 0xB18 JUMP JUMPDEST SWAP7 POP POP PUSH1 0x20 PUSH3 0xC22 DUP10 DUP3 DUP11 ADD PUSH3 0xB18 JUMP JUMPDEST SWAP6 POP POP PUSH1 0x40 PUSH3 0xC35 DUP10 DUP3 DUP11 ADD PUSH3 0xA87 JUMP JUMPDEST SWAP5 POP POP PUSH1 0x60 PUSH3 0xC48 DUP10 DUP3 DUP11 ADD PUSH3 0xA87 JUMP JUMPDEST SWAP4 POP POP PUSH1 0x80 DUP8 ADD CALLDATALOAD PUSH8 0xFFFFFFFFFFFFFFFF DUP2 GT ISZERO PUSH3 0xC66 JUMPI PUSH1 0x0 DUP1 REVERT JUMPDEST PUSH3 0xC74 DUP10 DUP3 DUP11 ADD PUSH3 0xAEB JUMP JUMPDEST SWAP3 POP POP PUSH1 0xA0 PUSH3 0xC87 DUP10 DUP3 DUP11 ADD PUSH3 0xB18 JUMP JUMPDEST SWAP2 POP POP SWAP3 SWAP6 POP SWAP3 SWAP6 POP SWAP3 SWAP6 JUMP JUMPDEST PUSH3 0xC9F DUP2 PUSH3 0x118E JUMP JUMPDEST DUP3 MSTORE POP POP JUMP JUMPDEST PUSH3 0xCB0 DUP2 PUSH3 0x117A JUMP JUMPDEST DUP3 MSTORE POP POP JUMP JUMPDEST PUSH3 0xCC1 DUP2 PUSH3 0x11A2 JUMP JUMPDEST DUP3 MSTORE POP POP JUMP JUMPDEST PUSH3 0xCD2 DUP2 PUSH3 0x11AE JUMP JUMPDEST DUP3 MSTORE POP POP JUMP JUMPDEST PUSH1 0x0 PUSH3 0xCE6 DUP4 DUP6 PUSH3 0x1169 JUMP JUMPDEST SWAP4 POP PUSH3 0xCF5 DUP4 DUP6 DUP5 PUSH3 0x11E2 JUMP JUMPDEST PUSH3 0xD00 DUP4 PUSH3 0x1309 JUMP JUMPDEST DUP5 ADD SWAP1 POP SWAP4 SWAP3 POP POP POP JUMP JUMPDEST PUSH1 0x0 PUSH3 0xD18 DUP3 PUSH3 0x115E JUMP JUMPDEST PUSH3 0xD24 DUP2 DUP6 PUSH3 0x1169 JUMP JUMPDEST SWAP4 POP PUSH3 0xD36 DUP2 DUP6 PUSH1 0x20 DUP7 ADD PUSH3 0x11F1 JUMP JUMPDEST PUSH3 0xD41 DUP2 PUSH3 0x1309 JUMP JUMPDEST DUP5 ADD SWAP2 POP POP SWAP3 SWAP2 POP POP JUMP JUMPDEST PUSH1 0x0 PUSH3 0xD5B PUSH1 0x2B DUP4 PUSH3 0x1169 JUMP JUMPDEST SWAP2 POP PUSH3 0xD68 DUP3 PUSH3 0x131A JUMP JUMPDEST PUSH1 0x40 DUP3 ADD SWAP1 POP SWAP2 SWAP1 POP JUMP JUMPDEST PUSH1 0x0 PUSH3 0xD82 PUSH1 0x20 DUP4 PUSH3 0x1169 JUMP JUMPDEST SWAP2 POP PUSH3 0xD8F DUP3 PUSH3 0x1369 JUMP JUMPDEST PUSH1 0x20 DUP3 ADD SWAP1 POP SWAP2 SWAP1 POP JUMP JUMPDEST PUSH1 0x0 PUSH3 0xDA9 PUSH1 0x1F DUP4 PUSH3 0x1169 JUMP JUMPDEST SWAP2 POP PUSH3 0xDB6 DUP3 PUSH3 0x1392 JUMP JUMPDEST PUSH1 0x20 DUP3 ADD SWAP1 POP SWAP2 SWAP1 POP JUMP JUMPDEST PUSH1 0x0 PUSH3 0xDD0 PUSH1 0x14 DUP4 PUSH3 0x1169 JUMP JUMPDEST SWAP2 POP PUSH3 0xDDD DUP3 PUSH3 0x13BB JUMP JUMPDEST PUSH1 0x20 DUP3 ADD SWAP1 POP SWAP2 SWAP1 POP JUMP JUMPDEST PUSH1 0x0 PUSH3 0xDF7 PUSH1 0x1B DUP4 PUSH3 0x1169 JUMP JUMPDEST SWAP2 POP PUSH3 0xE04 DUP3 PUSH3 0x13E4 JUMP JUMPDEST PUSH1 0x20 DUP3 ADD SWAP1 POP SWAP2 SWAP1 POP JUMP JUMPDEST PUSH1 0x0 PUSH3 0xE1E PUSH1 0x1B DUP4 PUSH3 0x1169 JUMP JUMPDEST SWAP2 POP PUSH3 0xE2B DUP3 PUSH3 0x140D JUMP JUMPDEST PUSH1 0x20 DUP3 ADD SWAP1 POP SWAP2 SWAP1 POP JUMP JUMPDEST PUSH3 0xE41 DUP2 PUSH3 0x11D8 JUMP JUMPDEST DUP3 MSTORE POP POP JUMP JUMPDEST PUSH1 0x0 PUSH1 0x20 DUP3 ADD SWAP1 POP PUSH3 0xE5E PUSH1 0x0 DUP4 ADD DUP5 PUSH3 0xCA5 JUMP JUMPDEST SWAP3 SWAP2 POP POP JUMP JUMPDEST PUSH1 0x0 PUSH1 0x60 DUP3 ADD SWAP1 POP PUSH3 0xE7B PUSH1 0x0 DUP4 ADD DUP7 PUSH3 0xCA5 JUMP JUMPDEST PUSH3 0xE8A PUSH1 0x20 DUP4 ADD DUP6 PUSH3 0xCB6 JUMP JUMPDEST PUSH3 0xE99 PUSH1 0x40 DUP4 ADD DUP5 PUSH3 0xE36 JUMP JUMPDEST SWAP5 SWAP4 POP POP POP POP JUMP JUMPDEST PUSH1 0x0 PUSH2 0x100 DUP3 ADD SWAP1 POP PUSH3 0xEB9 PUSH1 0x0 DUP4 ADD DUP12 PUSH3 0xCA5 JUMP JUMPDEST PUSH3 0xEC8 PUSH1 0x20 DUP4 ADD DUP11 PUSH3 0xE36 JUMP JUMPDEST PUSH3 0xED7 PUSH1 0x40 DUP4 ADD DUP10 PUSH3 0xCA5 JUMP JUMPDEST PUSH3 0xEE6 PUSH1 0x60 DUP4 ADD DUP9 PUSH3 0xCA5 JUMP JUMPDEST DUP2 DUP2 SUB PUSH1 0x80 DUP4 ADD MSTORE PUSH3 0xEFA DUP2 DUP8 PUSH3 0xD0B JUMP JUMPDEST SWAP1 POP PUSH3 0xF0B PUSH1 0xA0 DUP4 ADD DUP7 PUSH3 0xE36 JUMP JUMPDEST PUSH3 0xF1A PUSH1 0xC0 DUP4 ADD DUP6 PUSH3 0xE36 JUMP JUMPDEST PUSH3 0xF29 PUSH1 0xE0 DUP4 ADD DUP5 PUSH3 0xE36 JUMP JUMPDEST SWAP10 SWAP9 POP POP POP POP POP POP POP POP POP JUMP JUMPDEST PUSH1 0x0 PUSH1 0x20 DUP3 ADD SWAP1 POP PUSH3 0xF4D PUSH1 0x0 DUP4 ADD DUP5 PUSH3 0xCB6 JUMP JUMPDEST SWAP3 SWAP2 POP POP JUMP JUMPDEST PUSH1 0x0 PUSH1 0x20 DUP3 ADD SWAP1 POP PUSH3 0xF6A PUSH1 0x0 DUP4 ADD DUP5 PUSH3 0xCC7 JUMP JUMPDEST SWAP3 SWAP2 POP POP JUMP JUMPDEST PUSH1 0x0 PUSH1 0x20 DUP3 ADD SWAP1 POP DUP2 DUP2 SUB PUSH1 0x0 DUP4 ADD MSTORE PUSH3 0xF8B DUP2 PUSH3 0xD4C JUMP JUMPDEST SWAP1 POP SWAP2 SWAP1 POP JUMP JUMPDEST PUSH1 0x0 PUSH1 0x20 DUP3 ADD SWAP1 POP DUP2 DUP2 SUB PUSH1 0x0 DUP4 ADD MSTORE PUSH3 0xFAD DUP2 PUSH3 0xD73 JUMP JUMPDEST SWAP1 POP SWAP2 SWAP1 POP JUMP JUMPDEST PUSH1 0x0 PUSH1 0x20 DUP3 ADD SWAP1 POP DUP2 DUP2 SUB PUSH1 0x0 DUP4 ADD MSTORE PUSH3 0xFCF DUP2 PUSH3 0xD9A JUMP JUMPDEST SWAP1 POP SWAP2 SWAP1 POP JUMP JUMPDEST PUSH1 0x0 PUSH1 0x20 DUP3 ADD SWAP1 POP DUP2 DUP2 SUB PUSH1 0x0 DUP4 ADD MSTORE PUSH3 0xFF1 DUP2 PUSH3 0xDC1 JUMP JUMPDEST SWAP1 POP SWAP2 SWAP1 POP JUMP JUMPDEST PUSH1 0x0 PUSH1 0x20 DUP3 ADD SWAP1 POP DUP2 DUP2 SUB PUSH1 0x0 DUP4 ADD MSTORE PUSH3 0x1013 DUP2 PUSH3 0xDE8 JUMP JUMPDEST SWAP1 POP SWAP2 SWAP1 POP JUMP JUMPDEST PUSH1 0x0 PUSH1 0x20 DUP3 ADD SWAP1 POP DUP2 DUP2 SUB PUSH1 0x0 DUP4 ADD MSTORE PUSH3 0x1035 DUP2 PUSH3 0xE0F JUMP JUMPDEST SWAP1 POP SWAP2 SWAP1 POP JUMP JUMPDEST PUSH1 0x0 PUSH1 0xC0 DUP3 ADD SWAP1 POP PUSH3 0x1053 PUSH1 0x0 DUP4 ADD DUP10 PUSH3 0xE36 JUMP JUMPDEST PUSH3 0x1062 PUSH1 0x20 DUP4 ADD DUP9 PUSH3 0xC94 JUMP JUMPDEST PUSH3 0x1071 PUSH1 0x40 DUP4 ADD DUP8 PUSH3 0xC94 JUMP JUMPDEST PUSH3 0x1080 PUSH1 0x60 DUP4 ADD DUP7 PUSH3 0xC94 JUMP JUMPDEST PUSH3 0x108F PUSH1 0x80 DUP4 ADD DUP6 PUSH3 0xE36 JUMP JUMPDEST PUSH3 0x109E PUSH1 0xA0 DUP4 ADD DUP5 PUSH3 0xE36 JUMP JUMPDEST SWAP8 SWAP7 POP POP POP POP POP POP POP JUMP JUMPDEST PUSH1 0x0 PUSH1 0x80 DUP3 ADD SWAP1 POP PUSH3 0x10C0 PUSH1 0x0 DUP4 ADD DUP9 PUSH3 0xE36 JUMP JUMPDEST DUP2 DUP2 SUB PUSH1 0x20 DUP4 ADD MSTORE PUSH3 0x10D5 DUP2 DUP7 DUP9 PUSH3 0xCD8 JUMP JUMPDEST SWAP1 POP PUSH3 0x10E6 PUSH1 0x40 DUP4 ADD DUP6 PUSH3 0xE36 JUMP JUMPDEST PUSH3 0x10F5 PUSH1 0x60 DUP4 ADD DUP5 PUSH3 0xE36 JUMP JUMPDEST SWAP7 SWAP6 POP POP POP POP POP POP JUMP JUMPDEST PUSH1 0x0 PUSH3 0x110B PUSH3 0x111E JUMP JUMPDEST SWAP1 POP PUSH3 0x1119 DUP3 DUP3 PUSH3 0x1227 JUMP JUMPDEST SWAP2 SWAP1 POP JUMP JUMPDEST PUSH1 0x0 PUSH1 0x40 MLOAD SWAP1 POP SWAP1 JUMP JUMPDEST PUSH1 0x0 PUSH8 0xFFFFFFFFFFFFFFFF DUP3 GT ISZERO PUSH3 0x1146 JUMPI PUSH3 0x1145 PUSH3 0x12DA JUMP JUMPDEST JUMPDEST PUSH3 0x1151 DUP3 PUSH3 0x1309 JUMP JUMPDEST SWAP1 POP PUSH1 0x20 DUP2 ADD SWAP1 POP SWAP2 SWAP1 POP JUMP JUMPDEST PUSH1 0x0 DUP2 MLOAD SWAP1 POP SWAP2 SWAP1 POP JUMP JUMPDEST PUSH1 0x0 DUP3 DUP3 MSTORE PUSH1 0x20 DUP3 ADD SWAP1 POP SWAP3 SWAP2 POP POP JUMP JUMPDEST PUSH1 0x0 PUSH3 0x1187 DUP3 PUSH3 0x11B8 JUMP JUMPDEST SWAP1 POP SWAP2 SWAP1 POP JUMP JUMPDEST PUSH1 0x0 PUSH3 0x119B DUP3 PUSH3 0x11B8 JUMP JUMPDEST SWAP1 POP SWAP2 SWAP1 POP JUMP JUMPDEST PUSH1 0x0 DUP2 ISZERO ISZERO SWAP1 POP SWAP2 SWAP1 POP JUMP JUMPDEST PUSH1 0x0 DUP2 SWAP1 POP SWAP2 SWAP1 POP JUMP JUMPDEST PUSH1 0x0 PUSH20 0xFFFFFFFFFFFFFFFFFFFFFFFFFFFFFFFFFFFFFFFF DUP3 AND SWAP1 POP SWAP2 SWAP1 POP JUMP JUMPDEST PUSH1 0x0 DUP2 SWAP1 POP SWAP2 SWAP1 POP JUMP JUMPDEST DUP3 DUP2 DUP4 CALLDATACOPY PUSH1 0x0 DUP4 DUP4 ADD MSTORE POP POP POP JUMP JUMPDEST PUSH1 0x0 JUMPDEST DUP4 DUP2 LT ISZERO PUSH3 0x1211 JUMPI DUP1 DUP3 ADD MLOAD DUP2 DUP5 ADD MSTORE PUSH1 0x20 DUP2 ADD SWAP1 POP PUSH3 0x11F4 JUMP JUMPDEST DUP4 DUP2 GT ISZERO PUSH3 0x1221 JUMPI PUSH1 0x0 DUP5 DUP5 ADD MSTORE JUMPDEST POP POP POP POP JUMP JUMPDEST PUSH3 0x1232 DUP3 PUSH3 0x1309 JUMP JUMPDEST DUP2 ADD DUP2 DUP2 LT PUSH8 0xFFFFFFFFFFFFFFFF DUP3 GT OR ISZERO PUSH3 0x1254 JUMPI PUSH3 0x1253 PUSH3 0x12DA JUMP JUMPDEST JUMPDEST DUP1 PUSH1 0x40 MSTORE POP POP POP JUMP JUMPDEST PUSH1 0x0 PUSH3 0x126A DUP3 PUSH3 0x11D8 JUMP JUMPDEST SWAP2 POP PUSH32 0xFFFFFFFFFFFFFFFFFFFFFFFFFFFFFFFFFFFFFFFFFFFFFFFFFFFFFFFFFFFFFFFF DUP3 EQ ISZERO PUSH3 0x12A0 JUMPI PUSH3 0x129F PUSH3 0x12AB JUMP JUMPDEST JUMPDEST PUSH1 0x1 DUP3 ADD SWAP1 POP SWAP2 SWAP1 POP JUMP JUMPDEST PUSH32 0x4E487B7100000000000000000000000000000000000000000000000000000000 PUSH1 0x0 MSTORE PUSH1 0x11 PUSH1 0x4 MSTORE PUSH1 0x24 PUSH1 0x0 REVERT JUMPDEST PUSH32 0x4E487B7100000000000000000000000000000000000000000000000000000000 PUSH1 0x0 MSTORE PUSH1 0x41 PUSH1 0x4 MSTORE PUSH1 0x24 PUSH1 0x0 REVERT JUMPDEST PUSH1 0x0 PUSH1 0x1F NOT PUSH1 0x1F DUP4 ADD AND SWAP1 POP SWAP2 SWAP1 POP JUMP JUMPDEST PUSH32 0x6F6E6C792062756C6C61206F776E65722773206D617920637265617465206120 PUSH1 0x0 DUP3 ADD MSTORE PUSH32 0x62756C6C6120636C61696D000000000000000000000000000000000000000000 PUSH1 0x20 DUP3 ADD MSTORE POP JUMP JUMPDEST PUSH32 0x6E6F6E2D6D656D626572732063616E6E6F74206C6561766520612067726F7570 PUSH1 0x0 DUP3 ADD MSTORE POP JUMP JUMPDEST PUSH32 0x6E6F6E2D6D656D626572732063616E6E6F74206D616B65206A6F75726E616C00 PUSH1 0x0 DUP3 ADD MSTORE POP JUMP JUMPDEST PUSH32 0x62756C6C6120646F6573206E6F74206578697374000000000000000000000000 PUSH1 0x0 DUP3 ADD MSTORE POP JUMP JUMPDEST PUSH32 0x6D656D626572732063616E6E6F74206A6F696E20612067726F75700000000000 PUSH1 0x0 DUP3 ADD MSTORE POP JUMP JUMPDEST PUSH32 0x6F776E6572732063616E6E6F74206C6561766520612067726F75700000000000 PUSH1 0x0 DUP3 ADD MSTORE POP JUMP JUMPDEST PUSH3 0x1441 DUP2 PUSH3 0x117A JUMP JUMPDEST DUP2 EQ PUSH3 0x144D JUMPI PUSH1 0x0 DUP1 REVERT JUMPDEST POP JUMP JUMPDEST PUSH3 0x145B DUP2 PUSH3 0x118E JUMP JUMPDEST DUP2 EQ PUSH3 0x1467 JUMPI PUSH1 0x0 DUP1 REVERT JUMPDEST POP JUMP JUMPDEST PUSH3 0x1475 DUP2 PUSH3 0x11D8 JUMP JUMPDEST DUP2 EQ PUSH3 0x1481 JUMPI PUSH1 0x0 DUP1 REVERT JUMPDEST POP JUMP INVALID PUSH1 0x80 PUSH1 0x40 MSTORE CALLVALUE DUP1 ISZERO PUSH3 0x11 JUMPI PUSH1 0x0 DUP1 REVERT JUMPDEST POP PUSH1 0x40 MLOAD PUSH3 0x2609 CODESIZE SUB DUP1 PUSH3 0x2609 DUP4 CODECOPY DUP2 DUP2 ADD PUSH1 0x40 MSTORE DUP2 ADD SWAP1 PUSH3 0x37 SWAP2 SWAP1 PUSH3 0x18A JUMP JUMPDEST CALLER PUSH1 0x3 PUSH1 0x0 PUSH2 0x100 EXP DUP2 SLOAD DUP2 PUSH20 0xFFFFFFFFFFFFFFFFFFFFFFFFFFFFFFFFFFFFFFFF MUL NOT AND SWAP1 DUP4 PUSH20 0xFFFFFFFFFFFFFFFFFFFFFFFFFFFFFFFFFFFFFFFF AND MUL OR SWAP1 SSTORE POP DUP6 PUSH1 0x2 DUP2 SWAP1 SSTORE POP DUP5 PUSH1 0x4 PUSH1 0x0 PUSH2 0x100 EXP DUP2 SLOAD DUP2 PUSH20 0xFFFFFFFFFFFFFFFFFFFFFFFFFFFFFFFFFFFFFFFF MUL NOT AND SWAP1 DUP4 PUSH20 0xFFFFFFFFFFFFFFFFFFFFFFFFFFFFFFFFFFFFFFFF AND MUL OR SWAP1 SSTORE POP DUP4 PUSH1 0x5 PUSH1 0x0 PUSH2 0x100 EXP DUP2 SLOAD DUP2 PUSH20 0xFFFFFFFFFFFFFFFFFFFFFFFFFFFFFFFFFFFFFFFF MUL NOT AND SWAP1 DUP4 PUSH20 0xFFFFFFFFFFFFFFFFFFFFFFFFFFFFFFFFFFFFFFFF AND MUL OR SWAP1 SSTORE POP DUP3 PUSH1 0x6 PUSH1 0x0 PUSH2 0x100 EXP DUP2 SLOAD DUP2 PUSH20 0xFFFFFFFFFFFFFFFFFFFFFFFFFFFFFFFFFFFFFFFF MUL NOT AND SWAP1 DUP4 PUSH20 0xFFFFFFFFFFFFFFFFFFFFFFFFFFFFFFFFFFFFFFFF AND MUL OR SWAP1 SSTORE POP DUP2 PUSH1 0x7 DUP2 SWAP1 SSTORE POP DUP1 PUSH1 0x8 DUP2 SWAP1 SSTORE POP POP POP POP POP POP POP PUSH3 0x292 JUMP JUMPDEST PUSH1 0x0 DUP2 MLOAD SWAP1 POP PUSH3 0x16D DUP2 PUSH3 0x25E JUMP JUMPDEST SWAP3 SWAP2 POP POP JUMP JUMPDEST PUSH1 0x0 DUP2 MLOAD SWAP1 POP PUSH3 0x184 DUP2 PUSH3 0x278 JUMP JUMPDEST SWAP3 SWAP2 POP POP JUMP JUMPDEST PUSH1 0x0 DUP1 PUSH1 0x0 DUP1 PUSH1 0x0 DUP1 PUSH1 0xC0 DUP8 DUP10 SUB SLT ISZERO PUSH3 0x1A4 JUMPI PUSH1 0x0 DUP1 REVERT JUMPDEST PUSH1 0x0 PUSH3 0x1B4 DUP10 DUP3 DUP11 ADD PUSH3 0x173 JUMP JUMPDEST SWAP7 POP POP PUSH1 0x20 PUSH3 0x1C7 DUP10 DUP3 DUP11 ADD PUSH3 0x15C JUMP JUMPDEST SWAP6 POP POP PUSH1 0x40 PUSH3 0x1DA DUP10 DUP3 DUP11 ADD PUSH3 0x15C JUMP JUMPDEST SWAP5 POP POP PUSH1 0x60 PUSH3 0x1ED DUP10 DUP3 DUP11 ADD PUSH3 0x15C JUMP JUMPDEST SWAP4 POP POP PUSH1 0x80 PUSH3 0x200 DUP10 DUP3 DUP11 ADD PUSH3 0x173 JUMP JUMPDEST SWAP3 POP POP PUSH1 0xA0 PUSH3 0x213 DUP10 DUP3 DUP11 ADD PUSH3 0x173 JUMP JUMPDEST SWAP2 POP POP SWAP3 SWAP6 POP SWAP3 SWAP6 POP SWAP3 SWAP6 JUMP JUMPDEST PUSH1 0x0 PUSH3 0x22D DUP3 PUSH3 0x234 JUMP JUMPDEST SWAP1 POP SWAP2 SWAP1 POP JUMP JUMPDEST PUSH1 0x0 PUSH20 0xFFFFFFFFFFFFFFFFFFFFFFFFFFFFFFFFFFFFFFFF DUP3 AND SWAP1 POP SWAP2 SWAP1 POP JUMP JUMPDEST PUSH1 0x0 DUP2 SWAP1 POP SWAP2 SWAP1 POP JUMP JUMPDEST PUSH3 0x269 DUP2 PUSH3 0x220 JUMP JUMPDEST DUP2 EQ PUSH3 0x275 JUMPI PUSH1 0x0 DUP1 REVERT JUMPDEST POP JUMP JUMPDEST PUSH3 0x283 DUP2 PUSH3 0x254 JUMP JUMPDEST DUP2 EQ PUSH3 0x28F JUMPI PUSH1 0x0 DUP1 REVERT JUMPDEST POP JUMP JUMPDEST PUSH2 0x2367 DUP1 PUSH3 0x2A2 PUSH1 0x0 CODECOPY PUSH1 0x0 RETURN INVALID PUSH1 0x80 PUSH1 0x40 MSTORE PUSH1 0x4 CALLDATASIZE LT PUSH2 0x108 JUMPI PUSH1 0x0 CALLDATALOAD PUSH1 0xE0 SHR DUP1 PUSH4 0x830953AB GT PUSH2 0x95 JUMPI DUP1 PUSH4 0x9CB64A2D GT PUSH2 0x64 JUMPI DUP1 PUSH4 0x9CB64A2D EQ PUSH2 0x2F7 JUMPI DUP1 PUSH4 0xB075BDFA EQ PUSH2 0x322 JUMPI DUP1 PUSH4 0xC14E5675 EQ PUSH2 0x34F JUMPI DUP1 PUSH4 0xE36DB785 EQ PUSH2 0x36B JUMPI DUP1 PUSH4 0xF2FDE38B EQ PUSH2 0x396 JUMPI PUSH2 0x108 JUMP JUMPDEST DUP1 PUSH4 0x830953AB EQ PUSH2 0x24B JUMPI DUP1 PUSH4 0x8DA5CB5B EQ PUSH2 0x276 JUMPI DUP1 PUSH4 0x8DF50AE4 EQ PUSH2 0x2A1 JUMPI DUP1 PUSH4 0x9A5870B3 EQ PUSH2 0x2CC JUMPI PUSH2 0x108 JUMP JUMPDEST DUP1 PUSH4 0x200D2ED2 GT PUSH2 0xDC JUMPI DUP1 PUSH4 0x200D2ED2 EQ PUSH2 0x197 JUMPI DUP1 PUSH4 0x264C74A5 EQ PUSH2 0x1C2 JUMPI DUP1 PUSH4 0x3B23EA9C EQ PUSH2 0x1EB JUMPI DUP1 PUSH4 0x6271A581 EQ PUSH2 0x216 JUMPI DUP1 PUSH4 0x81CD8194 EQ PUSH2 0x220 JUMPI PUSH2 0x108 JUMP JUMPDEST DUP1 PUSH3 0x2EAB7 EQ PUSH2 0x10D JUMPI DUP1 PUSH4 0xBD7693D EQ PUSH2 0x139 JUMPI DUP1 PUSH4 0x10388809 EQ PUSH2 0x143 JUMPI DUP1 PUSH4 0x12FA769F EQ PUSH2 0x16C JUMPI JUMPDEST PUSH1 0x0 DUP1 REVERT JUMPDEST CALLVALUE DUP1 ISZERO PUSH2 0x119 JUMPI PUSH1 0x0 DUP1 REVERT JUMPDEST POP PUSH2 0x122 PUSH2 0x3B2 JUMP JUMPDEST PUSH1 0x40 MLOAD PUSH2 0x130 SWAP3 SWAP2 SWAP1 PUSH2 0x1C2B JUMP JUMPDEST PUSH1 0x40 MLOAD DUP1 SWAP2 SUB SWAP1 RETURN JUMPDEST PUSH2 0x141 PUSH2 0x541 JUMP JUMPDEST STOP JUMPDEST CALLVALUE DUP1 ISZERO PUSH2 0x14F JUMPI PUSH1 0x0 DUP1 REVERT JUMPDEST POP PUSH2 0x16A PUSH1 0x4 DUP1 CALLDATASIZE SUB DUP2 ADD SWAP1 PUSH2 0x165 SWAP2 SWAP1 PUSH2 0x16AD JUMP JUMPDEST PUSH2 0x8C1 JUMP JUMPDEST STOP JUMPDEST CALLVALUE DUP1 ISZERO PUSH2 0x178 JUMPI PUSH1 0x0 DUP1 REVERT JUMPDEST POP PUSH2 0x181 PUSH2 0xA67 JUMP JUMPDEST PUSH1 0x40 MLOAD PUSH2 0x18E SWAP2 SWAP1 PUSH2 0x1C10 JUMP JUMPDEST PUSH1 0x40 MLOAD DUP1 SWAP2 SUB SWAP1 RETURN JUMPDEST CALLVALUE DUP1 ISZERO PUSH2 0x1A3 JUMPI PUSH1 0x0 DUP1 REVERT JUMPDEST POP PUSH2 0x1AC PUSH2 0xA6D JUMP JUMPDEST PUSH1 0x40 MLOAD PUSH2 0x1B9 SWAP2 SWAP1 PUSH2 0x1A95 JUMP JUMPDEST PUSH1 0x40 MLOAD DUP1 SWAP2 SUB SWAP1 RETURN JUMPDEST CALLVALUE DUP1 ISZERO PUSH2 0x1CE JUMPI PUSH1 0x0 DUP1 REVERT JUMPDEST POP PUSH2 0x1E9 PUSH1 0x4 DUP1 CALLDATASIZE SUB DUP2 ADD SWAP1 PUSH2 0x1E4 SWAP2 SWAP1 PUSH2 0x1635 JUMP JUMPDEST PUSH2 0xA80 JUMP JUMPDEST STOP JUMPDEST CALLVALUE DUP1 ISZERO PUSH2 0x1F7 JUMPI PUSH1 0x0 DUP1 REVERT JUMPDEST POP PUSH2 0x200 PUSH2 0xBE0 JUMP JUMPDEST PUSH1 0x40 MLOAD PUSH2 0x20D SWAP2 SWAP1 PUSH2 0x1983 JUMP JUMPDEST PUSH1 0x40 MLOAD DUP1 SWAP2 SUB SWAP1 RETURN JUMPDEST PUSH2 0x21E PUSH2 0xC06 JUMP JUMPDEST STOP JUMPDEST CALLVALUE DUP1 ISZERO PUSH2 0x22C JUMPI PUSH1 0x0 DUP1 REVERT JUMPDEST POP PUSH2 0x235 PUSH2 0xDB8 JUMP JUMPDEST PUSH1 0x40 MLOAD PUSH2 0x242 SWAP2 SWAP1 PUSH2 0x1C10 JUMP JUMPDEST PUSH1 0x40 MLOAD DUP1 SWAP2 SUB SWAP1 RETURN JUMPDEST CALLVALUE DUP1 ISZERO PUSH2 0x257 JUMPI PUSH1 0x0 DUP1 REVERT JUMPDEST POP PUSH2 0x260 PUSH2 0xDBE JUMP JUMPDEST PUSH1 0x40 MLOAD PUSH2 0x26D SWAP2 SWAP1 PUSH2 0x1C10 JUMP JUMPDEST PUSH1 0x40 MLOAD DUP1 SWAP2 SUB SWAP1 RETURN JUMPDEST CALLVALUE DUP1 ISZERO PUSH2 0x282 JUMPI PUSH1 0x0 DUP1 REVERT JUMPDEST POP PUSH2 0x28B PUSH2 0xDC4 JUMP JUMPDEST PUSH1 0x40 MLOAD PUSH2 0x298 SWAP2 SWAP1 PUSH2 0x19B9 JUMP JUMPDEST PUSH1 0x40 MLOAD DUP1 SWAP2 SUB SWAP1 RETURN JUMPDEST CALLVALUE DUP1 ISZERO PUSH2 0x2AD JUMPI PUSH1 0x0 DUP1 REVERT JUMPDEST POP PUSH2 0x2B6 PUSH2 0xDEA JUMP JUMPDEST PUSH1 0x40 MLOAD PUSH2 0x2C3 SWAP2 SWAP1 PUSH2 0x1C10 JUMP JUMPDEST PUSH1 0x40 MLOAD DUP1 SWAP2 SUB SWAP1 RETURN JUMPDEST CALLVALUE DUP1 ISZERO PUSH2 0x2D8 JUMPI PUSH1 0x0 DUP1 REVERT JUMPDEST POP PUSH2 0x2E1 PUSH2 0xDF0 JUMP JUMPDEST PUSH1 0x40 MLOAD PUSH2 0x2EE SWAP2 SWAP1 PUSH2 0x1C10 JUMP JUMPDEST PUSH1 0x40 MLOAD DUP1 SWAP2 SUB SWAP1 RETURN JUMPDEST CALLVALUE DUP1 ISZERO PUSH2 0x303 JUMPI PUSH1 0x0 DUP1 REVERT JUMPDEST POP PUSH2 0x30C PUSH2 0xDF6 JUMP JUMPDEST PUSH1 0x40 MLOAD PUSH2 0x319 SWAP2 SWAP1 PUSH2 0x19B9 JUMP JUMPDEST PUSH1 0x40 MLOAD DUP1 SWAP2 SUB SWAP1 RETURN JUMPDEST CALLVALUE DUP1 ISZERO PUSH2 0x32E JUMPI PUSH1 0x0 DUP1 REVERT JUMPDEST POP PUSH2 0x337 PUSH2 0xE1C JUMP JUMPDEST PUSH1 0x40 MLOAD PUSH2 0x346 SWAP4 SWAP3 SWAP2 SWAP1 PUSH2 0x1A5E JUMP JUMPDEST PUSH1 0x40 MLOAD DUP1 SWAP2 SUB SWAP1 RETURN JUMPDEST PUSH2 0x369 PUSH1 0x4 DUP1 CALLDATASIZE SUB DUP2 ADD SWAP1 PUSH2 0x364 SWAP2 SWAP1 PUSH2 0x1684 JUMP JUMPDEST PUSH2 0xE4E JUMP JUMPDEST STOP JUMPDEST CALLVALUE DUP1 ISZERO PUSH2 0x377 JUMPI PUSH1 0x0 DUP1 REVERT JUMPDEST POP PUSH2 0x380 PUSH2 0x1001 JUMP JUMPDEST PUSH1 0x40 MLOAD PUSH2 0x38D SWAP2 SWAP1 PUSH2 0x19B9 JUMP JUMPDEST PUSH1 0x40 MLOAD DUP1 SWAP2 SUB SWAP1 RETURN JUMPDEST PUSH2 0x3B0 PUSH1 0x4 DUP1 CALLDATASIZE SUB DUP2 ADD SWAP1 PUSH2 0x3AB SWAP2 SWAP1 PUSH2 0x15A9 JUMP JUMPDEST PUSH2 0x1027 JUMP JUMPDEST STOP JUMPDEST PUSH1 0x0 DUP1 PUSH1 0x0 PUSH2 0x3BF PUSH2 0x1356 JUMP JUMPDEST SWAP1 POP PUSH1 0x0 DUP2 PUSH20 0xFFFFFFFFFFFFFFFFFFFFFFFFFFFFFFFFFFFFFFFF AND PUSH4 0x309E65B PUSH1 0x4 PUSH1 0x0 SWAP1 SLOAD SWAP1 PUSH2 0x100 EXP SWAP1 DIV PUSH20 0xFFFFFFFFFFFFFFFFFFFFFFFFFFFFFFFFFFFFFFFF AND PUSH1 0x40 MLOAD DUP3 PUSH4 0xFFFFFFFF AND PUSH1 0xE0 SHL DUP2 MSTORE PUSH1 0x4 ADD PUSH2 0x41E SWAP2 SWAP1 PUSH2 0x199E JUMP JUMPDEST PUSH1 0x20 PUSH1 0x40 MLOAD DUP1 DUP4 SUB DUP2 DUP7 DUP1 EXTCODESIZE ISZERO DUP1 ISZERO PUSH2 0x436 JUMPI PUSH1 0x0 DUP1 REVERT JUMPDEST POP GAS STATICCALL ISZERO DUP1 ISZERO PUSH2 0x44A JUMPI RETURNDATASIZE PUSH1 0x0 DUP1 RETURNDATACOPY RETURNDATASIZE PUSH1 0x0 REVERT JUMPDEST POP POP POP POP PUSH1 0x40 MLOAD RETURNDATASIZE PUSH1 0x1F NOT PUSH1 0x1F DUP3 ADD AND DUP3 ADD DUP1 PUSH1 0x40 MSTORE POP DUP2 ADD SWAP1 PUSH2 0x46E SWAP2 SWAP1 PUSH2 0x16D6 JUMP JUMPDEST SWAP1 POP PUSH1 0x0 DUP1 PUSH1 0x0 DUP1 DUP6 PUSH20 0xFFFFFFFFFFFFFFFFFFFFFFFFFFFFFFFFFFFFFFFF AND PUSH4 0x995B5AAE PUSH1 0x40 MLOAD DUP2 PUSH4 0xFFFFFFFF AND PUSH1 0xE0 SHL DUP2 MSTORE PUSH1 0x4 ADD PUSH1 0x80 PUSH1 0x40 MLOAD DUP1 DUP4 SUB DUP2 DUP7 DUP1 EXTCODESIZE ISZERO DUP1 ISZERO PUSH2 0x4BC JUMPI PUSH1 0x0 DUP1 REVERT JUMPDEST POP GAS STATICCALL ISZERO DUP1 ISZERO PUSH2 0x4D0 JUMPI RETURNDATASIZE PUSH1 0x0 DUP1 RETURNDATACOPY RETURNDATASIZE PUSH1 0x0 REVERT JUMPDEST POP POP POP POP PUSH1 0x40 MLOAD RETURNDATASIZE PUSH1 0x1F NOT PUSH1 0x1F DUP3 ADD AND DUP3 ADD DUP1 PUSH1 0x40 MSTORE POP DUP2 ADD SWAP1 PUSH2 0x4F4 SWAP2 SWAP1 PUSH2 0x15D2 JUMP JUMPDEST SWAP4 POP SWAP4 POP SWAP4 POP SWAP4 POP PUSH1 0x0 DUP1 DUP4 PUSH4 0xFFFFFFFF AND GT DUP1 ISZERO PUSH2 0x519 JUMPI POP DUP3 PUSH4 0xFFFFFFFF AND DUP7 LT ISZERO JUMPDEST PUSH2 0x523 JUMPI DUP4 PUSH2 0x525 JUMP JUMPDEST DUP2 JUMPDEST SWAP1 POP DUP1 DUP6 DUP2 PUSH4 0xFFFFFFFF AND SWAP2 POP SWAP9 POP SWAP9 POP POP POP POP POP POP POP POP SWAP1 SWAP2 JUMP JUMPDEST CALLER PUSH20 0xFFFFFFFFFFFFFFFFFFFFFFFFFFFFFFFFFFFFFFFF AND PUSH1 0x6 PUSH1 0x0 SWAP1 SLOAD SWAP1 PUSH2 0x100 EXP SWAP1 DIV PUSH20 0xFFFFFFFFFFFFFFFFFFFFFFFFFFFFFFFFFFFFFFFF AND PUSH20 0xFFFFFFFFFFFFFFFFFFFFFFFFFFFFFFFFFFFFFFFF AND EQ PUSH2 0x5D1 JUMPI PUSH1 0x40 MLOAD PUSH32 0x8C379A000000000000000000000000000000000000000000000000000000000 DUP2 MSTORE PUSH1 0x4 ADD PUSH2 0x5C8 SWAP1 PUSH2 0x1B70 JUMP JUMPDEST PUSH1 0x40 MLOAD DUP1 SWAP2 SUB SWAP1 REVERT JUMPDEST PUSH1 0x7 SLOAD CALLVALUE PUSH1 0x9 SLOAD PUSH2 0x5E2 SWAP2 SWAP1 PUSH2 0x1CC5 JUMP JUMPDEST GT ISZERO PUSH2 0x623 JUMPI PUSH1 0x40 MLOAD PUSH32 0x8C379A000000000000000000000000000000000000000000000000000000000 DUP2 MSTORE PUSH1 0x4 ADD PUSH2 0x61A SWAP1 PUSH2 0x1BF0 JUMP JUMPDEST PUSH1 0x40 MLOAD DUP1 SWAP2 SUB SWAP1 REVERT JUMPDEST PUSH1 0x0 CALLVALUE GT PUSH2 0x666 JUMPI PUSH1 0x40 MLOAD PUSH32 0x8C379A000000000000000000000000000000000000000000000000000000000 DUP2 MSTORE PUSH1 0x4 ADD PUSH2 0x65D SWAP1 PUSH2 0x1B90 JUMP JUMPDEST PUSH1 0x40 MLOAD DUP1 SWAP2 SUB SWAP1 REVERT JUMPDEST PUSH1 0x0 DUP1 PUSH2 0x671 PUSH2 0x3B2 JUMP JUMPDEST SWAP2 POP SWAP2 POP PUSH1 0x0 DUP1 DUP4 GT PUSH2 0x685 JUMPI PUSH1 0x0 PUSH2 0x690 JUMP JUMPDEST PUSH2 0x68F DUP4 CALLVALUE PUSH2 0x1402 JUMP JUMPDEST JUMPDEST SWAP1 POP PUSH1 0x0 PUSH2 0x69C PUSH2 0x1356 JUMP JUMPDEST SWAP1 POP PUSH1 0x5 PUSH1 0x0 SWAP1 SLOAD SWAP1 PUSH2 0x100 EXP SWAP1 DIV PUSH20 0xFFFFFFFFFFFFFFFFFFFFFFFFFFFFFFFFFFFFFFFF AND PUSH20 0xFFFFFFFFFFFFFFFFFFFFFFFFFFFFFFFFFFFFFFFF AND PUSH2 0x8FC DUP4 CALLVALUE PUSH2 0x6E6 SWAP2 SWAP1 PUSH2 0x1DA6 JUMP JUMPDEST SWAP1 DUP2 ISZERO MUL SWAP1 PUSH1 0x40 MLOAD PUSH1 0x0 PUSH1 0x40 MLOAD DUP1 DUP4 SUB DUP2 DUP6 DUP9 DUP9 CALL SWAP4 POP POP POP POP ISZERO DUP1 ISZERO PUSH2 0x711 JUMPI RETURNDATASIZE PUSH1 0x0 DUP1 RETURNDATACOPY RETURNDATASIZE PUSH1 0x0 REVERT JUMPDEST POP PUSH2 0x721 PUSH1 0x0 PUSH1 0x7 SLOAD PUSH1 0x0 PUSH2 0x1425 JUMP JUMPDEST CALLVALUE PUSH1 0x9 PUSH1 0x0 DUP3 DUP3 SLOAD PUSH2 0x733 SWAP2 SWAP1 PUSH2 0x1CC5 JUMP JUMPDEST SWAP3 POP POP DUP2 SWAP1 SSTORE POP PUSH1 0x7 SLOAD PUSH1 0x9 SLOAD EQ PUSH2 0x79A JUMPI PUSH1 0x1 PUSH1 0xA PUSH1 0x0 PUSH2 0x100 EXP DUP2 SLOAD DUP2 PUSH1 0xFF MUL NOT AND SWAP1 DUP4 PUSH1 0x4 DUP2 GT ISZERO PUSH2 0x791 JUMPI PUSH32 0x4E487B7100000000000000000000000000000000000000000000000000000000 PUSH1 0x0 MSTORE PUSH1 0x21 PUSH1 0x4 MSTORE PUSH1 0x24 PUSH1 0x0 REVERT JUMPDEST MUL OR SWAP1 SSTORE PUSH2 0x7EB JUMP JUMPDEST PUSH1 0x2 PUSH1 0xA PUSH1 0x0 PUSH2 0x100 EXP DUP2 SLOAD DUP2 PUSH1 0xFF MUL NOT AND SWAP1 DUP4 PUSH1 0x4 DUP2 GT ISZERO PUSH2 0x7E6 JUMPI PUSH32 0x4E487B7100000000000000000000000000000000000000000000000000000000 PUSH1 0x0 MSTORE PUSH1 0x21 PUSH1 0x4 MSTORE PUSH1 0x24 PUSH1 0x0 REVERT JUMPDEST MUL OR SWAP1 SSTORE JUMPDEST POP PUSH1 0x0 DUP3 GT ISZERO PUSH2 0x83D JUMPI DUP3 PUSH20 0xFFFFFFFFFFFFFFFFFFFFFFFFFFFFFFFFFFFFFFFF AND PUSH2 0x8FC DUP4 SWAP1 DUP2 ISZERO MUL SWAP1 PUSH1 0x40 MLOAD PUSH1 0x0 PUSH1 0x40 MLOAD DUP1 DUP4 SUB DUP2 DUP6 DUP9 DUP9 CALL SWAP4 POP POP POP POP ISZERO DUP1 ISZERO PUSH2 0x83B JUMPI RETURNDATASIZE PUSH1 0x0 DUP1 RETURNDATACOPY RETURNDATASIZE PUSH1 0x0 REVERT JUMPDEST POP JUMPDEST DUP3 PUSH20 0xFFFFFFFFFFFFFFFFFFFFFFFFFFFFFFFFFFFFFFFF AND ADDRESS PUSH20 0xFFFFFFFFFFFFFFFFFFFFFFFFFFFFFFFFFFFFFFFF AND DUP3 PUSH20 0xFFFFFFFFFFFFFFFFFFFFFFFFFFFFFFFFFFFFFFFF AND PUSH32 0x7B025F69F5843A875988ABC4E248350E4E5D0EC876E181973034E7A5C5BAD884 DUP6 TIMESTAMP PUSH1 0x40 MLOAD PUSH2 0x8B3 SWAP3 SWAP2 SWAP1 PUSH2 0x1C54 JUMP JUMPDEST PUSH1 0x40 MLOAD DUP1 SWAP2 SUB SWAP1 LOG4 POP POP POP POP JUMP JUMPDEST CALLER PUSH20 0xFFFFFFFFFFFFFFFFFFFFFFFFFFFFFFFFFFFFFFFF AND PUSH1 0x4 PUSH1 0x0 SWAP1 SLOAD SWAP1 PUSH2 0x100 EXP SWAP1 DIV PUSH20 0xFFFFFFFFFFFFFFFFFFFFFFFFFFFFFFFFFFFFFFFF AND PUSH20 0xFFFFFFFFFFFFFFFFFFFFFFFFFFFFFFFFFFFFFFFF AND EQ PUSH2 0x951 JUMPI PUSH1 0x40 MLOAD PUSH32 0x8C379A000000000000000000000000000000000000000000000000000000000 DUP2 MSTORE PUSH1 0x4 ADD PUSH2 0x948 SWAP1 PUSH2 0x1BB0 JUMP JUMPDEST PUSH1 0x40 MLOAD DUP1 SWAP2 SUB SWAP1 REVERT JUMPDEST PUSH1 0x5 PUSH1 0x0 SWAP1 SLOAD SWAP1 PUSH2 0x100 EXP SWAP1 DIV PUSH20 0xFFFFFFFFFFFFFFFFFFFFFFFFFFFFFFFFFFFFFFFF AND PUSH20 0xFFFFFFFFFFFFFFFFFFFFFFFFFFFFFFFFFFFFFFFF AND PUSH1 0x4 PUSH1 0x0 SWAP1 SLOAD SWAP1 PUSH2 0x100 EXP SWAP1 DIV PUSH20 0xFFFFFFFFFFFFFFFFFFFFFFFFFFFFFFFFFFFFFFFF AND PUSH20 0xFFFFFFFFFFFFFFFFFFFFFFFFFFFFFFFFFFFFFFFF AND EQ PUSH2 0xA03 JUMPI PUSH1 0x40 MLOAD PUSH32 0x8C379A000000000000000000000000000000000000000000000000000000000 DUP2 MSTORE PUSH1 0x4 ADD PUSH2 0x9FA SWAP1 PUSH2 0x1BD0 JUMP JUMPDEST PUSH1 0x40 MLOAD DUP1 SWAP2 SUB SWAP1 REVERT JUMPDEST PUSH1 0x0 PUSH1 0xB SLOAD SWAP1 POP DUP2 PUSH1 0xB DUP2 SWAP1 SSTORE POP ADDRESS PUSH20 0xFFFFFFFFFFFFFFFFFFFFFFFFFFFFFFFFFFFFFFFF AND PUSH32 0xAD58C87BAD083AF5840976457EAF3E6EBFAB644C0FBA0250F991295F5E7E9E35 DUP3 DUP5 TIMESTAMP PUSH1 0x40 MLOAD PUSH2 0xA5B SWAP4 SWAP3 SWAP2 SWAP1 PUSH2 0x1C7D JUMP JUMPDEST PUSH1 0x40 MLOAD DUP1 SWAP2 SUB SWAP1 LOG2 POP POP JUMP JUMPDEST PUSH1 0x9 SLOAD DUP2 JUMP JUMPDEST PUSH1 0xA PUSH1 0x0 SWAP1 SLOAD SWAP1 PUSH2 0x100 EXP SWAP1 DIV PUSH1 0xFF AND DUP2 JUMP JUMPDEST CALLER PUSH20 0xFFFFFFFFFFFFFFFFFFFFFFFFFFFFFFFFFFFFFFFF AND PUSH1 0x4 PUSH1 0x0 SWAP1 SLOAD SWAP1 PUSH2 0x100 EXP SWAP1 DIV PUSH20 0xFFFFFFFFFFFFFFFFFFFFFFFFFFFFFFFFFFFFFFFF AND PUSH20 0xFFFFFFFFFFFFFFFFFFFFFFFFFFFFFFFFFFFFFFFF AND EQ PUSH2 0xB10 JUMPI PUSH1 0x40 MLOAD PUSH32 0x8C379A000000000000000000000000000000000000000000000000000000000 DUP2 MSTORE PUSH1 0x4 ADD PUSH2 0xB07 SWAP1 PUSH2 0x1BB0 JUMP JUMPDEST PUSH1 0x40 MLOAD DUP1 SWAP2 SUB SWAP1 REVERT JUMPDEST PUSH1 0x40 MLOAD DUP1 PUSH1 0x60 ADD PUSH1 0x40 MSTORE DUP1 DUP5 DUP2 MSTORE PUSH1 0x20 ADD DUP4 PUSH1 0xFF AND DUP2 MSTORE PUSH1 0x20 ADD DUP3 PUSH1 0xFF AND DUP2 MSTORE POP PUSH1 0x0 DUP1 DUP3 ADD MLOAD DUP2 PUSH1 0x0 ADD SSTORE PUSH1 0x20 DUP3 ADD MLOAD DUP2 PUSH1 0x1 ADD PUSH1 0x0 PUSH2 0x100 EXP DUP2 SLOAD DUP2 PUSH1 0xFF MUL NOT AND SWAP1 DUP4 PUSH1 0xFF AND MUL OR SWAP1 SSTORE POP PUSH1 0x40 DUP3 ADD MLOAD DUP2 PUSH1 0x1 ADD PUSH1 0x1 PUSH2 0x100 EXP DUP2 SLOAD DUP2 PUSH1 0xFF MUL NOT AND SWAP1 DUP4 PUSH1 0xFF AND MUL OR SWAP1 SSTORE POP SWAP1 POP POP PUSH2 0xB89 PUSH2 0x1356 JUMP JUMPDEST PUSH20 0xFFFFFFFFFFFFFFFFFFFFFFFFFFFFFFFFFFFFFFFF AND PUSH32 0x5143FCC7FDD681177C0156A4BDA42CF72B4B9FD524AEA941866E7E0A0D78687F ADDRESS PUSH1 0x0 TIMESTAMP PUSH1 0x40 MLOAD PUSH2 0xBD3 SWAP4 SWAP3 SWAP2 SWAP1 PUSH2 0x1A27 JUMP JUMPDEST PUSH1 0x40 MLOAD DUP1 SWAP2 SUB SWAP1 LOG2 POP POP POP JUMP JUMPDEST PUSH1 0x3 PUSH1 0x0 SWAP1 SLOAD SWAP1 PUSH2 0x100 EXP SWAP1 DIV PUSH20 0xFFFFFFFFFFFFFFFFFFFFFFFFFFFFFFFFFFFFFFFF AND DUP2 JUMP JUMPDEST CALLER PUSH20 0xFFFFFFFFFFFFFFFFFFFFFFFFFFFFFFFFFFFFFFFF AND PUSH1 0x5 PUSH1 0x0 SWAP1 SLOAD SWAP1 PUSH2 0x100 EXP SWAP1 DIV PUSH20 0xFFFFFFFFFFFFFFFFFFFFFFFFFFFFFFFFFFFFFFFF AND PUSH20 0xFFFFFFFFFFFFFFFFFFFFFFFFFFFFFFFFFFFFFFFF AND EQ PUSH2 0xC96 JUMPI PUSH1 0x40 MLOAD PUSH32 0x8C379A000000000000000000000000000000000000000000000000000000000 DUP2 MSTORE PUSH1 0x4 ADD PUSH2 0xC8D SWAP1 PUSH2 0x1B10 JUMP JUMPDEST PUSH1 0x40 MLOAD DUP1 SWAP2 SUB SWAP1 REVERT JUMPDEST PUSH1 0x0 PUSH1 0x4 DUP2 GT ISZERO PUSH2 0xCD0 JUMPI PUSH32 0x4E487B7100000000000000000000000000000000000000000000000000000000 PUSH1 0x0 MSTORE PUSH1 0x21 PUSH1 0x4 MSTORE PUSH1 0x24 PUSH1 0x0 REVERT JUMPDEST PUSH1 0xA PUSH1 0x0 SWAP1 SLOAD SWAP1 PUSH2 0x100 EXP SWAP1 DIV PUSH1 0xFF AND PUSH1 0x4 DUP2 GT ISZERO PUSH2 0xD18 JUMPI PUSH32 0x4E487B7100000000000000000000000000000000000000000000000000000000 PUSH1 0x0 MSTORE PUSH1 0x21 PUSH1 0x4 MSTORE PUSH1 0x24 PUSH1 0x0 REVERT JUMPDEST EQ PUSH2 0xD58 JUMPI PUSH1 0x40 MLOAD PUSH32 0x8C379A000000000000000000000000000000000000000000000000000000000 DUP2 MSTORE PUSH1 0x4 ADD PUSH2 0xD4F SWAP1 PUSH2 0x1B50 JUMP JUMPDEST PUSH1 0x40 MLOAD DUP1 SWAP2 SUB SWAP1 REVERT JUMPDEST PUSH1 0x4 PUSH1 0xA PUSH1 0x0 PUSH2 0x100 EXP DUP2 SLOAD DUP2 PUSH1 0xFF MUL NOT AND SWAP1 DUP4 PUSH1 0x4 DUP2 GT ISZERO PUSH2 0xDA4 JUMPI PUSH32 0x4E487B7100000000000000000000000000000000000000000000000000000000 PUSH1 0x0 MSTORE PUSH1 0x21 PUSH1 0x4 MSTORE PUSH1 0x24 PUSH1 0x0 REVERT JUMPDEST MUL OR SWAP1 SSTORE POP PUSH2 0xDB6 PUSH1 0x2 PUSH1 0x0 DUP1 PUSH2 0x1425 JUMP JUMPDEST JUMP JUMPDEST PUSH1 0xB SLOAD DUP2 JUMP JUMPDEST PUSH1 0x7 SLOAD DUP2 JUMP JUMPDEST PUSH1 0x4 PUSH1 0x0 SWAP1 SLOAD SWAP1 PUSH2 0x100 EXP SWAP1 DIV PUSH20 0xFFFFFFFFFFFFFFFFFFFFFFFFFFFFFFFFFFFFFFFF AND DUP2 JUMP JUMPDEST PUSH1 0x2 SLOAD DUP2 JUMP JUMPDEST PUSH1 0x8 SLOAD DUP2 JUMP JUMPDEST PUSH1 0x6 PUSH1 0x0 SWAP1 SLOAD SWAP1 PUSH2 0x100 EXP SWAP1 DIV PUSH20 0xFFFFFFFFFFFFFFFFFFFFFFFFFFFFFFFFFFFFFFFF AND DUP2 JUMP JUMPDEST PUSH1 0x0 DUP1 PUSH1 0x0 ADD SLOAD SWAP1 DUP1 PUSH1 0x1 ADD PUSH1 0x0 SWAP1 SLOAD SWAP1 PUSH2 0x100 EXP SWAP1 DIV PUSH1 0xFF AND SWAP1 DUP1 PUSH1 0x1 ADD PUSH1 0x1 SWAP1 SLOAD SWAP1 PUSH2 0x100 EXP SWAP1 DIV PUSH1 0xFF AND SWAP1 POP DUP4 JUMP JUMPDEST CALLER PUSH20 0xFFFFFFFFFFFFFFFFFFFFFFFFFFFFFFFFFFFFFFFF AND PUSH1 0x6 PUSH1 0x0 SWAP1 SLOAD SWAP1 PUSH2 0x100 EXP SWAP1 DIV PUSH20 0xFFFFFFFFFFFFFFFFFFFFFFFFFFFFFFFFFFFFFFFF AND PUSH20 0xFFFFFFFFFFFFFFFFFFFFFFFFFFFFFFFFFFFFFFFF AND EQ PUSH2 0xEDE JUMPI PUSH1 0x40 MLOAD PUSH32 0x8C379A000000000000000000000000000000000000000000000000000000000 DUP2 MSTORE PUSH1 0x4 ADD PUSH2 0xED5 SWAP1 PUSH2 0x1B70 JUMP JUMPDEST PUSH1 0x40 MLOAD DUP1 SWAP2 SUB SWAP1 REVERT JUMPDEST PUSH1 0x0 PUSH1 0x4 DUP2 GT ISZERO PUSH2 0xF18 JUMPI PUSH32 0x4E487B7100000000000000000000000000000000000000000000000000000000 PUSH1 0x0 MSTORE PUSH1 0x21 PUSH1 0x4 MSTORE PUSH1 0x24 PUSH1 0x0 REVERT JUMPDEST PUSH1 0xA PUSH1 0x0 SWAP1 SLOAD SWAP1 PUSH2 0x100 EXP SWAP1 DIV PUSH1 0xFF AND PUSH1 0x4 DUP2 GT ISZERO PUSH2 0xF60 JUMPI PUSH32 0x4E487B7100000000000000000000000000000000000000000000000000000000 PUSH1 0x0 MSTORE PUSH1 0x21 PUSH1 0x4 MSTORE PUSH1 0x24 PUSH1 0x0 REVERT JUMPDEST EQ PUSH2 0xFA0 JUMPI PUSH1 0x40 MLOAD PUSH32 0x8C379A000000000000000000000000000000000000000000000000000000000 DUP2 MSTORE PUSH1 0x4 ADD PUSH2 0xF97 SWAP1 PUSH2 0x1B30 JUMP JUMPDEST PUSH1 0x40 MLOAD DUP1 SWAP2 SUB SWAP1 REVERT JUMPDEST PUSH1 0x3 PUSH1 0xA PUSH1 0x0 PUSH2 0x100 EXP DUP2 SLOAD DUP2 PUSH1 0xFF MUL NOT AND SWAP1 DUP4 PUSH1 0x4 DUP2 GT ISZERO PUSH2 0xFEC JUMPI PUSH32 0x4E487B7100000000000000000000000000000000000000000000000000000000 PUSH1 0x0 MSTORE PUSH1 0x21 PUSH1 0x4 MSTORE PUSH1 0x24 PUSH1 0x0 REVERT JUMPDEST MUL OR SWAP1 SSTORE POP PUSH2 0xFFE PUSH1 0x1 PUSH1 0x0 DUP4 PUSH2 0x1425 JUMP JUMPDEST POP JUMP JUMPDEST PUSH1 0x5 PUSH1 0x0 SWAP1 SLOAD SWAP1 PUSH2 0x100 EXP SWAP1 DIV PUSH20 0xFFFFFFFFFFFFFFFFFFFFFFFFFFFFFFFFFFFFFFFF AND DUP2 JUMP JUMPDEST PUSH1 0x5 PUSH1 0x0 SWAP1 SLOAD SWAP1 PUSH2 0x100 EXP SWAP1 DIV PUSH20 0xFFFFFFFFFFFFFFFFFFFFFFFFFFFFFFFFFFFFFFFF AND PUSH20 0xFFFFFFFFFFFFFFFFFFFFFFFFFFFFFFFFFFFFFFFF AND PUSH1 0x4 PUSH1 0x0 SWAP1 SLOAD SWAP1 PUSH2 0x100 EXP SWAP1 DIV PUSH20 0xFFFFFFFFFFFFFFFFFFFFFFFFFFFFFFFFFFFFFFFF AND PUSH20 0xFFFFFFFFFFFFFFFFFFFFFFFFFFFFFFFFFFFFFFFF AND EQ PUSH2 0x10D9 JUMPI PUSH1 0x40 MLOAD PUSH32 0x8C379A000000000000000000000000000000000000000000000000000000000 DUP2 MSTORE PUSH1 0x4 ADD PUSH2 0x10D0 SWAP1 PUSH2 0x1AB0 JUMP JUMPDEST PUSH1 0x40 MLOAD DUP1 SWAP2 SUB SWAP1 REVERT JUMPDEST PUSH1 0x0 PUSH1 0xB SLOAD GT DUP1 PUSH2 0x1137 JUMPI POP PUSH1 0x4 PUSH1 0x0 SWAP1 SLOAD SWAP1 PUSH2 0x100 EXP SWAP1 DIV PUSH20 0xFFFFFFFFFFFFFFFFFFFFFFFFFFFFFFFFFFFFFFFF AND PUSH20 0xFFFFFFFFFFFFFFFFFFFFFFFFFFFFFFFFFFFFFFFF AND CALLER PUSH20 0xFFFFFFFFFFFFFFFFFFFFFFFFFFFFFFFFFFFFFFFF AND EQ JUMPDEST PUSH2 0x1176 JUMPI PUSH1 0x40 MLOAD PUSH32 0x8C379A000000000000000000000000000000000000000000000000000000000 DUP2 MSTORE PUSH1 0x4 ADD PUSH2 0x116D SWAP1 PUSH2 0x1AD0 JUMP JUMPDEST PUSH1 0x40 MLOAD DUP1 SWAP2 SUB SWAP1 REVERT JUMPDEST PUSH1 0xB SLOAD CALLVALUE EQ PUSH2 0x11BA JUMPI PUSH1 0x40 MLOAD PUSH32 0x8C379A000000000000000000000000000000000000000000000000000000000 DUP2 MSTORE PUSH1 0x4 ADD PUSH2 0x11B1 SWAP1 PUSH2 0x1AF0 JUMP JUMPDEST PUSH1 0x40 MLOAD DUP1 SWAP2 SUB SWAP1 REVERT JUMPDEST PUSH1 0x4 PUSH1 0x0 SWAP1 SLOAD SWAP1 PUSH2 0x100 EXP SWAP1 DIV PUSH20 0xFFFFFFFFFFFFFFFFFFFFFFFFFFFFFFFFFFFFFFFF AND PUSH20 0xFFFFFFFFFFFFFFFFFFFFFFFFFFFFFFFFFFFFFFFF AND PUSH2 0x8FC CALLVALUE SWAP1 DUP2 ISZERO MUL SWAP1 PUSH1 0x40 MLOAD PUSH1 0x0 PUSH1 0x40 MLOAD DUP1 DUP4 SUB DUP2 DUP6 DUP9 DUP9 CALL SWAP4 POP POP POP POP ISZERO DUP1 ISZERO PUSH2 0x1222 JUMPI RETURNDATASIZE PUSH1 0x0 DUP1 RETURNDATACOPY RETURNDATASIZE PUSH1 0x0 REVERT JUMPDEST POP PUSH1 0x0 PUSH1 0x4 PUSH1 0x0 SWAP1 SLOAD SWAP1 PUSH2 0x100 EXP SWAP1 DIV PUSH20 0xFFFFFFFFFFFFFFFFFFFFFFFFFFFFFFFFFFFFFFFF AND SWAP1 POP DUP2 PUSH1 0x4 PUSH1 0x0 PUSH2 0x100 EXP DUP2 SLOAD DUP2 PUSH20 0xFFFFFFFFFFFFFFFFFFFFFFFFFFFFFFFFFFFFFFFF MUL NOT AND SWAP1 DUP4 PUSH20 0xFFFFFFFFFFFFFFFFFFFFFFFFFFFFFFFFFFFFFFFF AND MUL OR SWAP1 SSTORE POP DUP2 PUSH1 0x5 PUSH1 0x0 PUSH2 0x100 EXP DUP2 SLOAD DUP2 PUSH20 0xFFFFFFFFFFFFFFFFFFFFFFFFFFFFFFFFFFFFFFFF MUL NOT AND SWAP1 DUP4 PUSH20 0xFFFFFFFFFFFFFFFFFFFFFFFFFFFFFFFFFFFFFFFF AND MUL OR SWAP1 SSTORE POP PUSH1 0x0 PUSH1 0xB DUP2 SWAP1 SSTORE POP DUP2 PUSH20 0xFFFFFFFFFFFFFFFFFFFFFFFFFFFFFFFFFFFFFFFF AND DUP2 PUSH20 0xFFFFFFFFFFFFFFFFFFFFFFFFFFFFFFFFFFFFFFFF AND ADDRESS PUSH20 0xFFFFFFFFFFFFFFFFFFFFFFFFFFFFFFFFFFFFFFFF AND PUSH32 0xC432DA71CF07DDCA9B6990A60D74E7CC2550A93BC44787D381AA5ECA20A93B99 CALLVALUE TIMESTAMP PUSH1 0x40 MLOAD PUSH2 0x134A SWAP3 SWAP2 SWAP1 PUSH2 0x1C54 JUMP JUMPDEST PUSH1 0x40 MLOAD DUP1 SWAP2 SUB SWAP1 LOG4 POP POP JUMP JUMPDEST PUSH1 0x0 DUP1 PUSH1 0x3 PUSH1 0x0 SWAP1 SLOAD SWAP1 PUSH2 0x100 EXP SWAP1 DIV PUSH20 0xFFFFFFFFFFFFFFFFFFFFFFFFFFFFFFFFFFFFFFFF AND SWAP1 POP DUP1 PUSH20 0xFFFFFFFFFFFFFFFFFFFFFFFFFFFFFFFFFFFFFFFF AND PUSH4 0x5E39986F PUSH1 0x40 MLOAD DUP2 PUSH4 0xFFFFFFFF AND PUSH1 0xE0 SHL DUP2 MSTORE PUSH1 0x4 ADD PUSH1 0x20 PUSH1 0x40 MLOAD DUP1 DUP4 SUB DUP2 DUP7 DUP1 EXTCODESIZE ISZERO DUP1 ISZERO PUSH2 0x13C4 JUMPI PUSH1 0x0 DUP1 REVERT JUMPDEST POP GAS STATICCALL ISZERO DUP1 ISZERO PUSH2 0x13D8 JUMPI RETURNDATASIZE PUSH1 0x0 DUP1 RETURNDATACOPY RETURNDATASIZE PUSH1 0x0 REVERT JUMPDEST POP POP POP POP PUSH1 0x40 MLOAD RETURNDATASIZE PUSH1 0x1F NOT PUSH1 0x1F DUP3 ADD AND DUP3 ADD DUP1 PUSH1 0x40 MSTORE POP DUP2 ADD SWAP1 PUSH2 0x13FC SWAP2 SWAP1 PUSH2 0x1580 JUMP JUMPDEST SWAP2 POP POP SWAP1 JUMP JUMPDEST PUSH1 0x0 PUSH2 0x2710 DUP4 DUP4 PUSH2 0x1413 SWAP2 SWAP1 PUSH2 0x1D4C JUMP JUMPDEST PUSH2 0x141D SWAP2 SWAP1 PUSH2 0x1D1B JUMP JUMPDEST SWAP1 POP SWAP3 SWAP2 POP POP JUMP JUMPDEST PUSH1 0x2 SLOAD PUSH1 0x3 PUSH1 0x0 SWAP1 SLOAD SWAP1 PUSH2 0x100 EXP SWAP1 DIV PUSH20 0xFFFFFFFFFFFFFFFFFFFFFFFFFFFFFFFFFFFFFFFF AND PUSH20 0xFFFFFFFFFFFFFFFFFFFFFFFFFFFFFFFFFFFFFFFF AND PUSH2 0x1469 PUSH2 0x1356 JUMP JUMPDEST PUSH20 0xFFFFFFFFFFFFFFFFFFFFFFFFFFFFFFFFFFFFFFFF AND PUSH32 0xE045288ED2DCE5E7856D34ADB92389085AC6A9BB154F64F310EE26A8F50703B ADDRESS DUP8 DUP8 DUP8 TIMESTAMP PUSH1 0x40 MLOAD PUSH2 0x14B6 SWAP6 SWAP5 SWAP4 SWAP3 SWAP2 SWAP1 PUSH2 0x19D4 JUMP JUMPDEST PUSH1 0x40 MLOAD DUP1 SWAP2 SUB SWAP1 LOG4 POP POP POP JUMP JUMPDEST PUSH1 0x0 DUP2 MLOAD SWAP1 POP PUSH2 0x14D2 DUP2 PUSH2 0x2297 JUMP JUMPDEST SWAP3 SWAP2 POP POP JUMP JUMPDEST PUSH1 0x0 DUP2 CALLDATALOAD SWAP1 POP PUSH2 0x14E7 DUP2 PUSH2 0x22AE JUMP JUMPDEST SWAP3 SWAP2 POP POP JUMP JUMPDEST PUSH1 0x0 DUP2 MLOAD SWAP1 POP PUSH2 0x14FC DUP2 PUSH2 0x22AE JUMP JUMPDEST SWAP3 SWAP2 POP POP JUMP JUMPDEST PUSH1 0x0 DUP2 CALLDATALOAD SWAP1 POP PUSH2 0x1511 DUP2 PUSH2 0x22C5 JUMP JUMPDEST SWAP3 SWAP2 POP POP JUMP JUMPDEST PUSH1 0x0 DUP2 CALLDATALOAD SWAP1 POP PUSH2 0x1526 DUP2 PUSH2 0x22DC JUMP JUMPDEST SWAP3 SWAP2 POP POP JUMP JUMPDEST PUSH1 0x0 DUP2 CALLDATALOAD SWAP1 POP PUSH2 0x153B DUP2 PUSH2 0x22EC JUMP JUMPDEST SWAP3 SWAP2 POP POP JUMP JUMPDEST PUSH1 0x0 DUP2 MLOAD SWAP1 POP PUSH2 0x1550 DUP2 PUSH2 0x22EC JUMP JUMPDEST SWAP3 SWAP2 POP POP JUMP JUMPDEST PUSH1 0x0 DUP2 MLOAD SWAP1 POP PUSH2 0x1565 DUP2 PUSH2 0x2303 JUMP JUMPDEST SWAP3 SWAP2 POP POP JUMP JUMPDEST PUSH1 0x0 DUP2 CALLDATALOAD SWAP1 POP PUSH2 0x157A DUP2 PUSH2 0x231A JUMP JUMPDEST SWAP3 SWAP2 POP POP JUMP JUMPDEST PUSH1 0x0 PUSH1 0x20 DUP3 DUP5 SUB SLT ISZERO PUSH2 0x1592 JUMPI PUSH1 0x0 DUP1 REVERT JUMPDEST PUSH1 0x0 PUSH2 0x15A0 DUP5 DUP3 DUP6 ADD PUSH2 0x14C3 JUMP JUMPDEST SWAP2 POP POP SWAP3 SWAP2 POP POP JUMP JUMPDEST PUSH1 0x0 PUSH1 0x20 DUP3 DUP5 SUB SLT ISZERO PUSH2 0x15BB JUMPI PUSH1 0x0 DUP1 REVERT JUMPDEST PUSH1 0x0 PUSH2 0x15C9 DUP5 DUP3 DUP6 ADD PUSH2 0x14D8 JUMP JUMPDEST SWAP2 POP POP SWAP3 SWAP2 POP POP JUMP JUMPDEST PUSH1 0x0 DUP1 PUSH1 0x0 DUP1 PUSH1 0x80 DUP6 DUP8 SUB SLT ISZERO PUSH2 0x15E8 JUMPI PUSH1 0x0 DUP1 REVERT JUMPDEST PUSH1 0x0 PUSH2 0x15F6 DUP8 DUP3 DUP9 ADD PUSH2 0x14ED JUMP JUMPDEST SWAP5 POP POP PUSH1 0x20 PUSH2 0x1607 DUP8 DUP3 DUP9 ADD PUSH2 0x1556 JUMP JUMPDEST SWAP4 POP POP PUSH1 0x40 PUSH2 0x1618 DUP8 DUP3 DUP9 ADD PUSH2 0x1556 JUMP JUMPDEST SWAP3 POP POP PUSH1 0x60 PUSH2 0x1629 DUP8 DUP3 DUP9 ADD PUSH2 0x1556 JUMP JUMPDEST SWAP2 POP POP SWAP3 SWAP6 SWAP2 SWAP5 POP SWAP3 POP JUMP JUMPDEST PUSH1 0x0 DUP1 PUSH1 0x0 PUSH1 0x60 DUP5 DUP7 SUB SLT ISZERO PUSH2 0x164A JUMPI PUSH1 0x0 DUP1 REVERT JUMPDEST PUSH1 0x0 PUSH2 0x1658 DUP7 DUP3 DUP8 ADD PUSH2 0x1502 JUMP JUMPDEST SWAP4 POP POP PUSH1 0x20 PUSH2 0x1669 DUP7 DUP3 DUP8 ADD PUSH2 0x156B JUMP JUMPDEST SWAP3 POP POP PUSH1 0x40 PUSH2 0x167A DUP7 DUP3 DUP8 ADD PUSH2 0x156B JUMP JUMPDEST SWAP2 POP POP SWAP3 POP SWAP3 POP SWAP3 JUMP JUMPDEST PUSH1 0x0 PUSH1 0x20 DUP3 DUP5 SUB SLT ISZERO PUSH2 0x1696 JUMPI PUSH1 0x0 DUP1 REVERT JUMPDEST PUSH1 0x0 PUSH2 0x16A4 DUP5 DUP3 DUP6 ADD PUSH2 0x1517 JUMP JUMPDEST SWAP2 POP POP SWAP3 SWAP2 POP POP JUMP JUMPDEST PUSH1 0x0 PUSH1 0x20 DUP3 DUP5 SUB SLT ISZERO PUSH2 0x16BF JUMPI PUSH1 0x0 DUP1 REVERT JUMPDEST PUSH1 0x0 PUSH2 0x16CD DUP5 DUP3 DUP6 ADD PUSH2 0x152C JUMP JUMPDEST SWAP2 POP POP SWAP3 SWAP2 POP POP JUMP JUMPDEST PUSH1 0x0 PUSH1 0x20 DUP3 DUP5 SUB SLT ISZERO PUSH2 0x16E8 JUMPI PUSH1 0x0 DUP1 REVERT JUMPDEST PUSH1 0x0 PUSH2 0x16F6 DUP5 DUP3 DUP6 ADD PUSH2 0x1541 JUMP JUMPDEST SWAP2 POP POP SWAP3 SWAP2 POP POP JUMP JUMPDEST PUSH2 0x1708 DUP2 PUSH2 0x1E9F JUMP JUMPDEST DUP3 MSTORE POP POP JUMP JUMPDEST PUSH2 0x1717 DUP2 PUSH2 0x1E03 JUMP JUMPDEST DUP3 MSTORE POP POP JUMP JUMPDEST PUSH2 0x1726 DUP2 PUSH2 0x1DF1 JUMP JUMPDEST DUP3 MSTORE POP POP JUMP JUMPDEST PUSH2 0x1735 DUP2 PUSH2 0x1E15 JUMP JUMPDEST DUP3 MSTORE POP POP JUMP JUMPDEST PUSH2 0x1744 DUP2 PUSH2 0x1E15 JUMP JUMPDEST DUP3 MSTORE POP POP JUMP JUMPDEST PUSH2 0x1753 DUP2 PUSH2 0x1EB1 JUMP JUMPDEST DUP3 MSTORE POP POP JUMP JUMPDEST PUSH2 0x1762 DUP2 PUSH2 0x1EC3 JUMP JUMPDEST DUP3 MSTORE POP POP JUMP JUMPDEST PUSH2 0x1771 DUP2 PUSH2 0x1ED5 JUMP JUMPDEST DUP3 MSTORE POP POP JUMP JUMPDEST PUSH1 0x0 PUSH2 0x1784 PUSH1 0x20 DUP4 PUSH2 0x1CB4 JUMP JUMPDEST SWAP2 POP PUSH2 0x178F DUP3 PUSH2 0x2000 JUMP JUMPDEST PUSH1 0x20 DUP3 ADD SWAP1 POP SWAP2 SWAP1 POP JUMP JUMPDEST PUSH1 0x0 PUSH2 0x17A7 PUSH1 0x39 DUP4 PUSH2 0x1CB4 JUMP JUMPDEST SWAP2 POP PUSH2 0x17B2 DUP3 PUSH2 0x2029 JUMP JUMPDEST PUSH1 0x40 DUP3 ADD SWAP1 POP SWAP2 SWAP1 POP JUMP JUMPDEST PUSH1 0x0 PUSH2 0x17CA PUSH1 0x29 DUP4 PUSH2 0x1CB4 JUMP JUMPDEST SWAP2 POP PUSH2 0x17D5 DUP3 PUSH2 0x2078 JUMP JUMPDEST PUSH1 0x40 DUP3 ADD SWAP1 POP SWAP2 SWAP1 POP JUMP JUMPDEST PUSH1 0x0 PUSH2 0x17ED PUSH1 0x1D DUP4 PUSH2 0x1CB4 JUMP JUMPDEST SWAP2 POP PUSH2 0x17F8 DUP3 PUSH2 0x20C7 JUMP JUMPDEST PUSH1 0x20 DUP3 ADD SWAP1 POP SWAP2 SWAP1 POP JUMP JUMPDEST PUSH1 0x0 PUSH2 0x1810 PUSH1 0x28 DUP4 PUSH2 0x1CB4 JUMP JUMPDEST SWAP2 POP PUSH2 0x181B DUP3 PUSH2 0x20F0 JUMP JUMPDEST PUSH1 0x40 DUP3 ADD SWAP1 POP SWAP2 SWAP1 POP JUMP JUMPDEST PUSH1 0x0 PUSH2 0x1833 PUSH1 0x29 DUP4 PUSH2 0x1CB4 JUMP JUMPDEST SWAP2 POP PUSH2 0x183E DUP3 PUSH2 0x213F JUMP JUMPDEST PUSH1 0x40 DUP3 ADD SWAP1 POP SWAP2 SWAP1 POP JUMP JUMPDEST PUSH1 0x0 PUSH2 0x1856 PUSH1 0x1B DUP4 PUSH2 0x1CB4 JUMP JUMPDEST SWAP2 POP PUSH2 0x1861 DUP3 PUSH2 0x218E JUMP JUMPDEST PUSH1 0x20 DUP3 ADD SWAP1 POP SWAP2 SWAP1 POP JUMP JUMPDEST PUSH1 0x0 PUSH2 0x1879 PUSH1 0x1E DUP4 PUSH2 0x1CB4 JUMP JUMPDEST SWAP2 POP PUSH2 0x1884 DUP3 PUSH2 0x21B7 JUMP JUMPDEST PUSH1 0x20 DUP3 ADD SWAP1 POP SWAP2 SWAP1 POP JUMP JUMPDEST PUSH1 0x0 PUSH2 0x189C PUSH1 0x1B DUP4 PUSH2 0x1CB4 JUMP JUMPDEST SWAP2 POP PUSH2 0x18A7 DUP3 PUSH2 0x21E0 JUMP JUMPDEST PUSH1 0x20 DUP3 ADD SWAP1 POP SWAP2 SWAP1 POP JUMP JUMPDEST PUSH1 0x0 PUSH2 0x18BF PUSH1 0x18 DUP4 PUSH2 0x1CB4 JUMP JUMPDEST SWAP2 POP PUSH2 0x18CA DUP3 PUSH2 0x2209 JUMP JUMPDEST PUSH1 0x20 DUP3 ADD SWAP1 POP SWAP2 SWAP1 POP JUMP JUMPDEST PUSH1 0x0 PUSH2 0x18E2 PUSH1 0x11 DUP4 PUSH2 0x1CB4 JUMP JUMPDEST SWAP2 POP PUSH2 0x18ED DUP3 PUSH2 0x2232 JUMP JUMPDEST PUSH1 0x20 DUP3 ADD SWAP1 POP SWAP2 SWAP1 POP JUMP JUMPDEST PUSH1 0x60 DUP3 ADD PUSH1 0x0 DUP1 DUP4 ADD SLOAD SWAP1 POP PUSH2 0x190D DUP2 PUSH2 0x1F0B JUMP JUMPDEST PUSH2 0x191A PUSH1 0x0 DUP7 ADD DUP3 PUSH2 0x172C JUMP JUMPDEST POP PUSH1 0x1 DUP4 ADD SLOAD SWAP1 POP PUSH2 0x192B DUP2 PUSH2 0x1F25 JUMP JUMPDEST PUSH2 0x1938 PUSH1 0x20 DUP7 ADD DUP3 PUSH2 0x1965 JUMP JUMPDEST POP PUSH2 0x1942 DUP2 PUSH2 0x1F3F JUMP JUMPDEST PUSH2 0x194F PUSH1 0x40 DUP7 ADD DUP3 PUSH2 0x1965 JUMP JUMPDEST POP POP POP POP POP JUMP JUMPDEST PUSH2 0x195F DUP2 PUSH2 0x1E78 JUMP JUMPDEST DUP3 MSTORE POP POP JUMP JUMPDEST PUSH2 0x196E DUP2 PUSH2 0x1E92 JUMP JUMPDEST DUP3 MSTORE POP POP JUMP JUMPDEST PUSH2 0x197D DUP2 PUSH2 0x1E92 JUMP JUMPDEST DUP3 MSTORE POP POP JUMP JUMPDEST PUSH1 0x0 PUSH1 0x20 DUP3 ADD SWAP1 POP PUSH2 0x1998 PUSH1 0x0 DUP4 ADD DUP5 PUSH2 0x171D JUMP JUMPDEST SWAP3 SWAP2 POP POP JUMP JUMPDEST PUSH1 0x0 PUSH1 0x20 DUP3 ADD SWAP1 POP PUSH2 0x19B3 PUSH1 0x0 DUP4 ADD DUP5 PUSH2 0x16FF JUMP JUMPDEST SWAP3 SWAP2 POP POP JUMP JUMPDEST PUSH1 0x0 PUSH1 0x20 DUP3 ADD SWAP1 POP PUSH2 0x19CE PUSH1 0x0 DUP4 ADD DUP5 PUSH2 0x170E JUMP JUMPDEST SWAP3 SWAP2 POP POP JUMP JUMPDEST PUSH1 0x0 PUSH1 0xA0 DUP3 ADD SWAP1 POP PUSH2 0x19E9 PUSH1 0x0 DUP4 ADD DUP9 PUSH2 0x171D JUMP JUMPDEST PUSH2 0x19F6 PUSH1 0x20 DUP4 ADD DUP8 PUSH2 0x174A JUMP JUMPDEST PUSH2 0x1A03 PUSH1 0x40 DUP4 ADD DUP7 PUSH2 0x1956 JUMP JUMPDEST PUSH2 0x1A10 PUSH1 0x60 DUP4 ADD DUP6 PUSH2 0x1759 JUMP JUMPDEST PUSH2 0x1A1D PUSH1 0x80 DUP4 ADD DUP5 PUSH2 0x1956 JUMP JUMPDEST SWAP7 SWAP6 POP POP POP POP POP POP JUMP JUMPDEST PUSH1 0x0 PUSH1 0xA0 DUP3 ADD SWAP1 POP PUSH2 0x1A3C PUSH1 0x0 DUP4 ADD DUP7 PUSH2 0x171D JUMP JUMPDEST PUSH2 0x1A49 PUSH1 0x20 DUP4 ADD DUP6 PUSH2 0x18F8 JUMP JUMPDEST PUSH2 0x1A56 PUSH1 0x80 DUP4 ADD DUP5 PUSH2 0x1956 JUMP JUMPDEST SWAP5 SWAP4 POP POP POP POP JUMP JUMPDEST PUSH1 0x0 PUSH1 0x60 DUP3 ADD SWAP1 POP PUSH2 0x1A73 PUSH1 0x0 DUP4 ADD DUP7 PUSH2 0x173B JUMP JUMPDEST PUSH2 0x1A80 PUSH1 0x20 DUP4 ADD DUP6 PUSH2 0x1974 JUMP JUMPDEST PUSH2 0x1A8D PUSH1 0x40 DUP4 ADD DUP5 PUSH2 0x1974 JUMP JUMPDEST SWAP5 SWAP4 POP POP POP POP JUMP JUMPDEST PUSH1 0x0 PUSH1 0x20 DUP3 ADD SWAP1 POP PUSH2 0x1AAA PUSH1 0x0 DUP4 ADD DUP5 PUSH2 0x1768 JUMP JUMPDEST SWAP3 SWAP2 POP POP JUMP JUMPDEST PUSH1 0x0 PUSH1 0x20 DUP3 ADD SWAP1 POP DUP2 DUP2 SUB PUSH1 0x0 DUP4 ADD MSTORE PUSH2 0x1AC9 DUP2 PUSH2 0x1777 JUMP JUMPDEST SWAP1 POP SWAP2 SWAP1 POP JUMP JUMPDEST PUSH1 0x0 PUSH1 0x20 DUP3 ADD SWAP1 POP DUP2 DUP2 SUB PUSH1 0x0 DUP4 ADD MSTORE PUSH2 0x1AE9 DUP2 PUSH2 0x179A JUMP JUMPDEST SWAP1 POP SWAP2 SWAP1 POP JUMP JUMPDEST PUSH1 0x0 PUSH1 0x20 DUP3 ADD SWAP1 POP DUP2 DUP2 SUB PUSH1 0x0 DUP4 ADD MSTORE PUSH2 0x1B09 DUP2 PUSH2 0x17BD JUMP JUMPDEST SWAP1 POP SWAP2 SWAP1 POP JUMP JUMPDEST PUSH1 0x0 PUSH1 0x20 DUP3 ADD SWAP1 POP DUP2 DUP2 SUB PUSH1 0x0 DUP4 ADD MSTORE PUSH2 0x1B29 DUP2 PUSH2 0x17E0 JUMP JUMPDEST SWAP1 POP SWAP2 SWAP1 POP JUMP JUMPDEST PUSH1 0x0 PUSH1 0x20 DUP3 ADD SWAP1 POP DUP2 DUP2 SUB PUSH1 0x0 DUP4 ADD MSTORE PUSH2 0x1B49 DUP2 PUSH2 0x1803 JUMP JUMPDEST SWAP1 POP SWAP2 SWAP1 POP JUMP JUMPDEST PUSH1 0x0 PUSH1 0x20 DUP3 ADD SWAP1 POP DUP2 DUP2 SUB PUSH1 0x0 DUP4 ADD MSTORE PUSH2 0x1B69 DUP2 PUSH2 0x1826 JUMP JUMPDEST SWAP1 POP SWAP2 SWAP1 POP JUMP JUMPDEST PUSH1 0x0 PUSH1 0x20 DUP3 ADD SWAP1 POP DUP2 DUP2 SUB PUSH1 0x0 DUP4 ADD MSTORE PUSH2 0x1B89 DUP2 PUSH2 0x1849 JUMP JUMPDEST SWAP1 POP SWAP2 SWAP1 POP JUMP JUMPDEST PUSH1 0x0 PUSH1 0x20 DUP3 ADD SWAP1 POP DUP2 DUP2 SUB PUSH1 0x0 DUP4 ADD MSTORE PUSH2 0x1BA9 DUP2 PUSH2 0x186C JUMP JUMPDEST SWAP1 POP SWAP2 SWAP1 POP JUMP JUMPDEST PUSH1 0x0 PUSH1 0x20 DUP3 ADD SWAP1 POP DUP2 DUP2 SUB PUSH1 0x0 DUP4 ADD MSTORE PUSH2 0x1BC9 DUP2 PUSH2 0x188F JUMP JUMPDEST SWAP1 POP SWAP2 SWAP1 POP JUMP JUMPDEST PUSH1 0x0 PUSH1 0x20 DUP3 ADD SWAP1 POP DUP2 DUP2 SUB PUSH1 0x0 DUP4 ADD MSTORE PUSH2 0x1BE9 DUP2 PUSH2 0x18B2 JUMP JUMPDEST SWAP1 POP SWAP2 SWAP1 POP JUMP JUMPDEST PUSH1 0x0 PUSH1 0x20 DUP3 ADD SWAP1 POP DUP2 DUP2 SUB PUSH1 0x0 DUP4 ADD MSTORE PUSH2 0x1C09 DUP2 PUSH2 0x18D5 JUMP JUMPDEST SWAP1 POP SWAP2 SWAP1 POP JUMP JUMPDEST PUSH1 0x0 PUSH1 0x20 DUP3 ADD SWAP1 POP PUSH2 0x1C25 PUSH1 0x0 DUP4 ADD DUP5 PUSH2 0x1956 JUMP JUMPDEST SWAP3 SWAP2 POP POP JUMP JUMPDEST PUSH1 0x0 PUSH1 0x40 DUP3 ADD SWAP1 POP PUSH2 0x1C40 PUSH1 0x0 DUP4 ADD DUP6 PUSH2 0x1956 JUMP JUMPDEST PUSH2 0x1C4D PUSH1 0x20 DUP4 ADD DUP5 PUSH2 0x170E JUMP JUMPDEST SWAP4 SWAP3 POP POP POP JUMP JUMPDEST PUSH1 0x0 PUSH1 0x40 DUP3 ADD SWAP1 POP PUSH2 0x1C69 PUSH1 0x0 DUP4 ADD DUP6 PUSH2 0x1956 JUMP JUMPDEST PUSH2 0x1C76 PUSH1 0x20 DUP4 ADD DUP5 PUSH2 0x1956 JUMP JUMPDEST SWAP4 SWAP3 POP POP POP JUMP JUMPDEST PUSH1 0x0 PUSH1 0x60 DUP3 ADD SWAP1 POP PUSH2 0x1C92 PUSH1 0x0 DUP4 ADD DUP7 PUSH2 0x1956 JUMP JUMPDEST PUSH2 0x1C9F PUSH1 0x20 DUP4 ADD DUP6 PUSH2 0x1956 JUMP JUMPDEST PUSH2 0x1CAC PUSH1 0x40 DUP4 ADD DUP5 PUSH2 0x1956 JUMP JUMPDEST SWAP5 SWAP4 POP POP POP POP JUMP JUMPDEST PUSH1 0x0 DUP3 DUP3 MSTORE PUSH1 0x20 DUP3 ADD SWAP1 POP SWAP3 SWAP2 POP POP JUMP JUMPDEST PUSH1 0x0 PUSH2 0x1CD0 DUP3 PUSH2 0x1E78 JUMP JUMPDEST SWAP2 POP PUSH2 0x1CDB DUP4 PUSH2 0x1E78 JUMP JUMPDEST SWAP3 POP DUP3 PUSH32 0xFFFFFFFFFFFFFFFFFFFFFFFFFFFFFFFFFFFFFFFFFFFFFFFFFFFFFFFFFFFFFFFF SUB DUP3 GT ISZERO PUSH2 0x1D10 JUMPI PUSH2 0x1D0F PUSH2 0x1F59 JUMP JUMPDEST JUMPDEST DUP3 DUP3 ADD SWAP1 POP SWAP3 SWAP2 POP POP JUMP JUMPDEST PUSH1 0x0 PUSH2 0x1D26 DUP3 PUSH2 0x1E78 JUMP JUMPDEST SWAP2 POP PUSH2 0x1D31 DUP4 PUSH2 0x1E78 JUMP JUMPDEST SWAP3 POP DUP3 PUSH2 0x1D41 JUMPI PUSH2 0x1D40 PUSH2 0x1F88 JUMP JUMPDEST JUMPDEST DUP3 DUP3 DIV SWAP1 POP SWAP3 SWAP2 POP POP JUMP JUMPDEST PUSH1 0x0 PUSH2 0x1D57 DUP3 PUSH2 0x1E78 JUMP JUMPDEST SWAP2 POP PUSH2 0x1D62 DUP4 PUSH2 0x1E78 JUMP JUMPDEST SWAP3 POP DUP2 PUSH32 0xFFFFFFFFFFFFFFFFFFFFFFFFFFFFFFFFFFFFFFFFFFFFFFFFFFFFFFFFFFFFFFFF DIV DUP4 GT DUP3 ISZERO ISZERO AND ISZERO PUSH2 0x1D9B JUMPI PUSH2 0x1D9A PUSH2 0x1F59 JUMP JUMPDEST JUMPDEST DUP3 DUP3 MUL SWAP1 POP SWAP3 SWAP2 POP POP JUMP JUMPDEST PUSH1 0x0 PUSH2 0x1DB1 DUP3 PUSH2 0x1E78 JUMP JUMPDEST SWAP2 POP PUSH2 0x1DBC DUP4 PUSH2 0x1E78 JUMP JUMPDEST SWAP3 POP DUP3 DUP3 LT ISZERO PUSH2 0x1DCF JUMPI PUSH2 0x1DCE PUSH2 0x1F59 JUMP JUMPDEST JUMPDEST DUP3 DUP3 SUB SWAP1 POP SWAP3 SWAP2 POP POP JUMP JUMPDEST PUSH1 0x0 DUP2 SWAP1 POP SWAP2 SWAP1 POP JUMP JUMPDEST PUSH1 0x0 PUSH1 0xFF DUP3 AND SWAP1 POP SWAP2 SWAP1 POP JUMP JUMPDEST PUSH1 0x0 PUSH2 0x1DFC DUP3 PUSH2 0x1E58 JUMP JUMPDEST SWAP1 POP SWAP2 SWAP1 POP JUMP JUMPDEST PUSH1 0x0 PUSH2 0x1E0E DUP3 PUSH2 0x1E58 JUMP JUMPDEST SWAP1 POP SWAP2 SWAP1 POP JUMP JUMPDEST PUSH1 0x0 DUP2 SWAP1 POP SWAP2 SWAP1 POP JUMP JUMPDEST PUSH1 0x0 DUP2 SWAP1 POP PUSH2 0x1E2D DUP3 PUSH2 0x225B JUMP JUMPDEST SWAP2 SWAP1 POP JUMP JUMPDEST PUSH1 0x0 DUP2 SWAP1 POP PUSH2 0x1E40 DUP3 PUSH2 0x226F JUMP JUMPDEST SWAP2 SWAP1 POP JUMP JUMPDEST PUSH1 0x0 DUP2 SWAP1 POP PUSH2 0x1E53 DUP3 PUSH2 0x2283 JUMP JUMPDEST SWAP2 SWAP1 POP JUMP JUMPDEST PUSH1 0x0 PUSH20 0xFFFFFFFFFFFFFFFFFFFFFFFFFFFFFFFFFFFFFFFF DUP3 AND SWAP1 POP SWAP2 SWAP1 POP JUMP JUMPDEST PUSH1 0x0 DUP2 SWAP1 POP SWAP2 SWAP1 POP JUMP JUMPDEST PUSH1 0x0 PUSH4 0xFFFFFFFF DUP3 AND SWAP1 POP SWAP2 SWAP1 POP JUMP JUMPDEST PUSH1 0x0 PUSH1 0xFF DUP3 AND SWAP1 POP SWAP2 SWAP1 POP JUMP JUMPDEST PUSH1 0x0 PUSH2 0x1EAA DUP3 PUSH2 0x1EE7 JUMP JUMPDEST SWAP1 POP SWAP2 SWAP1 POP JUMP JUMPDEST PUSH1 0x0 PUSH2 0x1EBC DUP3 PUSH2 0x1E1F JUMP JUMPDEST SWAP1 POP SWAP2 SWAP1 POP JUMP JUMPDEST PUSH1 0x0 PUSH2 0x1ECE DUP3 PUSH2 0x1E32 JUMP JUMPDEST SWAP1 POP SWAP2 SWAP1 POP JUMP JUMPDEST PUSH1 0x0 PUSH2 0x1EE0 DUP3 PUSH2 0x1E45 JUMP JUMPDEST SWAP1 POP SWAP2 SWAP1 POP JUMP JUMPDEST PUSH1 0x0 PUSH2 0x1EF2 DUP3 PUSH2 0x1EF9 JUMP JUMPDEST SWAP1 POP SWAP2 SWAP1 POP JUMP JUMPDEST PUSH1 0x0 PUSH2 0x1F04 DUP3 PUSH2 0x1E58 JUMP JUMPDEST SWAP1 POP SWAP2 SWAP1 POP JUMP JUMPDEST PUSH1 0x0 PUSH2 0x1F1E PUSH2 0x1F19 DUP4 PUSH2 0x1FE6 JUMP JUMPDEST PUSH2 0x1DDA JUMP JUMPDEST SWAP1 POP SWAP2 SWAP1 POP JUMP JUMPDEST PUSH1 0x0 PUSH2 0x1F38 PUSH2 0x1F33 DUP4 PUSH2 0x1FE6 JUMP JUMPDEST PUSH2 0x1DE4 JUMP JUMPDEST SWAP1 POP SWAP2 SWAP1 POP JUMP JUMPDEST PUSH1 0x0 PUSH2 0x1F52 PUSH2 0x1F4D DUP4 PUSH2 0x1FF3 JUMP JUMPDEST PUSH2 0x1DE4 JUMP JUMPDEST SWAP1 POP SWAP2 SWAP1 POP JUMP JUMPDEST PUSH32 0x4E487B7100000000000000000000000000000000000000000000000000000000 PUSH1 0x0 MSTORE PUSH1 0x11 PUSH1 0x4 MSTORE PUSH1 0x24 PUSH1 0x0 REVERT JUMPDEST PUSH32 0x4E487B7100000000000000000000000000000000000000000000000000000000 PUSH1 0x0 MSTORE PUSH1 0x12 PUSH1 0x4 MSTORE PUSH1 0x24 PUSH1 0x0 REVERT JUMPDEST PUSH32 0x4E487B7100000000000000000000000000000000000000000000000000000000 PUSH1 0x0 MSTORE PUSH1 0x21 PUSH1 0x4 MSTORE PUSH1 0x24 PUSH1 0x0 REVERT JUMPDEST PUSH1 0x0 DUP2 PUSH1 0x0 SHR SWAP1 POP SWAP2 SWAP1 POP JUMP JUMPDEST PUSH1 0x0 DUP2 PUSH1 0x8 SHR SWAP1 POP SWAP2 SWAP1 POP JUMP JUMPDEST PUSH32 0x6F6E6C7920696E766F696365732063616E206265207472616E73666572726564 PUSH1 0x0 DUP3 ADD MSTORE POP JUMP JUMPDEST PUSH32 0x7468697320636C61696D206973206E6F74207472616E7366657261626C652062 PUSH1 0x0 DUP3 ADD MSTORE PUSH32 0x7920616E796F6E65206F74686572207468616E206F776E657200000000000000 PUSH1 0x20 DUP3 ADD MSTORE POP JUMP JUMPDEST PUSH32 0x696E636F7272656374206D73672E76616C756520746F207472616E7366657220 PUSH1 0x0 DUP3 ADD MSTORE PUSH32 0x6F776E6572736869700000000000000000000000000000000000000000000000 PUSH1 0x20 DUP3 ADD MSTORE POP JUMP JUMPDEST PUSH32 0x7265737472696374656420746F206372656469746F722077616C6C6574000000 PUSH1 0x0 DUP3 ADD MSTORE POP JUMP JUMPDEST PUSH32 0x63616E6E6F742072656A656374206F6E6365207061796D656E74206861732062 PUSH1 0x0 DUP3 ADD MSTORE PUSH32 0x65656E206D616465000000000000000000000000000000000000000000000000 PUSH1 0x20 DUP3 ADD MSTORE POP JUMP JUMPDEST PUSH32 0x63616E6E6F742072657363696E64206F6E6365207061796D656E742068617320 PUSH1 0x0 DUP3 ADD MSTORE PUSH32 0x6265656E206D6164650000000000000000000000000000000000000000000000 PUSH1 0x20 DUP3 ADD MSTORE POP JUMP JUMPDEST PUSH32 0x7265737472696374656420746F20646562746F722077616C6C65740000000000 PUSH1 0x0 DUP3 ADD MSTORE POP JUMP JUMPDEST PUSH32 0x7061796D656E74206D7573742062652067726561746572207468616E20300000 PUSH1 0x0 DUP3 ADD MSTORE POP JUMP JUMPDEST PUSH32 0x7265737472696374656420746F206F776E696E672077616C6C65740000000000 PUSH1 0x0 DUP3 ADD MSTORE POP JUMP JUMPDEST PUSH32 0x6F6E6C79206F776E65722063616E207365742070726963650000000000000000 PUSH1 0x0 DUP3 ADD MSTORE POP JUMP JUMPDEST PUSH32 0x7265706179696E6720746F6F206D756368000000000000000000000000000000 PUSH1 0x0 DUP3 ADD MSTORE POP JUMP JUMPDEST PUSH1 0x3 DUP2 LT PUSH2 0x226C JUMPI PUSH2 0x226B PUSH2 0x1FB7 JUMP JUMPDEST JUMPDEST POP JUMP JUMPDEST PUSH1 0x5 DUP2 LT PUSH2 0x2280 JUMPI PUSH2 0x227F PUSH2 0x1FB7 JUMP JUMPDEST JUMPDEST POP JUMP JUMPDEST PUSH1 0x5 DUP2 LT PUSH2 0x2294 JUMPI PUSH2 0x2293 PUSH2 0x1FB7 JUMP JUMPDEST JUMPDEST POP JUMP JUMPDEST PUSH2 0x22A0 DUP2 PUSH2 0x1DF1 JUMP JUMPDEST DUP2 EQ PUSH2 0x22AB JUMPI PUSH1 0x0 DUP1 REVERT JUMPDEST POP JUMP JUMPDEST PUSH2 0x22B7 DUP2 PUSH2 0x1E03 JUMP JUMPDEST DUP2 EQ PUSH2 0x22C2 JUMPI PUSH1 0x0 DUP1 REVERT JUMPDEST POP JUMP JUMPDEST PUSH2 0x22CE DUP2 PUSH2 0x1E15 JUMP JUMPDEST DUP2 EQ PUSH2 0x22D9 JUMPI PUSH1 0x0 DUP1 REVERT JUMPDEST POP JUMP JUMPDEST PUSH1 0x5 DUP2 LT PUSH2 0x22E9 JUMPI PUSH1 0x0 DUP1 REVERT JUMPDEST POP JUMP JUMPDEST PUSH2 0x22F5 DUP2 PUSH2 0x1E78 JUMP JUMPDEST DUP2 EQ PUSH2 0x2300 JUMPI PUSH1 0x0 DUP1 REVERT JUMPDEST POP JUMP JUMPDEST PUSH2 0x230C DUP2 PUSH2 0x1E82 JUMP JUMPDEST DUP2 EQ PUSH2 0x2317 JUMPI PUSH1 0x0 DUP1 REVERT JUMPDEST POP JUMP JUMPDEST PUSH2 0x2323 DUP2 PUSH2 0x1E92 JUMP JUMPDEST DUP2 EQ PUSH2 0x232E JUMPI PUSH1 0x0 DUP1 REVERT JUMPDEST POP JUMP INVALID LOG2 PUSH5 0x6970667358 0x22 SLT KECCAK256 EXTCODEHASH 0xE6 LT DUP10 LT DIV 0xD4 EXTCODEHASH 0x2B DIFFICULTY 0xF PUSH24 0xE74F24A10A9955AE3B8EF0151E53446C4693EF9464736F6C PUSH4 0x43000804 STOP CALLER LOG2 PUSH5 0x6970667358 0x22 SLT KECCAK256 CALLDATASIZE 0xB2 CREATE DUP7 0xE5 0xBE 0x5C JUMPI 0xED 0xE8 0x2D CREATE GASLIMIT 0xC1 0xBB DUP8 0x5E JUMPI SMOD SLT SWAP8 DUP16 SAR 0xC4 0xD7 PUSH3 0x97C998 0xD9 0xEC SHR PUSH5 0x736F6C6343 STOP ADDMOD DIV STOP CALLER LOG2 PUSH5 0x6970667358 0x22 SLT KECCAK256 0xDB SWAP16 SAR DUP4 EXTCODESIZE KECCAK256 DUP7 0xF8 0xDE JUMPDEST LOG0 DUP11 SWAP5 PUSH2 0x474C DUP14 0x48 GASLIMIT SUB PUSH14 0xB86C922B08F1BCD198798764736F PUSH13 0x63430008040033000000000000 "
		},
		"gasEstimates": {
			"creation": {
				"codeDepositCost": "4189800",
				"executionCost": "infinite",
				"totalCost": "infinite"
			},
			"external": {
				"bullaToken()": "1345",
				"createBullaGroup(string,bytes32,bool)": "infinite",
				"description()": "infinite",
				"feeInfo()": "infinite",
				"getBullaBalance(address)": "infinite",
				"owner()": "1325",
				"setBullaTokenAddress(address)": "infinite",
				"setCollectionAddress(address)": "infinite",
				"setFee(uint32)": "infinite",
				"setOwner(address)": "infinite",
				"setReducedFee(uint32)": "infinite",
				"setbullaThreshold(uint32)": "infinite"
			}
		},
		"methodIdentifiers": {
			"bullaToken()": "eb69615e",
			"createBullaGroup(string,bytes32,bool)": "aadefd0e",
			"description()": "7284e416",
			"feeInfo()": "995b5aae",
			"getBullaBalance(address)": "0309e65b",
			"owner()": "8da5cb5b",
			"setBullaTokenAddress(address)": "8b019f92",
			"setCollectionAddress(address)": "a6904aa5",
			"setFee(uint32)": "1ab971ab",
			"setOwner(address)": "13af4035",
			"setReducedFee(uint32)": "f10a3179",
			"setbullaThreshold(uint32)": "a6546d0e"
		}
	},
	"abi": [
		{
			"inputs": [
				{
					"internalType": "bytes32",
					"name": "_description",
					"type": "bytes32"
				},
				{
					"internalType": "address payable",
					"name": "_collectionAddress",
					"type": "address"
				},
				{
					"internalType": "uint32",
					"name": "_feeBasisPoints",
					"type": "uint32"
				}
			],
			"stateMutability": "nonpayable",
			"type": "constructor"
		},
		{
			"anonymous": false,
			"inputs": [
				{
					"indexed": true,
					"internalType": "address",
					"name": "bullaManager",
					"type": "address"
				},
				{
					"indexed": false,
					"internalType": "address",
					"name": "prevBullaToken",
					"type": "address"
				},
				{
					"indexed": false,
					"internalType": "address",
					"name": "newBullaToken",
					"type": "address"
				},
				{
					"indexed": false,
					"internalType": "uint256",
					"name": "blocktime",
					"type": "uint256"
				}
			],
			"name": "BullaTokenChanged",
			"type": "event"
		},
		{
			"anonymous": false,
			"inputs": [
				{
					"indexed": true,
					"internalType": "address",
					"name": "bullaManager",
					"type": "address"
				},
				{
					"indexed": false,
					"internalType": "address",
					"name": "prevCollector",
					"type": "address"
				},
				{
					"indexed": false,
					"internalType": "address",
					"name": "newCollector",
					"type": "address"
				},
				{
					"indexed": false,
					"internalType": "uint256",
					"name": "blocktime",
					"type": "uint256"
				}
			],
			"name": "CollectorChanged",
			"type": "event"
		},
		{
			"anonymous": false,
			"inputs": [
				{
					"indexed": true,
					"internalType": "address",
					"name": "bullaManager",
					"type": "address"
				},
				{
					"indexed": false,
					"internalType": "uint256",
					"name": "prevFee",
					"type": "uint256"
				},
				{
					"indexed": false,
					"internalType": "uint256",
					"name": "newFee",
					"type": "uint256"
				},
				{
					"indexed": false,
					"internalType": "uint256",
					"name": "blocktime",
					"type": "uint256"
				}
			],
			"name": "FeeChanged",
			"type": "event"
		},
		{
			"anonymous": false,
			"inputs": [
				{
					"indexed": true,
					"internalType": "address",
					"name": "bullaManager",
					"type": "address"
				},
				{
					"indexed": false,
					"internalType": "uint256",
					"name": "prevFeeThreshold",
					"type": "uint256"
				},
				{
					"indexed": false,
					"internalType": "uint256",
					"name": "newFeeThreshold",
					"type": "uint256"
				},
				{
					"indexed": false,
					"internalType": "uint256",
					"name": "blocktime",
					"type": "uint256"
				}
			],
			"name": "FeeThresholdChanged",
			"type": "event"
		},
		{
			"anonymous": false,
			"inputs": [
				{
					"indexed": true,
					"internalType": "address",
					"name": "bullaManager",
					"type": "address"
				},
				{
					"indexed": true,
					"internalType": "address",
					"name": "bullaGroup",
					"type": "address"
				},
				{
					"indexed": false,
					"internalType": "address",
					"name": "owner",
					"type": "address"
				},
				{
					"indexed": false,
					"internalType": "string",
					"name": "description",
					"type": "string"
				},
				{
					"indexed": false,
					"internalType": "bytes32",
					"name": "groupType",
					"type": "bytes32"
				},
				{
					"indexed": false,
					"internalType": "bool",
					"name": "requireMembership",
					"type": "bool"
				},
				{
					"indexed": false,
					"internalType": "uint256",
					"name": "blocktime",
					"type": "uint256"
				}
			],
			"name": "NewBullaGroup",
			"type": "event"
		},
		{
			"anonymous": false,
			"inputs": [
				{
					"indexed": true,
					"internalType": "address",
					"name": "bullaManager",
					"type": "address"
				},
				{
					"indexed": false,
					"internalType": "address",
					"name": "prevOwner",
					"type": "address"
				},
				{
					"indexed": false,
					"internalType": "address",
					"name": "newOwner",
					"type": "address"
				},
				{
					"indexed": false,
					"internalType": "uint256",
					"name": "blocktime",
					"type": "uint256"
				}
			],
			"name": "OwnerChanged",
			"type": "event"
		},
		{
			"anonymous": false,
			"inputs": [
				{
					"indexed": true,
					"internalType": "address",
					"name": "bullaManager",
					"type": "address"
				},
				{
					"indexed": false,
					"internalType": "uint256",
					"name": "prevFee",
					"type": "uint256"
				},
				{
					"indexed": false,
					"internalType": "uint256",
					"name": "newFee",
					"type": "uint256"
				},
				{
					"indexed": false,
					"internalType": "uint256",
					"name": "blocktime",
					"type": "uint256"
				}
			],
			"name": "ReducedFeeChanged",
			"type": "event"
		},
		{
			"inputs": [],
			"name": "bullaToken",
			"outputs": [
				{
					"internalType": "contract IERC20",
					"name": "",
					"type": "address"
				}
			],
			"stateMutability": "view",
			"type": "function"
		},
		{
			"inputs": [
				{
					"internalType": "string",
					"name": "_description",
					"type": "string"
				},
				{
					"internalType": "bytes32",
					"name": "groupType",
					"type": "bytes32"
				},
				{
					"internalType": "bool",
					"name": "requireMembership",
					"type": "bool"
				}
			],
			"name": "createBullaGroup",
			"outputs": [],
			"stateMutability": "nonpayable",
			"type": "function"
		},
		{
			"inputs": [],
			"name": "description",
			"outputs": [
				{
					"internalType": "bytes32",
					"name": "",
					"type": "bytes32"
				}
			],
			"stateMutability": "view",
			"type": "function"
		},
		{
			"inputs": [],
			"name": "feeInfo",
			"outputs": [
				{
					"internalType": "address payable",
					"name": "collectionAddress",
					"type": "address"
				},
				{
					"internalType": "uint32",
					"name": "feeBasisPoints",
					"type": "uint32"
				},
				{
					"internalType": "uint32",
					"name": "bullaThreshold",
					"type": "uint32"
				},
				{
					"internalType": "uint32",
					"name": "reducedFeeBasisPoints",
					"type": "uint32"
				}
			],
			"stateMutability": "view",
			"type": "function"
		},
		{
			"inputs": [
				{
					"internalType": "address",
					"name": "_holder",
					"type": "address"
				}
			],
			"name": "getBullaBalance",
			"outputs": [
				{
					"internalType": "uint256",
					"name": "",
					"type": "uint256"
				}
			],
			"stateMutability": "view",
			"type": "function"
		},
		{
			"inputs": [],
			"name": "owner",
			"outputs": [
				{
					"internalType": "address",
					"name": "",
					"type": "address"
				}
			],
			"stateMutability": "view",
			"type": "function"
		},
		{
			"inputs": [
				{
					"internalType": "address payable",
					"name": "_bullaTokenAddress",
					"type": "address"
				}
			],
			"name": "setBullaTokenAddress",
			"outputs": [],
			"stateMutability": "nonpayable",
			"type": "function"
		},
		{
			"inputs": [
				{
					"internalType": "address payable",
					"name": "_collectionAddress",
					"type": "address"
				}
			],
			"name": "setCollectionAddress",
			"outputs": [],
			"stateMutability": "nonpayable",
			"type": "function"
		},
		{
			"inputs": [
				{
					"internalType": "uint32",
					"name": "_feeBasisPoints",
					"type": "uint32"
				}
			],
			"name": "setFee",
			"outputs": [],
			"stateMutability": "nonpayable",
			"type": "function"
		},
		{
			"inputs": [
				{
					"internalType": "address",
					"name": "_owner",
					"type": "address"
				}
			],
			"name": "setOwner",
			"outputs": [],
			"stateMutability": "nonpayable",
			"type": "function"
		},
		{
			"inputs": [
				{
					"internalType": "uint32",
					"name": "reducedFeeBasisPoints",
					"type": "uint32"
				}
			],
			"name": "setReducedFee",
			"outputs": [],
			"stateMutability": "nonpayable",
			"type": "function"
		},
		{
			"inputs": [
				{
					"internalType": "uint32",
					"name": "_threshold",
					"type": "uint32"
				}
			],
			"name": "setbullaThreshold",
			"outputs": [],
			"stateMutability": "nonpayable",
			"type": "function"
		}
	]
}