{
	"data": {
		"bytecode": {
			"linkReferences": {},
			"object": "60a06040523480156200001157600080fd5b50604051620016ff380380620016ff8339818101604052810190620000379190620000ce565b8173ffffffffffffffffffffffffffffffffffffffff1660808173ffffffffffffffffffffffffffffffffffffffff1660601b8152505080600160006101000a81548173ffffffffffffffffffffffffffffffffffffffff021916908373ffffffffffffffffffffffffffffffffffffffff16021790555050506200015d565b600081519050620000c88162000143565b92915050565b60008060408385031215620000e257600080fd5b6000620000f285828601620000b7565b92505060206200010585828601620000b7565b9150509250929050565b60006200011c8262000123565b9050919050565b600073ffffffffffffffffffffffffffffffffffffffff82169050919050565b6200014e816200010f565b81146200015a57600080fd5b50565b60805160601c611552620001ad60003960008181610175015281816102200152818161038d01528181610438015281816107f401528181610938015281816109e10152610b4e01526115526000f3fe608060405234801561001057600080fd5b50600436106100625760003560e01c806344b5de3f146100675780635c60da1b146100835780635e39986f146100a15780639a1309ce146100bf578063c0265a69146100f0578063cbac4cbe1461010c575b600080fd5b610081600480360381019061007c9190610ef5565b610128565b005b61008b610410565b60405161009891906110bc565b60405180910390f35b6100a9610436565b6040516100b691906110bc565b60405180910390f35b6100d960048036038101906100d49190610dc6565b61045a565b6040516100e7929190611248565b60405180910390f35b61010a60048036038101906101059190610e18565b61047e565b005b61012660048036038101906101219190610e54565b6108eb565b005b6000610155600160009054906101000a900473ffffffffffffffffffffffffffffffffffffffff16610bd0565b90508073ffffffffffffffffffffffffffffffffffffffff1663b88887b77f0000000000000000000000000000000000000000000000000000000000000000338a8a8a8e8a8a6040518963ffffffff1660e01b81526004016101be98979695949392919061114d565b600060405180830381600087803b1580156101d857600080fd5b505af11580156101ec573d6000803e3d6000fd5b505050508573ffffffffffffffffffffffffffffffffffffffff168773ffffffffffffffffffffffffffffffffffffffff167f000000000000000000000000000000000000000000000000000000000000000073ffffffffffffffffffffffffffffffffffffffff167f075eb52bb942edf07479e41db3f82f6d2dfbdb176335fdb9fc5fcd99d997b79b84338a8a8f8b4260405161029097969594939291906111d2565b60405180910390a46102a0610ca5565b8773ffffffffffffffffffffffffffffffffffffffff163373ffffffffffffffffffffffffffffffffffffffff1614156102df57848160000181815250505b8673ffffffffffffffffffffffffffffffffffffffff163373ffffffffffffffffffffffffffffffffffffffff16141561031e57848160200181815250505b806000808473ffffffffffffffffffffffffffffffffffffffff1673ffffffffffffffffffffffffffffffffffffffff16815260200190815260200160002060008201518160000155602082015181600101559050508173ffffffffffffffffffffffffffffffffffffffff167f000000000000000000000000000000000000000000000000000000000000000073ffffffffffffffffffffffffffffffffffffffff167f6983c83be0aec9d6e53954f3349b7b6fb2e8464bcdb1ad55bd2b0a17b24f42d983600001518460200151426040516103fd93929190611271565b60405180910390a3505050505050505050565b600160009054906101000a900473ffffffffffffffffffffffffffffffffffffffff1681565b7f000000000000000000000000000000000000000000000000000000000000000081565b60006020528060005260406000206000915090508060000154908060010154905082565b60008290508073ffffffffffffffffffffffffffffffffffffffff1663f89d1ec06040518163ffffffff1660e01b815260040160206040518083038186803b1580156104c957600080fd5b505afa1580156104dd573d6000803e3d6000fd5b505050506040513d601f19601f820116820180604052508101906105019190610def565b73ffffffffffffffffffffffffffffffffffffffff163373ffffffffffffffffffffffffffffffffffffffff1614806105e257508073ffffffffffffffffffffffffffffffffffffffff16637e78fdb96040518163ffffffff1660e01b815260040160206040518083038186803b15801561057b57600080fd5b505afa15801561058f573d6000803e3d6000fd5b505050506040513d601f19601f820116820180604052508101906105b39190610def565b73ffffffffffffffffffffffffffffffffffffffff163373ffffffffffffffffffffffffffffffffffffffff16145b6105eb57600080fd5b8073ffffffffffffffffffffffffffffffffffffffff1663f89d1ec06040518163ffffffff1660e01b815260040160206040518083038186803b15801561063157600080fd5b505afa158015610645573d6000803e3d6000fd5b505050506040513d601f19601f820116820180604052508101906106699190610def565b73ffffffffffffffffffffffffffffffffffffffff163373ffffffffffffffffffffffffffffffffffffffff1614156106e357816000808573ffffffffffffffffffffffffffffffffffffffff1673ffffffffffffffffffffffffffffffffffffffff168152602001908152602001600020600001819055505b8073ffffffffffffffffffffffffffffffffffffffff16637e78fdb96040518163ffffffff1660e01b815260040160206040518083038186803b15801561072957600080fd5b505afa15801561073d573d6000803e3d6000fd5b505050506040513d601f19601f820116820180604052508101906107619190610def565b73ffffffffffffffffffffffffffffffffffffffff163373ffffffffffffffffffffffffffffffffffffffff1614156107db57816000808573ffffffffffffffffffffffffffffffffffffffff1673ffffffffffffffffffffffffffffffffffffffff168152602001908152602001600020600101819055505b8073ffffffffffffffffffffffffffffffffffffffff167f000000000000000000000000000000000000000000000000000000000000000073ffffffffffffffffffffffffffffffffffffffff167f6983c83be0aec9d6e53954f3349b7b6fb2e8464bcdb1ad55bd2b0a17b24f42d96000808773ffffffffffffffffffffffffffffffffffffffff1673ffffffffffffffffffffffffffffffffffffffff168152602001908152602001600020600001546000808873ffffffffffffffffffffffffffffffffffffffff1673ffffffffffffffffffffffffffffffffffffffff16815260200190815260200160002060010154426040516108de93929190611271565b60405180910390a3505050565b6000610918600160009054906101000a900473ffffffffffffffffffffffffffffffffffffffff16610bd0565b90508073ffffffffffffffffffffffffffffffffffffffff16635a4a72a47f0000000000000000000000000000000000000000000000000000000000000000338989898d896040518863ffffffff1660e01b815260040161097f97969594939291906110d7565b600060405180830381600087803b15801561099957600080fd5b505af11580156109ad573d6000803e3d6000fd5b505050508473ffffffffffffffffffffffffffffffffffffffff168673ffffffffffffffffffffffffffffffffffffffff167f000000000000000000000000000000000000000000000000000000000000000073ffffffffffffffffffffffffffffffffffffffff167f075eb52bb942edf07479e41db3f82f6d2dfbdb176335fdb9fc5fcd99d997b79b843389898e8a42604051610a5197969594939291906111d2565b60405180910390a4610a61610ca5565b8673ffffffffffffffffffffffffffffffffffffffff163373ffffffffffffffffffffffffffffffffffffffff161415610aa057838160000181815250505b8573ffffffffffffffffffffffffffffffffffffffff163373ffffffffffffffffffffffffffffffffffffffff161415610adf57838160200181815250505b806000808473ffffffffffffffffffffffffffffffffffffffff1673ffffffffffffffffffffffffffffffffffffffff16815260200190815260200160002060008201518160000155602082015181600101559050508173ffffffffffffffffffffffffffffffffffffffff167f000000000000000000000000000000000000000000000000000000000000000073ffffffffffffffffffffffffffffffffffffffff167f6983c83be0aec9d6e53954f3349b7b6fb2e8464bcdb1ad55bd2b0a17b24f42d98360000151846020015142604051610bbe93929190611271565b60405180910390a35050505050505050565b60006040517f3d602d80600a3d3981f3363d3d373d3d3d363d7300000000000000000000000081528260601b60148201527f5af43d82803e903d91602b57fd5bf3000000000000000000000000000000000060288201526037816000f0915050600073ffffffffffffffffffffffffffffffffffffffff168173ffffffffffffffffffffffffffffffffffffffff161415610ca0576040517f08c379a0000000000000000000000000000000000000000000000000000000008152600401610c97906112a8565b60405180910390fd5b919050565b604051806040016040528060008019168152602001600080191681525090565b6000610cd8610cd3846112ed565b6112c8565b905082815260208101848484011115610cf057600080fd5b610cfb8482856113cd565b509392505050565b600081359050610d12816114a9565b92915050565b600081519050610d27816114a9565b92915050565b600081359050610d3c816114c0565b92915050565b600081359050610d51816114d7565b92915050565b600082601f830112610d6857600080fd5b8135610d78848260208601610cc5565b91505092915050565b600060608284031215610d9357600080fd5b81905092915050565b600081359050610dab816114ee565b92915050565b600081359050610dc081611505565b92915050565b600060208284031215610dd857600080fd5b6000610de684828501610d03565b91505092915050565b600060208284031215610e0157600080fd5b6000610e0f84828501610d18565b91505092915050565b60008060408385031215610e2b57600080fd5b6000610e3985828601610d03565b9250506020610e4a85828601610d42565b9150509250929050565b60008060008060008060c08789031215610e6d57600080fd5b6000610e7b89828a01610d9c565b9650506020610e8c89828a01610d2d565b9550506040610e9d89828a01610d2d565b945050606087013567ffffffffffffffff811115610eba57600080fd5b610ec689828a01610d57565b9350506080610ed789828a01610d42565b92505060a0610ee889828a01610d9c565b9150509295509295509295565b6000806000806000806000610120888a031215610f1157600080fd5b6000610f1f8a828b01610d9c565b9750506020610f308a828b01610d2d565b9650506040610f418a828b01610d2d565b955050606088013567ffffffffffffffff811115610f5e57600080fd5b610f6a8a828b01610d57565b9450506080610f7b8a828b01610d42565b93505060a0610f8c8a828b01610d9c565b92505060c0610f9d8a828b01610d81565b91505092959891949750929550565b610fb58161137a565b82525050565b610fc481611368565b82525050565b610fd38161138c565b82525050565b610fe28161138c565b82525050565b6000610ff38261131e565b610ffd8185611329565b935061100d8185602086016113dc565b6110168161146f565b840191505092915050565b600061102e601683611329565b915061103982611480565b602082019050919050565b60608201611055600083018361133a565b6110626000850182610fca565b506110706020830183611351565b61107d60208501826110ad565b5061108b6040830183611351565b61109860408501826110ad565b50505050565b6110a7816113b6565b82525050565b6110b6816113c0565b82525050565b60006020820190506110d16000830184610fbb565b92915050565b600060e0820190506110ec600083018a610fbb565b6110f96020830189610fac565b6111066040830188610fac565b6111136060830187610fac565b81810360808301526111258186610fe8565b905061113460a083018561109e565b61114160c083018461109e565b98975050505050505050565b600061014082019050611163600083018b610fbb565b611170602083018a610fac565b61117d6040830189610fac565b61118a6060830188610fac565b818103608083015261119c8187610fe8565b90506111ab60a083018661109e565b6111b860c083018561109e565b6111c560e0830184611044565b9998505050505050505050565b600060e0820190506111e7600083018a610fbb565b6111f46020830189610fbb565b81810360408301526112068188610fe8565b90506112156060830187610fd9565b611222608083018661109e565b61122f60a083018561109e565b61123c60c083018461109e565b98975050505050505050565b600060408201905061125d6000830185610fd9565b61126a6020830184610fd9565b9392505050565b60006060820190506112866000830186610fd9565b6112936020830185610fd9565b6112a0604083018461109e565b949350505050565b600060208201905081810360008301526112c181611021565b9050919050565b60006112d26112e3565b90506112de828261140f565b919050565b6000604051905090565b600067ffffffffffffffff82111561130857611307611440565b5b6113118261146f565b9050602081019050919050565b600081519050919050565b600082825260208201905092915050565b60006113496020840184610d42565b905092915050565b60006113606020840184610db1565b905092915050565b600061137382611396565b9050919050565b600061138582611396565b9050919050565b6000819050919050565b600073ffffffffffffffffffffffffffffffffffffffff82169050919050565b6000819050919050565b600060ff82169050919050565b82818337600083830152505050565b60005b838110156113fa5780820151818401526020810190506113df565b83811115611409576000848401525b50505050565b6114188261146f565b810181811067ffffffffffffffff8211171561143757611436611440565b5b80604052505050565b7f4e487b7100000000000000000000000000000000000000000000000000000000600052604160045260246000fd5b6000601f19601f8301169050919050565b7f455243313136373a20637265617465206661696c656400000000000000000000600082015250565b6114b281611368565b81146114bd57600080fd5b50565b6114c98161137a565b81146114d457600080fd5b50565b6114e08161138c565b81146114eb57600080fd5b50565b6114f7816113b6565b811461150257600080fd5b50565b61150e816113c0565b811461151957600080fd5b5056fea26469706673582212209baa2a7a7b515e1868e1ee3dae9d081f43ac1af933c52dc3e671784d588d509a64736f6c63430008040033",
			"opcodes": "PUSH1 0xA0 PUSH1 0x40 MSTORE CALLVALUE DUP1 ISZERO PUSH3 0x11 JUMPI PUSH1 0x0 DUP1 REVERT JUMPDEST POP PUSH1 0x40 MLOAD PUSH3 0x16FF CODESIZE SUB DUP1 PUSH3 0x16FF DUP4 CODECOPY DUP2 DUP2 ADD PUSH1 0x40 MSTORE DUP2 ADD SWAP1 PUSH3 0x37 SWAP2 SWAP1 PUSH3 0xCE JUMP JUMPDEST DUP2 PUSH20 0xFFFFFFFFFFFFFFFFFFFFFFFFFFFFFFFFFFFFFFFF AND PUSH1 0x80 DUP2 PUSH20 0xFFFFFFFFFFFFFFFFFFFFFFFFFFFFFFFFFFFFFFFF AND PUSH1 0x60 SHL DUP2 MSTORE POP POP DUP1 PUSH1 0x1 PUSH1 0x0 PUSH2 0x100 EXP DUP2 SLOAD DUP2 PUSH20 0xFFFFFFFFFFFFFFFFFFFFFFFFFFFFFFFFFFFFFFFF MUL NOT AND SWAP1 DUP4 PUSH20 0xFFFFFFFFFFFFFFFFFFFFFFFFFFFFFFFFFFFFFFFF AND MUL OR SWAP1 SSTORE POP POP POP PUSH3 0x15D JUMP JUMPDEST PUSH1 0x0 DUP2 MLOAD SWAP1 POP PUSH3 0xC8 DUP2 PUSH3 0x143 JUMP JUMPDEST SWAP3 SWAP2 POP POP JUMP JUMPDEST PUSH1 0x0 DUP1 PUSH1 0x40 DUP4 DUP6 SUB SLT ISZERO PUSH3 0xE2 JUMPI PUSH1 0x0 DUP1 REVERT JUMPDEST PUSH1 0x0 PUSH3 0xF2 DUP6 DUP3 DUP7 ADD PUSH3 0xB7 JUMP JUMPDEST SWAP3 POP POP PUSH1 0x20 PUSH3 0x105 DUP6 DUP3 DUP7 ADD PUSH3 0xB7 JUMP JUMPDEST SWAP2 POP POP SWAP3 POP SWAP3 SWAP1 POP JUMP JUMPDEST PUSH1 0x0 PUSH3 0x11C DUP3 PUSH3 0x123 JUMP JUMPDEST SWAP1 POP SWAP2 SWAP1 POP JUMP JUMPDEST PUSH1 0x0 PUSH20 0xFFFFFFFFFFFFFFFFFFFFFFFFFFFFFFFFFFFFFFFF DUP3 AND SWAP1 POP SWAP2 SWAP1 POP JUMP JUMPDEST PUSH3 0x14E DUP2 PUSH3 0x10F JUMP JUMPDEST DUP2 EQ PUSH3 0x15A JUMPI PUSH1 0x0 DUP1 REVERT JUMPDEST POP JUMP JUMPDEST PUSH1 0x80 MLOAD PUSH1 0x60 SHR PUSH2 0x1552 PUSH3 0x1AD PUSH1 0x0 CODECOPY PUSH1 0x0 DUP2 DUP2 PUSH2 0x175 ADD MSTORE DUP2 DUP2 PUSH2 0x220 ADD MSTORE DUP2 DUP2 PUSH2 0x38D ADD MSTORE DUP2 DUP2 PUSH2 0x438 ADD MSTORE DUP2 DUP2 PUSH2 0x7F4 ADD MSTORE DUP2 DUP2 PUSH2 0x938 ADD MSTORE DUP2 DUP2 PUSH2 0x9E1 ADD MSTORE PUSH2 0xB4E ADD MSTORE PUSH2 0x1552 PUSH1 0x0 RETURN INVALID PUSH1 0x80 PUSH1 0x40 MSTORE CALLVALUE DUP1 ISZERO PUSH2 0x10 JUMPI PUSH1 0x0 DUP1 REVERT JUMPDEST POP PUSH1 0x4 CALLDATASIZE LT PUSH2 0x62 JUMPI PUSH1 0x0 CALLDATALOAD PUSH1 0xE0 SHR DUP1 PUSH4 0x44B5DE3F EQ PUSH2 0x67 JUMPI DUP1 PUSH4 0x5C60DA1B EQ PUSH2 0x83 JUMPI DUP1 PUSH4 0x5E39986F EQ PUSH2 0xA1 JUMPI DUP1 PUSH4 0x9A1309CE EQ PUSH2 0xBF JUMPI DUP1 PUSH4 0xC0265A69 EQ PUSH2 0xF0 JUMPI DUP1 PUSH4 0xCBAC4CBE EQ PUSH2 0x10C JUMPI JUMPDEST PUSH1 0x0 DUP1 REVERT JUMPDEST PUSH2 0x81 PUSH1 0x4 DUP1 CALLDATASIZE SUB DUP2 ADD SWAP1 PUSH2 0x7C SWAP2 SWAP1 PUSH2 0xEF5 JUMP JUMPDEST PUSH2 0x128 JUMP JUMPDEST STOP JUMPDEST PUSH2 0x8B PUSH2 0x410 JUMP JUMPDEST PUSH1 0x40 MLOAD PUSH2 0x98 SWAP2 SWAP1 PUSH2 0x10BC JUMP JUMPDEST PUSH1 0x40 MLOAD DUP1 SWAP2 SUB SWAP1 RETURN JUMPDEST PUSH2 0xA9 PUSH2 0x436 JUMP JUMPDEST PUSH1 0x40 MLOAD PUSH2 0xB6 SWAP2 SWAP1 PUSH2 0x10BC JUMP JUMPDEST PUSH1 0x40 MLOAD DUP1 SWAP2 SUB SWAP1 RETURN JUMPDEST PUSH2 0xD9 PUSH1 0x4 DUP1 CALLDATASIZE SUB DUP2 ADD SWAP1 PUSH2 0xD4 SWAP2 SWAP1 PUSH2 0xDC6 JUMP JUMPDEST PUSH2 0x45A JUMP JUMPDEST PUSH1 0x40 MLOAD PUSH2 0xE7 SWAP3 SWAP2 SWAP1 PUSH2 0x1248 JUMP JUMPDEST PUSH1 0x40 MLOAD DUP1 SWAP2 SUB SWAP1 RETURN JUMPDEST PUSH2 0x10A PUSH1 0x4 DUP1 CALLDATASIZE SUB DUP2 ADD SWAP1 PUSH2 0x105 SWAP2 SWAP1 PUSH2 0xE18 JUMP JUMPDEST PUSH2 0x47E JUMP JUMPDEST STOP JUMPDEST PUSH2 0x126 PUSH1 0x4 DUP1 CALLDATASIZE SUB DUP2 ADD SWAP1 PUSH2 0x121 SWAP2 SWAP1 PUSH2 0xE54 JUMP JUMPDEST PUSH2 0x8EB JUMP JUMPDEST STOP JUMPDEST PUSH1 0x0 PUSH2 0x155 PUSH1 0x1 PUSH1 0x0 SWAP1 SLOAD SWAP1 PUSH2 0x100 EXP SWAP1 DIV PUSH20 0xFFFFFFFFFFFFFFFFFFFFFFFFFFFFFFFFFFFFFFFF AND PUSH2 0xBD0 JUMP JUMPDEST SWAP1 POP DUP1 PUSH20 0xFFFFFFFFFFFFFFFFFFFFFFFFFFFFFFFFFFFFFFFF AND PUSH4 0xB88887B7 PUSH32 0x0 CALLER DUP11 DUP11 DUP11 DUP15 DUP11 DUP11 PUSH1 0x40 MLOAD DUP10 PUSH4 0xFFFFFFFF AND PUSH1 0xE0 SHL DUP2 MSTORE PUSH1 0x4 ADD PUSH2 0x1BE SWAP9 SWAP8 SWAP7 SWAP6 SWAP5 SWAP4 SWAP3 SWAP2 SWAP1 PUSH2 0x114D JUMP JUMPDEST PUSH1 0x0 PUSH1 0x40 MLOAD DUP1 DUP4 SUB DUP2 PUSH1 0x0 DUP8 DUP1 EXTCODESIZE ISZERO DUP1 ISZERO PUSH2 0x1D8 JUMPI PUSH1 0x0 DUP1 REVERT JUMPDEST POP GAS CALL ISZERO DUP1 ISZERO PUSH2 0x1EC JUMPI RETURNDATASIZE PUSH1 0x0 DUP1 RETURNDATACOPY RETURNDATASIZE PUSH1 0x0 REVERT JUMPDEST POP POP POP POP DUP6 PUSH20 0xFFFFFFFFFFFFFFFFFFFFFFFFFFFFFFFFFFFFFFFF AND DUP8 PUSH20 0xFFFFFFFFFFFFFFFFFFFFFFFFFFFFFFFFFFFFFFFF AND PUSH32 0x0 PUSH20 0xFFFFFFFFFFFFFFFFFFFFFFFFFFFFFFFFFFFFFFFF AND PUSH32 0x75EB52BB942EDF07479E41DB3F82F6D2DFBDB176335FDB9FC5FCD99D997B79B DUP5 CALLER DUP11 DUP11 DUP16 DUP12 TIMESTAMP PUSH1 0x40 MLOAD PUSH2 0x290 SWAP8 SWAP7 SWAP6 SWAP5 SWAP4 SWAP3 SWAP2 SWAP1 PUSH2 0x11D2 JUMP JUMPDEST PUSH1 0x40 MLOAD DUP1 SWAP2 SUB SWAP1 LOG4 PUSH2 0x2A0 PUSH2 0xCA5 JUMP JUMPDEST DUP8 PUSH20 0xFFFFFFFFFFFFFFFFFFFFFFFFFFFFFFFFFFFFFFFF AND CALLER PUSH20 0xFFFFFFFFFFFFFFFFFFFFFFFFFFFFFFFFFFFFFFFF AND EQ ISZERO PUSH2 0x2DF JUMPI DUP5 DUP2 PUSH1 0x0 ADD DUP2 DUP2 MSTORE POP POP JUMPDEST DUP7 PUSH20 0xFFFFFFFFFFFFFFFFFFFFFFFFFFFFFFFFFFFFFFFF AND CALLER PUSH20 0xFFFFFFFFFFFFFFFFFFFFFFFFFFFFFFFFFFFFFFFF AND EQ ISZERO PUSH2 0x31E JUMPI DUP5 DUP2 PUSH1 0x20 ADD DUP2 DUP2 MSTORE POP POP JUMPDEST DUP1 PUSH1 0x0 DUP1 DUP5 PUSH20 0xFFFFFFFFFFFFFFFFFFFFFFFFFFFFFFFFFFFFFFFF AND PUSH20 0xFFFFFFFFFFFFFFFFFFFFFFFFFFFFFFFFFFFFFFFF AND DUP2 MSTORE PUSH1 0x20 ADD SWAP1 DUP2 MSTORE PUSH1 0x20 ADD PUSH1 0x0 KECCAK256 PUSH1 0x0 DUP3 ADD MLOAD DUP2 PUSH1 0x0 ADD SSTORE PUSH1 0x20 DUP3 ADD MLOAD DUP2 PUSH1 0x1 ADD SSTORE SWAP1 POP POP DUP2 PUSH20 0xFFFFFFFFFFFFFFFFFFFFFFFFFFFFFFFFFFFFFFFF AND PUSH32 0x0 PUSH20 0xFFFFFFFFFFFFFFFFFFFFFFFFFFFFFFFFFFFFFFFF AND PUSH32 0x6983C83BE0AEC9D6E53954F3349B7B6FB2E8464BCDB1AD55BD2B0A17B24F42D9 DUP4 PUSH1 0x0 ADD MLOAD DUP5 PUSH1 0x20 ADD MLOAD TIMESTAMP PUSH1 0x40 MLOAD PUSH2 0x3FD SWAP4 SWAP3 SWAP2 SWAP1 PUSH2 0x1271 JUMP JUMPDEST PUSH1 0x40 MLOAD DUP1 SWAP2 SUB SWAP1 LOG3 POP POP POP POP POP POP POP POP POP JUMP JUMPDEST PUSH1 0x1 PUSH1 0x0 SWAP1 SLOAD SWAP1 PUSH2 0x100 EXP SWAP1 DIV PUSH20 0xFFFFFFFFFFFFFFFFFFFFFFFFFFFFFFFFFFFFFFFF AND DUP2 JUMP JUMPDEST PUSH32 0x0 DUP2 JUMP JUMPDEST PUSH1 0x0 PUSH1 0x20 MSTORE DUP1 PUSH1 0x0 MSTORE PUSH1 0x40 PUSH1 0x0 KECCAK256 PUSH1 0x0 SWAP2 POP SWAP1 POP DUP1 PUSH1 0x0 ADD SLOAD SWAP1 DUP1 PUSH1 0x1 ADD SLOAD SWAP1 POP DUP3 JUMP JUMPDEST PUSH1 0x0 DUP3 SWAP1 POP DUP1 PUSH20 0xFFFFFFFFFFFFFFFFFFFFFFFFFFFFFFFFFFFFFFFF AND PUSH4 0xF89D1EC0 PUSH1 0x40 MLOAD DUP2 PUSH4 0xFFFFFFFF AND PUSH1 0xE0 SHL DUP2 MSTORE PUSH1 0x4 ADD PUSH1 0x20 PUSH1 0x40 MLOAD DUP1 DUP4 SUB DUP2 DUP7 DUP1 EXTCODESIZE ISZERO DUP1 ISZERO PUSH2 0x4C9 JUMPI PUSH1 0x0 DUP1 REVERT JUMPDEST POP GAS STATICCALL ISZERO DUP1 ISZERO PUSH2 0x4DD JUMPI RETURNDATASIZE PUSH1 0x0 DUP1 RETURNDATACOPY RETURNDATASIZE PUSH1 0x0 REVERT JUMPDEST POP POP POP POP PUSH1 0x40 MLOAD RETURNDATASIZE PUSH1 0x1F NOT PUSH1 0x1F DUP3 ADD AND DUP3 ADD DUP1 PUSH1 0x40 MSTORE POP DUP2 ADD SWAP1 PUSH2 0x501 SWAP2 SWAP1 PUSH2 0xDEF JUMP JUMPDEST PUSH20 0xFFFFFFFFFFFFFFFFFFFFFFFFFFFFFFFFFFFFFFFF AND CALLER PUSH20 0xFFFFFFFFFFFFFFFFFFFFFFFFFFFFFFFFFFFFFFFF AND EQ DUP1 PUSH2 0x5E2 JUMPI POP DUP1 PUSH20 0xFFFFFFFFFFFFFFFFFFFFFFFFFFFFFFFFFFFFFFFF AND PUSH4 0x7E78FDB9 PUSH1 0x40 MLOAD DUP2 PUSH4 0xFFFFFFFF AND PUSH1 0xE0 SHL DUP2 MSTORE PUSH1 0x4 ADD PUSH1 0x20 PUSH1 0x40 MLOAD DUP1 DUP4 SUB DUP2 DUP7 DUP1 EXTCODESIZE ISZERO DUP1 ISZERO PUSH2 0x57B JUMPI PUSH1 0x0 DUP1 REVERT JUMPDEST POP GAS STATICCALL ISZERO DUP1 ISZERO PUSH2 0x58F JUMPI RETURNDATASIZE PUSH1 0x0 DUP1 RETURNDATACOPY RETURNDATASIZE PUSH1 0x0 REVERT JUMPDEST POP POP POP POP PUSH1 0x40 MLOAD RETURNDATASIZE PUSH1 0x1F NOT PUSH1 0x1F DUP3 ADD AND DUP3 ADD DUP1 PUSH1 0x40 MSTORE POP DUP2 ADD SWAP1 PUSH2 0x5B3 SWAP2 SWAP1 PUSH2 0xDEF JUMP JUMPDEST PUSH20 0xFFFFFFFFFFFFFFFFFFFFFFFFFFFFFFFFFFFFFFFF AND CALLER PUSH20 0xFFFFFFFFFFFFFFFFFFFFFFFFFFFFFFFFFFFFFFFF AND EQ JUMPDEST PUSH2 0x5EB JUMPI PUSH1 0x0 DUP1 REVERT JUMPDEST DUP1 PUSH20 0xFFFFFFFFFFFFFFFFFFFFFFFFFFFFFFFFFFFFFFFF AND PUSH4 0xF89D1EC0 PUSH1 0x40 MLOAD DUP2 PUSH4 0xFFFFFFFF AND PUSH1 0xE0 SHL DUP2 MSTORE PUSH1 0x4 ADD PUSH1 0x20 PUSH1 0x40 MLOAD DUP1 DUP4 SUB DUP2 DUP7 DUP1 EXTCODESIZE ISZERO DUP1 ISZERO PUSH2 0x631 JUMPI PUSH1 0x0 DUP1 REVERT JUMPDEST POP GAS STATICCALL ISZERO DUP1 ISZERO PUSH2 0x645 JUMPI RETURNDATASIZE PUSH1 0x0 DUP1 RETURNDATACOPY RETURNDATASIZE PUSH1 0x0 REVERT JUMPDEST POP POP POP POP PUSH1 0x40 MLOAD RETURNDATASIZE PUSH1 0x1F NOT PUSH1 0x1F DUP3 ADD AND DUP3 ADD DUP1 PUSH1 0x40 MSTORE POP DUP2 ADD SWAP1 PUSH2 0x669 SWAP2 SWAP1 PUSH2 0xDEF JUMP JUMPDEST PUSH20 0xFFFFFFFFFFFFFFFFFFFFFFFFFFFFFFFFFFFFFFFF AND CALLER PUSH20 0xFFFFFFFFFFFFFFFFFFFFFFFFFFFFFFFFFFFFFFFF AND EQ ISZERO PUSH2 0x6E3 JUMPI DUP2 PUSH1 0x0 DUP1 DUP6 PUSH20 0xFFFFFFFFFFFFFFFFFFFFFFFFFFFFFFFFFFFFFFFF AND PUSH20 0xFFFFFFFFFFFFFFFFFFFFFFFFFFFFFFFFFFFFFFFF AND DUP2 MSTORE PUSH1 0x20 ADD SWAP1 DUP2 MSTORE PUSH1 0x20 ADD PUSH1 0x0 KECCAK256 PUSH1 0x0 ADD DUP2 SWAP1 SSTORE POP JUMPDEST DUP1 PUSH20 0xFFFFFFFFFFFFFFFFFFFFFFFFFFFFFFFFFFFFFFFF AND PUSH4 0x7E78FDB9 PUSH1 0x40 MLOAD DUP2 PUSH4 0xFFFFFFFF AND PUSH1 0xE0 SHL DUP2 MSTORE PUSH1 0x4 ADD PUSH1 0x20 PUSH1 0x40 MLOAD DUP1 DUP4 SUB DUP2 DUP7 DUP1 EXTCODESIZE ISZERO DUP1 ISZERO PUSH2 0x729 JUMPI PUSH1 0x0 DUP1 REVERT JUMPDEST POP GAS STATICCALL ISZERO DUP1 ISZERO PUSH2 0x73D JUMPI RETURNDATASIZE PUSH1 0x0 DUP1 RETURNDATACOPY RETURNDATASIZE PUSH1 0x0 REVERT JUMPDEST POP POP POP POP PUSH1 0x40 MLOAD RETURNDATASIZE PUSH1 0x1F NOT PUSH1 0x1F DUP3 ADD AND DUP3 ADD DUP1 PUSH1 0x40 MSTORE POP DUP2 ADD SWAP1 PUSH2 0x761 SWAP2 SWAP1 PUSH2 0xDEF JUMP JUMPDEST PUSH20 0xFFFFFFFFFFFFFFFFFFFFFFFFFFFFFFFFFFFFFFFF AND CALLER PUSH20 0xFFFFFFFFFFFFFFFFFFFFFFFFFFFFFFFFFFFFFFFF AND EQ ISZERO PUSH2 0x7DB JUMPI DUP2 PUSH1 0x0 DUP1 DUP6 PUSH20 0xFFFFFFFFFFFFFFFFFFFFFFFFFFFFFFFFFFFFFFFF AND PUSH20 0xFFFFFFFFFFFFFFFFFFFFFFFFFFFFFFFFFFFFFFFF AND DUP2 MSTORE PUSH1 0x20 ADD SWAP1 DUP2 MSTORE PUSH1 0x20 ADD PUSH1 0x0 KECCAK256 PUSH1 0x1 ADD DUP2 SWAP1 SSTORE POP JUMPDEST DUP1 PUSH20 0xFFFFFFFFFFFFFFFFFFFFFFFFFFFFFFFFFFFFFFFF AND PUSH32 0x0 PUSH20 0xFFFFFFFFFFFFFFFFFFFFFFFFFFFFFFFFFFFFFFFF AND PUSH32 0x6983C83BE0AEC9D6E53954F3349B7B6FB2E8464BCDB1AD55BD2B0A17B24F42D9 PUSH1 0x0 DUP1 DUP8 PUSH20 0xFFFFFFFFFFFFFFFFFFFFFFFFFFFFFFFFFFFFFFFF AND PUSH20 0xFFFFFFFFFFFFFFFFFFFFFFFFFFFFFFFFFFFFFFFF AND DUP2 MSTORE PUSH1 0x20 ADD SWAP1 DUP2 MSTORE PUSH1 0x20 ADD PUSH1 0x0 KECCAK256 PUSH1 0x0 ADD SLOAD PUSH1 0x0 DUP1 DUP9 PUSH20 0xFFFFFFFFFFFFFFFFFFFFFFFFFFFFFFFFFFFFFFFF AND PUSH20 0xFFFFFFFFFFFFFFFFFFFFFFFFFFFFFFFFFFFFFFFF AND DUP2 MSTORE PUSH1 0x20 ADD SWAP1 DUP2 MSTORE PUSH1 0x20 ADD PUSH1 0x0 KECCAK256 PUSH1 0x1 ADD SLOAD TIMESTAMP PUSH1 0x40 MLOAD PUSH2 0x8DE SWAP4 SWAP3 SWAP2 SWAP1 PUSH2 0x1271 JUMP JUMPDEST PUSH1 0x40 MLOAD DUP1 SWAP2 SUB SWAP1 LOG3 POP POP POP JUMP JUMPDEST PUSH1 0x0 PUSH2 0x918 PUSH1 0x1 PUSH1 0x0 SWAP1 SLOAD SWAP1 PUSH2 0x100 EXP SWAP1 DIV PUSH20 0xFFFFFFFFFFFFFFFFFFFFFFFFFFFFFFFFFFFFFFFF AND PUSH2 0xBD0 JUMP JUMPDEST SWAP1 POP DUP1 PUSH20 0xFFFFFFFFFFFFFFFFFFFFFFFFFFFFFFFFFFFFFFFF AND PUSH4 0x5A4A72A4 PUSH32 0x0 CALLER DUP10 DUP10 DUP10 DUP14 DUP10 PUSH1 0x40 MLOAD DUP9 PUSH4 0xFFFFFFFF AND PUSH1 0xE0 SHL DUP2 MSTORE PUSH1 0x4 ADD PUSH2 0x97F SWAP8 SWAP7 SWAP6 SWAP5 SWAP4 SWAP3 SWAP2 SWAP1 PUSH2 0x10D7 JUMP JUMPDEST PUSH1 0x0 PUSH1 0x40 MLOAD DUP1 DUP4 SUB DUP2 PUSH1 0x0 DUP8 DUP1 EXTCODESIZE ISZERO DUP1 ISZERO PUSH2 0x999 JUMPI PUSH1 0x0 DUP1 REVERT JUMPDEST POP GAS CALL ISZERO DUP1 ISZERO PUSH2 0x9AD JUMPI RETURNDATASIZE PUSH1 0x0 DUP1 RETURNDATACOPY RETURNDATASIZE PUSH1 0x0 REVERT JUMPDEST POP POP POP POP DUP5 PUSH20 0xFFFFFFFFFFFFFFFFFFFFFFFFFFFFFFFFFFFFFFFF AND DUP7 PUSH20 0xFFFFFFFFFFFFFFFFFFFFFFFFFFFFFFFFFFFFFFFF AND PUSH32 0x0 PUSH20 0xFFFFFFFFFFFFFFFFFFFFFFFFFFFFFFFFFFFFFFFF AND PUSH32 0x75EB52BB942EDF07479E41DB3F82F6D2DFBDB176335FDB9FC5FCD99D997B79B DUP5 CALLER DUP10 DUP10 DUP15 DUP11 TIMESTAMP PUSH1 0x40 MLOAD PUSH2 0xA51 SWAP8 SWAP7 SWAP6 SWAP5 SWAP4 SWAP3 SWAP2 SWAP1 PUSH2 0x11D2 JUMP JUMPDEST PUSH1 0x40 MLOAD DUP1 SWAP2 SUB SWAP1 LOG4 PUSH2 0xA61 PUSH2 0xCA5 JUMP JUMPDEST DUP7 PUSH20 0xFFFFFFFFFFFFFFFFFFFFFFFFFFFFFFFFFFFFFFFF AND CALLER PUSH20 0xFFFFFFFFFFFFFFFFFFFFFFFFFFFFFFFFFFFFFFFF AND EQ ISZERO PUSH2 0xAA0 JUMPI DUP4 DUP2 PUSH1 0x0 ADD DUP2 DUP2 MSTORE POP POP JUMPDEST DUP6 PUSH20 0xFFFFFFFFFFFFFFFFFFFFFFFFFFFFFFFFFFFFFFFF AND CALLER PUSH20 0xFFFFFFFFFFFFFFFFFFFFFFFFFFFFFFFFFFFFFFFF AND EQ ISZERO PUSH2 0xADF JUMPI DUP4 DUP2 PUSH1 0x20 ADD DUP2 DUP2 MSTORE POP POP JUMPDEST DUP1 PUSH1 0x0 DUP1 DUP5 PUSH20 0xFFFFFFFFFFFFFFFFFFFFFFFFFFFFFFFFFFFFFFFF AND PUSH20 0xFFFFFFFFFFFFFFFFFFFFFFFFFFFFFFFFFFFFFFFF AND DUP2 MSTORE PUSH1 0x20 ADD SWAP1 DUP2 MSTORE PUSH1 0x20 ADD PUSH1 0x0 KECCAK256 PUSH1 0x0 DUP3 ADD MLOAD DUP2 PUSH1 0x0 ADD SSTORE PUSH1 0x20 DUP3 ADD MLOAD DUP2 PUSH1 0x1 ADD SSTORE SWAP1 POP POP DUP2 PUSH20 0xFFFFFFFFFFFFFFFFFFFFFFFFFFFFFFFFFFFFFFFF AND PUSH32 0x0 PUSH20 0xFFFFFFFFFFFFFFFFFFFFFFFFFFFFFFFFFFFFFFFF AND PUSH32 0x6983C83BE0AEC9D6E53954F3349B7B6FB2E8464BCDB1AD55BD2B0A17B24F42D9 DUP4 PUSH1 0x0 ADD MLOAD DUP5 PUSH1 0x20 ADD MLOAD TIMESTAMP PUSH1 0x40 MLOAD PUSH2 0xBBE SWAP4 SWAP3 SWAP2 SWAP1 PUSH2 0x1271 JUMP JUMPDEST PUSH1 0x40 MLOAD DUP1 SWAP2 SUB SWAP1 LOG3 POP POP POP POP POP POP POP POP JUMP JUMPDEST PUSH1 0x0 PUSH1 0x40 MLOAD PUSH32 0x3D602D80600A3D3981F3363D3D373D3D3D363D73000000000000000000000000 DUP2 MSTORE DUP3 PUSH1 0x60 SHL PUSH1 0x14 DUP3 ADD MSTORE PUSH32 0x5AF43D82803E903D91602B57FD5BF30000000000000000000000000000000000 PUSH1 0x28 DUP3 ADD MSTORE PUSH1 0x37 DUP2 PUSH1 0x0 CREATE SWAP2 POP POP PUSH1 0x0 PUSH20 0xFFFFFFFFFFFFFFFFFFFFFFFFFFFFFFFFFFFFFFFF AND DUP2 PUSH20 0xFFFFFFFFFFFFFFFFFFFFFFFFFFFFFFFFFFFFFFFF AND EQ ISZERO PUSH2 0xCA0 JUMPI PUSH1 0x40 MLOAD PUSH32 0x8C379A000000000000000000000000000000000000000000000000000000000 DUP2 MSTORE PUSH1 0x4 ADD PUSH2 0xC97 SWAP1 PUSH2 0x12A8 JUMP JUMPDEST PUSH1 0x40 MLOAD DUP1 SWAP2 SUB SWAP1 REVERT JUMPDEST SWAP2 SWAP1 POP JUMP JUMPDEST PUSH1 0x40 MLOAD DUP1 PUSH1 0x40 ADD PUSH1 0x40 MSTORE DUP1 PUSH1 0x0 DUP1 NOT AND DUP2 MSTORE PUSH1 0x20 ADD PUSH1 0x0 DUP1 NOT AND DUP2 MSTORE POP SWAP1 JUMP JUMPDEST PUSH1 0x0 PUSH2 0xCD8 PUSH2 0xCD3 DUP5 PUSH2 0x12ED JUMP JUMPDEST PUSH2 0x12C8 JUMP JUMPDEST SWAP1 POP DUP3 DUP2 MSTORE PUSH1 0x20 DUP2 ADD DUP5 DUP5 DUP5 ADD GT ISZERO PUSH2 0xCF0 JUMPI PUSH1 0x0 DUP1 REVERT JUMPDEST PUSH2 0xCFB DUP5 DUP3 DUP6 PUSH2 0x13CD JUMP JUMPDEST POP SWAP4 SWAP3 POP POP POP JUMP JUMPDEST PUSH1 0x0 DUP2 CALLDATALOAD SWAP1 POP PUSH2 0xD12 DUP2 PUSH2 0x14A9 JUMP JUMPDEST SWAP3 SWAP2 POP POP JUMP JUMPDEST PUSH1 0x0 DUP2 MLOAD SWAP1 POP PUSH2 0xD27 DUP2 PUSH2 0x14A9 JUMP JUMPDEST SWAP3 SWAP2 POP POP JUMP JUMPDEST PUSH1 0x0 DUP2 CALLDATALOAD SWAP1 POP PUSH2 0xD3C DUP2 PUSH2 0x14C0 JUMP JUMPDEST SWAP3 SWAP2 POP POP JUMP JUMPDEST PUSH1 0x0 DUP2 CALLDATALOAD SWAP1 POP PUSH2 0xD51 DUP2 PUSH2 0x14D7 JUMP JUMPDEST SWAP3 SWAP2 POP POP JUMP JUMPDEST PUSH1 0x0 DUP3 PUSH1 0x1F DUP4 ADD SLT PUSH2 0xD68 JUMPI PUSH1 0x0 DUP1 REVERT JUMPDEST DUP2 CALLDATALOAD PUSH2 0xD78 DUP5 DUP3 PUSH1 0x20 DUP7 ADD PUSH2 0xCC5 JUMP JUMPDEST SWAP2 POP POP SWAP3 SWAP2 POP POP JUMP JUMPDEST PUSH1 0x0 PUSH1 0x60 DUP3 DUP5 SUB SLT ISZERO PUSH2 0xD93 JUMPI PUSH1 0x0 DUP1 REVERT JUMPDEST DUP2 SWAP1 POP SWAP3 SWAP2 POP POP JUMP JUMPDEST PUSH1 0x0 DUP2 CALLDATALOAD SWAP1 POP PUSH2 0xDAB DUP2 PUSH2 0x14EE JUMP JUMPDEST SWAP3 SWAP2 POP POP JUMP JUMPDEST PUSH1 0x0 DUP2 CALLDATALOAD SWAP1 POP PUSH2 0xDC0 DUP2 PUSH2 0x1505 JUMP JUMPDEST SWAP3 SWAP2 POP POP JUMP JUMPDEST PUSH1 0x0 PUSH1 0x20 DUP3 DUP5 SUB SLT ISZERO PUSH2 0xDD8 JUMPI PUSH1 0x0 DUP1 REVERT JUMPDEST PUSH1 0x0 PUSH2 0xDE6 DUP5 DUP3 DUP6 ADD PUSH2 0xD03 JUMP JUMPDEST SWAP2 POP POP SWAP3 SWAP2 POP POP JUMP JUMPDEST PUSH1 0x0 PUSH1 0x20 DUP3 DUP5 SUB SLT ISZERO PUSH2 0xE01 JUMPI PUSH1 0x0 DUP1 REVERT JUMPDEST PUSH1 0x0 PUSH2 0xE0F DUP5 DUP3 DUP6 ADD PUSH2 0xD18 JUMP JUMPDEST SWAP2 POP POP SWAP3 SWAP2 POP POP JUMP JUMPDEST PUSH1 0x0 DUP1 PUSH1 0x40 DUP4 DUP6 SUB SLT ISZERO PUSH2 0xE2B JUMPI PUSH1 0x0 DUP1 REVERT JUMPDEST PUSH1 0x0 PUSH2 0xE39 DUP6 DUP3 DUP7 ADD PUSH2 0xD03 JUMP JUMPDEST SWAP3 POP POP PUSH1 0x20 PUSH2 0xE4A DUP6 DUP3 DUP7 ADD PUSH2 0xD42 JUMP JUMPDEST SWAP2 POP POP SWAP3 POP SWAP3 SWAP1 POP JUMP JUMPDEST PUSH1 0x0 DUP1 PUSH1 0x0 DUP1 PUSH1 0x0 DUP1 PUSH1 0xC0 DUP8 DUP10 SUB SLT ISZERO PUSH2 0xE6D JUMPI PUSH1 0x0 DUP1 REVERT JUMPDEST PUSH1 0x0 PUSH2 0xE7B DUP10 DUP3 DUP11 ADD PUSH2 0xD9C JUMP JUMPDEST SWAP7 POP POP PUSH1 0x20 PUSH2 0xE8C DUP10 DUP3 DUP11 ADD PUSH2 0xD2D JUMP JUMPDEST SWAP6 POP POP PUSH1 0x40 PUSH2 0xE9D DUP10 DUP3 DUP11 ADD PUSH2 0xD2D JUMP JUMPDEST SWAP5 POP POP PUSH1 0x60 DUP8 ADD CALLDATALOAD PUSH8 0xFFFFFFFFFFFFFFFF DUP2 GT ISZERO PUSH2 0xEBA JUMPI PUSH1 0x0 DUP1 REVERT JUMPDEST PUSH2 0xEC6 DUP10 DUP3 DUP11 ADD PUSH2 0xD57 JUMP JUMPDEST SWAP4 POP POP PUSH1 0x80 PUSH2 0xED7 DUP10 DUP3 DUP11 ADD PUSH2 0xD42 JUMP JUMPDEST SWAP3 POP POP PUSH1 0xA0 PUSH2 0xEE8 DUP10 DUP3 DUP11 ADD PUSH2 0xD9C JUMP JUMPDEST SWAP2 POP POP SWAP3 SWAP6 POP SWAP3 SWAP6 POP SWAP3 SWAP6 JUMP JUMPDEST PUSH1 0x0 DUP1 PUSH1 0x0 DUP1 PUSH1 0x0 DUP1 PUSH1 0x0 PUSH2 0x120 DUP9 DUP11 SUB SLT ISZERO PUSH2 0xF11 JUMPI PUSH1 0x0 DUP1 REVERT JUMPDEST PUSH1 0x0 PUSH2 0xF1F DUP11 DUP3 DUP12 ADD PUSH2 0xD9C JUMP JUMPDEST SWAP8 POP POP PUSH1 0x20 PUSH2 0xF30 DUP11 DUP3 DUP12 ADD PUSH2 0xD2D JUMP JUMPDEST SWAP7 POP POP PUSH1 0x40 PUSH2 0xF41 DUP11 DUP3 DUP12 ADD PUSH2 0xD2D JUMP JUMPDEST SWAP6 POP POP PUSH1 0x60 DUP9 ADD CALLDATALOAD PUSH8 0xFFFFFFFFFFFFFFFF DUP2 GT ISZERO PUSH2 0xF5E JUMPI PUSH1 0x0 DUP1 REVERT JUMPDEST PUSH2 0xF6A DUP11 DUP3 DUP12 ADD PUSH2 0xD57 JUMP JUMPDEST SWAP5 POP POP PUSH1 0x80 PUSH2 0xF7B DUP11 DUP3 DUP12 ADD PUSH2 0xD42 JUMP JUMPDEST SWAP4 POP POP PUSH1 0xA0 PUSH2 0xF8C DUP11 DUP3 DUP12 ADD PUSH2 0xD9C JUMP JUMPDEST SWAP3 POP POP PUSH1 0xC0 PUSH2 0xF9D DUP11 DUP3 DUP12 ADD PUSH2 0xD81 JUMP JUMPDEST SWAP2 POP POP SWAP3 SWAP6 SWAP9 SWAP2 SWAP5 SWAP8 POP SWAP3 SWAP6 POP JUMP JUMPDEST PUSH2 0xFB5 DUP2 PUSH2 0x137A JUMP JUMPDEST DUP3 MSTORE POP POP JUMP JUMPDEST PUSH2 0xFC4 DUP2 PUSH2 0x1368 JUMP JUMPDEST DUP3 MSTORE POP POP JUMP JUMPDEST PUSH2 0xFD3 DUP2 PUSH2 0x138C JUMP JUMPDEST DUP3 MSTORE POP POP JUMP JUMPDEST PUSH2 0xFE2 DUP2 PUSH2 0x138C JUMP JUMPDEST DUP3 MSTORE POP POP JUMP JUMPDEST PUSH1 0x0 PUSH2 0xFF3 DUP3 PUSH2 0x131E JUMP JUMPDEST PUSH2 0xFFD DUP2 DUP6 PUSH2 0x1329 JUMP JUMPDEST SWAP4 POP PUSH2 0x100D DUP2 DUP6 PUSH1 0x20 DUP7 ADD PUSH2 0x13DC JUMP JUMPDEST PUSH2 0x1016 DUP2 PUSH2 0x146F JUMP JUMPDEST DUP5 ADD SWAP2 POP POP SWAP3 SWAP2 POP POP JUMP JUMPDEST PUSH1 0x0 PUSH2 0x102E PUSH1 0x16 DUP4 PUSH2 0x1329 JUMP JUMPDEST SWAP2 POP PUSH2 0x1039 DUP3 PUSH2 0x1480 JUMP JUMPDEST PUSH1 0x20 DUP3 ADD SWAP1 POP SWAP2 SWAP1 POP JUMP JUMPDEST PUSH1 0x60 DUP3 ADD PUSH2 0x1055 PUSH1 0x0 DUP4 ADD DUP4 PUSH2 0x133A JUMP JUMPDEST PUSH2 0x1062 PUSH1 0x0 DUP6 ADD DUP3 PUSH2 0xFCA JUMP JUMPDEST POP PUSH2 0x1070 PUSH1 0x20 DUP4 ADD DUP4 PUSH2 0x1351 JUMP JUMPDEST PUSH2 0x107D PUSH1 0x20 DUP6 ADD DUP3 PUSH2 0x10AD JUMP JUMPDEST POP PUSH2 0x108B PUSH1 0x40 DUP4 ADD DUP4 PUSH2 0x1351 JUMP JUMPDEST PUSH2 0x1098 PUSH1 0x40 DUP6 ADD DUP3 PUSH2 0x10AD JUMP JUMPDEST POP POP POP POP JUMP JUMPDEST PUSH2 0x10A7 DUP2 PUSH2 0x13B6 JUMP JUMPDEST DUP3 MSTORE POP POP JUMP JUMPDEST PUSH2 0x10B6 DUP2 PUSH2 0x13C0 JUMP JUMPDEST DUP3 MSTORE POP POP JUMP JUMPDEST PUSH1 0x0 PUSH1 0x20 DUP3 ADD SWAP1 POP PUSH2 0x10D1 PUSH1 0x0 DUP4 ADD DUP5 PUSH2 0xFBB JUMP JUMPDEST SWAP3 SWAP2 POP POP JUMP JUMPDEST PUSH1 0x0 PUSH1 0xE0 DUP3 ADD SWAP1 POP PUSH2 0x10EC PUSH1 0x0 DUP4 ADD DUP11 PUSH2 0xFBB JUMP JUMPDEST PUSH2 0x10F9 PUSH1 0x20 DUP4 ADD DUP10 PUSH2 0xFAC JUMP JUMPDEST PUSH2 0x1106 PUSH1 0x40 DUP4 ADD DUP9 PUSH2 0xFAC JUMP JUMPDEST PUSH2 0x1113 PUSH1 0x60 DUP4 ADD DUP8 PUSH2 0xFAC JUMP JUMPDEST DUP2 DUP2 SUB PUSH1 0x80 DUP4 ADD MSTORE PUSH2 0x1125 DUP2 DUP7 PUSH2 0xFE8 JUMP JUMPDEST SWAP1 POP PUSH2 0x1134 PUSH1 0xA0 DUP4 ADD DUP6 PUSH2 0x109E JUMP JUMPDEST PUSH2 0x1141 PUSH1 0xC0 DUP4 ADD DUP5 PUSH2 0x109E JUMP JUMPDEST SWAP9 SWAP8 POP POP POP POP POP POP POP POP JUMP JUMPDEST PUSH1 0x0 PUSH2 0x140 DUP3 ADD SWAP1 POP PUSH2 0x1163 PUSH1 0x0 DUP4 ADD DUP12 PUSH2 0xFBB JUMP JUMPDEST PUSH2 0x1170 PUSH1 0x20 DUP4 ADD DUP11 PUSH2 0xFAC JUMP JUMPDEST PUSH2 0x117D PUSH1 0x40 DUP4 ADD DUP10 PUSH2 0xFAC JUMP JUMPDEST PUSH2 0x118A PUSH1 0x60 DUP4 ADD DUP9 PUSH2 0xFAC JUMP JUMPDEST DUP2 DUP2 SUB PUSH1 0x80 DUP4 ADD MSTORE PUSH2 0x119C DUP2 DUP8 PUSH2 0xFE8 JUMP JUMPDEST SWAP1 POP PUSH2 0x11AB PUSH1 0xA0 DUP4 ADD DUP7 PUSH2 0x109E JUMP JUMPDEST PUSH2 0x11B8 PUSH1 0xC0 DUP4 ADD DUP6 PUSH2 0x109E JUMP JUMPDEST PUSH2 0x11C5 PUSH1 0xE0 DUP4 ADD DUP5 PUSH2 0x1044 JUMP JUMPDEST SWAP10 SWAP9 POP POP POP POP POP POP POP POP POP JUMP JUMPDEST PUSH1 0x0 PUSH1 0xE0 DUP3 ADD SWAP1 POP PUSH2 0x11E7 PUSH1 0x0 DUP4 ADD DUP11 PUSH2 0xFBB JUMP JUMPDEST PUSH2 0x11F4 PUSH1 0x20 DUP4 ADD DUP10 PUSH2 0xFBB JUMP JUMPDEST DUP2 DUP2 SUB PUSH1 0x40 DUP4 ADD MSTORE PUSH2 0x1206 DUP2 DUP9 PUSH2 0xFE8 JUMP JUMPDEST SWAP1 POP PUSH2 0x1215 PUSH1 0x60 DUP4 ADD DUP8 PUSH2 0xFD9 JUMP JUMPDEST PUSH2 0x1222 PUSH1 0x80 DUP4 ADD DUP7 PUSH2 0x109E JUMP JUMPDEST PUSH2 0x122F PUSH1 0xA0 DUP4 ADD DUP6 PUSH2 0x109E JUMP JUMPDEST PUSH2 0x123C PUSH1 0xC0 DUP4 ADD DUP5 PUSH2 0x109E JUMP JUMPDEST SWAP9 SWAP8 POP POP POP POP POP POP POP POP JUMP JUMPDEST PUSH1 0x0 PUSH1 0x40 DUP3 ADD SWAP1 POP PUSH2 0x125D PUSH1 0x0 DUP4 ADD DUP6 PUSH2 0xFD9 JUMP JUMPDEST PUSH2 0x126A PUSH1 0x20 DUP4 ADD DUP5 PUSH2 0xFD9 JUMP JUMPDEST SWAP4 SWAP3 POP POP POP JUMP JUMPDEST PUSH1 0x0 PUSH1 0x60 DUP3 ADD SWAP1 POP PUSH2 0x1286 PUSH1 0x0 DUP4 ADD DUP7 PUSH2 0xFD9 JUMP JUMPDEST PUSH2 0x1293 PUSH1 0x20 DUP4 ADD DUP6 PUSH2 0xFD9 JUMP JUMPDEST PUSH2 0x12A0 PUSH1 0x40 DUP4 ADD DUP5 PUSH2 0x109E JUMP JUMPDEST SWAP5 SWAP4 POP POP POP POP JUMP JUMPDEST PUSH1 0x0 PUSH1 0x20 DUP3 ADD SWAP1 POP DUP2 DUP2 SUB PUSH1 0x0 DUP4 ADD MSTORE PUSH2 0x12C1 DUP2 PUSH2 0x1021 JUMP JUMPDEST SWAP1 POP SWAP2 SWAP1 POP JUMP JUMPDEST PUSH1 0x0 PUSH2 0x12D2 PUSH2 0x12E3 JUMP JUMPDEST SWAP1 POP PUSH2 0x12DE DUP3 DUP3 PUSH2 0x140F JUMP JUMPDEST SWAP2 SWAP1 POP JUMP JUMPDEST PUSH1 0x0 PUSH1 0x40 MLOAD SWAP1 POP SWAP1 JUMP JUMPDEST PUSH1 0x0 PUSH8 0xFFFFFFFFFFFFFFFF DUP3 GT ISZERO PUSH2 0x1308 JUMPI PUSH2 0x1307 PUSH2 0x1440 JUMP JUMPDEST JUMPDEST PUSH2 0x1311 DUP3 PUSH2 0x146F JUMP JUMPDEST SWAP1 POP PUSH1 0x20 DUP2 ADD SWAP1 POP SWAP2 SWAP1 POP JUMP JUMPDEST PUSH1 0x0 DUP2 MLOAD SWAP1 POP SWAP2 SWAP1 POP JUMP JUMPDEST PUSH1 0x0 DUP3 DUP3 MSTORE PUSH1 0x20 DUP3 ADD SWAP1 POP SWAP3 SWAP2 POP POP JUMP JUMPDEST PUSH1 0x0 PUSH2 0x1349 PUSH1 0x20 DUP5 ADD DUP5 PUSH2 0xD42 JUMP JUMPDEST SWAP1 POP SWAP3 SWAP2 POP POP JUMP JUMPDEST PUSH1 0x0 PUSH2 0x1360 PUSH1 0x20 DUP5 ADD DUP5 PUSH2 0xDB1 JUMP JUMPDEST SWAP1 POP SWAP3 SWAP2 POP POP JUMP JUMPDEST PUSH1 0x0 PUSH2 0x1373 DUP3 PUSH2 0x1396 JUMP JUMPDEST SWAP1 POP SWAP2 SWAP1 POP JUMP JUMPDEST PUSH1 0x0 PUSH2 0x1385 DUP3 PUSH2 0x1396 JUMP JUMPDEST SWAP1 POP SWAP2 SWAP1 POP JUMP JUMPDEST PUSH1 0x0 DUP2 SWAP1 POP SWAP2 SWAP1 POP JUMP JUMPDEST PUSH1 0x0 PUSH20 0xFFFFFFFFFFFFFFFFFFFFFFFFFFFFFFFFFFFFFFFF DUP3 AND SWAP1 POP SWAP2 SWAP1 POP JUMP JUMPDEST PUSH1 0x0 DUP2 SWAP1 POP SWAP2 SWAP1 POP JUMP JUMPDEST PUSH1 0x0 PUSH1 0xFF DUP3 AND SWAP1 POP SWAP2 SWAP1 POP JUMP JUMPDEST DUP3 DUP2 DUP4 CALLDATACOPY PUSH1 0x0 DUP4 DUP4 ADD MSTORE POP POP POP JUMP JUMPDEST PUSH1 0x0 JUMPDEST DUP4 DUP2 LT ISZERO PUSH2 0x13FA JUMPI DUP1 DUP3 ADD MLOAD DUP2 DUP5 ADD MSTORE PUSH1 0x20 DUP2 ADD SWAP1 POP PUSH2 0x13DF JUMP JUMPDEST DUP4 DUP2 GT ISZERO PUSH2 0x1409 JUMPI PUSH1 0x0 DUP5 DUP5 ADD MSTORE JUMPDEST POP POP POP POP JUMP JUMPDEST PUSH2 0x1418 DUP3 PUSH2 0x146F JUMP JUMPDEST DUP2 ADD DUP2 DUP2 LT PUSH8 0xFFFFFFFFFFFFFFFF DUP3 GT OR ISZERO PUSH2 0x1437 JUMPI PUSH2 0x1436 PUSH2 0x1440 JUMP JUMPDEST JUMPDEST DUP1 PUSH1 0x40 MSTORE POP POP POP JUMP JUMPDEST PUSH32 0x4E487B7100000000000000000000000000000000000000000000000000000000 PUSH1 0x0 MSTORE PUSH1 0x41 PUSH1 0x4 MSTORE PUSH1 0x24 PUSH1 0x0 REVERT JUMPDEST PUSH1 0x0 PUSH1 0x1F NOT PUSH1 0x1F DUP4 ADD AND SWAP1 POP SWAP2 SWAP1 POP JUMP JUMPDEST PUSH32 0x455243313136373A20637265617465206661696C656400000000000000000000 PUSH1 0x0 DUP3 ADD MSTORE POP JUMP JUMPDEST PUSH2 0x14B2 DUP2 PUSH2 0x1368 JUMP JUMPDEST DUP2 EQ PUSH2 0x14BD JUMPI PUSH1 0x0 DUP1 REVERT JUMPDEST POP JUMP JUMPDEST PUSH2 0x14C9 DUP2 PUSH2 0x137A JUMP JUMPDEST DUP2 EQ PUSH2 0x14D4 JUMPI PUSH1 0x0 DUP1 REVERT JUMPDEST POP JUMP JUMPDEST PUSH2 0x14E0 DUP2 PUSH2 0x138C JUMP JUMPDEST DUP2 EQ PUSH2 0x14EB JUMPI PUSH1 0x0 DUP1 REVERT JUMPDEST POP JUMP JUMPDEST PUSH2 0x14F7 DUP2 PUSH2 0x13B6 JUMP JUMPDEST DUP2 EQ PUSH2 0x1502 JUMPI PUSH1 0x0 DUP1 REVERT JUMPDEST POP JUMP JUMPDEST PUSH2 0x150E DUP2 PUSH2 0x13C0 JUMP JUMPDEST DUP2 EQ PUSH2 0x1519 JUMPI PUSH1 0x0 DUP1 REVERT JUMPDEST POP JUMP INVALID LOG2 PUSH5 0x6970667358 0x22 SLT KECCAK256 SWAP12 0xAA 0x2A PUSH27 0x7B515E1868E1EE3DAE9D081F43AC1AF933C52DC3E671784D588D50 SWAP11 PUSH5 0x736F6C6343 STOP ADDMOD DIV STOP CALLER "
		},
		"gasEstimates": {
			"creation": {
				"codeDepositCost": "1091600",
				"executionCost": "infinite",
				"totalCost": "infinite"
			},
			"external": {
				"bullaManager()": "infinite",
				"bullaTags(address)": "infinite",
				"createBullaClaim(uint256,address,address,string,bytes32,uint256)": "infinite",
				"createBullaClaim(uint256,address,address,string,bytes32,uint256,(bytes32,uint8,uint8))": "infinite",
				"implementation()": "1214",
				"updateBullaTag(address,bytes32)": "infinite"
			}
		},
		"methodIdentifiers": {
			"bullaManager()": "5e39986f",
			"bullaTags(address)": "9a1309ce",
			"createBullaClaim(uint256,address,address,string,bytes32,uint256)": "cbac4cbe",
			"createBullaClaim(uint256,address,address,string,bytes32,uint256,(bytes32,uint8,uint8))": "44b5de3f",
			"implementation()": "5c60da1b",
			"updateBullaTag(address,bytes32)": "c0265a69"
		}
	},
	"abi": [
		{
			"inputs": [
				{
					"internalType": "address",
					"name": "_bullaManager",
					"type": "address"
				},
				{
					"internalType": "address",
					"name": "_implementation",
					"type": "address"
				}
			],
			"stateMutability": "nonpayable",
			"type": "constructor"
		},
		{
			"anonymous": false,
			"inputs": [
				{
					"indexed": true,
					"internalType": "address",
					"name": "bullaManager",
					"type": "address"
				},
				{
					"indexed": false,
					"internalType": "address",
					"name": "bullaClaim",
					"type": "address"
				},
				{
					"indexed": false,
					"internalType": "address",
					"name": "owner",
					"type": "address"
				},
				{
					"indexed": true,
					"internalType": "address",
					"name": "creditor",
					"type": "address"
				},
				{
					"indexed": true,
					"internalType": "address",
					"name": "debtor",
					"type": "address"
				},
				{
					"indexed": false,
					"internalType": "string",
					"name": "description",
					"type": "string"
				},
				{
					"indexed": false,
					"internalType": "bytes32",
					"name": "tag",
					"type": "bytes32"
				},
				{
					"indexed": false,
					"internalType": "uint256",
					"name": "claimAmount",
					"type": "uint256"
				},
				{
					"indexed": false,
					"internalType": "uint256",
					"name": "dueBy",
					"type": "uint256"
				},
				{
					"indexed": false,
					"internalType": "uint256",
					"name": "blocktime",
					"type": "uint256"
				}
			],
			"name": "BullaBankerClaimCreated",
			"type": "event"
		},
		{
			"anonymous": false,
			"inputs": [
				{
					"indexed": true,
					"internalType": "address",
					"name": "bullaManager",
					"type": "address"
				},
				{
					"indexed": true,
					"internalType": "address",
					"name": "bullaClaim",
					"type": "address"
				},
				{
					"indexed": false,
					"internalType": "bytes32",
					"name": "creditorTag",
					"type": "bytes32"
				},
				{
					"indexed": false,
					"internalType": "bytes32",
					"name": "debtorTag",
					"type": "bytes32"
				},
				{
					"indexed": false,
					"internalType": "uint256",
					"name": "blocktime",
					"type": "uint256"
				}
			],
			"name": "BullaTagUpdated",
			"type": "event"
		},
		{
			"inputs": [],
			"name": "bullaManager",
			"outputs": [
				{
					"internalType": "address",
					"name": "",
					"type": "address"
				}
			],
			"stateMutability": "view",
			"type": "function"
		},
		{
			"inputs": [
				{
					"internalType": "address",
					"name": "",
					"type": "address"
				}
			],
			"name": "bullaTags",
			"outputs": [
				{
					"internalType": "bytes32",
					"name": "creditorTag",
					"type": "bytes32"
				},
				{
					"internalType": "bytes32",
					"name": "debtorTag",
					"type": "bytes32"
				}
			],
			"stateMutability": "view",
			"type": "function"
		},
		{
			"inputs": [
				{
					"internalType": "uint256",
					"name": "claimAmount",
					"type": "uint256"
				},
				{
					"internalType": "address payable",
					"name": "creditor",
					"type": "address"
				},
				{
					"internalType": "address payable",
					"name": "debtor",
					"type": "address"
				},
				{
					"internalType": "string",
					"name": "description",
					"type": "string"
				},
				{
					"internalType": "bytes32",
					"name": "bullaTag",
					"type": "bytes32"
				},
				{
					"internalType": "uint256",
					"name": "dueBy",
					"type": "uint256"
				},
				{
					"components": [
						{
							"internalType": "bytes32",
							"name": "hash",
							"type": "bytes32"
						},
						{
							"internalType": "uint8",
							"name": "hashFunction",
							"type": "uint8"
						},
						{
							"internalType": "uint8",
							"name": "size",
							"type": "uint8"
						}
					],
					"internalType": "struct Multihash",
					"name": "multihash",
					"type": "tuple"
				}
			],
			"name": "createBullaClaim",
			"outputs": [],
			"stateMutability": "nonpayable",
			"type": "function"
		},
		{
			"inputs": [
				{
					"internalType": "uint256",
					"name": "claimAmount",
					"type": "uint256"
				},
				{
					"internalType": "address payable",
					"name": "creditor",
					"type": "address"
				},
				{
					"internalType": "address payable",
					"name": "debtor",
					"type": "address"
				},
				{
					"internalType": "string",
					"name": "description",
					"type": "string"
				},
				{
					"internalType": "bytes32",
					"name": "bullaTag",
					"type": "bytes32"
				},
				{
					"internalType": "uint256",
					"name": "dueBy",
					"type": "uint256"
				}
			],
			"name": "createBullaClaim",
			"outputs": [],
			"stateMutability": "nonpayable",
			"type": "function"
		},
		{
			"inputs": [],
			"name": "implementation",
			"outputs": [
				{
					"internalType": "address",
					"name": "",
					"type": "address"
				}
			],
			"stateMutability": "view",
			"type": "function"
		},
		{
			"inputs": [
				{
					"internalType": "address",
					"name": "_bullaClaim",
					"type": "address"
				},
				{
					"internalType": "bytes32",
					"name": "newTag",
					"type": "bytes32"
				}
			],
			"name": "updateBullaTag",
			"outputs": [],
			"stateMutability": "nonpayable",
			"type": "function"
		}
	]
}