{
  "address": "0x545553156D10E982c8Ecb01A2414f4B6a1bcEA17",
  "abi": [
    {
      "anonymous": false,
      "inputs": [
        {
          "indexed": true,
          "internalType": "address",
          "name": "bullaManager",
          "type": "address"
        },
        {
          "indexed": true,
          "internalType": "address",
          "name": "bullaClaim",
          "type": "address"
        },
        {
          "indexed": false,
          "internalType": "enum BullaClaim.ActionType",
          "name": "actionType",
          "type": "uint8"
        },
        {
          "indexed": false,
          "internalType": "uint256",
          "name": "paymentAmount",
          "type": "uint256"
        },
        {
          "indexed": false,
          "internalType": "uint256",
          "name": "blocktime",
          "type": "uint256"
        }
      ],
      "name": "ClaimAction",
      "type": "event"
    },
    {
      "anonymous": false,
      "inputs": [
        {
          "indexed": false,
          "internalType": "address",
          "name": "bullaManager",
          "type": "address"
        },
        {
          "indexed": false,
          "internalType": "address",
          "name": "bullaClaim",
          "type": "address"
        },
        {
          "indexed": false,
          "internalType": "address",
          "name": "owner",
          "type": "address"
        },
        {
          "indexed": true,
          "internalType": "address",
          "name": "creditor",
          "type": "address"
        },
        {
          "indexed": true,
          "internalType": "address",
          "name": "debtor",
          "type": "address"
        },
        {
          "indexed": false,
          "internalType": "string",
          "name": "description",
          "type": "string"
        },
        {
          "indexed": false,
          "internalType": "uint256",
          "name": "claimAmount",
          "type": "uint256"
        },
        {
          "indexed": false,
          "internalType": "uint256",
          "name": "dueBy",
          "type": "uint256"
        },
        {
          "indexed": true,
          "internalType": "address",
          "name": "creator",
          "type": "address"
        },
        {
          "indexed": false,
          "internalType": "uint256",
          "name": "blocktime",
          "type": "uint256"
        }
      ],
      "name": "ClaimCreated",
      "type": "event"
    },
    {
      "anonymous": false,
      "inputs": [
        {
          "indexed": true,
          "internalType": "address",
          "name": "bullaClaim",
          "type": "address"
        },
        {
          "indexed": true,
          "internalType": "address",
          "name": "oldOwner",
          "type": "address"
        },
        {
          "indexed": true,
          "internalType": "address",
          "name": "newOwner",
          "type": "address"
        },
        {
          "indexed": false,
          "internalType": "uint256",
          "name": "transferPrice",
          "type": "uint256"
        },
        {
          "indexed": false,
          "internalType": "uint256",
          "name": "blocktime",
          "type": "uint256"
        }
      ],
      "name": "ClaimTransferred",
      "type": "event"
    },
    {
      "anonymous": false,
      "inputs": [
        {
          "indexed": true,
          "internalType": "address",
          "name": "bullaManager",
          "type": "address"
        },
        {
          "indexed": true,
          "internalType": "address",
          "name": "bullaClaim",
          "type": "address"
        },
        {
          "indexed": true,
          "internalType": "address",
          "name": "collectionAddress",
          "type": "address"
        },
        {
          "indexed": false,
          "internalType": "uint256",
          "name": "transactionFee",
          "type": "uint256"
        },
        {
          "indexed": false,
          "internalType": "uint256",
          "name": "blocktime",
          "type": "uint256"
        }
      ],
      "name": "FeePaid",
      "type": "event"
    },
    {
      "anonymous": false,
      "inputs": [
        {
          "indexed": false,
          "internalType": "address",
          "name": "bullaManager",
          "type": "address"
        },
        {
          "indexed": true,
          "internalType": "address",
          "name": "bullaClaim",
          "type": "address"
        },
        {
          "indexed": true,
          "internalType": "address",
          "name": "debtor",
          "type": "address"
        },
        {
          "indexed": true,
          "internalType": "address",
          "name": "creditor",
          "type": "address"
        },
        {
          "components": [
            {
              "internalType": "bytes32",
              "name": "hash",
              "type": "bytes32"
            },
            {
              "internalType": "uint8",
              "name": "hashFunction",
              "type": "uint8"
            },
            {
              "internalType": "uint8",
              "name": "size",
              "type": "uint8"
            }
          ],
          "indexed": false,
          "internalType": "struct BullaClaim.Multihash",
          "name": "ipfsHash",
          "type": "tuple"
        },
        {
          "indexed": false,
          "internalType": "uint256",
          "name": "blocktime",
          "type": "uint256"
        }
      ],
      "name": "MultihashAdded",
      "type": "event"
    },
    {
      "anonymous": false,
      "inputs": [
        {
          "indexed": true,
          "internalType": "address",
          "name": "bullaClaim",
          "type": "address"
        },
        {
          "indexed": false,
          "internalType": "uint256",
          "name": "oldPrice",
          "type": "uint256"
        },
        {
          "indexed": false,
          "internalType": "uint256",
          "name": "newPrice",
          "type": "uint256"
        },
        {
          "indexed": false,
          "internalType": "uint256",
          "name": "blocktime",
          "type": "uint256"
        }
      ],
      "name": "TransferPriceUpdated",
      "type": "event"
    },
    {
      "inputs": [
        {
          "internalType": "bytes32",
          "name": "hash",
          "type": "bytes32"
        },
        {
          "internalType": "uint8",
          "name": "hashFunction",
          "type": "uint8"
        },
        {
          "internalType": "uint8",
          "name": "size",
          "type": "uint8"
        }
      ],
      "name": "addMultihash",
      "outputs": [],
      "stateMutability": "nonpayable",
      "type": "function"
    },
    {
      "inputs": [],
      "name": "claimAmount",
      "outputs": [
        {
          "internalType": "uint256",
          "name": "",
          "type": "uint256"
        }
      ],
      "stateMutability": "view",
      "type": "function"
    },
    {
      "inputs": [],
      "name": "dueBy",
      "outputs": [
        {
          "internalType": "uint256",
          "name": "",
          "type": "uint256"
        }
      ],
      "stateMutability": "view",
      "type": "function"
    },
    {
      "inputs": [],
      "name": "getCreditor",
      "outputs": [
        {
          "internalType": "address",
          "name": "",
          "type": "address"
        }
      ],
      "stateMutability": "view",
      "type": "function"
    },
    {
      "inputs": [],
      "name": "getDebtor",
      "outputs": [
        {
          "internalType": "address",
          "name": "",
          "type": "address"
        }
      ],
      "stateMutability": "view",
      "type": "function"
    },
    {
      "inputs": [
        {
          "internalType": "address",
          "name": "_bullaManager",
          "type": "address"
        },
        {
          "internalType": "address payable",
          "name": "_owner",
          "type": "address"
        },
        {
          "internalType": "address payable",
          "name": "_creditor",
          "type": "address"
        },
        {
          "internalType": "address payable",
          "name": "_debtor",
          "type": "address"
        },
        {
          "internalType": "string",
          "name": "_description",
          "type": "string"
        },
        {
          "internalType": "uint256",
          "name": "_claimAmount",
          "type": "uint256"
        },
        {
          "internalType": "uint256",
          "name": "_dueBy",
          "type": "uint256"
        }
      ],
      "name": "init",
      "outputs": [],
      "stateMutability": "nonpayable",
      "type": "function"
    },
    {
      "inputs": [
        {
          "internalType": "address",
          "name": "_bullaManager",
          "type": "address"
        },
        {
          "internalType": "address payable",
          "name": "_owner",
          "type": "address"
        },
        {
          "internalType": "address payable",
          "name": "_creditor",
          "type": "address"
        },
        {
          "internalType": "address payable",
          "name": "_debtor",
          "type": "address"
        },
        {
          "internalType": "string",
          "name": "_description",
          "type": "string"
        },
        {
          "internalType": "uint256",
          "name": "_claimAmount",
          "type": "uint256"
        },
        {
          "internalType": "uint256",
          "name": "_dueBy",
          "type": "uint256"
        },
        {
          "components": [
            {
              "internalType": "bytes32",
              "name": "hash",
              "type": "bytes32"
            },
            {
              "internalType": "uint8",
              "name": "hashFunction",
              "type": "uint8"
            },
            {
              "internalType": "uint8",
              "name": "size",
              "type": "uint8"
            }
          ],
          "internalType": "struct BullaClaim.Multihash",
          "name": "_multihash",
          "type": "tuple"
        }
      ],
      "name": "initMultihash",
      "outputs": [],
      "stateMutability": "nonpayable",
      "type": "function"
    },
    {
      "inputs": [],
      "name": "multihash",
      "outputs": [
        {
          "internalType": "bytes32",
          "name": "hash",
          "type": "bytes32"
        },
        {
          "internalType": "uint8",
          "name": "hashFunction",
          "type": "uint8"
        },
        {
          "internalType": "uint8",
          "name": "size",
          "type": "uint8"
        }
      ],
      "stateMutability": "view",
      "type": "function"
    },
    {
      "inputs": [],
      "name": "owner",
      "outputs": [
        {
          "internalType": "address payable",
          "name": "",
          "type": "address"
        }
      ],
      "stateMutability": "view",
      "type": "function"
    },
    {
      "inputs": [],
      "name": "paidAmount",
      "outputs": [
        {
          "internalType": "uint256",
          "name": "",
          "type": "uint256"
        }
      ],
      "stateMutability": "view",
      "type": "function"
    },
    {
      "inputs": [],
      "name": "payClaim",
      "outputs": [],
      "stateMutability": "payable",
      "type": "function"
    },
    {
      "inputs": [],
      "name": "rejectClaim",
      "outputs": [],
      "stateMutability": "payable",
      "type": "function"
    },
    {
      "inputs": [],
      "name": "rescindClaim",
      "outputs": [],
      "stateMutability": "payable",
      "type": "function"
    },
    {
      "inputs": [
        {
          "internalType": "uint256",
          "name": "newPrice",
          "type": "uint256"
        }
      ],
      "name": "setTransferPrice",
      "outputs": [],
      "stateMutability": "nonpayable",
      "type": "function"
    },
    {
      "inputs": [],
      "name": "status",
      "outputs": [
        {
          "internalType": "enum BullaClaim.Status",
          "name": "",
          "type": "uint8"
        }
      ],
      "stateMutability": "view",
      "type": "function"
    },
    {
      "inputs": [
        {
          "internalType": "address payable",
          "name": "newOwner",
          "type": "address"
        }
      ],
      "name": "transferOwnership",
      "outputs": [],
      "stateMutability": "payable",
      "type": "function"
    },
    {
      "inputs": [],
      "name": "transferPrice",
      "outputs": [
        {
          "internalType": "uint256",
          "name": "",
          "type": "uint256"
        }
      ],
      "stateMutability": "view",
      "type": "function"
    }
  ],
  "transactionHash": "0x351a7e4a02e7bb9d8c08de409ecdf9894ace1dab69aef948a06c9a6e53e54bca",
  "args": [],
  "solcInputHash": "7e37fb7353b6089588d8e6340ffcf073",
  "bytecode": "0x608060405234801561001057600080fd5b506113e4806100206000396000f3fe6080604052600436106100fe5760003560e01c80637e78fdb9116100955780639a5870b3116100645780639a5870b31461024b578063b075bdfa14610261578063b88887b7146102a7578063f2fde38b146102c7578063f89d1ec0146102da576100fe565b80637e78fdb9146101cd57806381cd8194146101ff578063830953ab146102155780638da5cb5b1461022b576100fe565b8063264c74a5116100d1578063264c74a51461017d5780635a4a72a41461019d5780636271a581146101bd57806371ad9ca3146101c5576100fe565b80630bd7693d14610103578063103888091461010d57806312fa769f1461012d578063200d2ed214610156575b600080fd5b61010b6102f8565b005b34801561011957600080fd5b5061010b61012836600461114a565b610696565b34801561013957600080fd5b5061014360095481565b6040519081526020015b60405180910390f35b34801561016257600080fd5b50600a546101709060ff1681565b60405161014d919061126d565b34801561018957600080fd5b5061010b610198366004611109565b610794565b3480156101a957600080fd5b5061010b6101b8366004610fbb565b61087e565b61010b6109ee565b61010b610ae2565b3480156101d957600080fd5b506006546001600160a01b03165b6040516001600160a01b03909116815260200161014d565b34801561020b57600080fd5b50610143600b5481565b34801561022157600080fd5b5061014360075481565b34801561023757600080fd5b506004546101e7906001600160a01b031681565b34801561025757600080fd5b5061014360085481565b34801561026d57600080fd5b50600154600254610288919060ff8082169161010090041683565b6040805193845260ff928316602085015291169082015260600161014d565b3480156102b357600080fd5b5061010b6102c2366004611054565b610bd1565b61010b6102d5366004610f43565b610c53565b3480156102e657600080fd5b506005546001600160a01b03166101e7565b6006546001600160a01b0316331461034e5760405162461bcd60e51b81526020600482015260146024820152733932b9ba3934b1ba32b2103a37903232b13a37b960611b60448201526064015b60405180910390fd5b6007543460095461035f9190611287565b11156103a15760405162461bcd60e51b81526020600482015260116024820152700e4cae0c2f2d2dcce40e8dede40daeac6d607b1b6044820152606401610345565b600034116103f15760405162461bcd60e51b815260206004820152601e60248201527f7061796d656e74206d7573742062652067726561746572207468616e203000006044820152606401610345565b60035460048054604051630309e65b60e01b81526001600160a01b03918216928101929092526000921690630309e65b9060240160206040518083038186803b15801561043d57600080fd5b505afa158015610451573d6000803e3d6000fd5b505050506040513d601f19601f820116820180604052508101906104759190611162565b9050600080600080600360009054906101000a90046001600160a01b03166001600160a01b03166202eab76040518163ffffffff1660e01b815260040160806040518083038186803b1580156104ca57600080fd5b505afa1580156104de573d6000803e3d6000fd5b505050506040513d601f19601f820116820180604052508101906105029190610f66565b93509350935093506000808363ffffffff1611801561052757508263ffffffff168610155b6105315783610533565b815b90506000808263ffffffff161161054b576000610568565b61271061055e63ffffffff8416346112bf565b610568919061129f565b9050346009600082825461057c9190611287565b9091555050600754600954146105a157600a805460ff191660019081179091556105b2565b600a805460ff191660029081179091555b506005546001600160a01b03166108fc6105cc83346112de565b6040518115909202916000818181858888f193505050501580156105f4573d6000803e3d6000fd5b506106026000600754610e54565b8015610640576040516001600160a01b0387169082156108fc029083906000818181858888f1935050505015801561063e573d6000803e3d6000fd5b505b600354604080518381524260208201526001600160a01b038981169330939116917f7b025f69f5843a875988abc4e248350e4e5d0ec876e181973034e7a5c5bad88491015b60405180910390a450505050505050565b6004546001600160a01b031633146106e65760405162461bcd60e51b81526020600482015260136024820152723932b9ba3934b1ba32b2103a379037bbb732b960691b6044820152606401610345565b6005546004546001600160a01b039081169116146107465760405162461bcd60e51b815260206004820152601860248201527f6f6e6c79206f776e65722063616e2073657420707269636500000000000000006044820152606401610345565b600b80549082905560408051828152602081018490524281830152905130917fad58c87bad083af5840976457eaf3e6ebfab644c0fba0250f991295f5e7e9e35919081900360600190a25050565b6004546001600160a01b031633146107e45760405162461bcd60e51b81526020600482015260136024820152723932b9ba3934b1ba32b2103a379037bbb732b960691b6044820152606401610345565b6040805160608101825284815260ff8481166020830181905290841691830182905260018681556002805461ffff191690921761010090930292909217905560065460055460035493516001600160a01b03928316949183169330937fd1c3701da1341446fa54b86557e14f0addb0998e5d06e2cd0a70166f4c2b31a29361087193911691904290611209565b60405180910390a4505050565b846001600160a01b0316866001600160a01b031614806108af5750836001600160a01b0316866001600160a01b0316145b6108fb5760405162461bcd60e51b815260206004820152601e60248201527f6f776e6572206e6f74206120646562746f72206f72206372656469746f7200006044820152606401610345565b600a54610100900460ff16156109495760405162461bcd60e51b8152602060048201526013602482015272185b1c9958591e481a5b9a5d1a585b1a5e9959606a1b6044820152606401610345565b600a805461ff001916610100179055600380546001600160a01b03808a166001600160a01b0319928316179092556004805489841690831681179091556005805489851690841681179091556006805494891694909316841790925560078590556008849055604051339392917f31e4f7f4b87db25285946b26f7f557c9f2c6ca38c4e43506d02d14aad47bd66b91610685918d913091908b908b908b90429061117a565b6005546001600160a01b03163314610a415760405162461bcd60e51b81526020600482015260166024820152753932b9ba3934b1ba32b2103a379031b932b234ba37b960511b6044820152606401610345565b6000600a5460ff166004811115610a6857634e487b7160e01b600052602160045260246000fd5b14610ac75760405162461bcd60e51b815260206004820152602960248201527f63616e6e6f742072657363696e64206f6e6365207061796d656e7420686173206044820152686265656e206d61646560b81b6064820152608401610345565b600a805460ff19166004179055610ae060026000610e54565b565b6006546001600160a01b03163314610b335760405162461bcd60e51b81526020600482015260146024820152733932b9ba3934b1ba32b2103a37903232b13a37b960611b6044820152606401610345565b6000600a5460ff166004811115610b5a57634e487b7160e01b600052602160045260246000fd5b14610bb85760405162461bcd60e51b815260206004820152602860248201527f63616e6e6f742072656a656374206f6e6365207061796d656e7420686173206260448201526765656e206d61646560c01b6064820152608401610345565b600a805460ff19166003179055610ae060016000610e54565b610be08888888888888861087e565b806001610bed8282611337565b50506006546005546003546040516001600160a01b03938416939283169230927fd1c3701da1341446fa54b86557e14f0addb0998e5d06e2cd0a70166f4c2b31a292610c4192909116906001904290611209565b60405180910390a45050505050505050565b6005546004546001600160a01b03908116911614610cb35760405162461bcd60e51b815260206004820181905260248201527f6f6e6c7920696e766f696365732063616e206265207472616e736665727265646044820152606401610345565b6000600b541180610cce57506004546001600160a01b031633145b610d405760405162461bcd60e51b815260206004820152603960248201527f7468697320636c61696d206973206e6f74207472616e7366657261626c65206260448201527f7920616e796f6e65206f74686572207468616e206f776e6572000000000000006064820152608401610345565b600b543414610da35760405162461bcd60e51b815260206004820152602960248201527f696e636f7272656374206d73672e76616c756520746f207472616e736665722060448201526806f776e6572736869760bc1b6064820152608401610345565b6004546040516001600160a01b03909116903480156108fc02916000818181858888f19350505050158015610ddc573d6000803e3d6000fd5b50600480546001600160a01b038381166001600160a01b031980841682179094556005805490941681179093556000600b5560408051348152426020820152919092169291839130917fc432da71cf07ddca9b6990a60d74e7cc2550a93bc44787d381aa5eca20a93b99910160405180910390a45050565b60035460405130916001600160a01b0316907f5fa0bf8a0d51e5081a34aebd515108b75f68dcf92eec17a40580723b7ec4aa3a90610e9790869086904290611245565b60405180910390a35050565b600082601f830112610eb3578081fd5b813567ffffffffffffffff80821115610ece57610ece611321565b604051601f8301601f19908116603f01168101908282118183101715610ef657610ef6611321565b81604052838152866020858801011115610f0e578485fd5b8360208701602083013792830160200193909352509392505050565b805163ffffffff81168114610f3e57600080fd5b919050565b600060208284031215610f54578081fd5b8135610f5f81611387565b9392505050565b60008060008060808587031215610f7b578283fd5b8451610f8681611387565b9350610f9460208601610f2a565b9250610fa260408601610f2a565b9150610fb060608601610f2a565b905092959194509250565b600080600080600080600060e0888a031215610fd5578283fd5b8735610fe081611387565b96506020880135610ff081611387565b9550604088013561100081611387565b9450606088013561101081611387565b9350608088013567ffffffffffffffff81111561102b578384fd5b6110378a828b01610ea3565b93505060a0880135915060c0880135905092959891949750929550565b600080600080600080600080888a03610140811215611071578182fd5b893561107c81611387565b985060208a013561108c81611387565b975060408a013561109c81611387565b965060608a01356110ac81611387565b955060808a013567ffffffffffffffff8111156110c7578283fd5b6110d38c828d01610ea3565b95505060a08a0135935060c08a01359250606060df19820112156110f5578182fd5b5060e0890190509295985092959890939650565b60008060006060848603121561111d578283fd5b83359250602084013561112f8161139f565b9150604084013561113f8161139f565b809150509250925092565b60006020828403121561115b578081fd5b5035919050565b600060208284031215611173578081fd5b5051919050565b600060018060a01b03808a1683526020818a1681850152818916604085015260e06060850152875191508160e0850152825b828110156111c957888101820151858201610100015281016111ac565b828111156111db578361010084870101525b505060808301959095525060a081019290925260c0820152610100601f909201601f19160101949350505050565b6001600160a01b039390931683528154602084015260019091015460ff808216604085015260089190911c166060830152608082015260a00190565b60608101600385106112595761125961130b565b938152602081019290925260409091015290565b60208101600583106112815761128161130b565b91905290565b6000821982111561129a5761129a6112f5565b500190565b6000826112ba57634e487b7160e01b81526012600452602481fd5b500490565b60008160001904831182151516156112d9576112d96112f5565b500290565b6000828210156112f0576112f06112f5565b500390565b634e487b7160e01b600052601160045260246000fd5b634e487b7160e01b600052602160045260246000fd5b634e487b7160e01b600052604160045260246000fd5b8135815560018101602083013561134d8161139f565b60ff8116905081548160ff198216178355604085013561136c8161139f565b61ff008160081b168361ffff19841617178455505050505050565b6001600160a01b038116811461139c57600080fd5b50565b60ff8116811461139c57600080fdfea2646970667358221220bb4fa99a293eea9583c2ed4ee7539a281820294695c57cda7d0fcbfae11d953c64736f6c63430008030033",
  "devdoc": {
    "kind": "dev",
    "methods": {},
    "version": 1
  },
  "userdoc": {
    "kind": "user",
    "methods": {},
    "version": 1
  },
  "storageLayout": {
    "storage": [
      {
        "astId": 85,
        "contract": "contracts/BullaClaim.sol:BullaClaimNative",
        "label": "_initialized",
        "offset": 0,
        "slot": "0",
        "type": "t_bool"
      },
      {
        "astId": 88,
        "contract": "contracts/BullaClaim.sol:BullaClaimNative",
        "label": "_initializing",
        "offset": 1,
        "slot": "0",
        "type": "t_bool"
      },
      {
        "astId": 1736,
        "contract": "contracts/BullaClaim.sol:BullaClaimNative",
        "label": "multihash",
        "offset": 0,
        "slot": "1",
        "type": "t_struct(Multihash)1733_storage"
      },
      {
        "astId": 1739,
        "contract": "contracts/BullaClaim.sol:BullaClaimNative",
        "label": "bullaManager",
        "offset": 0,
        "slot": "3",
        "type": "t_contract(IBullaManager)1714"
      },
      {
        "astId": 1741,
        "contract": "contracts/BullaClaim.sol:BullaClaimNative",
        "label": "owner",
        "offset": 0,
        "slot": "4",
        "type": "t_address_payable"
      },
      {
        "astId": 1743,
        "contract": "contracts/BullaClaim.sol:BullaClaimNative",
        "label": "creditor",
        "offset": 0,
        "slot": "5",
        "type": "t_address_payable"
      },
      {
        "astId": 1745,
        "contract": "contracts/BullaClaim.sol:BullaClaimNative",
        "label": "debtor",
        "offset": 0,
        "slot": "6",
        "type": "t_address_payable"
      },
      {
        "astId": 1747,
        "contract": "contracts/BullaClaim.sol:BullaClaimNative",
        "label": "claimAmount",
        "offset": 0,
        "slot": "7",
        "type": "t_uint256"
      },
      {
        "astId": 1749,
        "contract": "contracts/BullaClaim.sol:BullaClaimNative",
        "label": "dueBy",
        "offset": 0,
        "slot": "8",
        "type": "t_uint256"
      },
      {
        "astId": 1751,
        "contract": "contracts/BullaClaim.sol:BullaClaimNative",
        "label": "paidAmount",
        "offset": 0,
        "slot": "9",
        "type": "t_uint256"
      },
      {
        "astId": 1754,
        "contract": "contracts/BullaClaim.sol:BullaClaimNative",
        "label": "status",
        "offset": 0,
        "slot": "10",
        "type": "t_enum(Status)1726"
      },
      {
        "astId": 1756,
        "contract": "contracts/BullaClaim.sol:BullaClaimNative",
        "label": "isInitialized",
        "offset": 1,
        "slot": "10",
        "type": "t_bool"
      },
      {
        "astId": 1758,
        "contract": "contracts/BullaClaim.sol:BullaClaimNative",
        "label": "transferPrice",
        "offset": 0,
        "slot": "11",
        "type": "t_uint256"
      }
    ],
    "types": {
      "t_address_payable": {
        "encoding": "inplace",
        "label": "address payable",
        "numberOfBytes": "20"
      },
      "t_bool": {
        "encoding": "inplace",
        "label": "bool",
        "numberOfBytes": "1"
      },
      "t_bytes32": {
        "encoding": "inplace",
        "label": "bytes32",
        "numberOfBytes": "32"
      },
      "t_contract(IBullaManager)1714": {
        "encoding": "inplace",
        "label": "contract IBullaManager",
        "numberOfBytes": "20"
      },
      "t_enum(Status)1726": {
        "encoding": "inplace",
        "label": "enum BullaClaim.Status",
        "numberOfBytes": "1"
      },
      "t_struct(Multihash)1733_storage": {
        "encoding": "inplace",
        "label": "struct BullaClaim.Multihash",
        "members": [
          {
            "astId": 1728,
            "contract": "contracts/BullaClaim.sol:BullaClaimNative",
            "label": "hash",
            "offset": 0,
            "slot": "0",
            "type": "t_bytes32"
          },
          {
            "astId": 1730,
            "contract": "contracts/BullaClaim.sol:BullaClaimNative",
            "label": "hashFunction",
            "offset": 0,
            "slot": "1",
            "type": "t_uint8"
          },
          {
            "astId": 1732,
            "contract": "contracts/BullaClaim.sol:BullaClaimNative",
            "label": "size",
            "offset": 1,
            "slot": "1",
            "type": "t_uint8"
          }
        ],
        "numberOfBytes": "64"
      },
      "t_uint256": {
        "encoding": "inplace",
        "label": "uint256",
        "numberOfBytes": "32"
      },
      "t_uint8": {
        "encoding": "inplace",
        "label": "uint8",
        "numberOfBytes": "1"
      }
    }
  }
}