{
  "address": "0x75bd9bE688DACAFB05EB99Bdb81e8F5e53783Db9",
  "abi": [
    {
      "inputs": [
        {
          "internalType": "bytes32",
          "name": "_description",
          "type": "bytes32"
        },
        {
          "internalType": "address payable",
          "name": "_collectionAddress",
          "type": "address"
        },
        {
          "internalType": "uint32",
          "name": "_feeBasisPoints",
          "type": "uint32"
        }
      ],
      "stateMutability": "nonpayable",
      "type": "constructor"
    },
    {
      "anonymous": false,
      "inputs": [
        {
          "indexed": true,
          "internalType": "address",
          "name": "bullaManager",
          "type": "address"
        },
        {
          "indexed": false,
          "internalType": "address",
          "name": "prevBullaToken",
          "type": "address"
        },
        {
          "indexed": false,
          "internalType": "address",
          "name": "newBullaToken",
          "type": "address"
        },
        {
          "indexed": false,
          "internalType": "uint256",
          "name": "blocktime",
          "type": "uint256"
        }
      ],
      "name": "BullaTokenChanged",
      "type": "event"
    },
    {
      "anonymous": false,
      "inputs": [
        {
          "indexed": true,
          "internalType": "address",
          "name": "bullaManager",
          "type": "address"
        },
        {
          "indexed": false,
          "internalType": "address",
          "name": "prevCollector",
          "type": "address"
        },
        {
          "indexed": false,
          "internalType": "address",
          "name": "newCollector",
          "type": "address"
        },
        {
          "indexed": false,
          "internalType": "uint256",
          "name": "blocktime",
          "type": "uint256"
        }
      ],
      "name": "CollectorChanged",
      "type": "event"
    },
    {
      "anonymous": false,
      "inputs": [
        {
          "indexed": true,
          "internalType": "address",
          "name": "bullaManager",
          "type": "address"
        },
        {
          "indexed": false,
          "internalType": "uint256",
          "name": "prevFee",
          "type": "uint256"
        },
        {
          "indexed": false,
          "internalType": "uint256",
          "name": "newFee",
          "type": "uint256"
        },
        {
          "indexed": false,
          "internalType": "uint256",
          "name": "blocktime",
          "type": "uint256"
        }
      ],
      "name": "FeeChanged",
      "type": "event"
    },
    {
      "anonymous": false,
      "inputs": [
        {
          "indexed": true,
          "internalType": "address",
          "name": "bullaManager",
          "type": "address"
        },
        {
          "indexed": false,
          "internalType": "uint256",
          "name": "prevFeeThreshold",
          "type": "uint256"
        },
        {
          "indexed": false,
          "internalType": "uint256",
          "name": "newFeeThreshold",
          "type": "uint256"
        },
        {
          "indexed": false,
          "internalType": "uint256",
          "name": "blocktime",
          "type": "uint256"
        }
      ],
      "name": "FeeThresholdChanged",
      "type": "event"
    },
    {
      "anonymous": false,
      "inputs": [
        {
          "indexed": true,
          "internalType": "address",
          "name": "bullaManager",
          "type": "address"
        },
        {
          "indexed": false,
          "internalType": "address",
          "name": "prevOwner",
          "type": "address"
        },
        {
          "indexed": false,
          "internalType": "address",
          "name": "newOwner",
          "type": "address"
        },
        {
          "indexed": false,
          "internalType": "uint256",
          "name": "blocktime",
          "type": "uint256"
        }
      ],
      "name": "OwnerChanged",
      "type": "event"
    },
    {
      "anonymous": false,
      "inputs": [
        {
          "indexed": true,
          "internalType": "address",
          "name": "bullaManager",
          "type": "address"
        },
        {
          "indexed": false,
          "internalType": "uint256",
          "name": "prevFee",
          "type": "uint256"
        },
        {
          "indexed": false,
          "internalType": "uint256",
          "name": "newFee",
          "type": "uint256"
        },
        {
          "indexed": false,
          "internalType": "uint256",
          "name": "blocktime",
          "type": "uint256"
        }
      ],
      "name": "ReducedFeeChanged",
      "type": "event"
    },
    {
      "inputs": [],
      "name": "bullaToken",
      "outputs": [
        {
          "internalType": "contract IERC20",
          "name": "",
          "type": "address"
        }
      ],
      "stateMutability": "view",
      "type": "function"
    },
    {
      "inputs": [],
      "name": "description",
      "outputs": [
        {
          "internalType": "bytes32",
          "name": "",
          "type": "bytes32"
        }
      ],
      "stateMutability": "view",
      "type": "function"
    },
    {
      "inputs": [
        {
          "internalType": "address",
          "name": "_holder",
          "type": "address"
        }
      ],
      "name": "getBullaBalance",
      "outputs": [
        {
          "internalType": "uint256",
          "name": "",
          "type": "uint256"
        }
      ],
      "stateMutability": "view",
      "type": "function"
    },
    {
      "inputs": [],
      "name": "getFeeInfo",
      "outputs": [
        {
          "components": [
            {
              "internalType": "address payable",
              "name": "collectionAddress",
              "type": "address"
            },
            {
              "internalType": "uint32",
              "name": "feeBasisPoints",
              "type": "uint32"
            },
            {
              "internalType": "uint32",
              "name": "bullaTokenThreshold",
              "type": "uint32"
            },
            {
              "internalType": "uint32",
              "name": "reducedFeeBasisPoints",
              "type": "uint32"
            }
          ],
          "internalType": "struct FeeInfo",
          "name": "",
          "type": "tuple"
        }
      ],
      "stateMutability": "view",
      "type": "function"
    },
    {
      "inputs": [],
      "name": "owner",
      "outputs": [
        {
          "internalType": "address",
          "name": "",
          "type": "address"
        }
      ],
      "stateMutability": "view",
      "type": "function"
    },
    {
      "inputs": [
        {
          "internalType": "address payable",
          "name": "_bullaTokenAddress",
          "type": "address"
        }
      ],
      "name": "setBullaTokenAddress",
      "outputs": [],
      "stateMutability": "nonpayable",
      "type": "function"
    },
    {
      "inputs": [
        {
          "internalType": "address payable",
          "name": "_collectionAddress",
          "type": "address"
        }
      ],
      "name": "setCollectionAddress",
      "outputs": [],
      "stateMutability": "nonpayable",
      "type": "function"
    },
    {
      "inputs": [
        {
          "internalType": "uint32",
          "name": "_feeBasisPoints",
          "type": "uint32"
        }
      ],
      "name": "setFee",
      "outputs": [],
      "stateMutability": "nonpayable",
      "type": "function"
    },
    {
      "inputs": [
        {
          "internalType": "address",
          "name": "_owner",
          "type": "address"
        }
      ],
      "name": "setOwner",
      "outputs": [],
      "stateMutability": "nonpayable",
      "type": "function"
    },
    {
      "inputs": [
        {
          "internalType": "uint32",
          "name": "reducedFeeBasisPoints",
          "type": "uint32"
        }
      ],
      "name": "setReducedFee",
      "outputs": [],
      "stateMutability": "nonpayable",
      "type": "function"
    },
    {
      "inputs": [
        {
          "internalType": "uint32",
          "name": "_threshold",
          "type": "uint32"
        }
      ],
      "name": "setbullaThreshold",
      "outputs": [],
      "stateMutability": "nonpayable",
      "type": "function"
    }
  ],
  "transactionHash": "0xd9096339db03373d9c3b4b67b61e28a8d43fa9cca3dd487cff82c0cd70f7e44f",
  "args": [
    "0x66726f6d2068617264686174206465706c6f7900000000000000000000000000",
    "0x89e03E7980C92fd81Ed3A9b72F5c73fDf57E5e6D",
    0
  ],
  "solcInputHash": "329f5615c573ded6f1ab86986788ab0e",
  "bytecode": "0x60a060405234801561001057600080fd5b5060405161093a38038061093a83398101604081905261002f9161015a565b600280546001600160a01b0319163317905560008054608085905263ffffffff8316600160a01b026001600160c01b03199091166001600160a01b0385161717815560405130917f920eb1bd59249cc14185b0425c1a4c2749475b15272cb9b73451656ad168e323916100bd91908590429092835263ffffffff919091166020830152604082015260600190565b60405180910390a260408051600081526001600160a01b03841660208201524281830152905130917f28fa443c78eecff2421a89aee0a09ea0d05ad6bb15491e6d8b46c24084bab01e919081900360600190a260408051600081523360208201524281830152905130917f39186e51606070376273fb5a61f17af17684b1c771b7c32a6ee725284d1a28e4919081900360600190a25050506101b0565b60008060006060848603121561016e578283fd5b835160208501519093506001600160a01b038116811461018c578283fd5b604085015190925063ffffffff811681146101a5578182fd5b809150509250925092565b60805161076f6101cb60003960006101c4015261076f6000f3fe608060405234801561001057600080fd5b50600436106100a85760003560e01c80638b019f92116100715780638b019f92146101e65780638da5cb5b146101f9578063a6546d0e14610224578063a6904aa514610237578063eb69615e1461024a578063f10a31791461025d576100a8565b806202eab7146100ad5780630309e65b1461017657806313af4035146101975780631ab971ab146101ac5780637284e416146101bf575b600080fd5b61012360408051608081018252600080825260208201819052918101829052606081019190915250604080516080810182526000546001600160a01b038116825263ffffffff600160a01b820481166020840152600160c01b8204811693830193909352600160e01b9004909116606082015290565b60405161016d919081516001600160a01b0316815260208083015163ffffffff90811691830191909152604080840151821690830152606092830151169181019190915260800190565b60405180910390f35b610189610184366004610692565b610270565b60405190815260200161016d565b6101aa6101a5366004610692565b610312565b005b6101aa6101ba3660046106c6565b6103aa565b6101897f000000000000000000000000000000000000000000000000000000000000000081565b6101aa6101f4366004610692565b61044d565b60025461020c906001600160a01b031681565b6040516001600160a01b03909116815260200161016d565b6101aa6102323660046106c6565b6104d5565b6101aa610245366004610692565b61056c565b60015461020c906001600160a01b031681565b6101aa61026b3660046106c6565b6105f4565b60015460009081906001600160a01b031615610308576001546040516370a0823160e01b81526001600160a01b038581166004830152909116906370a082319060240160206040518083038186803b1580156102cb57600080fd5b505afa1580156102df573d6000803e3d6000fd5b505050506040513d601f19601f8201168201806040525081019061030391906106ae565b61030b565b60005b9392505050565b6002546001600160a01b031633146103455760405162461bcd60e51b815260040161033c906106ea565b60405180910390fd5b600280546001600160a01b0319166001600160a01b038316908117909155604080518281526020810192909252429082015230907f39186e51606070376273fb5a61f17af17684b1c771b7c32a6ee725284d1a28e4906060015b60405180910390a250565b6002546001600160a01b031633146103d45760405162461bcd60e51b815260040161033c906106ea565b6000805463ffffffff838116600160a01b90810263ffffffff60a01b198416179384905560408051938290048316808552919094049091166020830152429282019290925230907f920eb1bd59249cc14185b0425c1a4c2749475b15272cb9b73451656ad168e323906060015b60405180910390a25050565b6002546001600160a01b031633146104775760405162461bcd60e51b815260040161033c906106ea565b600180546001600160a01b0319166001600160a01b038316908117909155604080518281526020810192909252429082015230907f0372929f77950d9d7af01484f77c437aaafdb1f22504ce8a66fa42d233862cc79060600161039f565b6002546001600160a01b031633146104ff5760405162461bcd60e51b815260040161033c906106ea565b6000805463ffffffff60c01b1916600160c01b63ffffffff848116828102939093179384905560408051929094041681526020810191909152429181019190915230907f1288d38590ededfeff607d9a0d70a08db1ef3baa2414283868ae007c582fab1d9060600161039f565b6002546001600160a01b031633146105965760405162461bcd60e51b815260040161033c906106ea565b600080546001600160a01b0319166001600160a01b038316908117909155604080518281526020810192909252429082015230907f28fa443c78eecff2421a89aee0a09ea0d05ad6bb15491e6d8b46c24084bab01e9060600161039f565b6002546001600160a01b0316331461061e5760405162461bcd60e51b815260040161033c906106ea565b6000805463ffffffff838116600160e01b9081026001600160e01b038416179384905560408051919093048216808252600160a01b9094049091166020820152429181019190915230907f920eb1bd59249cc14185b0425c1a4c2749475b15272cb9b73451656ad168e32390606001610441565b6000602082840312156106a3578081fd5b813561030b81610721565b6000602082840312156106bf578081fd5b5051919050565b6000602082840312156106d7578081fd5b813563ffffffff8116811461030b578182fd5b6020808252601c908201527f7265737472696374656420746f20636f6e7472616374206f776e657200000000604082015260600190565b6001600160a01b038116811461073657600080fd5b5056fea2646970667358221220c38938fb8f8782a432f38f7611a0ea2958a8488ee88047f39eb51e4ea504ebcf64736f6c63430008030033",
  "devdoc": {
    "kind": "dev",
    "methods": {},
    "version": 1
  },
  "userdoc": {
    "kind": "user",
    "methods": {},
    "version": 1
  },
  "storageLayout": {
    "storage": [
      {
        "astId": 1390,
        "contract": "contracts/BullaManager.sol:BullaManager",
        "label": "feeInfo",
        "offset": 0,
        "slot": "0",
        "type": "t_struct(FeeInfo)1385_storage"
      },
      {
        "astId": 1393,
        "contract": "contracts/BullaManager.sol:BullaManager",
        "label": "bullaToken",
        "offset": 0,
        "slot": "1",
        "type": "t_contract(IERC20)203"
      },
      {
        "astId": 1395,
        "contract": "contracts/BullaManager.sol:BullaManager",
        "label": "owner",
        "offset": 0,
        "slot": "2",
        "type": "t_address"
      }
    ],
    "types": {
      "t_address": {
        "encoding": "inplace",
        "label": "address",
        "numberOfBytes": "20"
      },
      "t_address_payable": {
        "encoding": "inplace",
        "label": "address payable",
        "numberOfBytes": "20"
      },
      "t_contract(IERC20)203": {
        "encoding": "inplace",
        "label": "contract IERC20",
        "numberOfBytes": "20"
      },
      "t_struct(FeeInfo)1385_storage": {
        "encoding": "inplace",
        "label": "struct FeeInfo",
        "members": [
          {
            "astId": 1378,
            "contract": "contracts/BullaManager.sol:BullaManager",
            "label": "collectionAddress",
            "offset": 0,
            "slot": "0",
            "type": "t_address_payable"
          },
          {
            "astId": 1380,
            "contract": "contracts/BullaManager.sol:BullaManager",
            "label": "feeBasisPoints",
            "offset": 20,
            "slot": "0",
            "type": "t_uint32"
          },
          {
            "astId": 1382,
            "contract": "contracts/BullaManager.sol:BullaManager",
            "label": "bullaTokenThreshold",
            "offset": 24,
            "slot": "0",
            "type": "t_uint32"
          },
          {
            "astId": 1384,
            "contract": "contracts/BullaManager.sol:BullaManager",
            "label": "reducedFeeBasisPoints",
            "offset": 28,
            "slot": "0",
            "type": "t_uint32"
          }
        ],
        "numberOfBytes": "32"
      },
      "t_uint32": {
        "encoding": "inplace",
        "label": "uint32",
        "numberOfBytes": "4"
      }
    }
  }
}