{
  "address": "0x706b2Db812C8d340A166764eA2CFD23F6743C478",
  "abi": [
    {
      "anonymous": false,
      "inputs": [
        {
          "indexed": true,
          "internalType": "address",
          "name": "bullaManager",
          "type": "address"
        },
        {
          "indexed": true,
          "internalType": "address",
          "name": "bullaClaim",
          "type": "address"
        },
        {
          "indexed": false,
          "internalType": "enum BullaClaim.ActionType",
          "name": "actionType",
          "type": "uint8"
        },
        {
          "indexed": false,
          "internalType": "uint256",
          "name": "paymentAmount",
          "type": "uint256"
        },
        {
          "indexed": false,
          "internalType": "uint256",
          "name": "blocktime",
          "type": "uint256"
        }
      ],
      "name": "ClaimAction",
      "type": "event"
    },
    {
      "anonymous": false,
      "inputs": [
        {
          "indexed": true,
          "internalType": "address",
          "name": "bullaManager",
          "type": "address"
        },
        {
          "indexed": false,
          "internalType": "address",
          "name": "bullaClaim",
          "type": "address"
        },
        {
          "indexed": false,
          "internalType": "address",
          "name": "owner",
          "type": "address"
        },
        {
          "indexed": true,
          "internalType": "address",
          "name": "creditor",
          "type": "address"
        },
        {
          "indexed": true,
          "internalType": "address",
          "name": "debtor",
          "type": "address"
        },
        {
          "indexed": false,
          "internalType": "string",
          "name": "description",
          "type": "string"
        },
        {
          "indexed": false,
          "internalType": "uint256",
          "name": "claimAmount",
          "type": "uint256"
        },
        {
          "indexed": false,
          "internalType": "uint256",
          "name": "dueBy",
          "type": "uint256"
        },
        {
          "indexed": false,
          "internalType": "address",
          "name": "createdBy",
          "type": "address"
        },
        {
          "indexed": false,
          "internalType": "uint256",
          "name": "blocktime",
          "type": "uint256"
        }
      ],
      "name": "ClaimCreated",
      "type": "event"
    },
    {
      "anonymous": false,
      "inputs": [
        {
          "indexed": true,
          "internalType": "address",
          "name": "bullaClaim",
          "type": "address"
        },
        {
          "indexed": true,
          "internalType": "address",
          "name": "oldOwner",
          "type": "address"
        },
        {
          "indexed": true,
          "internalType": "address",
          "name": "newOwner",
          "type": "address"
        },
        {
          "indexed": false,
          "internalType": "uint256",
          "name": "trasferPrice",
          "type": "uint256"
        },
        {
          "indexed": false,
          "internalType": "uint256",
          "name": "blocktime",
          "type": "uint256"
        }
      ],
      "name": "ClaimTransferred",
      "type": "event"
    },
    {
      "anonymous": false,
      "inputs": [
        {
          "indexed": true,
          "internalType": "address",
          "name": "bullaManager",
          "type": "address"
        },
        {
          "indexed": true,
          "internalType": "address",
          "name": "bullaClaim",
          "type": "address"
        },
        {
          "indexed": true,
          "internalType": "address",
          "name": "collectionAddress",
          "type": "address"
        },
        {
          "indexed": false,
          "internalType": "uint256",
          "name": "transactionFee",
          "type": "uint256"
        },
        {
          "indexed": false,
          "internalType": "uint256",
          "name": "blocktime",
          "type": "uint256"
        }
      ],
      "name": "FeePaid",
      "type": "event"
    },
    {
      "anonymous": false,
      "inputs": [
        {
          "indexed": true,
          "internalType": "address",
          "name": "bullaManager",
          "type": "address"
        },
        {
          "indexed": false,
          "internalType": "address",
          "name": "bullaClaim",
          "type": "address"
        },
        {
          "indexed": true,
          "internalType": "address",
          "name": "debtor",
          "type": "address"
        },
        {
          "indexed": true,
          "internalType": "address",
          "name": "creditor",
          "type": "address"
        },
        {
          "components": [
            {
              "internalType": "bytes32",
              "name": "hash",
              "type": "bytes32"
            },
            {
              "internalType": "uint8",
              "name": "hashFunction",
              "type": "uint8"
            },
            {
              "internalType": "uint8",
              "name": "size",
              "type": "uint8"
            }
          ],
          "indexed": false,
          "internalType": "struct BullaClaim.Multihash",
          "name": "ipfsHash",
          "type": "tuple"
        },
        {
          "indexed": false,
          "internalType": "uint256",
          "name": "blocktime",
          "type": "uint256"
        }
      ],
      "name": "MultihashAdded",
      "type": "event"
    },
    {
      "anonymous": false,
      "inputs": [
        {
          "indexed": true,
          "internalType": "address",
          "name": "bullaClaim",
          "type": "address"
        },
        {
          "indexed": false,
          "internalType": "uint256",
          "name": "oldPrice",
          "type": "uint256"
        },
        {
          "indexed": false,
          "internalType": "uint256",
          "name": "newPrice",
          "type": "uint256"
        },
        {
          "indexed": false,
          "internalType": "uint256",
          "name": "blocktime",
          "type": "uint256"
        }
      ],
      "name": "TransferPriceUpdated",
      "type": "event"
    },
    {
      "inputs": [
        {
          "internalType": "bytes32",
          "name": "hash",
          "type": "bytes32"
        },
        {
          "internalType": "uint8",
          "name": "hashFunction",
          "type": "uint8"
        },
        {
          "internalType": "uint8",
          "name": "size",
          "type": "uint8"
        }
      ],
      "name": "addMultihash",
      "outputs": [],
      "stateMutability": "nonpayable",
      "type": "function"
    },
    {
      "inputs": [],
      "name": "claimAmount",
      "outputs": [
        {
          "internalType": "uint256",
          "name": "",
          "type": "uint256"
        }
      ],
      "stateMutability": "view",
      "type": "function"
    },
    {
      "inputs": [],
      "name": "dueBy",
      "outputs": [
        {
          "internalType": "uint256",
          "name": "",
          "type": "uint256"
        }
      ],
      "stateMutability": "view",
      "type": "function"
    },
    {
      "inputs": [],
      "name": "getCreditor",
      "outputs": [
        {
          "internalType": "address",
          "name": "",
          "type": "address"
        }
      ],
      "stateMutability": "view",
      "type": "function"
    },
    {
      "inputs": [],
      "name": "getDebtor",
      "outputs": [
        {
          "internalType": "address",
          "name": "",
          "type": "address"
        }
      ],
      "stateMutability": "view",
      "type": "function"
    },
    {
      "inputs": [
        {
          "internalType": "address",
          "name": "_bullaManager",
          "type": "address"
        },
        {
          "internalType": "address payable",
          "name": "_owner",
          "type": "address"
        },
        {
          "internalType": "address payable",
          "name": "_creditor",
          "type": "address"
        },
        {
          "internalType": "address payable",
          "name": "_debtor",
          "type": "address"
        },
        {
          "internalType": "string",
          "name": "_description",
          "type": "string"
        },
        {
          "internalType": "uint256",
          "name": "_claimAmount",
          "type": "uint256"
        },
        {
          "internalType": "uint256",
          "name": "_dueBy",
          "type": "uint256"
        }
      ],
      "name": "init",
      "outputs": [],
      "stateMutability": "nonpayable",
      "type": "function"
    },
    {
      "inputs": [],
      "name": "multihash",
      "outputs": [
        {
          "internalType": "bytes32",
          "name": "hash",
          "type": "bytes32"
        },
        {
          "internalType": "uint8",
          "name": "hashFunction",
          "type": "uint8"
        },
        {
          "internalType": "uint8",
          "name": "size",
          "type": "uint8"
        }
      ],
      "stateMutability": "view",
      "type": "function"
    },
    {
      "inputs": [],
      "name": "owner",
      "outputs": [
        {
          "internalType": "address payable",
          "name": "",
          "type": "address"
        }
      ],
      "stateMutability": "view",
      "type": "function"
    },
    {
      "inputs": [],
      "name": "paidAmount",
      "outputs": [
        {
          "internalType": "uint256",
          "name": "",
          "type": "uint256"
        }
      ],
      "stateMutability": "view",
      "type": "function"
    },
    {
      "inputs": [],
      "name": "payClaim",
      "outputs": [],
      "stateMutability": "payable",
      "type": "function"
    },
    {
      "inputs": [],
      "name": "rejectClaim",
      "outputs": [],
      "stateMutability": "payable",
      "type": "function"
    },
    {
      "inputs": [],
      "name": "rescindClaim",
      "outputs": [],
      "stateMutability": "payable",
      "type": "function"
    },
    {
      "inputs": [
        {
          "internalType": "uint256",
          "name": "newPrice",
          "type": "uint256"
        }
      ],
      "name": "setTransferPrice",
      "outputs": [],
      "stateMutability": "nonpayable",
      "type": "function"
    },
    {
      "inputs": [],
      "name": "status",
      "outputs": [
        {
          "internalType": "enum BullaClaim.Status",
          "name": "",
          "type": "uint8"
        }
      ],
      "stateMutability": "view",
      "type": "function"
    },
    {
      "inputs": [
        {
          "internalType": "address payable",
          "name": "newOwner",
          "type": "address"
        }
      ],
      "name": "transferOwnership",
      "outputs": [],
      "stateMutability": "payable",
      "type": "function"
    },
    {
      "inputs": [],
      "name": "transferPrice",
      "outputs": [
        {
          "internalType": "uint256",
          "name": "",
          "type": "uint256"
        }
      ],
      "stateMutability": "view",
      "type": "function"
    }
  ],
  "transactionHash": "0xabc4670c8a755757646d58f8260f07152ea9a0117b955068efc4d8c0f5a18810",
  "args": [],
  "solcInputHash": "329f5615c573ded6f1ab86986788ab0e",
  "bytecode": "0x608060405234801561001057600080fd5b5061120d806100206000396000f3fe6080604052600436106100f35760003560e01c80637e78fdb91161008a5780639a5870b3116100595780639a5870b314610240578063b075bdfa14610256578063f2fde38b1461029c578063f89d1ec0146102af576100f3565b80637e78fdb9146101c257806381cd8194146101f4578063830953ab1461020a5780638da5cb5b14610220576100f3565b8063264c74a5116100c6578063264c74a5146101725780635a4a72a4146101925780636271a581146101b257806371ad9ca3146101ba576100f3565b80630bd7693d146100f8578063103888091461010257806312fa769f14610122578063200d2ed21461014b575b600080fd5b6101006102cd565b005b34801561010e57600080fd5b5061010061011d366004610ffe565b61066b565b34801561012e57600080fd5b5061013860095481565b6040519081526020015b60405180910390f35b34801561015757600080fd5b50600a546101659060ff1681565b60405161014291906110f5565b34801561017e57600080fd5b5061010061018d366004610fc3565b610769565b34801561019e57600080fd5b506101006101ad366004610eba565b610875565b6101006109e5565b610100610ad9565b3480156101ce57600080fd5b506006546001600160a01b03165b6040516001600160a01b039091168152602001610142565b34801561020057600080fd5b50610138600b5481565b34801561021657600080fd5b5061013860075481565b34801561022c57600080fd5b506004546101dc906001600160a01b031681565b34801561024c57600080fd5b5061013860085481565b34801561026257600080fd5b5060015460025461027d919060ff8082169161010090041683565b6040805193845260ff9283166020850152911690820152606001610142565b6101006102aa366004610e42565b610bc8565b3480156102bb57600080fd5b506005546001600160a01b03166101dc565b6006546001600160a01b031633146103235760405162461bcd60e51b81526020600482015260146024820152733932b9ba3934b1ba32b2103a37903232b13a37b960611b60448201526064015b60405180910390fd5b60075434600954610334919061110f565b11156103765760405162461bcd60e51b81526020600482015260116024820152700e4cae0c2f2d2dcce40e8dede40daeac6d607b1b604482015260640161031a565b600034116103c65760405162461bcd60e51b815260206004820152601e60248201527f7061796d656e74206d7573742062652067726561746572207468616e20300000604482015260640161031a565b60035460048054604051630309e65b60e01b81526001600160a01b03918216928101929092526000921690630309e65b9060240160206040518083038186803b15801561041257600080fd5b505afa158015610426573d6000803e3d6000fd5b505050506040513d601f19601f8201168201806040525081019061044a9190611016565b9050600080600080600360009054906101000a90046001600160a01b03166001600160a01b03166202eab76040518163ffffffff1660e01b815260040160806040518083038186803b15801561049f57600080fd5b505afa1580156104b3573d6000803e3d6000fd5b505050506040513d601f19601f820116820180604052508101906104d79190610e65565b93509350935093506000808363ffffffff161180156104fc57508263ffffffff168610155b6105065783610508565b815b90506000808263ffffffff161161052057600061053d565b61271061053363ffffffff841634611147565b61053d9190611127565b90503460096000828254610551919061110f565b90915550506007546009541461057657600a805460ff19166001908117909155610587565b600a805460ff191660029081179091555b506005546001600160a01b03166108fc6105a18334611166565b6040518115909202916000818181858888f193505050501580156105c9573d6000803e3d6000fd5b506105d76000600754610dc9565b8015610615576040516001600160a01b0387169082156108fc029083906000818181858888f19350505050158015610613573d6000803e3d6000fd5b505b600354604080518381524260208201526001600160a01b038981169330939116917f7b025f69f5843a875988abc4e248350e4e5d0ec876e181973034e7a5c5bad88491015b60405180910390a450505050505050565b6004546001600160a01b031633146106bb5760405162461bcd60e51b81526020600482015260136024820152723932b9ba3934b1ba32b2103a379037bbb732b960691b604482015260640161031a565b6005546004546001600160a01b0390811691161461071b5760405162461bcd60e51b815260206004820152601860248201527f6f6e6c79206f776e65722063616e207365742070726963650000000000000000604482015260640161031a565b600b80549082905560408051828152602081018490524281830152905130917fad58c87bad083af5840976457eaf3e6ebfab644c0fba0250f991295f5e7e9e35919081900360600190a25050565b6004546001600160a01b031633146107b95760405162461bcd60e51b81526020600482015260136024820152723932b9ba3934b1ba32b2103a379037bbb732b960691b604482015260640161031a565b604080516060808201835285825260ff858116602080850182905286831694860185905260018990556002805461ffff1916909217610100909502949094179081905560065460055460035487513081529687018b90528385169787019790975260089290921c909216928401929092524260808401526001600160a01b0390811693918116929116907fd1c3701da1341446fa54b86557e14f0addb0998e5d06e2cd0a70166f4c2b31a29060a00160405180910390a4505050565b846001600160a01b0316866001600160a01b031614806108a65750836001600160a01b0316866001600160a01b0316145b6108f25760405162461bcd60e51b815260206004820152601e60248201527f6f776e6572206e6f74206120646562746f72206f72206372656469746f720000604482015260640161031a565b600a54610100900460ff16156109405760405162461bcd60e51b8152602060048201526013602482015272185b1c9958591e481a5b9a5d1a585b1a5e9959606a1b604482015260640161031a565b600a805461ff001916610100179055600380546001600160a01b03808a166001600160a01b03199283168117909355600480548a83169084168117909155600580548a8416908516811790915560068054938a16939094168317909355600786905560088590556040519193917f31e4f7f4b87db25285946b26f7f557c9f2c6ca38c4e43506d02d14aad47bd66b9161065a913091908a908a908a903390429061102e565b6005546001600160a01b03163314610a385760405162461bcd60e51b81526020600482015260166024820152753932b9ba3934b1ba32b2103a379031b932b234ba37b960511b604482015260640161031a565b6000600a5460ff166004811115610a5f57634e487b7160e01b600052602160045260246000fd5b14610abe5760405162461bcd60e51b815260206004820152602960248201527f63616e6e6f742072657363696e64206f6e6365207061796d656e7420686173206044820152686265656e206d61646560b81b606482015260840161031a565b600a805460ff19166004179055610ad760026000610dc9565b565b6006546001600160a01b03163314610b2a5760405162461bcd60e51b81526020600482015260146024820152733932b9ba3934b1ba32b2103a37903232b13a37b960611b604482015260640161031a565b6000600a5460ff166004811115610b5157634e487b7160e01b600052602160045260246000fd5b14610baf5760405162461bcd60e51b815260206004820152602860248201527f63616e6e6f742072656a656374206f6e6365207061796d656e7420686173206260448201526765656e206d61646560c01b606482015260840161031a565b600a805460ff19166003179055610ad760016000610dc9565b6005546004546001600160a01b03908116911614610c285760405162461bcd60e51b815260206004820181905260248201527f6f6e6c7920696e766f696365732063616e206265207472616e73666572726564604482015260640161031a565b6000600b541180610c4357506004546001600160a01b031633145b610cb55760405162461bcd60e51b815260206004820152603960248201527f7468697320636c61696d206973206e6f74207472616e7366657261626c65206260448201527f7920616e796f6e65206f74686572207468616e206f776e657200000000000000606482015260840161031a565b600b543414610d185760405162461bcd60e51b815260206004820152602960248201527f696e636f7272656374206d73672e76616c756520746f207472616e736665722060448201526806f776e6572736869760bc1b606482015260840161031a565b6004546040516001600160a01b03909116903480156108fc02916000818181858888f19350505050158015610d51573d6000803e3d6000fd5b50600480546001600160a01b038381166001600160a01b031980841682179094556005805490941681179093556000600b5560408051348152426020820152919092169291839130917fc432da71cf07ddca9b6990a60d74e7cc2550a93bc44787d381aa5eca20a93b99910160405180910390a45050565b60035460405130916001600160a01b0316907f5fa0bf8a0d51e5081a34aebd515108b75f68dcf92eec17a40580723b7ec4aa3a90610e0c908690869042906110cd565b60405180910390a35050565b805163ffffffff81168114610e2c57600080fd5b919050565b803560ff81168114610e2c57600080fd5b600060208284031215610e53578081fd5b8135610e5e816111bf565b9392505050565b60008060008060808587031215610e7a578283fd5b8451610e85816111bf565b9350610e9360208601610e18565b9250610ea160408601610e18565b9150610eaf60608601610e18565b905092959194509250565b600080600080600080600060e0888a031215610ed4578283fd5b8735610edf816111bf565b96506020880135610eef816111bf565b95506040880135610eff816111bf565b94506060880135610f0f816111bf565b9350608088013567ffffffffffffffff80821115610f2b578485fd5b818a0191508a601f830112610f3e578485fd5b813581811115610f5057610f506111a9565b604051601f8201601f19908116603f01168101908382118183101715610f7857610f786111a9565b816040528281528d6020848701011115610f90578788fd5b8260208601602083013791820160200196909652989b979a50959894979660a0860135965060c090950135949350505050565b600080600060608486031215610fd7578283fd5b83359250610fe760208501610e31565b9150610ff560408501610e31565b90509250925092565b60006020828403121561100f578081fd5b5035919050565b600060208284031215611027578081fd5b5051919050565b600060018060a01b03808a1683526020818a168185015260e06040850152885191508160e0850152825b828110156110755789810182015185820161010001528101611058565b82811115611087578361010084870101525b50506060830187905260808301869052601f01601f191682016101000190506110bb60a08301856001600160a01b03169052565b8260c083015298975050505050505050565b60608101600385106110e1576110e1611193565b938152602081019290925260409091015290565b602081016005831061110957611109611193565b91905290565b600082198211156111225761112261117d565b500190565b60008261114257634e487b7160e01b81526012600452602481fd5b500490565b60008160001904831182151516156111615761116161117d565b500290565b6000828210156111785761117861117d565b500390565b634e487b7160e01b600052601160045260246000fd5b634e487b7160e01b600052602160045260246000fd5b634e487b7160e01b600052604160045260246000fd5b6001600160a01b03811681146111d457600080fd5b5056fea26469706673582212204470f5699db912ec434339292da0b106c063d37f474bf03104d30993498b443264736f6c63430008030033",
  "devdoc": {
    "kind": "dev",
    "methods": {},
    "version": 1
  },
  "userdoc": {
    "kind": "user",
    "methods": {},
    "version": 1
  },
  "storageLayout": {
    "storage": [
      {
        "astId": 85,
        "contract": "contracts/BullaClaim.sol:BullaClaim",
        "label": "_initialized",
        "offset": 0,
        "slot": "0",
        "type": "t_bool"
      },
      {
        "astId": 88,
        "contract": "contracts/BullaClaim.sol:BullaClaim",
        "label": "_initializing",
        "offset": 1,
        "slot": "0",
        "type": "t_bool"
      },
      {
        "astId": 519,
        "contract": "contracts/BullaClaim.sol:BullaClaim",
        "label": "multihash",
        "offset": 0,
        "slot": "1",
        "type": "t_struct(Multihash)516_storage"
      },
      {
        "astId": 522,
        "contract": "contracts/BullaClaim.sol:BullaClaim",
        "label": "bullaManager",
        "offset": 0,
        "slot": "3",
        "type": "t_contract(IBullaManager)497"
      },
      {
        "astId": 524,
        "contract": "contracts/BullaClaim.sol:BullaClaim",
        "label": "owner",
        "offset": 0,
        "slot": "4",
        "type": "t_address_payable"
      },
      {
        "astId": 526,
        "contract": "contracts/BullaClaim.sol:BullaClaim",
        "label": "creditor",
        "offset": 0,
        "slot": "5",
        "type": "t_address_payable"
      },
      {
        "astId": 528,
        "contract": "contracts/BullaClaim.sol:BullaClaim",
        "label": "debtor",
        "offset": 0,
        "slot": "6",
        "type": "t_address_payable"
      },
      {
        "astId": 530,
        "contract": "contracts/BullaClaim.sol:BullaClaim",
        "label": "claimAmount",
        "offset": 0,
        "slot": "7",
        "type": "t_uint256"
      },
      {
        "astId": 532,
        "contract": "contracts/BullaClaim.sol:BullaClaim",
        "label": "dueBy",
        "offset": 0,
        "slot": "8",
        "type": "t_uint256"
      },
      {
        "astId": 534,
        "contract": "contracts/BullaClaim.sol:BullaClaim",
        "label": "paidAmount",
        "offset": 0,
        "slot": "9",
        "type": "t_uint256"
      },
      {
        "astId": 537,
        "contract": "contracts/BullaClaim.sol:BullaClaim",
        "label": "status",
        "offset": 0,
        "slot": "10",
        "type": "t_enum(Status)509"
      },
      {
        "astId": 539,
        "contract": "contracts/BullaClaim.sol:BullaClaim",
        "label": "isInitialized",
        "offset": 1,
        "slot": "10",
        "type": "t_bool"
      },
      {
        "astId": 541,
        "contract": "contracts/BullaClaim.sol:BullaClaim",
        "label": "transferPrice",
        "offset": 0,
        "slot": "11",
        "type": "t_uint256"
      }
    ],
    "types": {
      "t_address_payable": {
        "encoding": "inplace",
        "label": "address payable",
        "numberOfBytes": "20"
      },
      "t_bool": {
        "encoding": "inplace",
        "label": "bool",
        "numberOfBytes": "1"
      },
      "t_bytes32": {
        "encoding": "inplace",
        "label": "bytes32",
        "numberOfBytes": "32"
      },
      "t_contract(IBullaManager)497": {
        "encoding": "inplace",
        "label": "contract IBullaManager",
        "numberOfBytes": "20"
      },
      "t_enum(Status)509": {
        "encoding": "inplace",
        "label": "enum BullaClaim.Status",
        "numberOfBytes": "1"
      },
      "t_struct(Multihash)516_storage": {
        "encoding": "inplace",
        "label": "struct BullaClaim.Multihash",
        "members": [
          {
            "astId": 511,
            "contract": "contracts/BullaClaim.sol:BullaClaim",
            "label": "hash",
            "offset": 0,
            "slot": "0",
            "type": "t_bytes32"
          },
          {
            "astId": 513,
            "contract": "contracts/BullaClaim.sol:BullaClaim",
            "label": "hashFunction",
            "offset": 0,
            "slot": "1",
            "type": "t_uint8"
          },
          {
            "astId": 515,
            "contract": "contracts/BullaClaim.sol:BullaClaim",
            "label": "size",
            "offset": 1,
            "slot": "1",
            "type": "t_uint8"
          }
        ],
        "numberOfBytes": "64"
      },
      "t_uint256": {
        "encoding": "inplace",
        "label": "uint256",
        "numberOfBytes": "32"
      },
      "t_uint8": {
        "encoding": "inplace",
        "label": "uint8",
        "numberOfBytes": "1"
      }
    }
  }
}