{
  "_format": "hh-sol-artifact-1",
  "contractName": "BullaClaimERC721",
  "sourceName": "contracts/BullaClaimERC721.sol",
  "abi": [
    {
      "inputs": [
        {
          "internalType": "address",
          "name": "bullaManager_",
          "type": "address"
        },
        {
          "internalType": "string",
          "name": "baseURI_",
          "type": "string"
        }
      ],
      "stateMutability": "nonpayable",
      "type": "constructor"
    },
    {
      "inputs": [],
      "name": "ClaimCompleted",
      "type": "error"
    },
    {
      "inputs": [],
      "name": "ClaimNotPending",
      "type": "error"
    },
    {
      "inputs": [],
      "name": "ClaimTokenNotContract",
      "type": "error"
    },
    {
      "inputs": [
        {
          "internalType": "address",
          "name": "sender",
          "type": "address"
        }
      ],
      "name": "NotCreditor",
      "type": "error"
    },
    {
      "inputs": [
        {
          "internalType": "address",
          "name": "sender",
          "type": "address"
        }
      ],
      "name": "NotDebtor",
      "type": "error"
    },
    {
      "inputs": [],
      "name": "PastDueDate",
      "type": "error"
    },
    {
      "inputs": [],
      "name": "TokenIdNoExist",
      "type": "error"
    },
    {
      "inputs": [],
      "name": "ValueMustBeGreaterThanZero",
      "type": "error"
    },
    {
      "inputs": [],
      "name": "ZeroAddress",
      "type": "error"
    },
    {
      "anonymous": false,
      "inputs": [
        {
          "indexed": true,
          "internalType": "address",
          "name": "owner",
          "type": "address"
        },
        {
          "indexed": true,
          "internalType": "address",
          "name": "approved",
          "type": "address"
        },
        {
          "indexed": true,
          "internalType": "uint256",
          "name": "tokenId",
          "type": "uint256"
        }
      ],
      "name": "Approval",
      "type": "event"
    },
    {
      "anonymous": false,
      "inputs": [
        {
          "indexed": true,
          "internalType": "address",
          "name": "owner",
          "type": "address"
        },
        {
          "indexed": true,
          "internalType": "address",
          "name": "operator",
          "type": "address"
        },
        {
          "indexed": false,
          "internalType": "bool",
          "name": "approved",
          "type": "bool"
        }
      ],
      "name": "ApprovalForAll",
      "type": "event"
    },
    {
      "anonymous": false,
      "inputs": [
        {
          "indexed": true,
          "internalType": "address",
          "name": "prevBullaManager",
          "type": "address"
        },
        {
          "indexed": true,
          "internalType": "address",
          "name": "newBullaManager",
          "type": "address"
        },
        {
          "indexed": false,
          "internalType": "uint256",
          "name": "blocktime",
          "type": "uint256"
        }
      ],
      "name": "BullaManagerSet",
      "type": "event"
    },
    {
      "anonymous": false,
      "inputs": [
        {
          "indexed": false,
          "internalType": "address",
          "name": "bullaManager",
          "type": "address"
        },
        {
          "indexed": true,
          "internalType": "uint256",
          "name": "tokenId",
          "type": "uint256"
        },
        {
          "indexed": false,
          "internalType": "address",
          "name": "parent",
          "type": "address"
        },
        {
          "indexed": true,
          "internalType": "address",
          "name": "creditor",
          "type": "address"
        },
        {
          "indexed": true,
          "internalType": "address",
          "name": "debtor",
          "type": "address"
        },
        {
          "indexed": false,
          "internalType": "address",
          "name": "origin",
          "type": "address"
        },
        {
          "indexed": false,
          "internalType": "string",
          "name": "description",
          "type": "string"
        },
        {
          "components": [
            {
              "internalType": "uint256",
              "name": "claimAmount",
              "type": "uint256"
            },
            {
              "internalType": "uint256",
              "name": "paidAmount",
              "type": "uint256"
            },
            {
              "internalType": "enum Status",
              "name": "status",
              "type": "uint8"
            },
            {
              "internalType": "uint256",
              "name": "dueBy",
              "type": "uint256"
            },
            {
              "internalType": "address",
              "name": "debtor",
              "type": "address"
            },
            {
              "internalType": "address",
              "name": "claimToken",
              "type": "address"
            },
            {
              "components": [
                {
                  "internalType": "bytes32",
                  "name": "hash",
                  "type": "bytes32"
                },
                {
                  "internalType": "uint8",
                  "name": "hashFunction",
                  "type": "uint8"
                },
                {
                  "internalType": "uint8",
                  "name": "size",
                  "type": "uint8"
                }
              ],
              "internalType": "struct Multihash",
              "name": "attachment",
              "type": "tuple"
            }
          ],
          "indexed": false,
          "internalType": "struct Claim",
          "name": "claim",
          "type": "tuple"
        },
        {
          "indexed": false,
          "internalType": "uint256",
          "name": "blocktime",
          "type": "uint256"
        }
      ],
      "name": "ClaimCreated",
      "type": "event"
    },
    {
      "anonymous": false,
      "inputs": [
        {
          "indexed": true,
          "internalType": "address",
          "name": "bullaManager",
          "type": "address"
        },
        {
          "indexed": true,
          "internalType": "uint256",
          "name": "tokenId",
          "type": "uint256"
        },
        {
          "indexed": true,
          "internalType": "address",
          "name": "debtor",
          "type": "address"
        },
        {
          "indexed": false,
          "internalType": "address",
          "name": "paidBy",
          "type": "address"
        },
        {
          "indexed": false,
          "internalType": "address",
          "name": "paidByOrigin",
          "type": "address"
        },
        {
          "indexed": false,
          "internalType": "uint256",
          "name": "paymentAmount",
          "type": "uint256"
        },
        {
          "indexed": false,
          "internalType": "uint256",
          "name": "blocktime",
          "type": "uint256"
        }
      ],
      "name": "ClaimPayment",
      "type": "event"
    },
    {
      "anonymous": false,
      "inputs": [
        {
          "indexed": true,
          "internalType": "address",
          "name": "bullaManager",
          "type": "address"
        },
        {
          "indexed": true,
          "internalType": "uint256",
          "name": "tokenId",
          "type": "uint256"
        },
        {
          "indexed": false,
          "internalType": "uint256",
          "name": "blocktime",
          "type": "uint256"
        }
      ],
      "name": "ClaimRejected",
      "type": "event"
    },
    {
      "anonymous": false,
      "inputs": [
        {
          "indexed": true,
          "internalType": "address",
          "name": "bullaManager",
          "type": "address"
        },
        {
          "indexed": true,
          "internalType": "uint256",
          "name": "tokenId",
          "type": "uint256"
        },
        {
          "indexed": false,
          "internalType": "uint256",
          "name": "blocktime",
          "type": "uint256"
        }
      ],
      "name": "ClaimRescinded",
      "type": "event"
    },
    {
      "anonymous": false,
      "inputs": [
        {
          "indexed": true,
          "internalType": "address",
          "name": "bullaManager",
          "type": "address"
        },
        {
          "indexed": true,
          "internalType": "uint256",
          "name": "tokenId",
          "type": "uint256"
        },
        {
          "indexed": true,
          "internalType": "address",
          "name": "collectionAddress",
          "type": "address"
        },
        {
          "indexed": false,
          "internalType": "uint256",
          "name": "paymentAmount",
          "type": "uint256"
        },
        {
          "indexed": false,
          "internalType": "uint256",
          "name": "transactionFee",
          "type": "uint256"
        },
        {
          "indexed": false,
          "internalType": "uint256",
          "name": "blocktime",
          "type": "uint256"
        }
      ],
      "name": "FeePaid",
      "type": "event"
    },
    {
      "anonymous": false,
      "inputs": [
        {
          "indexed": true,
          "internalType": "address",
          "name": "previousOwner",
          "type": "address"
        },
        {
          "indexed": true,
          "internalType": "address",
          "name": "newOwner",
          "type": "address"
        }
      ],
      "name": "OwnershipTransferred",
      "type": "event"
    },
    {
      "anonymous": false,
      "inputs": [
        {
          "indexed": true,
          "internalType": "address",
          "name": "from",
          "type": "address"
        },
        {
          "indexed": true,
          "internalType": "address",
          "name": "to",
          "type": "address"
        },
        {
          "indexed": true,
          "internalType": "uint256",
          "name": "tokenId",
          "type": "uint256"
        }
      ],
      "name": "Transfer",
      "type": "event"
    },
    {
      "inputs": [
        {
          "internalType": "address",
          "name": "to",
          "type": "address"
        },
        {
          "internalType": "uint256",
          "name": "tokenId",
          "type": "uint256"
        }
      ],
      "name": "approve",
      "outputs": [],
      "stateMutability": "nonpayable",
      "type": "function"
    },
    {
      "inputs": [
        {
          "internalType": "address",
          "name": "owner",
          "type": "address"
        }
      ],
      "name": "balanceOf",
      "outputs": [
        {
          "internalType": "uint256",
          "name": "",
          "type": "uint256"
        }
      ],
      "stateMutability": "view",
      "type": "function"
    },
    {
      "inputs": [],
      "name": "baseURI",
      "outputs": [
        {
          "internalType": "string",
          "name": "",
          "type": "string"
        }
      ],
      "stateMutability": "view",
      "type": "function"
    },
    {
      "inputs": [],
      "name": "bullaManager",
      "outputs": [
        {
          "internalType": "address",
          "name": "",
          "type": "address"
        }
      ],
      "stateMutability": "view",
      "type": "function"
    },
    {
      "inputs": [
        {
          "internalType": "uint256",
          "name": "tokenId",
          "type": "uint256"
        }
      ],
      "name": "burn",
      "outputs": [],
      "stateMutability": "nonpayable",
      "type": "function"
    },
    {
      "inputs": [
        {
          "internalType": "address",
          "name": "creditor",
          "type": "address"
        },
        {
          "internalType": "address",
          "name": "debtor",
          "type": "address"
        },
        {
          "internalType": "string",
          "name": "description",
          "type": "string"
        },
        {
          "internalType": "uint256",
          "name": "claimAmount",
          "type": "uint256"
        },
        {
          "internalType": "uint256",
          "name": "dueBy",
          "type": "uint256"
        },
        {
          "internalType": "address",
          "name": "claimToken",
          "type": "address"
        },
        {
          "components": [
            {
              "internalType": "bytes32",
              "name": "hash",
              "type": "bytes32"
            },
            {
              "internalType": "uint8",
              "name": "hashFunction",
              "type": "uint8"
            },
            {
              "internalType": "uint8",
              "name": "size",
              "type": "uint8"
            }
          ],
          "internalType": "struct Multihash",
          "name": "attachment",
          "type": "tuple"
        }
      ],
      "name": "createClaim",
      "outputs": [
        {
          "internalType": "uint256",
          "name": "",
          "type": "uint256"
        }
      ],
      "stateMutability": "nonpayable",
      "type": "function"
    },
    {
      "inputs": [
        {
          "internalType": "address",
          "name": "creditor",
          "type": "address"
        },
        {
          "internalType": "address",
          "name": "debtor",
          "type": "address"
        },
        {
          "internalType": "string",
          "name": "description",
          "type": "string"
        },
        {
          "internalType": "uint256",
          "name": "claimAmount",
          "type": "uint256"
        },
        {
          "internalType": "uint256",
          "name": "dueBy",
          "type": "uint256"
        },
        {
          "internalType": "address",
          "name": "claimToken",
          "type": "address"
        },
        {
          "components": [
            {
              "internalType": "bytes32",
              "name": "hash",
              "type": "bytes32"
            },
            {
              "internalType": "uint8",
              "name": "hashFunction",
              "type": "uint8"
            },
            {
              "internalType": "uint8",
              "name": "size",
              "type": "uint8"
            }
          ],
          "internalType": "struct Multihash",
          "name": "attachment",
          "type": "tuple"
        },
        {
          "internalType": "string",
          "name": "_tokenUri",
          "type": "string"
        }
      ],
      "name": "createClaimWithURI",
      "outputs": [
        {
          "internalType": "uint256",
          "name": "",
          "type": "uint256"
        }
      ],
      "stateMutability": "nonpayable",
      "type": "function"
    },
    {
      "inputs": [
        {
          "internalType": "uint256",
          "name": "tokenId",
          "type": "uint256"
        }
      ],
      "name": "getApproved",
      "outputs": [
        {
          "internalType": "address",
          "name": "",
          "type": "address"
        }
      ],
      "stateMutability": "view",
      "type": "function"
    },
    {
      "inputs": [
        {
          "internalType": "uint256",
          "name": "tokenId",
          "type": "uint256"
        }
      ],
      "name": "getClaim",
      "outputs": [
        {
          "components": [
            {
              "internalType": "uint256",
              "name": "claimAmount",
              "type": "uint256"
            },
            {
              "internalType": "uint256",
              "name": "paidAmount",
              "type": "uint256"
            },
            {
              "internalType": "enum Status",
              "name": "status",
              "type": "uint8"
            },
            {
              "internalType": "uint256",
              "name": "dueBy",
              "type": "uint256"
            },
            {
              "internalType": "address",
              "name": "debtor",
              "type": "address"
            },
            {
              "internalType": "address",
              "name": "claimToken",
              "type": "address"
            },
            {
              "components": [
                {
                  "internalType": "bytes32",
                  "name": "hash",
                  "type": "bytes32"
                },
                {
                  "internalType": "uint8",
                  "name": "hashFunction",
                  "type": "uint8"
                },
                {
                  "internalType": "uint8",
                  "name": "size",
                  "type": "uint8"
                }
              ],
              "internalType": "struct Multihash",
              "name": "attachment",
              "type": "tuple"
            }
          ],
          "internalType": "struct Claim",
          "name": "",
          "type": "tuple"
        }
      ],
      "stateMutability": "view",
      "type": "function"
    },
    {
      "inputs": [
        {
          "internalType": "address",
          "name": "owner",
          "type": "address"
        },
        {
          "internalType": "address",
          "name": "operator",
          "type": "address"
        }
      ],
      "name": "isApprovedForAll",
      "outputs": [
        {
          "internalType": "bool",
          "name": "",
          "type": "bool"
        }
      ],
      "stateMutability": "view",
      "type": "function"
    },
    {
      "inputs": [],
      "name": "name",
      "outputs": [
        {
          "internalType": "string",
          "name": "",
          "type": "string"
        }
      ],
      "stateMutability": "view",
      "type": "function"
    },
    {
      "inputs": [],
      "name": "nextClaimId",
      "outputs": [
        {
          "internalType": "uint256",
          "name": "",
          "type": "uint256"
        }
      ],
      "stateMutability": "view",
      "type": "function"
    },
    {
      "inputs": [],
      "name": "owner",
      "outputs": [
        {
          "internalType": "address",
          "name": "",
          "type": "address"
        }
      ],
      "stateMutability": "view",
      "type": "function"
    },
    {
      "inputs": [
        {
          "internalType": "uint256",
          "name": "tokenId",
          "type": "uint256"
        }
      ],
      "name": "ownerOf",
      "outputs": [
        {
          "internalType": "address",
          "name": "",
          "type": "address"
        }
      ],
      "stateMutability": "view",
      "type": "function"
    },
    {
      "inputs": [
        {
          "internalType": "uint256",
          "name": "tokenId",
          "type": "uint256"
        },
        {
          "internalType": "uint256",
          "name": "paymentAmount",
          "type": "uint256"
        }
      ],
      "name": "payClaim",
      "outputs": [],
      "stateMutability": "nonpayable",
      "type": "function"
    },
    {
      "inputs": [
        {
          "internalType": "uint256",
          "name": "tokenId",
          "type": "uint256"
        }
      ],
      "name": "rejectClaim",
      "outputs": [],
      "stateMutability": "nonpayable",
      "type": "function"
    },
    {
      "inputs": [],
      "name": "renounceOwnership",
      "outputs": [],
      "stateMutability": "nonpayable",
      "type": "function"
    },
    {
      "inputs": [
        {
          "internalType": "uint256",
          "name": "tokenId",
          "type": "uint256"
        }
      ],
      "name": "rescindClaim",
      "outputs": [],
      "stateMutability": "nonpayable",
      "type": "function"
    },
    {
      "inputs": [
        {
          "internalType": "address",
          "name": "from",
          "type": "address"
        },
        {
          "internalType": "address",
          "name": "to",
          "type": "address"
        },
        {
          "internalType": "uint256",
          "name": "tokenId",
          "type": "uint256"
        }
      ],
      "name": "safeTransferFrom",
      "outputs": [],
      "stateMutability": "nonpayable",
      "type": "function"
    },
    {
      "inputs": [
        {
          "internalType": "address",
          "name": "from",
          "type": "address"
        },
        {
          "internalType": "address",
          "name": "to",
          "type": "address"
        },
        {
          "internalType": "uint256",
          "name": "tokenId",
          "type": "uint256"
        },
        {
          "internalType": "bytes",
          "name": "_data",
          "type": "bytes"
        }
      ],
      "name": "safeTransferFrom",
      "outputs": [],
      "stateMutability": "nonpayable",
      "type": "function"
    },
    {
      "inputs": [
        {
          "internalType": "address",
          "name": "operator",
          "type": "address"
        },
        {
          "internalType": "bool",
          "name": "approved",
          "type": "bool"
        }
      ],
      "name": "setApprovalForAll",
      "outputs": [],
      "stateMutability": "nonpayable",
      "type": "function"
    },
    {
      "inputs": [
        {
          "internalType": "string",
          "name": "baseURI_",
          "type": "string"
        }
      ],
      "name": "setBaseURI",
      "outputs": [],
      "stateMutability": "nonpayable",
      "type": "function"
    },
    {
      "inputs": [
        {
          "internalType": "address",
          "name": "_bullaManager",
          "type": "address"
        }
      ],
      "name": "setBullaManager",
      "outputs": [],
      "stateMutability": "nonpayable",
      "type": "function"
    },
    {
      "inputs": [
        {
          "internalType": "bytes4",
          "name": "interfaceId",
          "type": "bytes4"
        }
      ],
      "name": "supportsInterface",
      "outputs": [
        {
          "internalType": "bool",
          "name": "",
          "type": "bool"
        }
      ],
      "stateMutability": "view",
      "type": "function"
    },
    {
      "inputs": [],
      "name": "symbol",
      "outputs": [
        {
          "internalType": "string",
          "name": "",
          "type": "string"
        }
      ],
      "stateMutability": "view",
      "type": "function"
    },
    {
      "inputs": [
        {
          "internalType": "uint256",
          "name": "tokenId",
          "type": "uint256"
        }
      ],
      "name": "tokenURI",
      "outputs": [
        {
          "internalType": "string",
          "name": "",
          "type": "string"
        }
      ],
      "stateMutability": "view",
      "type": "function"
    },
    {
      "inputs": [
        {
          "internalType": "address",
          "name": "from",
          "type": "address"
        },
        {
          "internalType": "address",
          "name": "to",
          "type": "address"
        },
        {
          "internalType": "uint256",
          "name": "tokenId",
          "type": "uint256"
        }
      ],
      "name": "transferFrom",
      "outputs": [],
      "stateMutability": "nonpayable",
      "type": "function"
    },
    {
      "inputs": [
        {
          "internalType": "address",
          "name": "newOwner",
          "type": "address"
        }
      ],
      "name": "transferOwnership",
      "outputs": [],
      "stateMutability": "nonpayable",
      "type": "function"
    }
  ],
  "bytecode": "0x60806040523480156200001157600080fd5b5060405162005b1838038062005b1883398181016040528101906200003791906200058a565b6040518060400160405280600d81526020017f42756c6c61436c61696d373231000000000000000000000000000000000000008152506040518060400160405280600581526020017f434c41494d000000000000000000000000000000000000000000000000000000815250620000c3620000b76200012160201b60201c565b6200012960201b60201c565b8160019080519060200190620000db92919062000445565b508060029080519060200190620000f492919062000445565b5050506200010882620001ed60201b60201c565b62000119816200037160201b60201c565b50506200087d565b600033905090565b60008060009054906101000a900473ffffffffffffffffffffffffffffffffffffffff169050816000806101000a81548173ffffffffffffffffffffffffffffffffffffffff021916908373ffffffffffffffffffffffffffffffffffffffff1602179055508173ffffffffffffffffffffffffffffffffffffffff168173ffffffffffffffffffffffffffffffffffffffff167f8be0079c531659141344cd1fd0a4f28419497f9722a3daafe3b4186f6b6457e060405160405180910390a35050565b620001fd6200012160201b60201c565b73ffffffffffffffffffffffffffffffffffffffff16620002236200041c60201b60201c565b73ffffffffffffffffffffffffffffffffffffffff16146200027c576040517f08c379a0000000000000000000000000000000000000000000000000000000008152600401620002739062000628565b60405180910390fd5b6000600a60009054906101000a900473ffffffffffffffffffffffffffffffffffffffff16905081600a60006101000a81548173ffffffffffffffffffffffffffffffffffffffff021916908373ffffffffffffffffffffffffffffffffffffffff160217905550600a60009054906101000a900473ffffffffffffffffffffffffffffffffffffffff1673ffffffffffffffffffffffffffffffffffffffff168173ffffffffffffffffffffffffffffffffffffffff167f68756449c91230029864f3a385c98edecfd7f9d6824b6fbff849e07500f96bd9426040516200036591906200064a565b60405180910390a35050565b620003816200012160201b60201c565b73ffffffffffffffffffffffffffffffffffffffff16620003a76200041c60201b60201c565b73ffffffffffffffffffffffffffffffffffffffff161462000400576040517f08c379a0000000000000000000000000000000000000000000000000000000008152600401620003f79062000628565b60405180910390fd5b80600890805190602001906200041892919062000445565b5050565b60008060009054906101000a900473ffffffffffffffffffffffffffffffffffffffff16905090565b82805462000453906200074b565b90600052602060002090601f016020900481019282620004775760008555620004c3565b82601f106200049257805160ff1916838001178555620004c3565b82800160010185558215620004c3579182015b82811115620004c2578251825591602001919060010190620004a5565b5b509050620004d29190620004d6565b5090565b5b80821115620004f1576000816000905550600101620004d7565b5090565b60006200050c620005068462000690565b62000667565b9050828152602081018484840111156200052b576200052a6200081a565b5b6200053884828562000715565b509392505050565b600081519050620005518162000863565b92915050565b600082601f8301126200056f576200056e62000815565b5b815162000581848260208601620004f5565b91505092915050565b60008060408385031215620005a457620005a362000824565b5b6000620005b48582860162000540565b925050602083015167ffffffffffffffff811115620005d857620005d76200081f565b5b620005e68582860162000557565b9150509250929050565b6000620005ff602083620006c6565b91506200060c826200083a565b602082019050919050565b62000622816200070b565b82525050565b600060208201905081810360008301526200064381620005f0565b9050919050565b600060208201905062000661600083018462000617565b92915050565b60006200067362000686565b905062000681828262000781565b919050565b6000604051905090565b600067ffffffffffffffff821115620006ae57620006ad620007e6565b5b620006b98262000829565b9050602081019050919050565b600082825260208201905092915050565b6000620006e482620006eb565b9050919050565b600073ffffffffffffffffffffffffffffffffffffffff82169050919050565b6000819050919050565b60005b838110156200073557808201518184015260208101905062000718565b8381111562000745576000848401525b50505050565b600060028204905060018216806200076457607f821691505b602082108114156200077b576200077a620007b7565b5b50919050565b6200078c8262000829565b810181811067ffffffffffffffff82111715620007ae57620007ad620007e6565b5b80604052505050565b7f4e487b7100000000000000000000000000000000000000000000000000000000600052602260045260246000fd5b7f4e487b7100000000000000000000000000000000000000000000000000000000600052604160045260246000fd5b600080fd5b600080fd5b600080fd5b600080fd5b6000601f19601f8301169050919050565b7f4f776e61626c653a2063616c6c6572206973206e6f7420746865206f776e6572600082015250565b6200086e81620006d7565b81146200087a57600080fd5b50565b61528b806200088d6000396000f3fe608060405234801561001057600080fd5b50600436106101c45760003560e01c8063715018a6116100f9578063b88d4fde11610097578063c99c444811610071578063c99c444814610503578063e8042ce51461051f578063e985e9c51461053b578063f2fde38b1461056b576101c4565b8063b88d4fde14610487578063c87b56dd146104a3578063c92aeec1146104d3576101c4565b8063987b22be116100d3578063987b22be14610401578063a0021cf114610431578063a22cb4651461044f578063af9486bd1461046b576101c4565b8063715018a6146103bb5780638da5cb5b146103c557806395d89b41146103e3576101c4565b806342966c68116101665780635e39986f116101405780635e39986f1461031f5780636352211e1461033d5780636c0360eb1461036d57806370a082311461038b576101c4565b806342966c68146102b757806355f804b3146102d35780635aef2447146102ef576101c4565b8063095ea7b3116101a2578063095ea7b314610247578063203411011461026357806323b872dd1461027f57806342842e0e1461029b576101c4565b806301ffc9a7146101c957806306fdde03146101f9578063081812fc14610217575b600080fd5b6101e360048036038101906101de9190613c13565b610587565b6040516101f091906143fd565b60405180910390f35b610201610669565b60405161020e9190614418565b60405180910390f35b610231600480360381019061022c9190613ce3565b6106fb565b60405161023e9190614287565b60405180910390f35b610261600480360381019061025c9190613b66565b610780565b005b61027d60048036038101906102789190613ce3565b610898565b005b61029960048036038101906102949190613a50565b610a76565b005b6102b560048036038101906102b09190613a50565b610ad6565b005b6102d160048036038101906102cc9190613ce3565b610af6565b005b6102ed60048036038101906102e89190613c6d565b610b7c565b005b61030960048036038101906103049190613ce3565b610c12565b60405161031691906146da565b60405180910390f35b610327610d9c565b6040516103349190614287565b60405180910390f35b61035760048036038101906103529190613ce3565b610dc2565b6040516103649190614287565b60405180910390f35b610375610e74565b6040516103829190614418565b60405180910390f35b6103a560048036038101906103a09190613831565b610f02565b6040516103b291906146f6565b60405180910390f35b6103c3610fba565b005b6103cd611042565b6040516103da9190614287565b60405180910390f35b6103eb61106b565b6040516103f89190614418565b60405180910390f35b61041b6004803603810190610416919061389e565b6110fd565b60405161042891906146f6565b60405180910390f35b610439611120565b60405161044691906146f6565b60405180910390f35b61046960048036038101906104649190613b26565b61113d565b005b61048560048036038101906104809190613831565b6112be565b005b6104a1600480360381019061049c9190613aa3565b61142d565b005b6104bd60048036038101906104b89190613ce3565b61148f565b6040516104ca9190614418565b60405180910390f35b6104ed60048036038101906104e8919061395d565b6115e1565b6040516104fa91906146f6565b60405180910390f35b61051d60048036038101906105189190613d10565b611654565b005b61053960048036038101906105349190613ce3565b611b2f565b005b6105556004803603810190610550919061385e565b611cdf565b60405161056291906143fd565b60405180910390f35b61058560048036038101906105809190613831565b611d73565b005b60007f80ac58cd000000000000000000000000000000000000000000000000000000007bffffffffffffffffffffffffffffffffffffffffffffffffffffffff1916827bffffffffffffffffffffffffffffffffffffffffffffffffffffffff1916148061065257507f5b5e139f000000000000000000000000000000000000000000000000000000007bffffffffffffffffffffffffffffffffffffffffffffffffffffffff1916827bffffffffffffffffffffffffffffffffffffffffffffffffffffffff1916145b80610662575061066182611e6b565b5b9050919050565b606060018054610678906149ca565b80601f01602080910402602001604051908101604052809291908181526020018280546106a4906149ca565b80156106f15780601f106106c6576101008083540402835291602001916106f1565b820191906000526020600020905b8154815290600101906020018083116106d457829003601f168201915b5050505050905090565b600061070682611ed5565b610745576040517f08c379a000000000000000000000000000000000000000000000000000000000815260040161073c906145da565b60405180910390fd5b6005600083815260200190815260200160002060009054906101000a900473ffffffffffffffffffffffffffffffffffffffff169050919050565b600061078b82610dc2565b90508073ffffffffffffffffffffffffffffffffffffffff168373ffffffffffffffffffffffffffffffffffffffff1614156107fc576040517f08c379a00000000000000000000000000000000000000000000000000000000081526004016107f39061465a565b60405180910390fd5b8073ffffffffffffffffffffffffffffffffffffffff1661081b611f41565b73ffffffffffffffffffffffffffffffffffffffff16148061084a575061084981610844611f41565b611cdf565b5b610889576040517f08c379a00000000000000000000000000000000000000000000000000000000081526004016108809061451a565b60405180910390fd5b6108938383611f49565b505050565b803373ffffffffffffffffffffffffffffffffffffffff16600b600083815260200190815260200160002060040160009054906101000a900473ffffffffffffffffffffffffffffffffffffffff1673ffffffffffffffffffffffffffffffffffffffff161461093f57336040517f21b03b8d0000000000000000000000000000000000000000000000000000000081526004016109369190614287565b60405180910390fd5b816000600481111561095457610953614b05565b5b600b600083815260200190815260200160002060020160009054906101000a900460ff16600481111561098a57610989614b05565b5b146109c1576040517f48f8d3b100000000000000000000000000000000000000000000000000000000815260040160405180910390fd5b6003600b600085815260200190815260200160002060020160006101000a81548160ff021916908360048111156109fb576109fa614b05565b5b021790555082600a60009054906101000a900473ffffffffffffffffffffffffffffffffffffffff1673ffffffffffffffffffffffffffffffffffffffff167f6dac2c2cd2246c509966cc98ed16a65cab4a224ed77453b2c1014a58eafa8aeb42604051610a6991906146f6565b60405180910390a3505050565b610a87610a81611f41565b82612002565b610ac6576040517f08c379a0000000000000000000000000000000000000000000000000000000008152600401610abd9061467a565b60405180910390fd5b610ad18383836120e0565b505050565b610af18383836040518060200160405280600081525061142d565b505050565b803373ffffffffffffffffffffffffffffffffffffffff16610b1782610dc2565b73ffffffffffffffffffffffffffffffffffffffff1614610b6f57336040517fb56aedb3000000000000000000000000000000000000000000000000000000008152600401610b669190614287565b60405180910390fd5b610b788261233c565b5050565b610b84611f41565b73ffffffffffffffffffffffffffffffffffffffff16610ba2611042565b73ffffffffffffffffffffffffffffffffffffffff1614610bf8576040517f08c379a0000000000000000000000000000000000000000000000000000000008152600401610bef906145fa565b60405180910390fd5b8060089080519060200190610c0e929190613418565b5050565b610c1a61349e565b600b60008381526020019081526020016000206040518060e001604052908160008201548152602001600182015481526020016002820160009054906101000a900460ff166004811115610c7157610c70614b05565b5b6004811115610c8357610c82614b05565b5b8152602001600382015481526020016004820160009054906101000a900473ffffffffffffffffffffffffffffffffffffffff1673ffffffffffffffffffffffffffffffffffffffff1673ffffffffffffffffffffffffffffffffffffffff1681526020016005820160009054906101000a900473ffffffffffffffffffffffffffffffffffffffff1673ffffffffffffffffffffffffffffffffffffffff1673ffffffffffffffffffffffffffffffffffffffff16815260200160068201604051806060016040529081600082015481526020016001820160009054906101000a900460ff1660ff1660ff1681526020016001820160019054906101000a900460ff1660ff1660ff1681525050815250509050919050565b600a60009054906101000a900473ffffffffffffffffffffffffffffffffffffffff1681565b6000806003600084815260200190815260200160002060009054906101000a900473ffffffffffffffffffffffffffffffffffffffff169050600073ffffffffffffffffffffffffffffffffffffffff168173ffffffffffffffffffffffffffffffffffffffff161415610e6b576040517f08c379a0000000000000000000000000000000000000000000000000000000008152600401610e629061455a565b60405180910390fd5b80915050919050565b60088054610e81906149ca565b80601f0160208091040260200160405190810160405280929190818152602001828054610ead906149ca565b8015610efa5780601f10610ecf57610100808354040283529160200191610efa565b820191906000526020600020905b815481529060010190602001808311610edd57829003601f168201915b505050505081565b60008073ffffffffffffffffffffffffffffffffffffffff168273ffffffffffffffffffffffffffffffffffffffff161415610f73576040517f08c379a0000000000000000000000000000000000000000000000000000000008152600401610f6a9061453a565b60405180910390fd5b600460008373ffffffffffffffffffffffffffffffffffffffff1673ffffffffffffffffffffffffffffffffffffffff168152602001908152602001600020549050919050565b610fc2611f41565b73ffffffffffffffffffffffffffffffffffffffff16610fe0611042565b73ffffffffffffffffffffffffffffffffffffffff1614611036576040517f08c379a000000000000000000000000000000000000000000000000000000000815260040161102d906145fa565b60405180910390fd5b611040600061238f565b565b60008060009054906101000a900473ffffffffffffffffffffffffffffffffffffffff16905090565b60606002805461107a906149ca565b80601f01602080910402602001604051908101604052809291908181526020018280546110a6906149ca565b80156110f35780601f106110c8576101008083540402835291602001916110f3565b820191906000526020600020905b8154815290600101906020018083116110d657829003601f168201915b5050505050905090565b60008061110f89898989898989612453565b905080915050979650505050505050565b6000600161112e60096128a0565b611138919061481d565b905090565b611145611f41565b73ffffffffffffffffffffffffffffffffffffffff168273ffffffffffffffffffffffffffffffffffffffff1614156111b3576040517f08c379a00000000000000000000000000000000000000000000000000000000081526004016111aa906144ba565b60405180910390fd5b80600660006111c0611f41565b73ffffffffffffffffffffffffffffffffffffffff1673ffffffffffffffffffffffffffffffffffffffff16815260200190815260200160002060008473ffffffffffffffffffffffffffffffffffffffff1673ffffffffffffffffffffffffffffffffffffffff16815260200190815260200160002060006101000a81548160ff0219169083151502179055508173ffffffffffffffffffffffffffffffffffffffff1661126d611f41565b73ffffffffffffffffffffffffffffffffffffffff167f17307eab39ab6107e8899845ad3d59bd9653f200f220920489ca2b5937696c31836040516112b291906143fd565b60405180910390a35050565b6112c6611f41565b73ffffffffffffffffffffffffffffffffffffffff166112e4611042565b73ffffffffffffffffffffffffffffffffffffffff161461133a576040517f08c379a0000000000000000000000000000000000000000000000000000000008152600401611331906145fa565b60405180910390fd5b6000600a60009054906101000a900473ffffffffffffffffffffffffffffffffffffffff16905081600a60006101000a81548173ffffffffffffffffffffffffffffffffffffffff021916908373ffffffffffffffffffffffffffffffffffffffff160217905550600a60009054906101000a900473ffffffffffffffffffffffffffffffffffffffff1673ffffffffffffffffffffffffffffffffffffffff168173ffffffffffffffffffffffffffffffffffffffff167f68756449c91230029864f3a385c98edecfd7f9d6824b6fbff849e07500f96bd94260405161142191906146f6565b60405180910390a35050565b61143e611438611f41565b83612002565b61147d576040517f08c379a00000000000000000000000000000000000000000000000000000000081526004016114749061467a565b60405180910390fd5b611489848484846128ae565b50505050565b606061149a82611ed5565b6114d9576040517f08c379a00000000000000000000000000000000000000000000000000000000081526004016114d0906145ba565b60405180910390fd5b60006007600084815260200190815260200160002080546114f9906149ca565b80601f0160208091040260200160405190810160405280929190818152602001828054611525906149ca565b80156115725780601f1061154757610100808354040283529160200191611572565b820191906000526020600020905b81548152906001019060200180831161155557829003601f168201915b50505050509050600061158361290a565b90506000815114156115995781925050506115dc565b6000825111156115ce5780826040516020016115b6929190614263565b604051602081830303815290604052925050506115dc565b6115d78461299c565b925050505b919050565b6000806115f38b8b8b8b8b8b8b612453565b90506116438185858080601f016020809104026020016040519081016040528093929190818152602001838380828437600081840152601f19601f82011690508083019250505050505050612a43565b809150509998505050505050505050565b816000600481111561166957611668614b05565b5b600b600083815260200190815260200160002060020160009054906101000a900460ff16600481111561169f5761169e614b05565b5b141580156116f55750600160048111156116bc576116bb614b05565b5b600b600083815260200190815260200160002060020160009054906101000a900460ff1660048111156116f2576116f1614b05565b5b14155b1561172c576040517f9d7505b400000000000000000000000000000000000000000000000000000000815260040160405180910390fd5b6000821415611767576040517f8565fcfe00000000000000000000000000000000000000000000000000000000815260040160405180910390fd5b61177083611ed5565b6117a6576040517fc4ee946700000000000000000000000000000000000000000000000000000000815260040160405180910390fd5b60006117b184610c12565b905060006117be85610dc2565b90506000826020015183600001516117d691906148a4565b90506000818610156117e857856117ea565b815b90508360000151818560200151611801919061481d565b1461183b5760018460400190600481111561181f5761181e614b05565b5b9081600481111561183357611832614b05565b5b81525061186c565b60028460400190600481111561185457611853614b05565b5b9081600481111561186857611867614b05565b5b8152505b5080600b60008981526020019081526020016000206001016000828254611893919061481d565b925050819055508360400151600b600089815260200190815260200160002060020160006101000a81548160ff021916908360048111156118d7576118d6614b05565b5b0217905550600080600a60009054906101000a900473ffffffffffffffffffffffffffffffffffffffff1673ffffffffffffffffffffffffffffffffffffffff16636bb9945233856040518363ffffffff1660e01b815260040161193c9291906143d4565b604080518083038186803b15801561195357600080fd5b505afa158015611967573d6000803e3d6000fd5b505050506040513d601f19601f8201168201806040525081019061198b9190613ba6565b915091506119cb338683866119a091906148a4565b8960a0015173ffffffffffffffffffffffffffffffffffffffff16612ab7909392919063ffffffff16565b6000811115611a0657611a053383838960a0015173ffffffffffffffffffffffffffffffffffffffff16612ab7909392919063ffffffff16565b5b856080015173ffffffffffffffffffffffffffffffffffffffff1689600a60009054906101000a900473ffffffffffffffffffffffffffffffffffffffff1673ffffffffffffffffffffffffffffffffffffffff167f6b70980886b3f210dff54c3f272d310c29fdf8bb69228630ecda21ac0be9fa5a33328d42604051611a90949392919061438f565b60405180910390a48173ffffffffffffffffffffffffffffffffffffffff1689600a60009054906101000a900473ffffffffffffffffffffffffffffffffffffffff1673ffffffffffffffffffffffffffffffffffffffff167fc408e942eca1f64c9012c5fb6383258c0137b350771f4fa85ff5e818cd5e9c6e8b8542604051611b1c93929190614711565b60405180910390a4505050505050505050565b803373ffffffffffffffffffffffffffffffffffffffff16611b5082610dc2565b73ffffffffffffffffffffffffffffffffffffffff1614611ba857336040517fb56aedb3000000000000000000000000000000000000000000000000000000008152600401611b9f9190614287565b60405180910390fd5b8160006004811115611bbd57611bbc614b05565b5b600b600083815260200190815260200160002060020160009054906101000a900460ff166004811115611bf357611bf2614b05565b5b14611c2a576040517f48f8d3b100000000000000000000000000000000000000000000000000000000815260040160405180910390fd5b6004600b600085815260200190815260200160002060020160006101000a81548160ff02191690836004811115611c6457611c63614b05565b5b021790555082600a60009054906101000a900473ffffffffffffffffffffffffffffffffffffffff1673ffffffffffffffffffffffffffffffffffffffff167fe9b9c96d65a95df345b53f3f8bbc04f69190dae380948945886692e71a1ffa7942604051611cd291906146f6565b60405180910390a3505050565b6000600660008473ffffffffffffffffffffffffffffffffffffffff1673ffffffffffffffffffffffffffffffffffffffff16815260200190815260200160002060008373ffffffffffffffffffffffffffffffffffffffff1673ffffffffffffffffffffffffffffffffffffffff16815260200190815260200160002060009054906101000a900460ff16905092915050565b611d7b611f41565b73ffffffffffffffffffffffffffffffffffffffff16611d99611042565b73ffffffffffffffffffffffffffffffffffffffff1614611def576040517f08c379a0000000000000000000000000000000000000000000000000000000008152600401611de6906145fa565b60405180910390fd5b600073ffffffffffffffffffffffffffffffffffffffff168173ffffffffffffffffffffffffffffffffffffffff161415611e5f576040517f08c379a0000000000000000000000000000000000000000000000000000000008152600401611e569061445a565b60405180910390fd5b611e688161238f565b50565b60007f01ffc9a7000000000000000000000000000000000000000000000000000000007bffffffffffffffffffffffffffffffffffffffffffffffffffffffff1916827bffffffffffffffffffffffffffffffffffffffffffffffffffffffff1916149050919050565b60008073ffffffffffffffffffffffffffffffffffffffff166003600084815260200190815260200160002060009054906101000a900473ffffffffffffffffffffffffffffffffffffffff1673ffffffffffffffffffffffffffffffffffffffff1614159050919050565b600033905090565b816005600083815260200190815260200160002060006101000a81548173ffffffffffffffffffffffffffffffffffffffff021916908373ffffffffffffffffffffffffffffffffffffffff160217905550808273ffffffffffffffffffffffffffffffffffffffff16611fbc83610dc2565b73ffffffffffffffffffffffffffffffffffffffff167f8c5be1e5ebec7d5bd14f71427d1e84f3dd0314c0f7b2291e5b200ac8c7c3b92560405160405180910390a45050565b600061200d82611ed5565b61204c576040517f08c379a0000000000000000000000000000000000000000000000000000000008152600401612043906144fa565b60405180910390fd5b600061205783610dc2565b90508073ffffffffffffffffffffffffffffffffffffffff168473ffffffffffffffffffffffffffffffffffffffff1614806120c657508373ffffffffffffffffffffffffffffffffffffffff166120ae846106fb565b73ffffffffffffffffffffffffffffffffffffffff16145b806120d757506120d68185611cdf565b5b91505092915050565b8273ffffffffffffffffffffffffffffffffffffffff1661210082610dc2565b73ffffffffffffffffffffffffffffffffffffffff1614612156576040517f08c379a000000000000000000000000000000000000000000000000000000000815260040161214d9061461a565b60405180910390fd5b600073ffffffffffffffffffffffffffffffffffffffff168273ffffffffffffffffffffffffffffffffffffffff1614156121c6576040517f08c379a00000000000000000000000000000000000000000000000000000000081526004016121bd9061449a565b60405180910390fd5b6121d1838383612b40565b6121dc600082611f49565b6001600460008573ffffffffffffffffffffffffffffffffffffffff1673ffffffffffffffffffffffffffffffffffffffff168152602001908152602001600020600082825461222c91906148a4565b925050819055506001600460008473ffffffffffffffffffffffffffffffffffffffff1673ffffffffffffffffffffffffffffffffffffffff1681526020019081526020016000206000828254612283919061481d565b92505081905550816003600083815260200190815260200160002060006101000a81548173ffffffffffffffffffffffffffffffffffffffff021916908373ffffffffffffffffffffffffffffffffffffffff160217905550808273ffffffffffffffffffffffffffffffffffffffff168473ffffffffffffffffffffffffffffffffffffffff167fddf252ad1be2c89b69c2b068fc378daa952ba7f163c4a11628f55a4df523b3ef60405160405180910390a4505050565b61234581612b45565b6000600760008381526020019081526020016000208054612365906149ca565b90501461238c5760076000828152602001908152602001600020600061238b919061351f565b5b50565b60008060009054906101000a900473ffffffffffffffffffffffffffffffffffffffff169050816000806101000a81548173ffffffffffffffffffffffffffffffffffffffff021916908373ffffffffffffffffffffffffffffffffffffffff1602179055508173ffffffffffffffffffffffffffffffffffffffff168173ffffffffffffffffffffffffffffffffffffffff167f8be0079c531659141344cd1fd0a4f28419497f9722a3daafe3b4186f6b6457e060405160405180910390a35050565b60008073ffffffffffffffffffffffffffffffffffffffff168873ffffffffffffffffffffffffffffffffffffffff1614806124bb5750600073ffffffffffffffffffffffffffffffffffffffff168773ffffffffffffffffffffffffffffffffffffffff16145b156124f2576040517fd92e233d00000000000000000000000000000000000000000000000000000000815260040160405180910390fd5b600085141561252d576040517f8565fcfe00000000000000000000000000000000000000000000000000000000815260040160405180910390fd5b42841015612567576040517fd3f6d9da00000000000000000000000000000000000000000000000000000000815260040160405180910390fd5b6125868373ffffffffffffffffffffffffffffffffffffffff16612c56565b6125bc576040517fb491a3d800000000000000000000000000000000000000000000000000000000815260040160405180910390fd5b6125c66009612c69565b60006125d260096128a0565b90506125de8982612c7f565b6125e661349e565b88816080019073ffffffffffffffffffffffffffffffffffffffff16908173ffffffffffffffffffffffffffffffffffffffff1681525050868160000181815250508581606001818152505060008160400190600481111561264b5761264a614b05565b5b9081600481111561265f5761265e614b05565b5b81525050848160a0019073ffffffffffffffffffffffffffffffffffffffff16908173ffffffffffffffffffffffffffffffffffffffff1681525050838036038101906126ac9190613cb6565b8160c0018190525080600b6000848152602001908152602001600020600082015181600001556020820151816001015560408201518160020160006101000a81548160ff0219169083600481111561270757612706614b05565b5b02179055506060820151816003015560808201518160040160006101000a81548173ffffffffffffffffffffffffffffffffffffffff021916908373ffffffffffffffffffffffffffffffffffffffff16021790555060a08201518160050160006101000a81548173ffffffffffffffffffffffffffffffffffffffff021916908373ffffffffffffffffffffffffffffffffffffffff16021790555060c0820151816006016000820151816000015560208201518160010160006101000a81548160ff021916908360ff16021790555060408201518160010160016101000a81548160ff021916908360ff16021790555050509050508873ffffffffffffffffffffffffffffffffffffffff168a73ffffffffffffffffffffffffffffffffffffffff16837f2c26753faf099ab143b808c53a33347c87ef5c63458fd8ed4e2437add36f4f0a600a60009054906101000a900473ffffffffffffffffffffffffffffffffffffffff1633328e8842604051612888969594939291906142a2565b60405180910390a48192505050979650505050505050565b600081600001549050919050565b6128b98484846120e0565b6128c584848484612c9d565b612904576040517f08c379a00000000000000000000000000000000000000000000000000000000081526004016128fb9061443a565b60405180910390fd5b50505050565b606060088054612919906149ca565b80601f0160208091040260200160405190810160405280929190818152602001828054612945906149ca565b80156129925780601f1061296757610100808354040283529160200191612992565b820191906000526020600020905b81548152906001019060200180831161297557829003601f168201915b5050505050905090565b60606129a782611ed5565b6129e6576040517f08c379a00000000000000000000000000000000000000000000000000000000081526004016129dd9061463a565b60405180910390fd5b60006129f061290a565b90506000815111612a105760405180602001604052806000815250612a3b565b80612a1a84612e34565b604051602001612a2b929190614263565b6040516020818303038152906040525b915050919050565b612a4c82611ed5565b612a8b576040517f08c379a0000000000000000000000000000000000000000000000000000000008152600401612a829061457a565b60405180910390fd5b80600760008481526020019081526020016000209080519060200190612ab2929190613418565b505050565b612b3a846323b872dd60e01b858585604051602401612ad89392919061430c565b604051602081830303815290604052907bffffffffffffffffffffffffffffffffffffffffffffffffffffffff19166020820180517bffffffffffffffffffffffffffffffffffffffffffffffffffffffff8381831617835250505050612f95565b50505050565b505050565b6000612b5082610dc2565b9050612b5e81600084612b40565b612b69600083611f49565b6001600460008373ffffffffffffffffffffffffffffffffffffffff1673ffffffffffffffffffffffffffffffffffffffff1681526020019081526020016000206000828254612bb991906148a4565b925050819055506003600083815260200190815260200160002060006101000a81549073ffffffffffffffffffffffffffffffffffffffff021916905581600073ffffffffffffffffffffffffffffffffffffffff168273ffffffffffffffffffffffffffffffffffffffff167fddf252ad1be2c89b69c2b068fc378daa952ba7f163c4a11628f55a4df523b3ef60405160405180910390a45050565b600080823b905060008111915050919050565b6001816000016000828254019250508190555050565b612c9982826040518060200160405280600081525061305c565b5050565b6000612cbe8473ffffffffffffffffffffffffffffffffffffffff16612c56565b15612e27578373ffffffffffffffffffffffffffffffffffffffff1663150b7a02612ce7611f41565b8786866040518563ffffffff1660e01b8152600401612d099493929190614343565b602060405180830381600087803b158015612d2357600080fd5b505af1925050508015612d5457506040513d601f19601f82011682018060405250810190612d519190613c40565b60015b612dd7573d8060008114612d84576040519150601f19603f3d011682016040523d82523d6000602084013e612d89565b606091505b50600081511415612dcf576040517f08c379a0000000000000000000000000000000000000000000000000000000008152600401612dc69061443a565b60405180910390fd5b805181602001fd5b63150b7a0260e01b7bffffffffffffffffffffffffffffffffffffffffffffffffffffffff1916817bffffffffffffffffffffffffffffffffffffffffffffffffffffffff191614915050612e2c565b600190505b949350505050565b60606000821415612e7c576040518060400160405280600181526020017f30000000000000000000000000000000000000000000000000000000000000008152509050612f90565b600082905060005b60008214612eae578080612e9790614a2d565b915050600a82612ea79190614873565b9150612e84565b60008167ffffffffffffffff811115612eca57612ec9614b92565b5b6040519080825280601f01601f191660200182016040528015612efc5781602001600182028036833780820191505090505b5090505b60008514612f8957600182612f1591906148a4565b9150600a85612f249190614a76565b6030612f30919061481d565b60f81b818381518110612f4657612f45614b63565b5b60200101907effffffffffffffffffffffffffffffffffffffffffffffffffffffffffffff1916908160001a905350600a85612f829190614873565b9450612f00565b8093505050505b919050565b6000612ff7826040518060400160405280602081526020017f5361666545524332303a206c6f772d6c6576656c2063616c6c206661696c65648152508573ffffffffffffffffffffffffffffffffffffffff166130b79092919063ffffffff16565b905060008151111561305757808060200190518101906130179190613be6565b613056576040517f08c379a000000000000000000000000000000000000000000000000000000000815260040161304d906146ba565b60405180910390fd5b5b505050565b61306683836130cf565b6130736000848484612c9d565b6130b2576040517f08c379a00000000000000000000000000000000000000000000000000000000081526004016130a99061443a565b60405180910390fd5b505050565b60606130c6848460008561329d565b90509392505050565b600073ffffffffffffffffffffffffffffffffffffffff168273ffffffffffffffffffffffffffffffffffffffff16141561313f576040517f08c379a00000000000000000000000000000000000000000000000000000000081526004016131369061459a565b60405180910390fd5b61314881611ed5565b15613188576040517f08c379a000000000000000000000000000000000000000000000000000000000815260040161317f9061447a565b60405180910390fd5b61319460008383612b40565b6001600460008473ffffffffffffffffffffffffffffffffffffffff1673ffffffffffffffffffffffffffffffffffffffff16815260200190815260200160002060008282546131e4919061481d565b92505081905550816003600083815260200190815260200160002060006101000a81548173ffffffffffffffffffffffffffffffffffffffff021916908373ffffffffffffffffffffffffffffffffffffffff160217905550808273ffffffffffffffffffffffffffffffffffffffff16600073ffffffffffffffffffffffffffffffffffffffff167fddf252ad1be2c89b69c2b068fc378daa952ba7f163c4a11628f55a4df523b3ef60405160405180910390a45050565b6060824710156132e2576040517f08c379a00000000000000000000000000000000000000000000000000000000081526004016132d9906144da565b60405180910390fd5b6132eb85612c56565b61332a576040517f08c379a00000000000000000000000000000000000000000000000000000000081526004016133219061469a565b60405180910390fd5b6000808673ffffffffffffffffffffffffffffffffffffffff168587604051613353919061424c565b60006040518083038185875af1925050503d8060008114613390576040519150601f19603f3d011682016040523d82523d6000602084013e613395565b606091505b50915091506133a58282866133b1565b92505050949350505050565b606083156133c157829050613411565b6000835111156133d45782518084602001fd5b816040517f08c379a00000000000000000000000000000000000000000000000000000000081526004016134089190614418565b60405180910390fd5b9392505050565b828054613424906149ca565b90600052602060002090601f016020900481019282613446576000855561348d565b82601f1061345f57805160ff191683800117855561348d565b8280016001018555821561348d579182015b8281111561348c578251825591602001919060010190613471565b5b50905061349a919061355f565b5090565b6040518060e001604052806000815260200160008152602001600060048111156134cb576134ca614b05565b5b815260200160008152602001600073ffffffffffffffffffffffffffffffffffffffff168152602001600073ffffffffffffffffffffffffffffffffffffffff16815260200161351961357c565b81525090565b50805461352b906149ca565b6000825580601f1061353d575061355c565b601f01602090049060005260206000209081019061355b919061355f565b5b50565b5b80821115613578576000816000905550600101613560565b5090565b604051806060016040528060008019168152602001600060ff168152602001600060ff1681525090565b60006135b96135b48461476d565b614748565b9050828152602081018484840111156135d5576135d4614bda565b5b6135e0848285614988565b509392505050565b60006135fb6135f68461479e565b614748565b90508281526020810184848401111561361757613616614bda565b5b613622848285614988565b509392505050565b600081359050613639816151cb565b92915050565b60008151905061364e816151cb565b92915050565b600081359050613663816151e2565b92915050565b600081519050613678816151e2565b92915050565b60008135905061368d816151f9565b92915050565b6000813590506136a281615210565b92915050565b6000815190506136b781615210565b92915050565b600082601f8301126136d2576136d1614bc6565b5b81356136e28482602086016135a6565b91505092915050565b60008083601f84011261370157613700614bc6565b5b8235905067ffffffffffffffff81111561371e5761371d614bc1565b5b60208301915083600182028301111561373a57613739614bd5565b5b9250929050565b600082601f83011261375657613755614bc6565b5b81356137668482602086016135e8565b91505092915050565b60006060828403121561378557613784614bcb565b5b81905092915050565b6000606082840312156137a4576137a3614bd0565b5b6137ae6060614748565b905060006137be8482850161367e565b60008301525060206137d28482850161381c565b60208301525060406137e68482850161381c565b60408301525092915050565b60008135905061380181615227565b92915050565b60008151905061381681615227565b92915050565b60008135905061382b8161523e565b92915050565b60006020828403121561384757613846614be4565b5b60006138558482850161362a565b91505092915050565b6000806040838503121561387557613874614be4565b5b60006138838582860161362a565b92505060206138948582860161362a565b9150509250929050565b6000806000806000806000610120888a0312156138be576138bd614be4565b5b60006138cc8a828b0161362a565b97505060206138dd8a828b0161362a565b965050604088013567ffffffffffffffff8111156138fe576138fd614bdf565b5b61390a8a828b01613741565b955050606061391b8a828b016137f2565b945050608061392c8a828b016137f2565b93505060a061393d8a828b0161362a565b92505060c061394e8a828b0161376f565b91505092959891949750929550565b60008060008060008060008060006101408a8c0312156139805761397f614be4565b5b600061398e8c828d0161362a565b995050602061399f8c828d0161362a565b98505060408a013567ffffffffffffffff8111156139c0576139bf614bdf565b5b6139cc8c828d01613741565b97505060606139dd8c828d016137f2565b96505060806139ee8c828d016137f2565b95505060a06139ff8c828d0161362a565b94505060c0613a108c828d0161376f565b9350506101208a013567ffffffffffffffff811115613a3257613a31614bdf565b5b613a3e8c828d016136eb565b92509250509295985092959850929598565b600080600060608486031215613a6957613a68614be4565b5b6000613a778682870161362a565b9350506020613a888682870161362a565b9250506040613a99868287016137f2565b9150509250925092565b60008060008060808587031215613abd57613abc614be4565b5b6000613acb8782880161362a565b9450506020613adc8782880161362a565b9350506040613aed878288016137f2565b925050606085013567ffffffffffffffff811115613b0e57613b0d614bdf565b5b613b1a878288016136bd565b91505092959194509250565b60008060408385031215613b3d57613b3c614be4565b5b6000613b4b8582860161362a565b9250506020613b5c85828601613654565b9150509250929050565b60008060408385031215613b7d57613b7c614be4565b5b6000613b8b8582860161362a565b9250506020613b9c858286016137f2565b9150509250929050565b60008060408385031215613bbd57613bbc614be4565b5b6000613bcb8582860161363f565b9250506020613bdc85828601613807565b9150509250929050565b600060208284031215613bfc57613bfb614be4565b5b6000613c0a84828501613669565b91505092915050565b600060208284031215613c2957613c28614be4565b5b6000613c3784828501613693565b91505092915050565b600060208284031215613c5657613c55614be4565b5b6000613c64848285016136a8565b91505092915050565b600060208284031215613c8357613c82614be4565b5b600082013567ffffffffffffffff811115613ca157613ca0614bdf565b5b613cad84828501613741565b91505092915050565b600060608284031215613ccc57613ccb614be4565b5b6000613cda8482850161378e565b91505092915050565b600060208284031215613cf957613cf8614be4565b5b6000613d07848285016137f2565b91505092915050565b60008060408385031215613d2757613d26614be4565b5b6000613d35858286016137f2565b9250506020613d46858286016137f2565b9150509250929050565b613d59816148d8565b82525050565b613d68816148d8565b82525050565b613d77816148ea565b82525050565b613d86816148f6565b82525050565b6000613d97826147cf565b613da181856147e5565b9350613db1818560208601614997565b613dba81614be9565b840191505092915050565b6000613dd0826147cf565b613dda81856147f6565b9350613dea818560208601614997565b80840191505092915050565b613dff81614976565b82525050565b6000613e10826147da565b613e1a8185614801565b9350613e2a818560208601614997565b613e3381614be9565b840191505092915050565b6000613e49826147da565b613e538185614812565b9350613e63818560208601614997565b80840191505092915050565b6000613e7c603283614801565b9150613e8782614bfa565b604082019050919050565b6000613e9f602683614801565b9150613eaa82614c49565b604082019050919050565b6000613ec2601c83614801565b9150613ecd82614c98565b602082019050919050565b6000613ee5602483614801565b9150613ef082614cc1565b604082019050919050565b6000613f08601983614801565b9150613f1382614d10565b602082019050919050565b6000613f2b602683614801565b9150613f3682614d39565b604082019050919050565b6000613f4e602c83614801565b9150613f5982614d88565b604082019050919050565b6000613f71603883614801565b9150613f7c82614dd7565b604082019050919050565b6000613f94602a83614801565b9150613f9f82614e26565b604082019050919050565b6000613fb7602983614801565b9150613fc282614e75565b604082019050919050565b6000613fda602e83614801565b9150613fe582614ec4565b604082019050919050565b6000613ffd602083614801565b915061400882614f13565b602082019050919050565b6000614020603183614801565b915061402b82614f3c565b604082019050919050565b6000614043602c83614801565b915061404e82614f8b565b604082019050919050565b6000614066602083614801565b915061407182614fda565b602082019050919050565b6000614089602983614801565b915061409482615003565b604082019050919050565b60006140ac602f83614801565b91506140b782615052565b604082019050919050565b60006140cf602183614801565b91506140da826150a1565b604082019050919050565b60006140f2603183614801565b91506140fd826150f0565b604082019050919050565b6000614115601d83614801565b91506141208261513f565b602082019050919050565b6000614138602a83614801565b915061414382615168565b604082019050919050565b61012082016000820151614165600085018261421f565b506020820151614178602085018261421f565b50604082015161418b6040850182613df6565b50606082015161419e606085018261421f565b5060808201516141b16080850182613d50565b5060a08201516141c460a0850182613d50565b5060c08201516141d760c08501826141dd565b50505050565b6060820160008201516141f36000850182613d7d565b506020820151614206602085018261423d565b506040820151614219604085018261423d565b50505050565b6142288161495f565b82525050565b6142378161495f565b82525050565b61424681614969565b82525050565b60006142588284613dc5565b915081905092915050565b600061426f8285613e3e565b915061427b8284613e3e565b91508190509392505050565b600060208201905061429c6000830184613d5f565b92915050565b60006101c0820190506142b86000830189613d5f565b6142c56020830188613d5f565b6142d26040830187613d5f565b81810360608301526142e48186613e05565b90506142f3608083018561414e565b6143016101a083018461422e565b979650505050505050565b60006060820190506143216000830186613d5f565b61432e6020830185613d5f565b61433b604083018461422e565b949350505050565b60006080820190506143586000830187613d5f565b6143656020830186613d5f565b614372604083018561422e565b81810360608301526143848184613d8c565b905095945050505050565b60006080820190506143a46000830187613d5f565b6143b16020830186613d5f565b6143be604083018561422e565b6143cb606083018461422e565b95945050505050565b60006040820190506143e96000830185613d5f565b6143f6602083018461422e565b9392505050565b60006020820190506144126000830184613d6e565b92915050565b600060208201905081810360008301526144328184613e05565b905092915050565b6000602082019050818103600083015261445381613e6f565b9050919050565b6000602082019050818103600083015261447381613e92565b9050919050565b6000602082019050818103600083015261449381613eb5565b9050919050565b600060208201905081810360008301526144b381613ed8565b9050919050565b600060208201905081810360008301526144d381613efb565b9050919050565b600060208201905081810360008301526144f381613f1e565b9050919050565b6000602082019050818103600083015261451381613f41565b9050919050565b6000602082019050818103600083015261453381613f64565b9050919050565b6000602082019050818103600083015261455381613f87565b9050919050565b6000602082019050818103600083015261457381613faa565b9050919050565b6000602082019050818103600083015261459381613fcd565b9050919050565b600060208201905081810360008301526145b381613ff0565b9050919050565b600060208201905081810360008301526145d381614013565b9050919050565b600060208201905081810360008301526145f381614036565b9050919050565b6000602082019050818103600083015261461381614059565b9050919050565b600060208201905081810360008301526146338161407c565b9050919050565b600060208201905081810360008301526146538161409f565b9050919050565b60006020820190508181036000830152614673816140c2565b9050919050565b60006020820190508181036000830152614693816140e5565b9050919050565b600060208201905081810360008301526146b381614108565b9050919050565b600060208201905081810360008301526146d38161412b565b9050919050565b6000610120820190506146f0600083018461414e565b92915050565b600060208201905061470b600083018461422e565b92915050565b6000606082019050614726600083018661422e565b614733602083018561422e565b614740604083018461422e565b949350505050565b6000614752614763565b905061475e82826149fc565b919050565b6000604051905090565b600067ffffffffffffffff82111561478857614787614b92565b5b61479182614be9565b9050602081019050919050565b600067ffffffffffffffff8211156147b9576147b8614b92565b5b6147c282614be9565b9050602081019050919050565b600081519050919050565b600081519050919050565b600082825260208201905092915050565b600081905092915050565b600082825260208201905092915050565b600081905092915050565b60006148288261495f565b91506148338361495f565b9250827fffffffffffffffffffffffffffffffffffffffffffffffffffffffffffffffff0382111561486857614867614aa7565b5b828201905092915050565b600061487e8261495f565b91506148898361495f565b92508261489957614898614ad6565b5b828204905092915050565b60006148af8261495f565b91506148ba8361495f565b9250828210156148cd576148cc614aa7565b5b828203905092915050565b60006148e38261493f565b9050919050565b60008115159050919050565b6000819050919050565b60007fffffffff0000000000000000000000000000000000000000000000000000000082169050919050565b600081905061493a826151b7565b919050565b600073ffffffffffffffffffffffffffffffffffffffff82169050919050565b6000819050919050565b600060ff82169050919050565b60006149818261492c565b9050919050565b82818337600083830152505050565b60005b838110156149b557808201518184015260208101905061499a565b838111156149c4576000848401525b50505050565b600060028204905060018216806149e257607f821691505b602082108114156149f6576149f5614b34565b5b50919050565b614a0582614be9565b810181811067ffffffffffffffff82111715614a2457614a23614b92565b5b80604052505050565b6000614a388261495f565b91507fffffffffffffffffffffffffffffffffffffffffffffffffffffffffffffffff821415614a6b57614a6a614aa7565b5b600182019050919050565b6000614a818261495f565b9150614a8c8361495f565b925082614a9c57614a9b614ad6565b5b828206905092915050565b7f4e487b7100000000000000000000000000000000000000000000000000000000600052601160045260246000fd5b7f4e487b7100000000000000000000000000000000000000000000000000000000600052601260045260246000fd5b7f4e487b7100000000000000000000000000000000000000000000000000000000600052602160045260246000fd5b7f4e487b7100000000000000000000000000000000000000000000000000000000600052602260045260246000fd5b7f4e487b7100000000000000000000000000000000000000000000000000000000600052603260045260246000fd5b7f4e487b7100000000000000000000000000000000000000000000000000000000600052604160045260246000fd5b600080fd5b600080fd5b600080fd5b600080fd5b600080fd5b600080fd5b600080fd5b600080fd5b6000601f19601f8301169050919050565b7f4552433732313a207472616e7366657220746f206e6f6e20455243373231526560008201527f63656976657220696d706c656d656e7465720000000000000000000000000000602082015250565b7f4f776e61626c653a206e6577206f776e657220697320746865207a65726f206160008201527f6464726573730000000000000000000000000000000000000000000000000000602082015250565b7f4552433732313a20746f6b656e20616c7265616479206d696e74656400000000600082015250565b7f4552433732313a207472616e7366657220746f20746865207a65726f2061646460008201527f7265737300000000000000000000000000000000000000000000000000000000602082015250565b7f4552433732313a20617070726f766520746f2063616c6c657200000000000000600082015250565b7f416464726573733a20696e73756666696369656e742062616c616e636520666f60008201527f722063616c6c0000000000000000000000000000000000000000000000000000602082015250565b7f4552433732313a206f70657261746f7220717565727920666f72206e6f6e657860008201527f697374656e7420746f6b656e0000000000000000000000000000000000000000602082015250565b7f4552433732313a20617070726f76652063616c6c6572206973206e6f74206f7760008201527f6e6572206e6f7220617070726f76656420666f7220616c6c0000000000000000602082015250565b7f4552433732313a2062616c616e636520717565727920666f7220746865207a6560008201527f726f206164647265737300000000000000000000000000000000000000000000602082015250565b7f4552433732313a206f776e657220717565727920666f72206e6f6e657869737460008201527f656e7420746f6b656e0000000000000000000000000000000000000000000000602082015250565b7f45524337323155524953746f726167653a2055524920736574206f66206e6f6e60008201527f6578697374656e7420746f6b656e000000000000000000000000000000000000602082015250565b7f4552433732313a206d696e7420746f20746865207a65726f2061646472657373600082015250565b7f45524337323155524953746f726167653a2055524920717565727920666f722060008201527f6e6f6e6578697374656e7420746f6b656e000000000000000000000000000000602082015250565b7f4552433732313a20617070726f76656420717565727920666f72206e6f6e657860008201527f697374656e7420746f6b656e0000000000000000000000000000000000000000602082015250565b7f4f776e61626c653a2063616c6c6572206973206e6f7420746865206f776e6572600082015250565b7f4552433732313a207472616e73666572206f6620746f6b656e2074686174206960008201527f73206e6f74206f776e0000000000000000000000000000000000000000000000602082015250565b7f4552433732314d657461646174613a2055524920717565727920666f72206e6f60008201527f6e6578697374656e7420746f6b656e0000000000000000000000000000000000602082015250565b7f4552433732313a20617070726f76616c20746f2063757272656e74206f776e6560008201527f7200000000000000000000000000000000000000000000000000000000000000602082015250565b7f4552433732313a207472616e736665722063616c6c6572206973206e6f74206f60008201527f776e6572206e6f7220617070726f766564000000000000000000000000000000602082015250565b7f416464726573733a2063616c6c20746f206e6f6e2d636f6e7472616374000000600082015250565b7f5361666545524332303a204552433230206f7065726174696f6e20646964206e60008201527f6f74207375636365656400000000000000000000000000000000000000000000602082015250565b600581106151c8576151c7614b05565b5b50565b6151d4816148d8565b81146151df57600080fd5b50565b6151eb816148ea565b81146151f657600080fd5b50565b615202816148f6565b811461520d57600080fd5b50565b61521981614900565b811461522457600080fd5b50565b6152308161495f565b811461523b57600080fd5b50565b61524781614969565b811461525257600080fd5b5056fea26469706673582212202c26b582473a7e4bd97cce3ef314874ec96dd6f6675ba0865d14124fc18f60cc64736f6c63430008070033",
  "linkReferences": {},
  "deployedLinkReferences": {}
}