{
  "_format": "hh-sol-artifact-1",
  "contractName": "BullaManager",
  "sourceName": "contracts/BullaManager.sol",
  "abi": [
    {
      "inputs": [
        {
          "internalType": "bytes32",
          "name": "_description",
          "type": "bytes32"
        },
        {
          "internalType": "address payable",
          "name": "_collectionAddress",
          "type": "address"
        },
        {
          "internalType": "uint32",
          "name": "_feeBasisPoints",
          "type": "uint32"
        }
      ],
      "stateMutability": "nonpayable",
      "type": "constructor"
    },
    {
      "inputs": [
        {
          "internalType": "address",
          "name": "_sender",
          "type": "address"
        }
      ],
      "name": "NotContractOwner",
      "type": "error"
    },
    {
      "inputs": [],
      "name": "ValueMustBeGreaterThanZero",
      "type": "error"
    },
    {
      "inputs": [],
      "name": "ZeroAddress",
      "type": "error"
    },
    {
      "anonymous": false,
      "inputs": [
        {
          "indexed": true,
          "internalType": "address",
          "name": "bullaManager",
          "type": "address"
        },
        {
          "indexed": false,
          "internalType": "address",
          "name": "prevBullaToken",
          "type": "address"
        },
        {
          "indexed": false,
          "internalType": "address",
          "name": "newBullaToken",
          "type": "address"
        },
        {
          "indexed": false,
          "internalType": "uint256",
          "name": "blocktime",
          "type": "uint256"
        }
      ],
      "name": "BullaTokenChanged",
      "type": "event"
    },
    {
      "anonymous": false,
      "inputs": [
        {
          "indexed": true,
          "internalType": "address",
          "name": "bullaManager",
          "type": "address"
        },
        {
          "indexed": false,
          "internalType": "address",
          "name": "prevCollector",
          "type": "address"
        },
        {
          "indexed": false,
          "internalType": "address",
          "name": "newCollector",
          "type": "address"
        },
        {
          "indexed": false,
          "internalType": "uint256",
          "name": "blocktime",
          "type": "uint256"
        }
      ],
      "name": "CollectorChanged",
      "type": "event"
    },
    {
      "anonymous": false,
      "inputs": [
        {
          "indexed": true,
          "internalType": "address",
          "name": "bullaManager",
          "type": "address"
        },
        {
          "indexed": false,
          "internalType": "uint256",
          "name": "prevFee",
          "type": "uint256"
        },
        {
          "indexed": false,
          "internalType": "uint256",
          "name": "newFee",
          "type": "uint256"
        },
        {
          "indexed": false,
          "internalType": "uint256",
          "name": "blocktime",
          "type": "uint256"
        }
      ],
      "name": "FeeChanged",
      "type": "event"
    },
    {
      "anonymous": false,
      "inputs": [
        {
          "indexed": true,
          "internalType": "address",
          "name": "bullaManager",
          "type": "address"
        },
        {
          "indexed": false,
          "internalType": "uint256",
          "name": "prevFeeThreshold",
          "type": "uint256"
        },
        {
          "indexed": false,
          "internalType": "uint256",
          "name": "newFeeThreshold",
          "type": "uint256"
        },
        {
          "indexed": false,
          "internalType": "uint256",
          "name": "blocktime",
          "type": "uint256"
        }
      ],
      "name": "FeeThresholdChanged",
      "type": "event"
    },
    {
      "anonymous": false,
      "inputs": [
        {
          "indexed": true,
          "internalType": "address",
          "name": "bullaManager",
          "type": "address"
        },
        {
          "indexed": false,
          "internalType": "address",
          "name": "prevOwner",
          "type": "address"
        },
        {
          "indexed": false,
          "internalType": "address",
          "name": "newOwner",
          "type": "address"
        },
        {
          "indexed": false,
          "internalType": "uint256",
          "name": "blocktime",
          "type": "uint256"
        }
      ],
      "name": "OwnerChanged",
      "type": "event"
    },
    {
      "anonymous": false,
      "inputs": [
        {
          "indexed": true,
          "internalType": "address",
          "name": "bullaManager",
          "type": "address"
        },
        {
          "indexed": false,
          "internalType": "uint256",
          "name": "prevFee",
          "type": "uint256"
        },
        {
          "indexed": false,
          "internalType": "uint256",
          "name": "newFee",
          "type": "uint256"
        },
        {
          "indexed": false,
          "internalType": "uint256",
          "name": "blocktime",
          "type": "uint256"
        }
      ],
      "name": "ReducedFeeChanged",
      "type": "event"
    },
    {
      "inputs": [],
      "name": "bullaToken",
      "outputs": [
        {
          "internalType": "contract IERC20",
          "name": "",
          "type": "address"
        }
      ],
      "stateMutability": "view",
      "type": "function"
    },
    {
      "inputs": [],
      "name": "description",
      "outputs": [
        {
          "internalType": "bytes32",
          "name": "",
          "type": "bytes32"
        }
      ],
      "stateMutability": "view",
      "type": "function"
    },
    {
      "inputs": [],
      "name": "feeInfo",
      "outputs": [
        {
          "internalType": "address",
          "name": "collectionAddress",
          "type": "address"
        },
        {
          "internalType": "uint32",
          "name": "feeBasisPoints",
          "type": "uint32"
        },
        {
          "internalType": "uint32",
          "name": "bullaTokenThreshold",
          "type": "uint32"
        },
        {
          "internalType": "uint32",
          "name": "reducedFeeBasisPoints",
          "type": "uint32"
        }
      ],
      "stateMutability": "view",
      "type": "function"
    },
    {
      "inputs": [
        {
          "internalType": "address",
          "name": "_holder",
          "type": "address"
        }
      ],
      "name": "getBullaBalance",
      "outputs": [
        {
          "internalType": "uint256",
          "name": "",
          "type": "uint256"
        }
      ],
      "stateMutability": "view",
      "type": "function"
    },
    {
      "inputs": [
        {
          "internalType": "address",
          "name": "_holder",
          "type": "address"
        }
      ],
      "name": "getFeeInfo",
      "outputs": [
        {
          "internalType": "uint32",
          "name": "",
          "type": "uint32"
        },
        {
          "internalType": "address",
          "name": "",
          "type": "address"
        }
      ],
      "stateMutability": "view",
      "type": "function"
    },
    {
      "inputs": [
        {
          "internalType": "address",
          "name": "_holder",
          "type": "address"
        },
        {
          "internalType": "uint256",
          "name": "paymentAmount",
          "type": "uint256"
        }
      ],
      "name": "getTransactionFee",
      "outputs": [
        {
          "internalType": "address",
          "name": "sendFeesTo",
          "type": "address"
        },
        {
          "internalType": "uint256",
          "name": "transactionFee",
          "type": "uint256"
        }
      ],
      "stateMutability": "view",
      "type": "function"
    },
    {
      "inputs": [],
      "name": "owner",
      "outputs": [
        {
          "internalType": "address",
          "name": "",
          "type": "address"
        }
      ],
      "stateMutability": "view",
      "type": "function"
    },
    {
      "inputs": [
        {
          "internalType": "address",
          "name": "_bullaTokenAddress",
          "type": "address"
        }
      ],
      "name": "setBullaTokenAddress",
      "outputs": [],
      "stateMutability": "nonpayable",
      "type": "function"
    },
    {
      "inputs": [
        {
          "internalType": "address",
          "name": "_collectionAddress",
          "type": "address"
        }
      ],
      "name": "setCollectionAddress",
      "outputs": [],
      "stateMutability": "nonpayable",
      "type": "function"
    },
    {
      "inputs": [
        {
          "internalType": "uint32",
          "name": "_feeBasisPoints",
          "type": "uint32"
        }
      ],
      "name": "setFee",
      "outputs": [],
      "stateMutability": "nonpayable",
      "type": "function"
    },
    {
      "inputs": [
        {
          "internalType": "address",
          "name": "_newOwner",
          "type": "address"
        }
      ],
      "name": "setOwner",
      "outputs": [],
      "stateMutability": "nonpayable",
      "type": "function"
    },
    {
      "inputs": [
        {
          "internalType": "uint32",
          "name": "reducedFeeBasisPoints",
          "type": "uint32"
        }
      ],
      "name": "setReducedFee",
      "outputs": [],
      "stateMutability": "nonpayable",
      "type": "function"
    },
    {
      "inputs": [
        {
          "internalType": "uint32",
          "name": "_threshold",
          "type": "uint32"
        }
      ],
      "name": "setbullaThreshold",
      "outputs": [],
      "stateMutability": "nonpayable",
      "type": "function"
    }
  ],
  "bytecode": "0x60a06040523480156200001157600080fd5b506040516200187e3803806200187e833981810160405281019062000037919062000233565b33600260006101000a81548173ffffffffffffffffffffffffffffffffffffffff021916908373ffffffffffffffffffffffffffffffffffffffff160217905550816000800160006101000a81548173ffffffffffffffffffffffffffffffffffffffff021916908373ffffffffffffffffffffffffffffffffffffffff1602179055508260808181525050806000800160146101000a81548163ffffffff021916908363ffffffff1602179055503073ffffffffffffffffffffffffffffffffffffffff167f920eb1bd59249cc14185b0425c1a4c2749475b15272cb9b73451656ad168e3236000834260405162000133939291906200035e565b60405180910390a23073ffffffffffffffffffffffffffffffffffffffff167f28fa443c78eecff2421a89aee0a09ea0d05ad6bb15491e6d8b46c24084bab01e600084426040516200018893929190620002e4565b60405180910390a23073ffffffffffffffffffffffffffffffffffffffff167f39186e51606070376273fb5a61f17af17684b1c771b7c32a6ee725284d1a28e460003342604051620001dd9392919062000321565b60405180910390a2505050620004be565b600081519050620001ff8162000470565b92915050565b60008151905062000216816200048a565b92915050565b6000815190506200022d81620004a4565b92915050565b6000806000606084860312156200024f576200024e6200046b565b5b60006200025f8682870162000205565b93505060206200027286828701620001ee565b925050604062000285868287016200021c565b9150509250925092565b6200029a8162000407565b82525050565b620002ab816200039b565b82525050565b620002bc816200041b565b82525050565b620002cd81620003ed565b82525050565b620002de8162000457565b82525050565b6000606082019050620002fb6000830186620002a0565b6200030a60208301856200028f565b620003196040830184620002c2565b949350505050565b6000606082019050620003386000830186620002a0565b620003476020830185620002a0565b620003566040830184620002c2565b949350505050565b6000606082019050620003756000830186620002b1565b620003846020830185620002d3565b620003936040830184620002c2565b949350505050565b6000620003a882620003cd565b9050919050565b6000620003bc82620003cd565b9050919050565b6000819050919050565b600073ffffffffffffffffffffffffffffffffffffffff82169050919050565b6000819050919050565b600063ffffffff82169050919050565b600062000414826200042f565b9050919050565b60006200042882620003ed565b9050919050565b60006200043c8262000443565b9050919050565b60006200045082620003cd565b9050919050565b60006200046482620003f7565b9050919050565b600080fd5b6200047b81620003af565b81146200048757600080fd5b50565b6200049581620003c3565b8114620004a157600080fd5b50565b620004af81620003f7565b8114620004bb57600080fd5b50565b6080516113a4620004da600039600061072201526113a46000f3fe608060405234801561001057600080fd5b50600436106100cf5760003560e01c80638b019f921161008c578063a6546d0e11610066578063a6546d0e14610217578063a6904aa514610233578063eb69615e1461024f578063f10a31791461026d576100cf565b80638b019f92146101bc5780638da5cb5b146101d8578063995b5aae146101f6576100cf565b80630309e65b146100d457806313af4035146101045780631ab971ab146101205780636bb994521461013c5780637284e4161461016d5780637439459b1461018b575b600080fd5b6100ee60048036038101906100e99190610f0b565b610289565b6040516100fb9190611122565b60405180910390f35b61011e60048036038101906101199190610f0b565b6103a0565b005b61013a60048036038101906101359190610fa5565b610551565b005b61015660048036038101906101519190610f38565b6106ca565b60405161016492919061107e565b60405180910390f35b610175610720565b60405161018291906110ec565b60405180910390f35b6101a560048036038101906101a09190610f0b565b610744565b6040516101b392919061113d565b60405180910390f35b6101d660048036038101906101d19190610f0b565b610800565b005b6101e06109b1565b6040516101ed919061102c565b60405180910390f35b6101fe6109d7565b60405161020e94939291906110a7565b60405180910390f35b610231600480360381019061022c9190610fa5565b610a45565b005b61024d60048036038101906102489190610f0b565b610b63565b005b610257610d18565b6040516102649190611107565b60405180910390f35b61028760048036038101906102829190610fa5565b610d3e565b005b600080600073ffffffffffffffffffffffffffffffffffffffff16600160009054906101000a900473ffffffffffffffffffffffffffffffffffffffff1673ffffffffffffffffffffffffffffffffffffffff161461039257600160009054906101000a900473ffffffffffffffffffffffffffffffffffffffff1673ffffffffffffffffffffffffffffffffffffffff166370a08231846040518263ffffffff1660e01b815260040161033d919061102c565b60206040518083038186803b15801561035557600080fd5b505afa158015610369573d6000803e3d6000fd5b505050506040513d601f19601f8201168201806040525081019061038d9190610f78565b610395565b60005b905080915050919050565b3373ffffffffffffffffffffffffffffffffffffffff16600260009054906101000a900473ffffffffffffffffffffffffffffffffffffffff1673ffffffffffffffffffffffffffffffffffffffff161461043257336040517f2ef4875e000000000000000000000000000000000000000000000000000000008152600401610429919061102c565b60405180910390fd5b600073ffffffffffffffffffffffffffffffffffffffff168173ffffffffffffffffffffffffffffffffffffffff161415610499576040517fd92e233d00000000000000000000000000000000000000000000000000000000815260040160405180910390fd5b80600260006101000a81548173ffffffffffffffffffffffffffffffffffffffff021916908373ffffffffffffffffffffffffffffffffffffffff1602179055503073ffffffffffffffffffffffffffffffffffffffff167f39186e51606070376273fb5a61f17af17684b1c771b7c32a6ee725284d1a28e4600260009054906101000a900473ffffffffffffffffffffffffffffffffffffffff16834260405161054693929190611047565b60405180910390a250565b3373ffffffffffffffffffffffffffffffffffffffff16600260009054906101000a900473ffffffffffffffffffffffffffffffffffffffff1673ffffffffffffffffffffffffffffffffffffffff16146105e357336040517f2ef4875e0000000000000000000000000000000000000000000000000000000081526004016105da919061102c565b60405180910390fd5b60008163ffffffff161415610624576040517f8565fcfe00000000000000000000000000000000000000000000000000000000815260040160405180910390fd5b60008060000160149054906101000a900463ffffffff169050816000800160146101000a81548163ffffffff021916908363ffffffff1602179055503073ffffffffffffffffffffffffffffffffffffffff167f920eb1bd59249cc14185b0425c1a4c2749475b15272cb9b73451656ad168e323826000800160149054906101000a900463ffffffff16426040516106be93929190611166565b60405180910390a25050565b6000806000806106d986610744565b9150915080935060008263ffffffff16116106f5576000610715565b6127108263ffffffff168661070a91906111ce565b610714919061119d565b5b925050509250929050565b7f000000000000000000000000000000000000000000000000000000000000000081565b600080600061075284610289565b90506000806000800160189054906101000a900463ffffffff1663ffffffff1611801561079957506000800160189054906101000a900463ffffffff1663ffffffff168210155b6107b7576000800160149054906101000a900463ffffffff166107cd565b60008001601c9054906101000a900463ffffffff165b9050806000800160009054906101000a900473ffffffffffffffffffffffffffffffffffffffff16935093505050915091565b3373ffffffffffffffffffffffffffffffffffffffff16600260009054906101000a900473ffffffffffffffffffffffffffffffffffffffff1673ffffffffffffffffffffffffffffffffffffffff161461089257336040517f2ef4875e000000000000000000000000000000000000000000000000000000008152600401610889919061102c565b60405180910390fd5b600073ffffffffffffffffffffffffffffffffffffffff168173ffffffffffffffffffffffffffffffffffffffff1614156108f9576040517fd92e233d00000000000000000000000000000000000000000000000000000000815260040160405180910390fd5b80600160006101000a81548173ffffffffffffffffffffffffffffffffffffffff021916908373ffffffffffffffffffffffffffffffffffffffff1602179055503073ffffffffffffffffffffffffffffffffffffffff167f0372929f77950d9d7af01484f77c437aaafdb1f22504ce8a66fa42d233862cc7600160009054906101000a900473ffffffffffffffffffffffffffffffffffffffff1683426040516109a693929190611047565b60405180910390a250565b600260009054906101000a900473ffffffffffffffffffffffffffffffffffffffff1681565b60008060000160009054906101000a900473ffffffffffffffffffffffffffffffffffffffff16908060000160149054906101000a900463ffffffff16908060000160189054906101000a900463ffffffff169080600001601c9054906101000a900463ffffffff16905084565b3373ffffffffffffffffffffffffffffffffffffffff16600260009054906101000a900473ffffffffffffffffffffffffffffffffffffffff1673ffffffffffffffffffffffffffffffffffffffff1614610ad757336040517f2ef4875e000000000000000000000000000000000000000000000000000000008152600401610ace919061102c565b60405180910390fd5b806000800160186101000a81548163ffffffff021916908363ffffffff1602179055503073ffffffffffffffffffffffffffffffffffffffff167f1288d38590ededfeff607d9a0d70a08db1ef3baa2414283868ae007c582fab1d6000800160189054906101000a900463ffffffff168342604051610b5893929190611166565b60405180910390a250565b3373ffffffffffffffffffffffffffffffffffffffff16600260009054906101000a900473ffffffffffffffffffffffffffffffffffffffff1673ffffffffffffffffffffffffffffffffffffffff1614610bf557336040517f2ef4875e000000000000000000000000000000000000000000000000000000008152600401610bec919061102c565b60405180910390fd5b600073ffffffffffffffffffffffffffffffffffffffff168173ffffffffffffffffffffffffffffffffffffffff161415610c5c576040517fd92e233d00000000000000000000000000000000000000000000000000000000815260040160405180910390fd5b806000800160006101000a81548173ffffffffffffffffffffffffffffffffffffffff021916908373ffffffffffffffffffffffffffffffffffffffff1602179055503073ffffffffffffffffffffffffffffffffffffffff167f28fa443c78eecff2421a89aee0a09ea0d05ad6bb15491e6d8b46c24084bab01e6000800160009054906101000a900473ffffffffffffffffffffffffffffffffffffffff168342604051610d0d93929190611047565b60405180910390a250565b600160009054906101000a900473ffffffffffffffffffffffffffffffffffffffff1681565b3373ffffffffffffffffffffffffffffffffffffffff16600260009054906101000a900473ffffffffffffffffffffffffffffffffffffffff1673ffffffffffffffffffffffffffffffffffffffff1614610dd057336040517f2ef4875e000000000000000000000000000000000000000000000000000000008152600401610dc7919061102c565b60405180910390fd5b60008163ffffffff161415610e11576040517f8565fcfe00000000000000000000000000000000000000000000000000000000815260040160405180910390fd5b600080600001601c9054906101000a900463ffffffff1690508160008001601c6101000a81548163ffffffff021916908363ffffffff1602179055503073ffffffffffffffffffffffffffffffffffffffff167f920eb1bd59249cc14185b0425c1a4c2749475b15272cb9b73451656ad168e323826000800160149054906101000a900463ffffffff1642604051610eab93929190611166565b60405180910390a25050565b600081359050610ec681611329565b92915050565b600081359050610edb81611340565b92915050565b600081519050610ef081611340565b92915050565b600081359050610f0581611357565b92915050565b600060208284031215610f2157610f20611324565b5b6000610f2f84828501610eb7565b91505092915050565b60008060408385031215610f4f57610f4e611324565b5b6000610f5d85828601610eb7565b9250506020610f6e85828601610ecc565b9150509250929050565b600060208284031215610f8e57610f8d611324565b5b6000610f9c84828501610ee1565b91505092915050565b600060208284031215610fbb57610fba611324565b5b6000610fc984828501610ef6565b91505092915050565b610fdb81611228565b82525050565b610fea8161123a565b82525050565b610ff98161127e565b82525050565b61100881611264565b82525050565b611017816112b4565b82525050565b6110268161126e565b82525050565b60006020820190506110416000830184610fd2565b92915050565b600060608201905061105c6000830186610fd2565b6110696020830185610fd2565b6110766040830184610fff565b949350505050565b60006040820190506110936000830185610fd2565b6110a06020830184610fff565b9392505050565b60006080820190506110bc6000830187610fd2565b6110c9602083018661101d565b6110d6604083018561101d565b6110e3606083018461101d565b95945050505050565b60006020820190506111016000830184610fe1565b92915050565b600060208201905061111c6000830184610ff0565b92915050565b60006020820190506111376000830184610fff565b92915050565b6000604082019050611152600083018561101d565b61115f6020830184610fd2565b9392505050565b600060608201905061117b600083018661100e565b611188602083018561100e565b6111956040830184610fff565b949350505050565b60006111a882611264565b91506111b383611264565b9250826111c3576111c26112f5565b5b828204905092915050565b60006111d982611264565b91506111e483611264565b9250817fffffffffffffffffffffffffffffffffffffffffffffffffffffffffffffffff048311821515161561121d5761121c6112c6565b5b828202905092915050565b600061123382611244565b9050919050565b6000819050919050565b600073ffffffffffffffffffffffffffffffffffffffff82169050919050565b6000819050919050565b600063ffffffff82169050919050565b600061128982611290565b9050919050565b600061129b826112a2565b9050919050565b60006112ad82611244565b9050919050565b60006112bf8261126e565b9050919050565b7f4e487b7100000000000000000000000000000000000000000000000000000000600052601160045260246000fd5b7f4e487b7100000000000000000000000000000000000000000000000000000000600052601260045260246000fd5b600080fd5b61133281611228565b811461133d57600080fd5b50565b61134981611264565b811461135457600080fd5b50565b6113608161126e565b811461136b57600080fd5b5056fea264697066735822122018b8e3b16876b6c222170ed5282414aa9aa2638ddf4b3b5d565b2ab14858812c64736f6c63430008070033",
  "linkReferences": {},
  "deployedLinkReferences": {}
}