{
  "_format": "hh-sol-artifact-1",
  "contractName": "BullaFinance",
  "sourceName": "contracts/BullaFinance.sol",
  "abi": [
    {
      "inputs": [
        {
          "internalType": "contract IBullaClaim",
          "name": "_bullaClaim",
          "type": "address"
        },
        {
          "internalType": "address",
          "name": "_admin",
          "type": "address"
        },
        {
          "internalType": "uint256",
          "name": "_fee",
          "type": "uint256"
        }
      ],
      "stateMutability": "nonpayable",
      "type": "constructor"
    },
    {
      "inputs": [],
      "name": "CLAIM_NOT_PENDING",
      "type": "error"
    },
    {
      "inputs": [],
      "name": "INSUFFICIENT_FEE",
      "type": "error"
    },
    {
      "inputs": [],
      "name": "INVALID_MIN_DOWN_PAYMENT",
      "type": "error"
    },
    {
      "inputs": [],
      "name": "INVALID_TERM_LENGTH",
      "type": "error"
    },
    {
      "inputs": [],
      "name": "NOT_ADMIN",
      "type": "error"
    },
    {
      "inputs": [],
      "name": "NOT_CREDITOR",
      "type": "error"
    },
    {
      "inputs": [],
      "name": "NOT_DEBTOR",
      "type": "error"
    },
    {
      "inputs": [],
      "name": "NO_FINANCE_OFFER",
      "type": "error"
    },
    {
      "inputs": [],
      "name": "OVER_PAYING",
      "type": "error"
    },
    {
      "inputs": [],
      "name": "UNDER_PAYING",
      "type": "error"
    },
    {
      "inputs": [],
      "name": "WITHDRAWAL_FAILED",
      "type": "error"
    },
    {
      "anonymous": false,
      "inputs": [
        {
          "indexed": true,
          "internalType": "address",
          "name": "bullaManager",
          "type": "address"
        },
        {
          "indexed": true,
          "internalType": "uint256",
          "name": "tokenId",
          "type": "uint256"
        },
        {
          "indexed": true,
          "internalType": "address",
          "name": "updatedBy",
          "type": "address"
        },
        {
          "indexed": false,
          "internalType": "bytes32",
          "name": "tag",
          "type": "bytes32"
        },
        {
          "indexed": false,
          "internalType": "uint256",
          "name": "blocktime",
          "type": "uint256"
        }
      ],
      "name": "BullaTagUpdated",
      "type": "event"
    },
    {
      "anonymous": false,
      "inputs": [
        {
          "indexed": true,
          "internalType": "uint256",
          "name": "originatingClaimId",
          "type": "uint256"
        },
        {
          "indexed": false,
          "internalType": "uint256",
          "name": "blocktime",
          "type": "uint256"
        }
      ],
      "name": "FeeReclaimed",
      "type": "event"
    },
    {
      "anonymous": false,
      "inputs": [
        {
          "indexed": true,
          "internalType": "uint256",
          "name": "originatingClaimId",
          "type": "uint256"
        },
        {
          "indexed": true,
          "internalType": "uint256",
          "name": "financedClaimId",
          "type": "uint256"
        },
        {
          "indexed": false,
          "internalType": "uint256",
          "name": "blocktime",
          "type": "uint256"
        }
      ],
      "name": "FinancingAccepted",
      "type": "event"
    },
    {
      "anonymous": false,
      "inputs": [
        {
          "indexed": true,
          "internalType": "uint256",
          "name": "originatingClaimId",
          "type": "uint256"
        },
        {
          "components": [
            {
              "internalType": "uint24",
              "name": "minDownPaymentBPS",
              "type": "uint24"
            },
            {
              "internalType": "uint24",
              "name": "interestBPS",
              "type": "uint24"
            },
            {
              "internalType": "uint40",
              "name": "termLength",
              "type": "uint40"
            }
          ],
          "indexed": false,
          "internalType": "struct BullaFinance.FinanceTerms",
          "name": "terms",
          "type": "tuple"
        },
        {
          "indexed": false,
          "internalType": "uint256",
          "name": "blocktime",
          "type": "uint256"
        }
      ],
      "name": "FinancingOffered",
      "type": "event"
    },
    {
      "inputs": [
        {
          "internalType": "uint256",
          "name": "claimId",
          "type": "uint256"
        },
        {
          "internalType": "uint256",
          "name": "downPayment",
          "type": "uint256"
        },
        {
          "internalType": "string",
          "name": "description",
          "type": "string"
        }
      ],
      "name": "acceptFinancing",
      "outputs": [
        {
          "internalType": "uint256",
          "name": "",
          "type": "uint256"
        }
      ],
      "stateMutability": "nonpayable",
      "type": "function"
    },
    {
      "inputs": [],
      "name": "admin",
      "outputs": [
        {
          "internalType": "address",
          "name": "",
          "type": "address"
        }
      ],
      "stateMutability": "view",
      "type": "function"
    },
    {
      "inputs": [],
      "name": "bullaClaim",
      "outputs": [
        {
          "internalType": "contract IBullaClaim",
          "name": "",
          "type": "address"
        }
      ],
      "stateMutability": "view",
      "type": "function"
    },
    {
      "inputs": [
        {
          "components": [
            {
              "internalType": "uint256",
              "name": "claimAmount",
              "type": "uint256"
            },
            {
              "internalType": "address",
              "name": "creditor",
              "type": "address"
            },
            {
              "internalType": "address",
              "name": "debtor",
              "type": "address"
            },
            {
              "internalType": "string",
              "name": "description",
              "type": "string"
            },
            {
              "internalType": "uint256",
              "name": "dueBy",
              "type": "uint256"
            },
            {
              "internalType": "address",
              "name": "claimToken",
              "type": "address"
            },
            {
              "components": [
                {
                  "internalType": "bytes32",
                  "name": "hash",
                  "type": "bytes32"
                },
                {
                  "internalType": "uint8",
                  "name": "hashFunction",
                  "type": "uint8"
                },
                {
                  "internalType": "uint8",
                  "name": "size",
                  "type": "uint8"
                }
              ],
              "internalType": "struct Multihash",
              "name": "attachment",
              "type": "tuple"
            }
          ],
          "internalType": "struct BullaBanker.ClaimParams",
          "name": "claim",
          "type": "tuple"
        },
        {
          "internalType": "string",
          "name": "tokenURI",
          "type": "string"
        },
        {
          "components": [
            {
              "internalType": "uint24",
              "name": "minDownPaymentBPS",
              "type": "uint24"
            },
            {
              "internalType": "uint24",
              "name": "interestBPS",
              "type": "uint24"
            },
            {
              "internalType": "uint40",
              "name": "termLength",
              "type": "uint40"
            }
          ],
          "internalType": "struct BullaFinance.FinanceTerms",
          "name": "terms",
          "type": "tuple"
        },
        {
          "internalType": "bytes32",
          "name": "tag",
          "type": "bytes32"
        }
      ],
      "name": "createInvoiceWithFinanceOffer",
      "outputs": [
        {
          "internalType": "uint256",
          "name": "",
          "type": "uint256"
        }
      ],
      "stateMutability": "payable",
      "type": "function"
    },
    {
      "inputs": [],
      "name": "fee",
      "outputs": [
        {
          "internalType": "uint256",
          "name": "",
          "type": "uint256"
        }
      ],
      "stateMutability": "view",
      "type": "function"
    },
    {
      "inputs": [
        {
          "internalType": "uint256",
          "name": "",
          "type": "uint256"
        }
      ],
      "name": "financeTermsByClaimId",
      "outputs": [
        {
          "internalType": "uint24",
          "name": "minDownPaymentBPS",
          "type": "uint24"
        },
        {
          "internalType": "uint24",
          "name": "interestBPS",
          "type": "uint24"
        },
        {
          "internalType": "uint40",
          "name": "termLength",
          "type": "uint40"
        }
      ],
      "stateMutability": "view",
      "type": "function"
    },
    {
      "inputs": [
        {
          "internalType": "uint256",
          "name": "_amount",
          "type": "uint256"
        }
      ],
      "name": "withdrawFee",
      "outputs": [],
      "stateMutability": "nonpayable",
      "type": "function"
    }
  ],
  "bytecode": "0x60806040523480156200001157600080fd5b50604051620028373803806200283783398181016040528101906200003791906200010d565b826000806101000a81548173ffffffffffffffffffffffffffffffffffffffff021916908373ffffffffffffffffffffffffffffffffffffffff16021790555081600160006101000a81548173ffffffffffffffffffffffffffffffffffffffff021916908373ffffffffffffffffffffffffffffffffffffffff160217905550806002819055505050506200020e565b600081519050620000d981620001c0565b92915050565b600081519050620000f081620001da565b92915050565b6000815190506200010781620001f4565b92915050565b600080600060608486031215620001295762000128620001bb565b5b60006200013986828701620000df565b93505060206200014c86828701620000c8565b92505060406200015f86828701620000f6565b9150509250925092565b6000620001768262000191565b9050919050565b60006200018a8262000169565b9050919050565b600073ffffffffffffffffffffffffffffffffffffffff82169050919050565b6000819050919050565b600080fd5b620001cb8162000169565b8114620001d757600080fd5b50565b620001e5816200017d565b8114620001f157600080fd5b50565b620001ff81620001b1565b81146200020b57600080fd5b50565b612619806200021e6000396000f3fe6080604052600436106100705760003560e01c8063ac82476f1161004e578063ac82476f1461010f578063be3576161461014c578063ddca3f4314610175578063f851a440146101a057610070565b806372c2423614610075578063823cc226146100a5578063a666cab9146100e4575b600080fd5b61008f600480360381019061008a9190611623565b6101cb565b60405161009c9190611db9565b60405180910390f35b3480156100b157600080fd5b506100cc60048036038101906100c79190611722565b6105c1565b6040516100db93929190611d82565b60405180910390f35b3480156100f057600080fd5b506100f961061a565b6040516101069190611cbc565b60405180910390f35b34801561011b57600080fd5b506101366004803603810190610131919061177c565b61063e565b6040516101439190611db9565b60405180910390f35b34801561015857600080fd5b50610173600480360381019061016e9190611722565b610dc7565b005b34801561018157600080fd5b5061018a610f17565b6040516101979190611db9565b60405180910390f35b3480156101ac57600080fd5b506101b5610f1d565b6040516101c29190611af8565b60405180910390f35b60006002543414610208576040517f80e5952700000000000000000000000000000000000000000000000000000000815260040160405180910390fd5b85602001602081019061021b9190611553565b73ffffffffffffffffffffffffffffffffffffffff163373ffffffffffffffffffffffffffffffffffffffff161461027f576040517f864a486100000000000000000000000000000000000000000000000000000000815260040160405180910390fd5b6000612710876000013585600001602081019061029c91906116f5565b62ffffff166102ab9190611fcb565b6102b59190611f9a565b14156102ed576040517fa239de0800000000000000000000000000000000000000000000000000000000815260040160405180910390fd5b600083604001602081019061030291906117f0565b64ffffffffff161415610341576040517fe72e726200000000000000000000000000000000000000000000000000000000815260040160405180910390fd5b60008060009054906101000a900473ffffffffffffffffffffffffffffffffffffffff1673ffffffffffffffffffffffffffffffffffffffff1663c92aeec18860200160208101906103939190611553565b8960400160208101906103a69190611553565b8a80606001906103b69190611dfd565b8c600001358d608001358e60a00160208101906103d39190611553565b8f60c0018f8f6040518b63ffffffff1660e01b81526004016103fe9a99989796959493929190611b13565b602060405180830381600087803b15801561041857600080fd5b505af115801561042c573d6000803e3d6000fd5b505050506040513d601f19601f82011682018060405250810190610450919061174f565b90508360036000838152602001908152602001600020818161047291906124bb565b9050503373ffffffffffffffffffffffffffffffffffffffff168160008054906101000a900473ffffffffffffffffffffffffffffffffffffffff1673ffffffffffffffffffffffffffffffffffffffff16635e39986f6040518163ffffffff1660e01b815260040160206040518083038186803b1580156104f357600080fd5b505afa158015610507573d6000803e3d6000fd5b505050506040513d601f19601f8201168201806040525081019061052b9190611580565b73ffffffffffffffffffffffffffffffffffffffff167f49f89b2b71540cd91d6f6db8f1a06ddb75ad4bbd125e70cf5eb12712ea886f338642604051610572929190611c93565b60405180910390a4807fafe36db4f9c6d1dbd56766bbdca0fd48f855fcfa4ef7bd64fbd18f0b1e8644c585426040516105ac929190611d59565b60405180910390a28091505095945050505050565b60036020528060005260406000206000915090508060000160009054906101000a900462ffffff16908060000160039054906101000a900462ffffff16908060000160069054906101000a900464ffffffffff16905083565b60008054906101000a900473ffffffffffffffffffffffffffffffffffffffff1681565b60008060008054906101000a900473ffffffffffffffffffffffffffffffffffffffff1673ffffffffffffffffffffffffffffffffffffffff16635aef2447876040518263ffffffff1660e01b815260040161069a9190611db9565b6101206040518083038186803b1580156106b357600080fd5b505afa1580156106c7573d6000803e3d6000fd5b505050506040513d601f19601f820116820180604052508101906106eb91906116c7565b90506000600360008881526020019081526020016000206040518060600160405290816000820160009054906101000a900462ffffff1662ffffff1662ffffff1681526020016000820160039054906101000a900462ffffff1662ffffff1662ffffff1681526020016000820160069054906101000a900464ffffffffff1664ffffffffff1664ffffffffff16815250509050600060048111156107925761079161226a565b5b826040015160048111156107a9576107a861226a565b5b146107e0576040517fe75da7a900000000000000000000000000000000000000000000000000000000815260040160405180910390fd5b3373ffffffffffffffffffffffffffffffffffffffff16826080015173ffffffffffffffffffffffffffffffffffffffff1614610849576040517f44f1b40000000000000000000000000000000000000000000000000000000000815260040160405180910390fd5b6000816040015164ffffffffff16141561088f576040517ff3d0190f00000000000000000000000000000000000000000000000000000000815260040160405180910390fd5b612710816000015162ffffff1683600001516108ab9190611fcb565b6108b59190611f9a565b8610156108ee576040517ff6fe889300000000000000000000000000000000000000000000000000000000815260040160405180910390fd5b816000015186111561092c576040517fc836da0200000000000000000000000000000000000000000000000000000000815260040160405180910390fd5b60008060009054906101000a900473ffffffffffffffffffffffffffffffffffffffff1673ffffffffffffffffffffffffffffffffffffffff16636352211e896040518263ffffffff1660e01b81526004016109889190611db9565b60206040518083038186803b1580156109a057600080fd5b505afa1580156109b4573d6000803e3d6000fd5b505050506040513d601f19601f820116820180604052508101906109d89190611580565b905060008060009054906101000a900473ffffffffffffffffffffffffffffffffffffffff1673ffffffffffffffffffffffffffffffffffffffff1663c87b56dd8a6040518263ffffffff1660e01b8152600401610a369190611db9565b60006040518083038186803b158015610a4e57600080fd5b505afa158015610a62573d6000803e3d6000fd5b505050506040513d6000823e3d601f19601f82011682018060405250810190610a8b91906115da565b90506000612710846020015162ffffff168a8760000151610aac9190612025565b610ab69190611fcb565b610ac09190611f9a565b8560000151610acf9190611f44565b905060008060009054906101000a900473ffffffffffffffffffffffffffffffffffffffff1673ffffffffffffffffffffffffffffffffffffffff1663c92aeec18588608001518c8c878b6040015164ffffffffff1642610b309190611f44565b8d60a001518e60c001518c6040518a63ffffffff1660e01b8152600401610b5f99989796959493929190611ba4565b602060405180830381600087803b158015610b7957600080fd5b505af1158015610b8d573d6000803e3d6000fd5b505050506040513d601f19601f82011682018060405250810190610bb1919061174f565b9050600360008c8152602001908152602001600020600080820160006101000a81549062ffffff02191690556000820160036101000a81549062ffffff02191690556000820160066101000a81549064ffffffffff02191690555050610c3e33308c8960a0015173ffffffffffffffffffffffffffffffffffffffff16610f43909392919063ffffffff16565b8560a0015173ffffffffffffffffffffffffffffffffffffffff1663095ea7b360008054906101000a900473ffffffffffffffffffffffffffffffffffffffff168c6040518363ffffffff1660e01b8152600401610c9d929190611c6a565b602060405180830381600087803b158015610cb757600080fd5b505af1158015610ccb573d6000803e3d6000fd5b505050506040513d601f19601f82011682018060405250810190610cef91906115ad565b5060008054906101000a900473ffffffffffffffffffffffffffffffffffffffff1673ffffffffffffffffffffffffffffffffffffffff1663c99c4448828c6040518363ffffffff1660e01b8152600401610d4b929190611dd4565b600060405180830381600087803b158015610d6557600080fd5b505af1158015610d79573d6000803e3d6000fd5b50505050808b7ff7ab6b52509dfa886383eed44ccc10909094b6c2389b21e016f0b7ee1d30b07742604051610dae9190611db9565b60405180910390a3809650505050505050949350505050565b600160009054906101000a900473ffffffffffffffffffffffffffffffffffffffff1673ffffffffffffffffffffffffffffffffffffffff163373ffffffffffffffffffffffffffffffffffffffff1614610e4e576040517f6209c08b00000000000000000000000000000000000000000000000000000000815260040160405180910390fd5b6000600160009054906101000a900473ffffffffffffffffffffffffffffffffffffffff1673ffffffffffffffffffffffffffffffffffffffff1682604051610e9690611ae3565b60006040518083038185875af1925050503d8060008114610ed3576040519150601f19603f3d011682016040523d82523d6000602084013e610ed8565b606091505b5050905080610f13576040517ffbefd20100000000000000000000000000000000000000000000000000000000815260040160405180910390fd5b5050565b60025481565b600160009054906101000a900473ffffffffffffffffffffffffffffffffffffffff1681565b610fc6846323b872dd60e01b858585604051602401610f6493929190611c33565b604051602081830303815290604052907bffffffffffffffffffffffffffffffffffffffffffffffffffffffff19166020820180517bffffffffffffffffffffffffffffffffffffffffffffffffffffffff8381831617835250505050610fcc565b50505050565b600061102e826040518060400160405280602081526020017f5361666545524332303a206c6f772d6c6576656c2063616c6c206661696c65648152508573ffffffffffffffffffffffffffffffffffffffff166110939092919063ffffffff16565b905060008151111561108e578080602001905181019061104e91906115ad565b61108d576040517f08c379a000000000000000000000000000000000000000000000000000000000815260040161108490611d39565b60405180910390fd5b5b505050565b60606110a284846000856110ab565b90509392505050565b6060824710156110f0576040517f08c379a00000000000000000000000000000000000000000000000000000000081526004016110e790611cf9565b60405180910390fd5b6110f9856111bf565b611138576040517f08c379a000000000000000000000000000000000000000000000000000000000815260040161112f90611d19565b60405180910390fd5b6000808673ffffffffffffffffffffffffffffffffffffffff1685876040516111619190611acc565b60006040518083038185875af1925050503d806000811461119e576040519150601f19603f3d011682016040523d82523d6000602084013e6111a3565b606091505b50915091506111b38282866111d2565b92505050949350505050565b600080823b905060008111915050919050565b606083156111e257829050611232565b6000835111156111f55782518084602001fd5b816040517f08c379a00000000000000000000000000000000000000000000000000000000081526004016112299190611cd7565b60405180910390fd5b9392505050565b600061124c61124784611e85565b611e60565b90508281526020810184848401111561126857611267612330565b5b611273848285612141565b509392505050565b60008135905061128a81612532565b92915050565b60008151905061129f81612532565b92915050565b6000815190506112b481612549565b92915050565b6000813590506112c981612560565b92915050565b6000815190506112de81612560565b92915050565b6000815190506112f381612577565b92915050565b60008083601f84011261130f5761130e61230d565b5b8235905067ffffffffffffffff81111561132c5761132b612308565b5b60208301915083600182028301111561134857611347612326565b5b9250929050565b600082601f8301126113645761136361230d565b5b8151611374848260208601611239565b91505092915050565b6000610120828403121561139457611393612317565b5b81905092915050565b600061012082840312156113b4576113b361231c565b5b6113be60e0611e60565b905060006113ce848285016114ff565b60008301525060206113e2848285016114ff565b60208301525060406113f6848285016112e4565b604083015250606061140a848285016114ff565b606083015250608061141e84828501611290565b60808301525060a061143284828501611290565b60a08301525060c061144684828501611471565b60c08301525092915050565b60006060828403121561146857611467612317565b5b81905092915050565b6000606082840312156114875761148661231c565b5b6114916060611e60565b905060006114a1848285016112cf565b60008301525060206114b58482850161153e565b60208301525060406114c98482850161153e565b60408301525092915050565b6000813590506114e481612587565b92915050565b6000813590506114f98161259e565b92915050565b60008151905061150e8161259e565b92915050565b600081359050611523816125b5565b92915050565b600081359050611538816125cc565b92915050565b60008151905061154d816125cc565b92915050565b6000602082840312156115695761156861233a565b5b60006115778482850161127b565b91505092915050565b6000602082840312156115965761159561233a565b5b60006115a484828501611290565b91505092915050565b6000602082840312156115c3576115c261233a565b5b60006115d1848285016112a5565b91505092915050565b6000602082840312156115f0576115ef61233a565b5b600082015167ffffffffffffffff81111561160e5761160d612335565b5b61161a8482850161134f565b91505092915050565b600080600080600060c0868803121561163f5761163e61233a565b5b600086013567ffffffffffffffff81111561165d5761165c612335565b5b6116698882890161137d565b955050602086013567ffffffffffffffff81111561168a57611689612335565b5b611696888289016112f9565b945094505060406116a988828901611452565b92505060a06116ba888289016112ba565b9150509295509295909350565b600061012082840312156116de576116dd61233a565b5b60006116ec8482850161139d565b91505092915050565b60006020828403121561170b5761170a61233a565b5b6000611719848285016114d5565b91505092915050565b6000602082840312156117385761173761233a565b5b6000611746848285016114ea565b91505092915050565b6000602082840312156117655761176461233a565b5b6000611773848285016114ff565b91505092915050565b600080600080606085870312156117965761179561233a565b5b60006117a4878288016114ea565b94505060206117b5878288016114ea565b935050604085013567ffffffffffffffff8111156117d6576117d5612335565b5b6117e2878288016112f9565b925092505092959194509250565b6000602082840312156118065761180561233a565b5b600061181484828501611514565b91505092915050565b61182681612059565b82525050565b61183581612077565b82525050565b61184481612077565b82525050565b600061185582611eb6565b61185f8185611ecc565b935061186f818560208601612141565b80840191505092915050565b611884816120d8565b82525050565b60006118968385611ed7565b93506118a3838584612132565b6118ac8361233f565b840190509392505050565b60006118c282611ec1565b6118cc8185611ed7565b93506118dc818560208601612141565b6118e58161233f565b840191505092915050565b60006118fd602683611ed7565b915061190882612377565b604082019050919050565b6000611920600083611ecc565b915061192b826123c6565b600082019050919050565b6000611943601d83611ed7565b915061194e826123c9565b602082019050919050565b6000611966602a83611ed7565b9150611971826123f2565b604082019050919050565b6060820161198d6000830183611eff565b61199a6000850182611a72565b506119a86020830183611eff565b6119b56020850182611a72565b506119c36040830183611f16565b6119d06040850182611a9f565b50505050565b606082016119e76000830183611ee8565b6119f4600085018261182c565b50611a026020830183611f2d565b611a0f6020850182611abd565b50611a1d6040830183611f2d565b611a2a6040850182611abd565b50505050565b606082016000820151611a46600085018261182c565b506020820151611a596020850182611abd565b506040820151611a6c6040850182611abd565b50505050565b611a7b816120a1565b82525050565b611a8a816120a1565b82525050565b611a99816120b0565b82525050565b611aa8816120ba565b82525050565b611ab7816120ba565b82525050565b611ac6816120cb565b82525050565b6000611ad8828461184a565b915081905092915050565b6000611aee82611913565b9150819050919050565b6000602082019050611b0d600083018461181d565b92915050565b600061014082019050611b29600083018d61181d565b611b36602083018c61181d565b8181036040830152611b49818a8c61188a565b9050611b586060830189611a90565b611b656080830188611a90565b611b7260a083018761181d565b611b7f60c08301866119d6565b818103610120830152611b9381848661188a565b90509b9a5050505050505050505050565b600061014082019050611bba600083018c61181d565b611bc7602083018b61181d565b8181036040830152611bda81898b61188a565b9050611be96060830188611a90565b611bf66080830187611a90565b611c0360a083018661181d565b611c1060c0830185611a30565b818103610120830152611c2381846118b7565b90509a9950505050505050505050565b6000606082019050611c48600083018661181d565b611c55602083018561181d565b611c626040830184611a90565b949350505050565b6000604082019050611c7f600083018561181d565b611c8c6020830184611a90565b9392505050565b6000604082019050611ca8600083018561183b565b611cb56020830184611a90565b9392505050565b6000602082019050611cd1600083018461187b565b92915050565b60006020820190508181036000830152611cf181846118b7565b905092915050565b60006020820190508181036000830152611d12816118f0565b9050919050565b60006020820190508181036000830152611d3281611936565b9050919050565b60006020820190508181036000830152611d5281611959565b9050919050565b6000608082019050611d6e600083018561197c565b611d7b6060830184611a90565b9392505050565b6000606082019050611d976000830186611a81565b611da46020830185611a81565b611db16040830184611aae565b949350505050565b6000602082019050611dce6000830184611a90565b92915050565b6000604082019050611de96000830185611a90565b611df66020830184611a90565b9392505050565b60008083356001602003843603038112611e1a57611e19612321565b5b80840192508235915067ffffffffffffffff821115611e3c57611e3b612312565b5b602083019250600182023603831315611e5857611e5761232b565b5b509250929050565b6000611e6a611e7b565b9050611e7682826121db565b919050565b6000604051905090565b600067ffffffffffffffff821115611ea057611e9f612299565b5b611ea98261233f565b9050602081019050919050565b600081519050919050565b600081519050919050565b600081905092915050565b600082825260208201905092915050565b6000611ef760208401846112ba565b905092915050565b6000611f0e60208401846114d5565b905092915050565b6000611f256020840184611514565b905092915050565b6000611f3c6020840184611529565b905092915050565b6000611f4f826120b0565b9150611f5a836120b0565b9250827fffffffffffffffffffffffffffffffffffffffffffffffffffffffffffffffff03821115611f8f57611f8e61220c565b5b828201905092915050565b6000611fa5826120b0565b9150611fb0836120b0565b925082611fc057611fbf61223b565b5b828204905092915050565b6000611fd6826120b0565b9150611fe1836120b0565b9250817fffffffffffffffffffffffffffffffffffffffffffffffffffffffffffffffff048311821515161561201a5761201961220c565b5b828202905092915050565b6000612030826120b0565b915061203b836120b0565b92508282101561204e5761204d61220c565b5b828203905092915050565b600061206482612081565b9050919050565b60008115159050919050565b6000819050919050565b600073ffffffffffffffffffffffffffffffffffffffff82169050919050565b600062ffffff82169050919050565b6000819050919050565b600064ffffffffff82169050919050565b600060ff82169050919050565b60006120e3826120ea565b9050919050565b60006120f5826120fc565b9050919050565b600061210782612081565b9050919050565b6000612119826120a1565b9050919050565b600061212b826120ba565b9050919050565b82818337600083830152505050565b60005b8381101561215f578082015181840152602081019050612144565b8381111561216e576000848401525b50505050565b600081016000830180612186816122dc565b905061219281846124c9565b5050506000810160208301806121a7816122dc565b90506121b381846124ec565b5050506000810160408301806121c8816122f2565b90506121d4818461250f565b5050505050565b6121e48261233f565b810181811067ffffffffffffffff8211171561220357612202612299565b5b80604052505050565b7f4e487b7100000000000000000000000000000000000000000000000000000000600052601160045260246000fd5b7f4e487b7100000000000000000000000000000000000000000000000000000000600052601260045260246000fd5b7f4e487b7100000000000000000000000000000000000000000000000000000000600052602160045260246000fd5b7f4e487b7100000000000000000000000000000000000000000000000000000000600052604160045260246000fd5b6000819050919050565b6000819050919050565b600081356122e981612587565b80915050919050565b600081356122ff816125b5565b80915050919050565b600080fd5b600080fd5b600080fd5b600080fd5b600080fd5b600080fd5b600080fd5b600080fd5b600080fd5b600080fd5b600080fd5b6000601f19601f8301169050919050565b60008160001b9050919050565b60008160181b9050919050565b60008160301b9050919050565b7f416464726573733a20696e73756666696369656e742062616c616e636520666f60008201527f722063616c6c0000000000000000000000000000000000000000000000000000602082015250565b50565b7f416464726573733a2063616c6c20746f206e6f6e2d636f6e7472616374000000600082015250565b7f5361666545524332303a204552433230206f7065726174696f6e20646964206e60008201527f6f74207375636365656400000000000000000000000000000000000000000000602082015250565b600062ffffff61245084612350565b9350801983169250808416831791505092915050565b600065ffffff0000006124788461235d565b9350801983169250808416831791505092915050565b60006affffffffff0000000000006124a58461236a565b9350801983169250808416831791505092915050565b6124c58282612174565b5050565b6124d28261210e565b6124e56124de826122c8565b8354612441565b8255505050565b6124f58261210e565b612508612501826122c8565b8354612466565b8255505050565b61251882612120565b61252b612524826122d2565b835461248e565b8255505050565b61253b81612059565b811461254657600080fd5b50565b6125528161206b565b811461255d57600080fd5b50565b61256981612077565b811461257457600080fd5b50565b6005811061258457600080fd5b50565b612590816120a1565b811461259b57600080fd5b50565b6125a7816120b0565b81146125b257600080fd5b50565b6125be816120ba565b81146125c957600080fd5b50565b6125d5816120cb565b81146125e057600080fd5b5056fea264697066735822122031ac4031844aca48ea9908c89f114992c6d73ae3010f174da4cfc4e585e0198264736f6c63430008070033",
  "linkReferences": {},
  "deployedLinkReferences": {}
}